{
  "contractName": "Owned",
  "abi": [
    {
      "constant": true,
      "inputs": [],
      "name": "owner",
      "outputs": [
        {
          "name": "",
          "type": "address"
        }
      ],
      "payable": false,
      "stateMutability": "view",
      "type": "function"
    },
    {
      "inputs": [],
      "payable": false,
      "stateMutability": "nonpayable",
      "type": "constructor"
    }
  ],
  "bytecode": "0x6080604052606060405190810160405280602c81526020017f4f6e6c79207468652064417070206f776e65722063616e20706572666f726d2081526020017f7468697320616374696f6e2e0000000000000000000000000000000000000000815250600190805190602001906100769291906100c9565b5034801561008357600080fd5b50336000806101000a81548173ffffffffffffffffffffffffffffffffffffffff021916908373ffffffffffffffffffffffffffffffffffffffff16021790555061016e565b828054600181600116156101000203166002900490600052602060002090601f016020900481019282601f1061010a57805160ff1916838001178555610138565b82800160010185558215610138579182015b8281111561013757825182559160200191906001019061011c565b5b5090506101459190610149565b5090565b61016b91905b8082111561016757600081600090555060010161014f565b5090565b90565b60e98061017c6000396000f3fe608060405260043610603f576000357c0100000000000000000000000000000000000000000000000000000000900463ffffffff1680638da5cb5b146044575b600080fd5b348015604f57600080fd5b5060566098565b604051808273ffffffffffffffffffffffffffffffffffffffff1673ffffffffffffffffffffffffffffffffffffffff16815260200191505060405180910390f35b6000809054906101000a900473ffffffffffffffffffffffffffffffffffffffff168156fea165627a7a7230582003dc13d42d99c36bbb5ebb4e6e5a462591d6014e72a559648ee42eb45f4b00680029",
  "source": "pragma solidity ^0.5.0;\n\n\n/**\n * @title Owned\n * @dev This contract provides owner power\n */\ncontract Owned {\n  address public owner;\n  string ownerFailureStatement = \"Only the dApp owner can perform this action.\";\n\n  constructor() public {\n    // set contract deployer as dApp owner\n    owner = msg.sender;\n  }\n}\n",
  "sourcePath": "/home/cmdlucas/blockchain-dev/consensys-project/online-marketplace-dapp/contracts/user/Owned.sol",
  "compiler": {
    "name": "solc",
    "version": "0.5.0+commit.1d4f565a.Emscripten.clang"
  },
  "schemaVersion": "3.0.9",
  "updatedAt": "2019-07-07T06:24:27.985Z",
  "devdoc": {
    "details": "This contract provides owner power",
    "methods": {},
    "title": "Owned"
  },
  "userdoc": {
    "methods": {}
  }
}