{
  "contractName": "PurchaseManager",
  "abi": [
    {
      "inputs": [
        {
          "name": "_ui",
          "type": "address"
        },
        {
          "name": "_sm",
          "type": "address"
        }
      ],
      "payable": false,
      "stateMutability": "nonpayable",
      "type": "constructor"
    },
    {
      "anonymous": false,
      "inputs": [
        {
          "indexed": false,
          "name": "status",
          "type": "int8"
        },
        {
          "indexed": false,
          "name": "statement",
          "type": "string"
        }
      ],
      "name": "ActionDone",
      "type": "event"
    },
    {
      "constant": false,
      "inputs": [
        {
          "name": "_pid",
          "type": "uint256"
        },
        {
          "name": "_qty",
          "type": "uint256"
        },
        {
          "name": "_sFID",
          "type": "uint256"
        }
      ],
      "name": "buyProduct",
      "outputs": [],
      "payable": true,
      "stateMutability": "payable",
      "type": "function"
    },
    {
      "constant": false,
      "inputs": [
        {
          "name": "sum",
          "type": "uint256"
        }
      ],
      "name": "withdrawFunds",
      "outputs": [],
      "payable": false,
      "stateMutability": "nonpayable",
      "type": "function"
    },
    {
      "constant": true,
      "inputs": [],
      "name": "checkStoreOwnerBalance",
      "outputs": [
        {
          "name": "bal",
          "type": "uint256"
        }
      ],
      "payable": false,
      "stateMutability": "view",
      "type": "function"
    },
    {
      "constant": false,
      "inputs": [],
      "name": "toggleContractActive",
      "outputs": [],
      "payable": false,
      "stateMutability": "nonpayable",
      "type": "function"
    }
  ],
  "bytecode": "0x608060405260008060006101000a81548160ff02191690831515021790555034801561002a57600080fd5b506040516040806112ea8339810180604052604081101561004a57600080fd5b810190808051906020019092919080519060200190929190505050600060028190555081600060016101000a81548173ffffffffffffffffffffffffffffffffffffffff021916908373ffffffffffffffffffffffffffffffffffffffff16021790555080600160006101000a81548173ffffffffffffffffffffffffffffffffffffffff021916908373ffffffffffffffffffffffffffffffffffffffff16021790555050506111ea806101006000396000f3fe608060405260043610610062576000357c0100000000000000000000000000000000000000000000000000000000900463ffffffff1680631385d24c14610067578063155dd5ee1461007e578063beff9577146100b9578063dc2d99c1146100fb575b600080fd5b34801561007357600080fd5b5061007c610126565b005b34801561008a57600080fd5b506100b7600480360360208110156100a157600080fd5b81019080803590602001909291905050506102ba565b005b6100f9600480360360608110156100cf57600080fd5b81019080803590602001909291908035906020019092919080359060200190929190505050610631565b005b34801561010757600080fd5b50610110610f63565b6040518082815260200191505060405180910390f35b600060019054906101000a900473ffffffffffffffffffffffffffffffffffffffff1673ffffffffffffffffffffffffffffffffffffffff16634cf8097e336040518263ffffffff167c0100000000000000000000000000000000000000000000000000000000028152600401808273ffffffffffffffffffffffffffffffffffffffff1673ffffffffffffffffffffffffffffffffffffffff16815260200191505060206040518083038186803b1580156101e157600080fd5b505afa1580156101f5573d6000803e3d6000fd5b505050506040513d602081101561020b57600080fd5b81019080805190602001909291905050501515610290576040517f08c379a000000000000000000000000000000000000000000000000000000000815260040180806020018281038252601a8152602001807f4f6e6c7920617070206f776e65722063616e20646f207468697300000000000081525060200191505060405180910390fd5b6000809054906101000a900460ff16156000806101000a81548160ff021916908315150217905550565b600060019054906101000a900473ffffffffffffffffffffffffffffffffffffffff1673ffffffffffffffffffffffffffffffffffffffff1663ff0c2085336040518263ffffffff167c0100000000000000000000000000000000000000000000000000000000028152600401808273ffffffffffffffffffffffffffffffffffffffff1673ffffffffffffffffffffffffffffffffffffffff16815260200191505060206040518083038186803b15801561037557600080fd5b505afa158015610389573d6000803e3d6000fd5b505050506040513d602081101561039f57600080fd5b81019080805190602001909291905050501515610424576040517f08c379a000000000000000000000000000000000000000000000000000000000815260040180806020018281038252601c8152602001807f4f6e6c792073686f70206f776e6572732063616e20646f20746869730000000081525060200191505060405180910390fd5b6000600360003373ffffffffffffffffffffffffffffffffffffffff1673ffffffffffffffffffffffffffffffffffffffff1681526020019081526020016000205490506000821115156104e0576040517f08c379a00000000000000000000000000000000000000000000000000000000081526004018080602001828103825260188152602001807f53756d2072657175657374656420697320746f6f206c6f77000000000000000081525060200191505060405180910390fd5b60008282031015151561055b576040517f08c379a000000000000000000000000000000000000000000000000000000000815260040180806020018281038252601d8152602001807f42616c616e636520746f6f206c6f7720666f7220746869732073756d2e00000081525060200191505060405180910390fd5b6000600360003373ffffffffffffffffffffffffffffffffffffffff1673ffffffffffffffffffffffffffffffffffffffff168152602001908152602001600020819055503373ffffffffffffffffffffffffffffffffffffffff166108fc839081150290604051600060405180830381858888f193505050501580156105e6573d6000803e3d6000fd5b50818103600360003373ffffffffffffffffffffffffffffffffffffffff1673ffffffffffffffffffffffffffffffffffffffff168152602001908152602001600020819055505050565b6000809054906101000a900460ff161515610f5e57600080600080600160009054906101000a900473ffffffffffffffffffffffffffffffffffffffff1673ffffffffffffffffffffffffffffffffffffffff1663780bd3f1886040518263ffffffff167c01000000000000000000000000000000000000000000000000000000000281526004018082815260200191505060006040518083038186803b1580156106db57600080fd5b505afa1580156106ef573d6000803e3d6000fd5b505050506040513d6000823e3d601f19601f8201168201806040525060e081101561071957600080fd5b8101908080519060200190929190805190602001909291908051906020019092919080519060200190929190805164010000000081111561075957600080fd5b8281019050602081018481111561076f57600080fd5b815185600182028301116401000000008211171561078c57600080fd5b505092919060200180516401000000008111156107a857600080fd5b828101905060208101848111156107be57600080fd5b81518560018202830111640100000000821117156107db57600080fd5b5050929190602001805190602001909291905050509650505094509450945050811515610870576040517f08c379a000000000000000000000000000000000000000000000000000000000815260040180806020018281038252600f8152602001807f496e76616c69642070726f64756374000000000000000000000000000000000081525060200191505060405180910390fd5b82861115151561090e576040517f08c379a00000000000000000000000000000000000000000000000000000000081526004018080602001828103825260238152602001807f506c656173652072657669657720746865207175616e746974792064656d616e81526020017f646564000000000000000000000000000000000000000000000000000000000081525060400191505060405180910390fd5b600080600160009054906101000a900473ffffffffffffffffffffffffffffffffffffffff1673ffffffffffffffffffffffffffffffffffffffff1663fd5e943a886040518263ffffffff167c01000000000000000000000000000000000000000000000000000000000281526004018082815260200191505060006040518083038186803b1580156109a057600080fd5b505afa1580156109b4573d6000803e3d6000fd5b505050506040513d6000823e3d601f19601f8201168201806040525060808110156109de57600080fd5b8101908080519060200190929190805190602001909291908051640100000000811115610a0a57600080fd5b82810190506020810184811115610a2057600080fd5b8151856001820283011164010000000082111715610a3d57600080fd5b505092919060200180519060200190929190505050505091509150801515610acd576040517f08c379a00000000000000000000000000000000000000000000000000000000081526004018080602001828103825260138152602001807f496e76616c69642073746f72652066726f6e740000000000000000000000000081525060200191505060405180910390fd5b6000600360008573ffffffffffffffffffffffffffffffffffffffff1673ffffffffffffffffffffffffffffffffffffffff16815260200190815260200160002054905060006004600085815260200190815260200160002054905060008a8902905060008b8a02111515610bd0576040517f08c379a000000000000000000000000000000000000000000000000000000000815260040180806020018281038252602e8152602001807f42616e6b206f766572666c6f772e20576520617265206e6f206d6f726520726581526020017f63656976696e67206d6f6e65792e00000000000000000000000000000000000081525060400191505060405180910390fd5b348111151515610c6e576040517f08c379a00000000000000000000000000000000000000000000000000000000081526004018080602001828103825260288152602001807f596f752063616e277420706179206c657373207468616e20746865207265717581526020017f697265642073756d00000000000000000000000000000000000000000000000081525060400191505060405180910390fd5b6000818401111515610d0e576040517f08c379a00000000000000000000000000000000000000000000000000000000081526004018080602001828103825260368152602001807f42616e6b206f766572666c6f772e2053746f7265206f776e6572206973206e6f81526020017f206d6f726520726563656976696e67206d6f6e65792e0000000000000000000081525060400191505060405180910390fd5b60003460025401111515610db0576040517f08c379a000000000000000000000000000000000000000000000000000000000815260040180806020018281038252602e8152602001807f42616e6b206f766572666c6f772e20576520617265206e6f206d6f726520726581526020017f63656976696e67206d6f6e65792e00000000000000000000000000000000000081525060400191505060405180910390fd5b808301600360008873ffffffffffffffffffffffffffffffffffffffff1673ffffffffffffffffffffffffffffffffffffffff1681526020019081526020016000208190555060008183011115610e1c5780820160046000878152602001908152602001600020819055505b3460025401600281905550610e656040805190810160405280601d81526020017f5375636365737366756c6c79207061696420666f722070726f64756374000000815250611113565b600160009054906101000a900473ffffffffffffffffffffffffffffffffffffffff1673ffffffffffffffffffffffffffffffffffffffff16635ea1ee04878e8c8f8d036040518563ffffffff167c0100000000000000000000000000000000000000000000000000000000028152600401808573ffffffffffffffffffffffffffffffffffffffff1673ffffffffffffffffffffffffffffffffffffffff168152602001848152602001838152602001828152602001945050505050600060405180830381600087803b158015610f3c57600080fd5b505af1158015610f50573d6000803e3d6000fd5b505050505050505050505050505b505050565b60008060019054906101000a900473ffffffffffffffffffffffffffffffffffffffff1673ffffffffffffffffffffffffffffffffffffffff1663ff0c2085336040518263ffffffff167c0100000000000000000000000000000000000000000000000000000000028152600401808273ffffffffffffffffffffffffffffffffffffffff1673ffffffffffffffffffffffffffffffffffffffff16815260200191505060206040518083038186803b15801561101f57600080fd5b505afa158015611033573d6000803e3d6000fd5b505050506040513d602081101561104957600080fd5b810190808051906020019092919050505015156110ce576040517f08c379a000000000000000000000000000000000000000000000000000000000815260040180806020018281038252601c8152602001807f4f6e6c792073686f70206f776e6572732063616e20646f20746869730000000081525060200191505060405180910390fd5b600360003373ffffffffffffffffffffffffffffffffffffffff1673ffffffffffffffffffffffffffffffffffffffff16815260200190815260200160002054905090565b7f73e8d12a7b1137bf3268a42d52951e3ffbdee6d9518c4747fdb0c20f16bf6fa4600182604051808360000b815260200180602001828103825283818151815260200191508051906020019080838360005b83811015611180578082015181840152602081019050611165565b50505050905090810190601f1680156111ad5780820380516001836020036101000a031916815260200191505b50935050505060405180910390a15056fea165627a7a72305820d0981dadd99fd38932672752c9b50bc30acbfe86ed533e79073e0b9de9591ec20029",
  "source": "pragma solidity ^0.5.0;\nimport { UserIdentity } from '../user/UserIdentity.sol';\nimport { EmitsEvent } from '../event/EmitsEvent.sol';\nimport { StoreManager } from './StoreManager.sol';\nimport { StoreExtractor } from '../_libs/StoreExtractor.sol';\n\n/**\n * @title PurchaseManager\n * @dev Manage all store purchases here\n */\ncontract PurchaseManager is EmitsEvent\n{\n  // allow contract to be deactivated when necessary\n  bool private stopped = false;\n\n  // allow identification of user\n  UserIdentity ui;\n  // allow store and product access\n  StoreManager sm;\n\n  uint ourFunds;\n\n  // map store owner address to accumulated funds\n  mapping(address => uint) userFunds;\n\n  // map store front id to funds collected\n  mapping(uint => uint) storeFrontFunds;\n\n  modifier isOwner {\n    // require that the caller is a shop owner\n    require(ui.fnIsOwner(msg.sender), \"Only app owner can do this\"); _;\n  }\n\n  modifier isShopOwner {\n    // require that the caller is a shop owner\n    require(ui.fnIsShopOwner(msg.sender), \"Only shop owners can do this\"); _;\n  }\n  \n  // force execution to stop in emergency\n  modifier stopInEmergency { if (!stopped) _; }\n  \n  // only allow execution in emergency\n  modifier onlyInEmergency { if (stopped) _; }\n\n  constructor(address _ui, address _sm) public \n  {\n    ourFunds = 0;\n    ui = UserIdentity(_ui);\n    sm = StoreManager(_sm);\n  }\n\n  /**\n   * @dev allow shoppers to buy a product by paying ether\n   */\n  function buyProduct(uint _pid, uint _qty, uint _sFID) public payable stopInEmergency\n  {\n    ( \n      , uint _price, uint prodQty, bool prodActive, , , address productOwner\n    ) = sm.product(_pid);\n\n    // confirm that the product is valid\n    require(prodActive, \"Invalid product\");\n    // confirm that the quantity demanded is available\n    require(_qty <= prodQty, \"Please review the quantity demanded\");\n    \n    ( uint sfid, bool storeActive, , ) = sm.storeFront(_sFID);\n\n    // confirm that the store is valid\n    require(storeActive, \"Invalid store front\");\n\n    // get current funds total belonging to user\n    uint _soFunds = userFunds[productOwner];\n\n    // get current funds total belonging to store\n    uint _sfFunds = storeFrontFunds[sfid];\n\n    uint price = _price * _qty;\n\n    // prevent integer overflow\n    require(_price * _qty > 0, \"Bank overflow. We are no more receiving money.\");\n    // force buyer to pay at least the exact price\n    require(price <= msg.value, \"You can't pay less than the required sum\");\n    // prevent integer overflow\n    require(_soFunds + price > 0, \"Bank overflow. Store owner is no more receiving money.\");\n    // prevent integer overflow\n    require(ourFunds + msg.value > 0, \"Bank overflow. We are no more receiving money.\");\n\n    // add funds to store owner\n    userFunds[productOwner] = _soFunds + price;\n\n    // metadata: increment the total funds collected by store if within integer range\n    if(_sfFunds + price > 0) {\n      // add funds to store front\n      storeFrontFunds[sfid] = _sfFunds + price;\n    }\n\n    // add transferred funds to our fund base so that we are taking any leftovers\n    ourFunds = ourFunds + msg.value;\n\n    // emit success event\n    emitActionSuccess(\"Successfully paid for product\");\n\n    // update product's details\n    sm.productUpdater(productOwner, _pid, _price, prodQty - _qty);\n  }\n\n  /**\n   * @dev allow a store owner to retrieve funds from a store\n   */\n  function withdrawFunds(uint sum) public isShopOwner\n  {\n    // current store owner balance\n    uint currBal = userFunds[msg.sender];\n\n    // do not allow a zero sum to be withdrawn\n    require(sum > 0, \"Sum requested is too low\");\n    // confirm that store owner has sufficient balance\n    require(currBal - sum >= 0, \"Balance too low for this sum.\");\n\n    // prevent re-entrancy attack by setting user funds to zero;\n    userFunds[msg.sender] = 0;\n\n    // send funds to user\n    msg.sender.transfer(sum);\n\n    // set user funds to the right balance\n    userFunds[msg.sender] = currBal - sum;\n  }\n\n  /**\n   * @dev allow store owner check their balance\n   */\n  function checkStoreOwnerBalance() public view isShopOwner\n        returns (uint bal)\n  {\n    bal = userFunds[msg.sender];\n  }\n\n  /**\n   * @dev Force contract to stop on emergency\n   */\n  function toggleContractActive() public isOwner {\n    // toggle contract active state\n    stopped = !stopped;\n  }\n\n}\n",
  "sourcePath": "/home/cmdlucas/blockchain-dev/consensys-project/online-marketplace-dapp/contracts/store/PurchaseManager.sol",
  "compiler": {
    "name": "solc",
    "version": "0.5.0+commit.1d4f565a.Emscripten.clang"
  },
  "schemaVersion": "3.0.9",
  "updatedAt": "2019-07-08T19:31:13.733Z",
  "devdoc": {
    "details": "Manage all store purchases here",
    "methods": {
      "buyProduct(uint256,uint256,uint256)": {
        "details": "allow shoppers to buy a product by paying ether"
      },
      "checkStoreOwnerBalance()": {
        "details": "allow store owner check their balance"
      },
      "toggleContractActive()": {
        "details": "Force contract to stop on emergency"
      },
      "withdrawFunds(uint256)": {
        "details": "allow a store owner to retrieve funds from a store"
      }
    },
    "title": "PurchaseManager"
  },
  "userdoc": {
    "methods": {}
  }
}