{
  "contractName": "SimpleStorage",
  "abi": [
    {
      "constant": false,
      "inputs": [
        {
          "name": "x",
          "type": "uint256"
        }
      ],
      "name": "set",
      "outputs": [],
      "payable": false,
      "stateMutability": "nonpayable",
      "type": "function"
    },
    {
      "constant": false,
      "inputs": [
        {
          "name": "x",
          "type": "uint256"
        },
        {
          "name": "y",
          "type": "uint256"
        }
      ],
      "name": "setMap",
      "outputs": [
        {
          "name": "",
          "type": "uint256"
        }
      ],
      "payable": false,
      "stateMutability": "nonpayable",
      "type": "function"
    },
    {
      "constant": true,
      "inputs": [],
      "name": "get",
      "outputs": [
        {
          "name": "",
          "type": "uint256"
        }
      ],
      "payable": false,
      "stateMutability": "view",
      "type": "function"
    },
    {
      "constant": true,
      "inputs": [
        {
          "name": "x",
          "type": "uint256"
        }
      ],
      "name": "getMap",
      "outputs": [
        {
          "name": "",
          "type": "uint256"
        }
      ],
      "payable": false,
      "stateMutability": "view",
      "type": "function"
    }
  ],
  "bytecode": "0x608060405234801561001057600080fd5b506101d9806100206000396000f3fe608060405260043610610062576000357c0100000000000000000000000000000000000000000000000000000000900463ffffffff168063025799f01461006757806360fe47b1146100b65780636c4668ea146100f15780636d4ce63c14610136575b600080fd5b34801561007357600080fd5b506100a06004803603602081101561008a57600080fd5b8101908080359060200190929190505050610161565b6040518082815260200191505060405180910390f35b3480156100c257600080fd5b506100ef600480360360208110156100d957600080fd5b810190808035906020019092919050505061017e565b005b3480156100fd57600080fd5b506101346004803603604081101561011457600080fd5b810190808035906020019092919080359060200190929190505050610188565b005b34801561014257600080fd5b5061014b6101a4565b6040518082815260200191505060405180910390f35b600060016000838152602001908152602001600020549050919050565b8060008190555050565b8060016000848152602001908152602001600020819055505050565b6000805490509056fea165627a7a7230582078a0a675c7f27fbcdbb5b68ded92774697d950bf4b4d7aa1f0df7bc0952d86200029",
  "source": "pragma solidity ^0.5.0;\n\ncontract SimpleStorage {\n  uint storedData;\n\n  mapping(uint => uint) map;\n\n  function set(uint x) public {\n    storedData = x;\n  }\n\n  function setMap(uint x, uint y) public {\n    map[x] = y;\n  }\n\n  function get() public view returns (uint) {\n    return storedData;\n  }\n\n  function getMap(uint x) public view returns (uint) {\n    return map[x];\n  }\n}\n",
  "sourcePath": "/home/cmdlucas/blockchain-dev/consensys-project/online-marketplace-dapp/contracts/SimpleStorage.sol",
  "compiler": {
    "name": "solc",
    "version": "0.5.0+commit.1d4f565a.Emscripten.clang"
  },
  "schemaVersion": "3.0.9",
  "updatedAt": "2019-06-17T12:51:36.830Z",
  "devdoc": {
    "methods": {}
  },
  "userdoc": {
    "methods": {}
  }
}