{
  "contractName": "StoreManager",
  "abi": [
    {
      "constant": true,
      "inputs": [],
      "name": "prodCount",
      "outputs": [
        {
          "name": "",
          "type": "uint256"
        }
      ],
      "payable": false,
      "stateMutability": "view",
      "type": "function"
    },
    {
      "constant": true,
      "inputs": [
        {
          "name": "",
          "type": "uint256"
        }
      ],
      "name": "product",
      "outputs": [
        {
          "name": "id",
          "type": "uint256"
        },
        {
          "name": "price",
          "type": "uint256"
        },
        {
          "name": "qty",
          "type": "uint256"
        },
        {
          "name": "active",
          "type": "bool"
        },
        {
          "name": "name",
          "type": "string"
        },
        {
          "name": "imageId",
          "type": "string"
        },
        {
          "name": "productOwner",
          "type": "address"
        }
      ],
      "payable": false,
      "stateMutability": "view",
      "type": "function"
    },
    {
      "constant": true,
      "inputs": [
        {
          "name": "",
          "type": "uint256"
        }
      ],
      "name": "storeFrontProductsActive",
      "outputs": [
        {
          "name": "",
          "type": "uint256"
        }
      ],
      "payable": false,
      "stateMutability": "view",
      "type": "function"
    },
    {
      "constant": true,
      "inputs": [
        {
          "name": "",
          "type": "uint256"
        }
      ],
      "name": "sFIDs",
      "outputs": [
        {
          "name": "",
          "type": "uint256"
        }
      ],
      "payable": false,
      "stateMutability": "view",
      "type": "function"
    },
    {
      "constant": true,
      "inputs": [
        {
          "name": "",
          "type": "uint256"
        },
        {
          "name": "",
          "type": "uint256"
        }
      ],
      "name": "storeFrontProducts",
      "outputs": [
        {
          "name": "",
          "type": "uint256"
        }
      ],
      "payable": false,
      "stateMutability": "view",
      "type": "function"
    },
    {
      "constant": true,
      "inputs": [
        {
          "name": "",
          "type": "address"
        },
        {
          "name": "",
          "type": "uint256"
        }
      ],
      "name": "oMap",
      "outputs": [
        {
          "name": "",
          "type": "uint256"
        }
      ],
      "payable": false,
      "stateMutability": "view",
      "type": "function"
    },
    {
      "constant": true,
      "inputs": [
        {
          "name": "",
          "type": "uint256"
        }
      ],
      "name": "storeFront",
      "outputs": [
        {
          "name": "id",
          "type": "uint256"
        },
        {
          "name": "active",
          "type": "bool"
        },
        {
          "name": "name",
          "type": "string"
        },
        {
          "name": "storeOwner",
          "type": "address"
        }
      ],
      "payable": false,
      "stateMutability": "view",
      "type": "function"
    },
    {
      "inputs": [
        {
          "name": "_ui",
          "type": "address"
        }
      ],
      "payable": false,
      "stateMutability": "nonpayable",
      "type": "constructor"
    },
    {
      "anonymous": false,
      "inputs": [
        {
          "indexed": false,
          "name": "status",
          "type": "int8"
        },
        {
          "indexed": false,
          "name": "statement",
          "type": "string"
        }
      ],
      "name": "ActionDone",
      "type": "event"
    },
    {
      "constant": false,
      "inputs": [
        {
          "name": "name",
          "type": "string"
        }
      ],
      "name": "createStoreFront",
      "outputs": [
        {
          "name": "newIndex",
          "type": "uint256"
        }
      ],
      "payable": false,
      "stateMutability": "nonpayable",
      "type": "function"
    },
    {
      "constant": false,
      "inputs": [
        {
          "name": "_sFID",
          "type": "uint256"
        },
        {
          "name": "_price",
          "type": "uint256"
        },
        {
          "name": "_qty",
          "type": "uint256"
        },
        {
          "name": "_name",
          "type": "string"
        },
        {
          "name": "_imageId",
          "type": "string"
        }
      ],
      "name": "addProduct",
      "outputs": [
        {
          "name": "newIndex",
          "type": "uint256"
        }
      ],
      "payable": false,
      "stateMutability": "nonpayable",
      "type": "function"
    },
    {
      "constant": false,
      "inputs": [
        {
          "name": "_sender",
          "type": "address"
        },
        {
          "name": "_prodId",
          "type": "uint256"
        },
        {
          "name": "_price",
          "type": "uint256"
        },
        {
          "name": "_qty",
          "type": "uint256"
        }
      ],
      "name": "productUpdater",
      "outputs": [],
      "payable": false,
      "stateMutability": "nonpayable",
      "type": "function"
    },
    {
      "constant": false,
      "inputs": [
        {
          "name": "_sfid",
          "type": "uint256"
        },
        {
          "name": "_prodId",
          "type": "uint256"
        },
        {
          "name": "status",
          "type": "bool"
        }
      ],
      "name": "productActivator",
      "outputs": [],
      "payable": false,
      "stateMutability": "nonpayable",
      "type": "function"
    },
    {
      "constant": false,
      "inputs": [
        {
          "name": "_sFID",
          "type": "uint256"
        },
        {
          "name": "status",
          "type": "bool"
        }
      ],
      "name": "storeFrontActivator",
      "outputs": [],
      "payable": false,
      "stateMutability": "nonpayable",
      "type": "function"
    },
    {
      "constant": true,
      "inputs": [
        {
          "name": "_storeOwner",
          "type": "address"
        },
        {
          "name": "from",
          "type": "uint256"
        },
        {
          "name": "to",
          "type": "uint256"
        }
      ],
      "name": "getStoreFronts",
      "outputs": [
        {
          "name": "",
          "type": "uint256[]"
        },
        {
          "name": "",
          "type": "uint256[]"
        },
        {
          "name": "",
          "type": "bool[]"
        },
        {
          "name": "",
          "type": "bytes32[]"
        }
      ],
      "payable": false,
      "stateMutability": "view",
      "type": "function"
    },
    {
      "constant": true,
      "inputs": [
        {
          "name": "from",
          "type": "uint256"
        },
        {
          "name": "to",
          "type": "uint256"
        }
      ],
      "name": "getSomeStoreFronts",
      "outputs": [
        {
          "name": "",
          "type": "uint256[]"
        },
        {
          "name": "",
          "type": "uint256[]"
        },
        {
          "name": "",
          "type": "bool[]"
        },
        {
          "name": "",
          "type": "bytes32[]"
        }
      ],
      "payable": false,
      "stateMutability": "view",
      "type": "function"
    },
    {
      "constant": true,
      "inputs": [
        {
          "name": "_sFID",
          "type": "uint256"
        }
      ],
      "name": "getStoreFrontDetails",
      "outputs": [
        {
          "name": "name",
          "type": "string"
        },
        {
          "name": "active",
          "type": "bool"
        },
        {
          "name": "prodQty",
          "type": "uint256"
        }
      ],
      "payable": false,
      "stateMutability": "view",
      "type": "function"
    },
    {
      "constant": true,
      "inputs": [
        {
          "name": "_sFID",
          "type": "uint256"
        },
        {
          "name": "from",
          "type": "uint256"
        },
        {
          "name": "to",
          "type": "uint256"
        }
      ],
      "name": "getStoreFrontProducts",
      "outputs": [
        {
          "name": "",
          "type": "uint256[]"
        },
        {
          "name": "",
          "type": "uint256[]"
        },
        {
          "name": "",
          "type": "uint256[]"
        },
        {
          "name": "",
          "type": "bool[]"
        },
        {
          "name": "",
          "type": "bytes32[]"
        }
      ],
      "payable": false,
      "stateMutability": "view",
      "type": "function"
    },
    {
      "constant": true,
      "inputs": [
        {
          "name": "_prodId",
          "type": "uint256"
        }
      ],
      "name": "getProductDetails",
      "outputs": [
        {
          "name": "price",
          "type": "uint256"
        },
        {
          "name": "qty",
          "type": "uint256"
        },
        {
          "name": "active",
          "type": "bool"
        },
        {
          "name": "name",
          "type": "string"
        },
        {
          "name": "imageId",
          "type": "string"
        }
      ],
      "payable": false,
      "stateMutability": "view",
      "type": "function"
    }
  ],
  "bytecode": "0x608060405234801561001057600080fd5b50604051602080612d908339810180604052602081101561003057600080fd5b8101908080519060200190929190505050806000806101000a81548173ffffffffffffffffffffffffffffffffffffffff021916908373ffffffffffffffffffffffffffffffffffffffff16021790555050612cff806100916000396000f3fe6080604052600436106100f1576000357c0100000000000000000000000000000000000000000000000000000000900463ffffffff168063017e19a3146100f657806309d0df32146101215780632fc826bd146102b3578063401c20031461038f57806341e17574146103d65780635ea1ee041461049c5780636813b53b1461050b578063780bd3f1146106445780638254ab40146107b757806392158b86146108065780639498b474146108555780639ee129e8146108ae5780639f90cf2114610a72578063acec337a14610be4578063b3e7677014610d75578063cb58a17614610de4578063fd5e943a14610e35575b600080fd5b34801561010257600080fd5b5061010b610f2e565b6040518082815260200191505060405180910390f35b34801561012d57600080fd5b506101846004803603606081101561014457600080fd5b81019080803573ffffffffffffffffffffffffffffffffffffffff1690602001909291908035906020019092919080359060200190929190505050610f34565b6040518080602001806020018060200180602001858103855289818151815260200191508051906020019060200280838360005b838110156101d35780820151818401526020810190506101b8565b50505050905001858103845288818151815260200191508051906020019060200280838360005b838110156102155780820151818401526020810190506101fa565b50505050905001858103835287818151815260200191508051906020019060200280838360005b8381101561025757808201518184015260208101905061023c565b50505050905001858103825286818151815260200191508051906020019060200280838360005b8381101561029957808201518184015260208101905061027e565b505050509050019850505050505050505060405180910390f35b3480156102bf57600080fd5b50610379600480360360208110156102d657600080fd5b81019080803590602001906401000000008111156102f357600080fd5b82018360208201111561030557600080fd5b8035906020019184600183028401116401000000008311171561032757600080fd5b91908080601f016020809104026020016040519081016040528093929190818152602001838380828437600081840152601f19601f820116905080830192505050505050509192919290505050611039565b6040518082815260200191505060405180910390f35b34801561039b57600080fd5b506103d4600480360360408110156103b257600080fd5b810190808035906020019092919080351515906020019092919050505061138a565b005b3480156103e257600080fd5b5061040f600480360360208110156103f957600080fd5b8101908080359060200190929190505050611497565b604051808060200184151515158152602001838152602001828103825285818151815260200191508051906020019080838360005b8381101561045f578082015181840152602081019050610444565b50505050905090810190601f16801561048c5780820380516001836020036101000a031916815260200191505b5094505050505060405180910390f35b3480156104a857600080fd5b50610509600480360360808110156104bf57600080fd5b81019080803573ffffffffffffffffffffffffffffffffffffffff169060200190929190803590602001909291908035906020019092919080359060200190929190505050611599565b005b34801561051757600080fd5b506105446004803603602081101561052e57600080fd5b8101908080359060200190929190505050611744565b60405180868152602001858152602001841515151581526020018060200180602001838103835285818151815260200191508051906020019080838360005b8381101561059e578082015181840152602081019050610583565b50505050905090810190601f1680156105cb5780820380516001836020036101000a031916815260200191505b50838103825284818151815260200191508051906020019080838360005b838110156106045780820151818401526020810190506105e9565b50505050905090810190601f1680156106315780820380516001836020036101000a031916815260200191505b5097505050505050505060405180910390f35b34801561065057600080fd5b5061067d6004803603602081101561066757600080fd5b810190808035906020019092919050505061191e565b604051808881526020018781526020018681526020018515151515815260200180602001806020018473ffffffffffffffffffffffffffffffffffffffff1673ffffffffffffffffffffffffffffffffffffffff168152602001838103835286818151815260200191508051906020019080838360005b8381101561070f5780820151818401526020810190506106f4565b50505050905090810190601f16801561073c5780820380516001836020036101000a031916815260200191505b50838103825285818151815260200191508051906020019080838360005b8381101561077557808201518184015260208101905061075a565b50505050905090810190601f1680156107a25780820380516001836020036101000a031916815260200191505b50995050505050505050505060405180910390f35b3480156107c357600080fd5b506107f0600480360360208110156107da57600080fd5b8101908080359060200190929190505050611abd565b6040518082815260200191505060405180910390f35b34801561081257600080fd5b5061083f6004803603602081101561082957600080fd5b8101908080359060200190929190505050611ad5565b6040518082815260200191505060405180910390f35b34801561086157600080fd5b506108986004803603604081101561087857600080fd5b810190808035906020019092919080359060200190929190505050611af8565b6040518082815260200191505060405180910390f35b3480156108ba57600080fd5b506108fb600480360360608110156108d157600080fd5b81019080803590602001909291908035906020019092919080359060200190929190505050611b28565b60405180806020018060200180602001806020018060200186810386528b818151815260200191508051906020019060200280838360005b8381101561094e578082015181840152602081019050610933565b5050505090500186810385528a818151815260200191508051906020019060200280838360005b83811015610990578082015181840152602081019050610975565b50505050905001868103845289818151815260200191508051906020019060200280838360005b838110156109d25780820151818401526020810190506109b7565b50505050905001868103835288818151815260200191508051906020019060200280838360005b83811015610a145780820151818401526020810190506109f9565b50505050905001868103825287818151815260200191508051906020019060200280838360005b83811015610a56578082015181840152602081019050610a3b565b505050509050019a505050505050505050505060405180910390f35b348015610a7e57600080fd5b50610ab560048036036040811015610a9557600080fd5b810190808035906020019092919080359060200190929190505050611c04565b6040518080602001806020018060200180602001858103855289818151815260200191508051906020019060200280838360005b83811015610b04578082015181840152602081019050610ae9565b50505050905001858103845288818151815260200191508051906020019060200280838360005b83811015610b46578082015181840152602081019050610b2b565b50505050905001858103835287818151815260200191508051906020019060200280838360005b83811015610b88578082015181840152602081019050610b6d565b50505050905001858103825286818151815260200191508051906020019060200280838360005b83811015610bca578082015181840152602081019050610baf565b505050509050019850505050505050505060405180910390f35b348015610bf057600080fd5b50610d5f600480360360a0811015610c0757600080fd5b8101908080359060200190929190803590602001909291908035906020019092919080359060200190640100000000811115610c4257600080fd5b820183602082011115610c5457600080fd5b80359060200191846001830284011164010000000083111715610c7657600080fd5b91908080601f016020809104026020016040519081016040528093929190818152602001838380828437600081840152601f19601f82011690508083019250505050505050919291929080359060200190640100000000811115610cd957600080fd5b820183602082011115610ceb57600080fd5b80359060200191846001830284011164010000000083111715610d0d57600080fd5b91908080601f016020809104026020016040519081016040528093929190818152602001838380828437600081840152601f19601f820116905080830192505050505050509192919290505050611ccc565b6040518082815260200191505060405180910390f35b348015610d8157600080fd5b50610dce60048036036040811015610d9857600080fd5b81019080803573ffffffffffffffffffffffffffffffffffffffff16906020019092919080359060200190929190505050612005565b6040518082815260200191505060405180910390f35b348015610df057600080fd5b50610e3360048036036060811015610e0757600080fd5b810190808035906020019092919080359060200190929190803515159060200190929190505050612035565b005b348015610e4157600080fd5b50610e6e60048036036020811015610e5857600080fd5b8101908080359060200190929190505050612277565b6040518085815260200184151515158152602001806020018373ffffffffffffffffffffffffffffffffffffffff1673ffffffffffffffffffffffffffffffffffffffff168152602001828103825284818151815260200191508051906020019080838360005b83811015610ef0578082015181840152602081019050610ed5565b50505050905090810190601f168015610f1d5780820380516001836020036101000a031916815260200191505b509550505050505060405180910390f35b60015481565b60608060608060008610158015610f4c575060008510155b8015610f5b5750601986860311155b1515610fcf576040517f08c379a00000000000000000000000000000000000000000000000000000000081526004018080602001828103825260178152602001807f496e76616c69642072616e676520737570706c6965642e00000000000000000081525060200191505060405180910390fd5b611028868660036006600760008d73ffffffffffffffffffffffffffffffffffffffff1673ffffffffffffffffffffffffffffffffffffffff16815260200190815260200160002061236c90949392919063ffffffff16565b935093509350935093509350935093565b60008060009054906101000a900473ffffffffffffffffffffffffffffffffffffffff1673ffffffffffffffffffffffffffffffffffffffff1663ff0c2085336040518263ffffffff167c0100000000000000000000000000000000000000000000000000000000028152600401808273ffffffffffffffffffffffffffffffffffffffff1673ffffffffffffffffffffffffffffffffffffffff16815260200191505060206040518083038186803b1580156110f557600080fd5b505afa158015611109573d6000803e3d6000fd5b505050506040513d602081101561111f57600080fd5b810190808051906020019092919050505015156111a4576040517f08c379a000000000000000000000000000000000000000000000000000000000815260040180806020018281038252601c8152602001807f4f6e6c792073686f70206f776e6572732063616e20646f20746869730000000081525060200191505060405180910390fd5b60028054905090506080604051908101604052808281526020016001151581526020018381526020013373ffffffffffffffffffffffffffffffffffffffff16815250600360008381526020019081526020016000206000820151816000015560208201518160010160006101000a81548160ff0219169083151502179055506040820151816002019080519060200190611240929190612b97565b5060608201518160030160006101000a81548173ffffffffffffffffffffffffffffffffffffffff021916908373ffffffffffffffffffffffffffffffffffffffff160217905550905050600760003373ffffffffffffffffffffffffffffffffffffffff1673ffffffffffffffffffffffffffffffffffffffff1681526020019081526020016000208190806001815401808255809150509060018203906000526020600020016000909192909190915055506002819080600181540180825580915050906001820390600052602060002001600090919290919091505550611385606060405190810160405280602181526020017f53746f72652066726f6e742063726561746564207375636365737366756c6c7981526020017f2e000000000000000000000000000000000000000000000000000000000000008152506126b8565b919050565b813373ffffffffffffffffffffffffffffffffffffffff166003600083815260200190815260200160002060030160009054906101000a900473ffffffffffffffffffffffffffffffffffffffff1673ffffffffffffffffffffffffffffffffffffffff16141515611464576040517f08c379a00000000000000000000000000000000000000000000000000000000081526004018080602001828103825260208152602001807f4f6e6c79207468652073746f7265206f776e65722063616e20646f207468697381525060200191505060405180910390fd5b816003600085815260200190815260200160002060010160006101000a81548160ff021916908315150217905550505050565b6060600080600360008581526020019081526020016000206002018054600181600116156101000203166002900480601f0160208091040260200160405190810160405280929190818152602001828054600181600116156101000203166002900480156115465780601f1061151b57610100808354040283529160200191611546565b820191906000526020600020905b81548152906001019060200180831161152957829003601f168201915b505050505092506003600085815260200190815260200160002060010160009054906101000a900460ff169150600660008581526020019081526020016000205490508282829250925092509193909250565b83833373ffffffffffffffffffffffffffffffffffffffff166004600083815260200190815260200160002060060160009054906101000a900473ffffffffffffffffffffffffffffffffffffffff1673ffffffffffffffffffffffffffffffffffffffff16148061166c57508173ffffffffffffffffffffffffffffffffffffffff166004600083815260200190815260200160002060060160009054906101000a900473ffffffffffffffffffffffffffffffffffffffff1673ffffffffffffffffffffffffffffffffffffffff16145b1515611706576040517f08c379a00000000000000000000000000000000000000000000000000000000081526004018080602001828103825260248152602001807f4f6e6c79207468652070726f647563742773206f776e65722063616e20646f2081526020017f746869730000000000000000000000000000000000000000000000000000000081525060400191505060405180910390fd5b836004600087815260200190815260200160002060010181905550826004600087815260200190815260200160002060020181905550505050505050565b600080600060608060046000878152602001908152602001600020600101549450600460008781526020019081526020016000206002015493506004600087815260200190815260200160002060030160009054906101000a900460ff169250600460008781526020019081526020016000206004018054600181600116156101000203166002900480601f01602080910402602001604051908101604052809291908181526020018280546001816001161561010002031660029004801561184e5780601f106118235761010080835404028352916020019161184e565b820191906000526020600020905b81548152906001019060200180831161183157829003601f168201915b50505050509150600460008781526020019081526020016000206005018054600181600116156101000203166002900480601f0160208091040260200160405190810160405280929190818152602001828054600181600116156101000203166002900480156118ff5780601f106118d4576101008083540402835291602001916118ff565b820191906000526020600020905b8154815290600101906020018083116118e257829003601f168201915b5050505050905084848484849450945094509450945091939590929450565b60046020528060005260406000206000915090508060000154908060010154908060020154908060030160009054906101000a900460ff1690806004018054600181600116156101000203166002900480601f0160208091040260200160405190810160405280929190818152602001828054600181600116156101000203166002900480156119ef5780601f106119c4576101008083540402835291602001916119ef565b820191906000526020600020905b8154815290600101906020018083116119d257829003601f168201915b505050505090806005018054600181600116156101000203166002900480601f016020809104026020016040519081016040528092919081815260200182805460018160011615610100020316600290048015611a8d5780601f10611a6257610100808354040283529160200191611a8d565b820191906000526020600020905b815481529060010190602001808311611a7057829003601f168201915b5050505050908060060160009054906101000a900473ffffffffffffffffffffffffffffffffffffffff16905087565b60066020528060005260406000206000915090505481565b600281815481101515611ae457fe5b906000526020600020016000915090505481565b600560205281600052604060002081815481101515611b1357fe5b90600052602060002001600091509150505481565b606080606080606060008710158015611b42575060008610155b8015611b515750601987870311155b1515611bc5576040517f08c379a00000000000000000000000000000000000000000000000000000000081526004018080602001828103825260178152602001807f496e76616c69642072616e676520737570706c6965642e00000000000000000081525060200191505060405180910390fd5b611bef87876004600560008d8152602001908152602001600020612763909392919063ffffffff16565b94509450945094509450939792965093509350565b60608060608060008610158015611c1c575060008510155b8015611c2b5750601986860311155b1515611c9f576040517f08c379a00000000000000000000000000000000000000000000000000000000081526004018080602001828103825260178152602001807f496e76616c69642072616e676520737570706c6965642e00000000000000000081525060200191505060405180910390fd5b611cbb868660036006600261236c90949392919063ffffffff16565b935093509350935092959194509250565b6000853373ffffffffffffffffffffffffffffffffffffffff166003600083815260200190815260200160002060030160009054906101000a900473ffffffffffffffffffffffffffffffffffffffff1673ffffffffffffffffffffffffffffffffffffffff16141515611da8576040517f08c379a00000000000000000000000000000000000000000000000000000000081526004018080602001828103825260208152602001807f4f6e6c79207468652073746f7265206f776e65722063616e20646f207468697381525060200191505060405180910390fd5b600086111515611e20576040517f08c379a000000000000000000000000000000000000000000000000000000000815260040180806020018281038252601c8152602001807f5072696365206d757374206265206d6f7265207468616e207a65726f0000000081525060200191505060405180910390fd5b600154915060e0604051908101604052808381526020018781526020018681526020016001151581526020018581526020018481526020013373ffffffffffffffffffffffffffffffffffffffff168152506004600084815260200190815260200160002060008201518160000155602082015181600101556040820151816002015560608201518160030160006101000a81548160ff0219169083151502179055506080820151816004019080519060200190611edf929190612b97565b5060a0820151816005019080519060200190611efc929190612b97565b5060c08201518160060160006101000a81548173ffffffffffffffffffffffffffffffffffffffff021916908373ffffffffffffffffffffffffffffffffffffffff1602179055509050506005600088815260200190815260200160002082908060018154018082558091505090600182039060005260206000200160009091929091909150555060056000888152602001908152602001600020805490506006600089815260200190815260200160002081905550611ff06040805190810160405280601d81526020017f50726f647563742063726561746564207375636365737366756c6c792e0000008152506126b8565b60018054016001819055505095945050505050565b60076020528160005260406000208181548110151561202057fe5b90600052602060002001600091509150505481565b33823373ffffffffffffffffffffffffffffffffffffffff166004600083815260200190815260200160002060060160009054906101000a900473ffffffffffffffffffffffffffffffffffffffff1673ffffffffffffffffffffffffffffffffffffffff16148061210857508173ffffffffffffffffffffffffffffffffffffffff166004600083815260200190815260200160002060060160009054906101000a900473ffffffffffffffffffffffffffffffffffffffff1673ffffffffffffffffffffffffffffffffffffffff16145b15156121a2576040517f08c379a00000000000000000000000000000000000000000000000000000000081526004018080602001828103825260248152602001807f4f6e6c79207468652070726f647563742773206f776e65722063616e20646f2081526020017f746869730000000000000000000000000000000000000000000000000000000081525060400191505060405180910390fd5b826004600086815260200190815260200160002060030160006101000a81548160ff021916908315150217905550826121f4576001600560008781526020019081526020016000208054905003612259565b6005600086815260200190815260200160002080549050600660008781526020019081526020016000205410612240576005600086815260200190815260200160002080549050612258565b60016006600087815260200190815260200160002054015b5b60066000878152602001908152602001600020819055505050505050565b60036020528060005260406000206000915090508060000154908060010160009054906101000a900460ff1690806002018054600181600116156101000203166002900480601f01602080910402602001604051908101604052809291908181526020018280546001816001161561010002031660029004801561233c5780601f106123115761010080835404028352916020019161233c565b820191906000526020600020905b81548152906001019060200180831161231f57829003601f168201915b5050505050908060030160009054906101000a900473ffffffffffffffffffffffffffffffffffffffff16905084565b60608060608060008980549050881015612386578761238c565b89805490505b9050600089890390508181116123a257806123a4565b815b90506060816040519080825280602002602001820160405280156123d75781602001602082028038833980820191505090505b50905060608260405190808252806020026020018201604052801561240b5781602001602082028038833980820191505090505b50905060608360405190808252806020026020018201604052801561243f5781602001602082028038833980820191505090505b50905060008d90505b858110156126485760008f8281548110151561246057fe5b90600052602060002001549050612475612c17565b8d600083815260200190815260200160002060806040519081016040529081600082015481526020016001820160009054906101000a900460ff16151515158152602001600282018054600181600116156101000203166002900480601f0160208091040260200160405190810160405280929190818152602001828054600181600116156101000203166002900480156125515780601f1061252657610100808354040283529160200191612551565b820191906000526020600020905b81548152906001019060200180831161253457829003601f168201915b505050505081526020016003820160009054906101000a900473ffffffffffffffffffffffffffffffffffffffff1673ffffffffffffffffffffffffffffffffffffffff1673ffffffffffffffffffffffffffffffffffffffff168152505090506060816040015190506000602082015190508086868151811015156125d357fe5b9060200190602002018181525050826020015187868151811015156125f457fe5b90602001906020020190151590811515815250508e600085815260200190815260200160002054888681518110151561262957fe5b9060200190602002018181525050505050508080600101915050612448565b508d8383838380548060200260200160405190810160405280929190818152602001828054801561269857602002820191906000526020600020905b815481526020019060010190808311612684575b505050505093509850985098509850505050505095509550955095915050565b7f73e8d12a7b1137bf3268a42d52951e3ffbdee6d9518c4747fdb0c20f16bf6fa4600182604051808360000b815260200180602001828103825283818151815260200191508051906020019080838360005b8381101561272557808201518184015260208101905061270a565b50505050905090810190601f1680156127525780820380516001836020036101000a031916815260200191505b50935050505060405180910390a150565b60608060608060606000898054905088101561277f5787612785565b89805490505b90506000898903905081811161279b578061279d565b815b9050806040519080825280602002602001820160405280156127ce5781602001602082028038833980820191505090505b509650806040519080825280602002602001820160405280156128005781602001602082028038833980820191505090505b509550806040519080825280602002602001820160405280156128325781602001602082028038833980820191505090505b509450806040519080825280602002602001820160405280156128645781602001602082028038833980820191505090505b509350806040519080825280602002602001820160405280156128965781602001602082028038833980820191505090505b50925060008a90505b82811015612b895760008c828154811015156128b757fe5b906000526020600020015490506128cc612c58565b8a600083815260200190815260200160002060e060405190810160405290816000820154815260200160018201548152602001600282015481526020016003820160009054906101000a900460ff16151515158152602001600482018054600181600116156101000203166002900480601f0160208091040260200160405190810160405280929190818152602001828054600181600116156101000203166002900480156129bc5780601f10612991576101008083540402835291602001916129bc565b820191906000526020600020905b81548152906001019060200180831161299f57829003601f168201915b50505050508152602001600582018054600181600116156101000203166002900480601f016020809104026020016040519081016040528092919081815260200182805460018160011615610100020316600290048015612a5e5780601f10612a3357610100808354040283529160200191612a5e565b820191906000526020600020905b815481529060010190602001808311612a4157829003601f168201915b505050505081526020016006820160009054906101000a900473ffffffffffffffffffffffffffffffffffffffff1673ffffffffffffffffffffffffffffffffffffffff1673ffffffffffffffffffffffffffffffffffffffff1681525050905080600001518a84815181101515612ad257fe5b906020019060200201818152505080602001518984815181101515612af357fe5b906020019060200201818152505080604001518884815181101515612b1457fe5b906020019060200201818152505080606001518784815181101515612b3557fe5b9060200190602002019015159081151581525050606081608001519050600060208201519050808886815181101515612b6a57fe5b906020019060200201818152505050505050808060010191505061289f565b505050945094509450945094565b828054600181600116156101000203166002900490600052602060002090601f016020900481019282601f10612bd857805160ff1916838001178555612c06565b82800160010185558215612c06579182015b82811115612c05578251825591602001919060010190612bea565b5b509050612c139190612cae565b5090565b6080604051908101604052806000815260200160001515815260200160608152602001600073ffffffffffffffffffffffffffffffffffffffff1681525090565b60e0604051908101604052806000815260200160008152602001600081526020016000151581526020016060815260200160608152602001600073ffffffffffffffffffffffffffffffffffffffff1681525090565b612cd091905b80821115612ccc576000816000905550600101612cb4565b5090565b9056fea165627a7a72305820a9bab441d511fd9e0190b59903288ce5933edeef1263fa2954454a8fb54a2a520029",
  "source": "pragma solidity ^0.5.0;\nimport { UserIdentity } from '../user/UserIdentity.sol';\nimport { EmitsEvent } from '../event/EmitsEvent.sol';\nimport { StoreExtractor } from '../_libs/StoreExtractor.sol';\n\n/**\n * @title StoreManager\n * @dev Manage store activities here\n */\ncontract StoreManager is EmitsEvent \n{\n  // allow identification of user\n  UserIdentity ui;\n\n  // allow extractor to work on arrays of ids\n  using StoreExtractor for uint[];\n  \n  // track product count\n  uint public prodCount;\n\n  // keep track of all the store front by their IDs\n  uint[] public sFIDs;\n\n  // map each storefront to it's content\n  mapping(uint => StoreExtractor.StoreFront) public storeFront;\n\n  // map each product id to it's content\n  mapping(uint => StoreExtractor.Product) public product;\n\n  // map store front to it's products (id)\n  mapping(uint => uint[]) public storeFrontProducts;\n\n  // map store front to active products count\n  mapping(uint => uint) public storeFrontProductsActive;\n\n  // map store owner to their store fronts \n  mapping(address => uint[]) public oMap;\n\n  modifier isShopOwner {\n    // require that the caller is a shop owner\n    require(ui.fnIsShopOwner(msg.sender), \"Only shop owners can do this\"); _;\n  }\n  \n  // restrict access to product\n  modifier ownsProduct(address _sender, uint _prodId) {\n    require(product[_prodId].productOwner == msg.sender || product[_prodId].productOwner == _sender, \n        \"Only the product's owner can do this\"); _;\n  }\n  \n  // restrict access to owner of the store\n  modifier ownsStore(uint _sFID) {\n    require(storeFront[_sFID].storeOwner == msg.sender, \n        \"Only the store owner can do this\"); _;\n  }\n\n  constructor(UserIdentity _ui) public {\n    // allow the identification of users\n    ui = UserIdentity(_ui);\n  }\n\n  /**\n   * @dev Create a new store front\n   */\n  function createStoreFront(string memory name) public isShopOwner returns (uint newIndex)\n  {\n    // create unique ID to use\n    newIndex = sFIDs.length;\n    // add new store front\n    storeFront[newIndex] = StoreExtractor.StoreFront(newIndex, true, name, msg.sender);\n    // add store front to owner's list\n    oMap[msg.sender].push(newIndex);\n    // track all sFIDs\n    sFIDs.push(newIndex);\n    // emit success event\n    emitActionSuccess(\"Store front created successfully.\");\n  }\n\n  /**\n   * @dev Add a new product to a store front\n   */\n  function addProduct(uint _sFID, uint _price, uint _qty, \n          string memory _name, string memory _imageId) public ownsStore(_sFID)\n          returns (uint newIndex)\n  {\n    require(_price > 0, \"Price must be more than zero\");\n    // create unique ID to use\n    newIndex = prodCount;\n    // register product's details\n    product[newIndex] = StoreExtractor.Product(newIndex, _price, _qty, true, _name, _imageId, msg.sender);\n    // add product to store front's list of products\n    storeFrontProducts[_sFID].push(newIndex);\n    storeFrontProductsActive[_sFID] = storeFrontProducts[_sFID].length;\n    // emit success event\n    emitActionSuccess(\"Product created successfully.\");\n    // increment product count\n    prodCount = prodCount + 1;\n  }\n\n   /**\n    * @dev Update a product's details.\n    * @param _sender - allows versatility with function\n    */\n   function productUpdater(address _sender, uint _prodId, uint _price, uint _qty) public \n        ownsProduct(_sender, _prodId)\n   {\n     product[_prodId].price = _price;\n     product[_prodId].qty = _qty;\n   }\n\n   /**\n    * @dev Mark a product as (de)activated.\n    */\n   function productActivator(uint _sfid, uint _prodId, bool status) public ownsProduct(msg.sender, _prodId)\n   {\n     // update product status\n     product[_prodId].active = status;\n     // update store product's count\n    storeFrontProductsActive[_sfid] = status \n          ? (\n              storeFrontProductsActive[_sfid] < storeFrontProducts[_sfid].length \n              ? storeFrontProductsActive[_sfid] + 1  \n              : storeFrontProducts[_sfid].length\n            )\n          : storeFrontProducts[_sfid].length - 1;\n   }\n\n   /**\n    * @dev Mark a store front as (de)activated.\n    */\n   function storeFrontActivator(uint _sFID, bool status) public ownsStore(_sFID)\n   {\n     storeFront[_sFID].active = status;\n   }\n\n  /**\n   * @dev Get store fronts for a shop owner\n   * @return sFID[], name[], prodQty[]\n   */\n  function getStoreFronts(address _storeOwner, uint from, uint to) public view \n        returns (uint[] memory, uint[] memory, bool[] memory, bytes32[] memory)\n  {\n    // cover range\n    require(from >= 0 && to >= 0 && to - from <= 25, \"Invalid range supplied.\");\n    // return store owner's store fronts data using extractor library\n    return oMap[_storeOwner].extractStoreFronts(from, to, storeFront, storeFrontProductsActive);\n  }\n\n  /**\n   * @dev Get some store fronts by range\n   * @return sFID[], name[], prodQty[]\n   */\n  function getSomeStoreFronts(uint from, uint to) public view \n        returns (uint[] memory, uint[] memory, bool[] memory, bytes32[] memory)\n  {\n    // cover range\n    require(from >= 0 && to >= 0 && to - from <= 25, \"Invalid range supplied.\");\n    // return store fronts data using extractor library\n    return sFIDs.extractStoreFronts(from, to, storeFront, storeFrontProductsActive);\n  }\n\n  /**\n   * @dev Get all store fronts\n   * @return sFID[], name[], prodQty[]\n   * todo:: remove this function in future to prevent DoS attack\n   */\n  function getAllStoreFronts() internal view \n        returns (uint[] memory, uint[] memory, bool[] memory, bytes32[] memory)\n  {\n    // return store fronts data using extractor library\n    return sFIDs.extractStoreFronts(0, sFIDs.length, storeFront, storeFrontProductsActive);    \n  }\n\n  /**\n   * @dev Get store front details\n   * @return (string, bool, uint)\n   */\n  function getStoreFrontDetails(uint _sFID) public view\n         returns (string memory name, bool active, uint prodQty)\n  {\n    name = storeFront[_sFID].name;\n    active = storeFront[_sFID].active;\n    prodQty = storeFrontProductsActive[_sFID];\n    return (name, active, prodQty);\n  }\n\n  /**\n   * @dev Get the products in a store front\n   */\n  function getStoreFrontProducts(uint _sFID, uint from, uint to) public view\n        returns (uint[] memory, uint[] memory, uint[] memory, \n        bool[] memory, bytes32[] memory)\n  {\n    // cover range\n    require(from >= 0 && to >= 0 && to - from <= 25, \"Invalid range supplied.\");\n    // return a tuple of arrays of product props\n    return storeFrontProducts[_sFID].extractProducts(from, to, product);\n  }\n\n  /**\n   * @dev Get store front details\n   */\n   function getProductDetails(uint _prodId) public view\n         returns (uint price, uint qty, bool active, string memory name, string memory imageId)\n   {\n     price = product[_prodId].price;\n     qty = product[_prodId].qty;\n     active = product[_prodId].active;\n     name = product[_prodId].name;\n     imageId = product[_prodId].imageId;\n     return (price, qty, active, name, imageId);\n   }\n  \n}\n",
  "sourcePath": "/home/cmdlucas/blockchain-dev/consensys-project/online-marketplace-dapp/contracts/store/StoreManager.sol",
  "compiler": {
    "name": "solc",
    "version": "0.5.0+commit.1d4f565a.Emscripten.clang"
  },
  "schemaVersion": "3.0.9",
  "updatedAt": "2019-07-08T13:28:46.492Z",
  "devdoc": {
    "details": "Manage store activities here",
    "methods": {
      "addProduct(uint256,uint256,uint256,string,string)": {
        "details": "Add a new product to a store front"
      },
      "createStoreFront(string)": {
        "details": "Create a new store front"
      },
      "getProductDetails(uint256)": {
        "details": "Get store front details"
      },
      "getSomeStoreFronts(uint256,uint256)": {
        "details": "Get some store fronts by range",
        "return": "sFID[], name[], prodQty[]"
      },
      "getStoreFrontDetails(uint256)": {
        "details": "Get store front details",
        "return": "(string, bool, uint)"
      },
      "getStoreFrontProducts(uint256,uint256,uint256)": {
        "details": "Get the products in a store front"
      },
      "getStoreFronts(address,uint256,uint256)": {
        "details": "Get store fronts for a shop owner",
        "return": "sFID[], name[], prodQty[]"
      },
      "productActivator(uint256,uint256,bool)": {
        "details": "Mark a product as (de)activated."
      },
      "productUpdater(address,uint256,uint256,uint256)": {
        "details": "Update a product's details.",
        "params": {
          "_sender": "- allows versatility with function"
        }
      },
      "storeFrontActivator(uint256,bool)": {
        "details": "Mark a store front as (de)activated."
      }
    },
    "title": "StoreManager"
  },
  "userdoc": {
    "methods": {}
  }
}