{
  "contractName": "StoreManager",
  "abi": [
    {
      "constant": true,
      "inputs": [],
      "name": "prodCount",
      "outputs": [
        {
          "name": "",
          "type": "uint256"
        }
      ],
      "payable": false,
      "stateMutability": "view",
      "type": "function"
    },
    {
      "constant": true,
      "inputs": [
        {
          "name": "",
          "type": "uint256"
        }
      ],
      "name": "sFIDs",
      "outputs": [
        {
          "name": "",
          "type": "uint256"
        }
      ],
      "payable": false,
      "stateMutability": "view",
      "type": "function"
    },
    {
      "inputs": [
        {
          "name": "_ui",
          "type": "address"
        }
      ],
      "payable": false,
      "stateMutability": "nonpayable",
      "type": "constructor"
    },
    {
      "anonymous": false,
      "inputs": [
        {
          "indexed": false,
          "name": "status",
          "type": "int8"
        },
        {
          "indexed": false,
          "name": "statement",
          "type": "string"
        }
      ],
      "name": "ActionDone",
      "type": "event"
    },
    {
      "constant": false,
      "inputs": [
        {
          "name": "name",
          "type": "string"
        }
      ],
      "name": "createStoreFront",
      "outputs": [
        {
          "name": "newIndex",
          "type": "uint256"
        }
      ],
      "payable": false,
      "stateMutability": "nonpayable",
      "type": "function"
    },
    {
      "constant": false,
      "inputs": [
        {
          "name": "_sFID",
          "type": "uint256"
        },
        {
          "name": "_price",
          "type": "uint256"
        },
        {
          "name": "_qty",
          "type": "uint256"
        },
        {
          "name": "_name",
          "type": "string"
        },
        {
          "name": "_imageId",
          "type": "string"
        }
      ],
      "name": "addProduct",
      "outputs": [
        {
          "name": "newIndex",
          "type": "uint256"
        }
      ],
      "payable": false,
      "stateMutability": "nonpayable",
      "type": "function"
    },
    {
      "constant": false,
      "inputs": [
        {
          "name": "_prodId",
          "type": "uint256"
        },
        {
          "name": "_price",
          "type": "uint256"
        },
        {
          "name": "_qty",
          "type": "uint256"
        }
      ],
      "name": "productUpdater",
      "outputs": [],
      "payable": false,
      "stateMutability": "nonpayable",
      "type": "function"
    },
    {
      "constant": false,
      "inputs": [
        {
          "name": "_prodId",
          "type": "uint256"
        },
        {
          "name": "status",
          "type": "bool"
        }
      ],
      "name": "productActivator",
      "outputs": [],
      "payable": false,
      "stateMutability": "nonpayable",
      "type": "function"
    },
    {
      "constant": false,
      "inputs": [
        {
          "name": "_sFID",
          "type": "uint256"
        },
        {
          "name": "status",
          "type": "bool"
        }
      ],
      "name": "storeFrontActivator",
      "outputs": [],
      "payable": false,
      "stateMutability": "nonpayable",
      "type": "function"
    },
    {
      "constant": true,
      "inputs": [
        {
          "name": "_storeOwner",
          "type": "address"
        }
      ],
      "name": "getStoreFronts",
      "outputs": [
        {
          "name": "",
          "type": "uint256[]"
        },
        {
          "name": "",
          "type": "uint256[]"
        },
        {
          "name": "",
          "type": "bool[]"
        },
        {
          "name": "",
          "type": "bytes32[]"
        }
      ],
      "payable": false,
      "stateMutability": "view",
      "type": "function"
    },
    {
      "constant": true,
      "inputs": [],
      "name": "getAllStoreFronts",
      "outputs": [
        {
          "name": "",
          "type": "uint256[]"
        },
        {
          "name": "",
          "type": "uint256[]"
        },
        {
          "name": "",
          "type": "bool[]"
        },
        {
          "name": "",
          "type": "bytes32[]"
        }
      ],
      "payable": false,
      "stateMutability": "view",
      "type": "function"
    },
    {
      "constant": true,
      "inputs": [
        {
          "name": "_sFID",
          "type": "uint256"
        }
      ],
      "name": "getStoreFrontDetails",
      "outputs": [
        {
          "name": "name",
          "type": "string"
        },
        {
          "name": "active",
          "type": "bool"
        },
        {
          "name": "prodQty",
          "type": "uint256"
        }
      ],
      "payable": false,
      "stateMutability": "view",
      "type": "function"
    },
    {
      "constant": true,
      "inputs": [
        {
          "name": "_sFID",
          "type": "uint256"
        }
      ],
      "name": "getStoreFrontProducts",
      "outputs": [
        {
          "name": "",
          "type": "uint256[]"
        },
        {
          "name": "",
          "type": "uint256[]"
        },
        {
          "name": "",
          "type": "uint256[]"
        },
        {
          "name": "",
          "type": "bool[]"
        },
        {
          "name": "",
          "type": "bytes32[]"
        },
        {
          "name": "",
          "type": "bytes32[]"
        }
      ],
      "payable": false,
      "stateMutability": "view",
      "type": "function"
    },
    {
      "constant": true,
      "inputs": [
        {
          "name": "_prodId",
          "type": "uint256"
        }
      ],
      "name": "getProductDetails",
      "outputs": [
        {
          "name": "price",
          "type": "uint256"
        },
        {
          "name": "qty",
          "type": "uint256"
        },
        {
          "name": "active",
          "type": "bool"
        },
        {
          "name": "name",
          "type": "string"
        },
        {
          "name": "imageId",
          "type": "string"
        }
      ],
      "payable": false,
      "stateMutability": "view",
      "type": "function"
    }
  ],
  "bytecode": "0x608060405234801561001057600080fd5b506040516020806122fa8339810180604052602081101561003057600080fd5b8101908080519060200190929190505050806000806101000a81548173ffffffffffffffffffffffffffffffffffffffff021916908373ffffffffffffffffffffffffffffffffffffffff16021790555050612269806100916000396000f3fe6080604052600436106100ba576000357c0100000000000000000000000000000000000000000000000000000000900463ffffffff168063017e19a3146100bf5780632fc826bd146100ea5780633d967a3d146101c6578063401c20031461020d57806341e1757414610254578063611887731461031a5780636813b53b1461045e5780638f00922d1461059757806392158b86146105e6578063acec337a14610635578063cfd175c4146107c6578063f71db91714610944575b600080fd5b3480156100cb57600080fd5b506100d4610b3c565b6040518082815260200191505060405180910390f35b3480156100f657600080fd5b506101b06004803603602081101561010d57600080fd5b810190808035906020019064010000000081111561012a57600080fd5b82018360208201111561013c57600080fd5b8035906020019184600183028401116401000000008311171561015e57600080fd5b91908080601f016020809104026020016040519081016040528093929190818152602001838380828437600081840152601f19601f820116905080830192505050505050509192919290505050610b42565b6040518082815260200191505060405180910390f35b3480156101d257600080fd5b5061020b600480360360408110156101e957600080fd5b8101908080359060200190929190803515159060200190929190505050610e93565b005b34801561021957600080fd5b506102526004803603604081101561023057600080fd5b8101908080359060200190929190803515159060200190929190505050610fc6565b005b34801561026057600080fd5b5061028d6004803603602081101561027757600080fd5b81019080803590602001909291905050506110d3565b604051808060200184151515158152602001838152602001828103825285818151815260200191508051906020019080838360005b838110156102dd5780820151818401526020810190506102c2565b50505050905090810190601f16801561030a5780820380516001836020036101000a031916815260200191505b5094505050505060405180910390f35b34801561032657600080fd5b5061032f6111d8565b6040518080602001806020018060200180602001858103855289818151815260200191508051906020019060200280838360005b8381101561037e578082015181840152602081019050610363565b50505050905001858103845288818151815260200191508051906020019060200280838360005b838110156103c05780820151818401526020810190506103a5565b50505050905001858103835287818151815260200191508051906020019060200280838360005b838110156104025780820151818401526020810190506103e7565b50505050905001858103825286818151815260200191508051906020019060200280838360005b83811015610444578082015181840152602081019050610429565b505050509050019850505050505050505060405180910390f35b34801561046a57600080fd5b506104976004803603602081101561048157600080fd5b8101908080359060200190929190505050611204565b60405180868152602001858152602001841515151581526020018060200180602001838103835285818151815260200191508051906020019080838360005b838110156104f15780820151818401526020810190506104d6565b50505050905090810190601f16801561051e5780820380516001836020036101000a031916815260200191505b50838103825284818151815260200191508051906020019080838360005b8381101561055757808201518184015260208101905061053c565b50505050905090810190601f1680156105845780820380516001836020036101000a031916815260200191505b5097505050505050505060405180910390f35b3480156105a357600080fd5b506105e4600480360360608110156105ba57600080fd5b810190808035906020019092919080359060200190929190803590602001909291905050506113de565b005b3480156105f257600080fd5b5061061f6004803603602081101561060957600080fd5b810190808035906020019092919050505061151a565b6040518082815260200191505060405180910390f35b34801561064157600080fd5b506107b0600480360360a081101561065857600080fd5b810190808035906020019092919080359060200190929190803590602001909291908035906020019064010000000081111561069357600080fd5b8201836020820111156106a557600080fd5b803590602001918460018302840111640100000000831117156106c757600080fd5b91908080601f016020809104026020016040519081016040528093929190818152602001838380828437600081840152601f19601f8201169050808301925050505050505091929192908035906020019064010000000081111561072a57600080fd5b82018360208201111561073c57600080fd5b8035906020019184600183028401116401000000008311171561075e57600080fd5b91908080601f016020809104026020016040519081016040528093929190818152602001838380828437600081840152601f19601f82011690508083019250505050505050919291929050505061153d565b6040518082815260200191505060405180910390f35b3480156107d257600080fd5b50610815600480360360208110156107e957600080fd5b81019080803573ffffffffffffffffffffffffffffffffffffffff1690602001909291905050506117d0565b6040518080602001806020018060200180602001858103855289818151815260200191508051906020019060200280838360005b83811015610864578082015181840152602081019050610849565b50505050905001858103845288818151815260200191508051906020019060200280838360005b838110156108a657808201518184015260208101905061088b565b50505050905001858103835287818151815260200191508051906020019060200280838360005b838110156108e85780820151818401526020810190506108cd565b50505050905001858103825286818151815260200191508051906020019060200280838360005b8381101561092a57808201518184015260208101905061090f565b505050509050019850505050505050505060405180910390f35b34801561095057600080fd5b5061097d6004803603602081101561096757600080fd5b810190808035906020019092919050505061183a565b6040518080602001806020018060200180602001806020018060200187810387528d818151815260200191508051906020019060200280838360005b838110156109d45780820151818401526020810190506109b9565b5050505090500187810386528c818151815260200191508051906020019060200280838360005b83811015610a165780820151818401526020810190506109fb565b5050505090500187810385528b818151815260200191508051906020019060200280838360005b83811015610a58578082015181840152602081019050610a3d565b5050505090500187810384528a818151815260200191508051906020019060200280838360005b83811015610a9a578082015181840152602081019050610a7f565b50505050905001878103835289818151815260200191508051906020019060200280838360005b83811015610adc578082015181840152602081019050610ac1565b50505050905001878103825288818151815260200191508051906020019060200280838360005b83811015610b1e578082015181840152602081019050610b03565b505050509050019c5050505050505050505050505060405180910390f35b60015481565b60008060009054906101000a900473ffffffffffffffffffffffffffffffffffffffff1673ffffffffffffffffffffffffffffffffffffffff1663ff0c2085336040518263ffffffff167c0100000000000000000000000000000000000000000000000000000000028152600401808273ffffffffffffffffffffffffffffffffffffffff1673ffffffffffffffffffffffffffffffffffffffff16815260200191505060206040518083038186803b158015610bfe57600080fd5b505afa158015610c12573d6000803e3d6000fd5b505050506040513d6020811015610c2857600080fd5b81019080805190602001909291905050501515610cad576040517f08c379a000000000000000000000000000000000000000000000000000000000815260040180806020018281038252601c8152602001807f4f6e6c792073686f70206f776e6572732063616e20646f20746869730000000081525060200191505060405180910390fd5b60028054905090506080604051908101604052808281526020016001151581526020018381526020013373ffffffffffffffffffffffffffffffffffffffff16815250600360008381526020019081526020016000206000820151816000015560208201518160010160006101000a81548160ff0219169083151502179055506040820151816002019080519060200190610d49929190612101565b5060608201518160030160006101000a81548173ffffffffffffffffffffffffffffffffffffffff021916908373ffffffffffffffffffffffffffffffffffffffff160217905550905050600660003373ffffffffffffffffffffffffffffffffffffffff1673ffffffffffffffffffffffffffffffffffffffff1681526020019081526020016000208190806001815401808255809150509060018203906000526020600020016000909192909190915055506002819080600181540180825580915050906001820390600052602060002001600090919290919091505550610e8e606060405190810160405280602181526020017f53746f72652066726f6e742063726561746564207375636365737366756c6c7981526020017f2e0000000000000000000000000000000000000000000000000000000000000081525061187e565b919050565b813373ffffffffffffffffffffffffffffffffffffffff166004600083815260200190815260200160002060060160009054906101000a900473ffffffffffffffffffffffffffffffffffffffff1673ffffffffffffffffffffffffffffffffffffffff16141515610f93576040517f08c379a00000000000000000000000000000000000000000000000000000000081526004018080602001828103825260248152602001807f4f6e6c79207468652070726f647563742773206f776e65722063616e20646f2081526020017f746869730000000000000000000000000000000000000000000000000000000081525060400191505060405180910390fd5b816004600085815260200190815260200160002060030160006101000a81548160ff021916908315150217905550505050565b813373ffffffffffffffffffffffffffffffffffffffff166003600083815260200190815260200160002060030160009054906101000a900473ffffffffffffffffffffffffffffffffffffffff1673ffffffffffffffffffffffffffffffffffffffff161415156110a0576040517f08c379a00000000000000000000000000000000000000000000000000000000081526004018080602001828103825260208152602001807f4f6e6c79207468652073746f7265206f776e65722063616e20646f207468697381525060200191505060405180910390fd5b816003600085815260200190815260200160002060010160006101000a81548160ff021916908315150217905550505050565b6060600080600360008581526020019081526020016000206002018054600181600116156101000203166002900480601f0160208091040260200160405190810160405280929190818152602001828054600181600116156101000203166002900480156111825780601f1061115757610100808354040283529160200191611182565b820191906000526020600020905b81548152906001019060200180831161116557829003601f168201915b505050505092506003600085815260200190815260200160002060010160009054906101000a900460ff169150600560008581526020019081526020016000208054905090508282829250925092509193909250565b6060806060806111f66003600560026119299092919063ffffffff16565b935093509350935090919293565b600080600060608060046000878152602001908152602001600020600101549450600460008781526020019081526020016000206002015493506004600087815260200190815260200160002060030160009054906101000a900460ff169250600460008781526020019081526020016000206004018054600181600116156101000203166002900480601f01602080910402602001604051908101604052809291908181526020018280546001816001161561010002031660029004801561130e5780601f106112e35761010080835404028352916020019161130e565b820191906000526020600020905b8154815290600101906020018083116112f157829003601f168201915b50505050509150600460008781526020019081526020016000206005018054600181600116156101000203166002900480601f0160208091040260200160405190810160405280929190818152602001828054600181600116156101000203166002900480156113bf5780601f10611394576101008083540402835291602001916113bf565b820191906000526020600020905b8154815290600101906020018083116113a257829003601f168201915b5050505050905084848484849450945094509450945091939590929450565b823373ffffffffffffffffffffffffffffffffffffffff166004600083815260200190815260200160002060060160009054906101000a900473ffffffffffffffffffffffffffffffffffffffff1673ffffffffffffffffffffffffffffffffffffffff161415156114de576040517f08c379a00000000000000000000000000000000000000000000000000000000081526004018080602001828103825260248152602001807f4f6e6c79207468652070726f647563742773206f776e65722063616e20646f2081526020017f746869730000000000000000000000000000000000000000000000000000000081525060400191505060405180910390fd5b82600460008681526020019081526020016000206001018190555081600460008681526020019081526020016000206002018190555050505050565b60028181548110151561152957fe5b906000526020600020016000915090505481565b6000853373ffffffffffffffffffffffffffffffffffffffff166003600083815260200190815260200160002060030160009054906101000a900473ffffffffffffffffffffffffffffffffffffffff1673ffffffffffffffffffffffffffffffffffffffff16141515611619576040517f08c379a00000000000000000000000000000000000000000000000000000000081526004018080602001828103825260208152602001807f4f6e6c79207468652073746f7265206f776e65722063616e20646f207468697381525060200191505060405180910390fd5b600154915060e0604051908101604052808381526020018781526020018681526020016001151581526020018581526020018481526020013373ffffffffffffffffffffffffffffffffffffffff168152506004600084815260200190815260200160002060008201518160000155602082015181600101556040820151816002015560608201518160030160006101000a81548160ff02191690831515021790555060808201518160040190805190602001906116d8929190612101565b5060a08201518160050190805190602001906116f5929190612101565b5060c08201518160060160006101000a81548173ffffffffffffffffffffffffffffffffffffffff021916908373ffffffffffffffffffffffffffffffffffffffff160217905550905050600560008881526020019081526020016000208290806001815401808255809150509060018203906000526020600020016000909192909190915055506117bb6040805190810160405280601d81526020017f50726f647563742063726561746564207375636365737366756c6c792e00000081525061187e565b60018054016001819055505095945050505050565b60608060608061182b60036005600660008973ffffffffffffffffffffffffffffffffffffffff1673ffffffffffffffffffffffffffffffffffffffff1681526020019081526020016000206119299092919063ffffffff16565b93509350935093509193509193565b6060806060806060806118696004600560008a8152602001908152602001600020611c6190919063ffffffff16565b95509550955095509550955091939550919395565b7f73e8d12a7b1137bf3268a42d52951e3ffbdee6d9518c4747fdb0c20f16bf6fa4600182604051808360000b815260200180602001828103825283818151815260200191508051906020019080838360005b838110156118eb5780820151818401526020810190506118d0565b50505050905090810190601f1680156119185780820380516001836020036101000a031916815260200191505b50935050505060405180910390a150565b606080606080606087805490506040519080825280602002602001820160405280156119645781602001602082028038833980820191505090505b5090506060888054905060405190808252806020026020018201604052801561199c5781602001602082028038833980820191505090505b509050606089805490506040519080825280602002602001820160405280156119d45781602001602082028038833980820191505090505b50905060008090505b8a80549050811015611bf6576119f1612181565b8a60008d84815481101515611a0257fe5b9060005260206000200154815260200190815260200160002060806040519081016040529081600082015481526020016001820160009054906101000a900460ff16151515158152602001600282018054600181600116156101000203166002900480601f016020809104026020016040519081016040528092919081815260200182805460018160011615610100020316600290048015611ae55780601f10611aba57610100808354040283529160200191611ae5565b820191906000526020600020905b815481529060010190602001808311611ac857829003601f168201915b505050505081526020016003820160009054906101000a900473ffffffffffffffffffffffffffffffffffffffff1673ffffffffffffffffffffffffffffffffffffffff1673ffffffffffffffffffffffffffffffffffffffff16815250509050606081604001519050600060208201519050808585815181101515611b6757fe5b906020019060200201818152505082602001518685815181101515611b8857fe5b90602001906020020190151590811515815250508b60008f86815481101515611bad57fe5b90600052602060002001548152602001908152602001600020805490508785815181101515611bd857fe5b906020019060200201818152505050505080806001019150506119dd565b508983838383805480602002602001604051908101604052809291908181526020018280548015611c4657602002820191906000526020600020905b815481526020019060010190808311611c32575b50505050509350965096509650965050505093509350935093565b60608060608060608060608880549050604051908082528060200260200182016040528015611c9f5781602001602082028038833980820191505090505b50905060608980549050604051908082528060200260200182016040528015611cd75781602001602082028038833980820191505090505b50905060608a80549050604051908082528060200260200182016040528015611d0f5781602001602082028038833980820191505090505b50905060608b80549050604051908082528060200260200182016040528015611d475781602001602082028038833980820191505090505b50905060608c80549050604051908082528060200260200182016040528015611d7f5781602001602082028038833980820191505090505b50905060608d80549050604051908082528060200260200182016040528015611db75781602001602082028038833980820191505090505b50905060008090505b8e805490508110156120de5760008f82815481101515611ddc57fe5b90600052602060002001549050611df16121c2565b8f600083815260200190815260200160002060e060405190810160405290816000820154815260200160018201548152602001600282015481526020016003820160009054906101000a900460ff16151515158152602001600482018054600181600116156101000203166002900480601f016020809104026020016040519081016040528092919081815260200182805460018160011615610100020316600290048015611ee15780601f10611eb657610100808354040283529160200191611ee1565b820191906000526020600020905b815481529060010190602001808311611ec457829003601f168201915b50505050508152602001600582018054600181600116156101000203166002900480601f016020809104026020016040519081016040528092919081815260200182805460018160011615610100020316600290048015611f835780601f10611f5857610100808354040283529160200191611f83565b820191906000526020600020905b815481529060010190602001808311611f6657829003601f168201915b505050505081526020016006820160009054906101000a900473ffffffffffffffffffffffffffffffffffffffff1673ffffffffffffffffffffffffffffffffffffffff1673ffffffffffffffffffffffffffffffffffffffff1681525050905080600001518984815181101515611ff757fe5b90602001906020020181815250508060200151888481518110151561201857fe5b90602001906020020181815250508060400151878481518110151561203957fe5b90602001906020020181815250508060600151868481518110151561205a57fe5b906020019060200201901515908115158152505060608160800151905060608260a00151905060008060208401519150602083015190508189888151811015156120a057fe5b90602001906020020181815250508088888151811015156120bd57fe5b90602001906020020181815250505050505050508080600101915050611dc0565b508585858585859b509b509b509b509b509b505050505050509295509295509295565b828054600181600116156101000203166002900490600052602060002090601f016020900481019282601f1061214257805160ff1916838001178555612170565b82800160010185558215612170579182015b8281111561216f578251825591602001919060010190612154565b5b50905061217d9190612218565b5090565b6080604051908101604052806000815260200160001515815260200160608152602001600073ffffffffffffffffffffffffffffffffffffffff1681525090565b60e0604051908101604052806000815260200160008152602001600081526020016000151581526020016060815260200160608152602001600073ffffffffffffffffffffffffffffffffffffffff1681525090565b61223a91905b8082111561223657600081600090555060010161221e565b5090565b9056fea165627a7a72305820374395f4930a145dbfbdd35342fdfec37473d9f8b3964d651342dc40a96e8f6e0029",
  "source": "pragma solidity ^0.5.0;\nimport { UserIdentity } from '../user/UserIdentity.sol';\nimport { EmitsEvent } from '../event/EmitsEvent.sol';\nimport { StoreExtractor } from '../_libs/StoreExtractor.sol';\n\n/**\n * @title StoreManager\n * @dev Manage store activities here\n * todo:: determine the maximum limit to fetch to prevent a DoS attack\n */\ncontract StoreManager is EmitsEvent {\n  // allow identification of user\n  UserIdentity ui;\n  // allow extractor to work on arrays of ids\n  using StoreExtractor for uint[];\n  \n  // track product count\n  uint public prodCount;\n\n  // keep track of all the store front by their IDs\n  uint[] public sFIDs;\n\n  // map each storefront to it's content\n  mapping(uint => StoreExtractor.StoreFront) storeFront;\n\n  // map each product id to it's content\n  mapping(uint => StoreExtractor.Product) product;\n\n  // map store front to it's products (id)\n  mapping(uint => uint[]) storeFrontProducts;\n\n  // map store owner to their store fronts \n  mapping(address => uint[]) oMap;\n\n  modifier isShopOwner {\n    // require that the caller is a shop owner\n    require(ui.fnIsShopOwner(msg.sender), \"Only shop owners can do this\"); _;\n  }\n  \n  // restrict access to product\n  modifier ownsProduct(uint _prodId) {\n    require(product[_prodId].productOwner == msg.sender, \n        \"Only the product's owner can do this\"); _;\n  }\n  \n  // restrict access to owner of the store\n  modifier ownsStore(uint _sFID) {\n    require(storeFront[_sFID].storeOwner == msg.sender, \n        \"Only the store owner can do this\"); _;\n  }\n\n  constructor(UserIdentity _ui) public {\n    // allow the identification of users\n    ui = UserIdentity(_ui);\n  }\n\n  /**\n   * @dev Create a new store front\n   */\n  function createStoreFront(string memory name) public isShopOwner returns (uint newIndex)\n  {\n    // create unique ID to use\n    newIndex = sFIDs.length;\n    // todo:: ensure that we are within range of allowed store fronts\n    // add new store front\n    storeFront[newIndex] = StoreExtractor.StoreFront(newIndex, true, name, msg.sender);\n    // add store front to owner's list\n    oMap[msg.sender].push(newIndex);\n    // track all sFIDs\n    sFIDs.push(newIndex);\n    // emit success event\n    emitActionSuccess(\"Store front created successfully.\");\n  }\n\n  /**\n   * @dev Add a new product to a store front\n   */\n  function addProduct(uint _sFID, uint _price, uint _qty, \n          string memory _name, string memory _imageId) public ownsStore(_sFID) \n          returns (uint newIndex)\n  {\n    // create unique ID to use\n    newIndex = prodCount;\n    // register product's details\n    product[newIndex] = StoreExtractor.Product(newIndex, _price, _qty, true, _name, _imageId, msg.sender);\n    // add product to store front's list of products\n    storeFrontProducts[_sFID].push(newIndex);\n    // emit success event\n    emitActionSuccess(\"Product created successfully.\");\n    // increment product count\n    prodCount = prodCount + 1;\n  }\n\n   /**\n    * @dev Update a product's details.\n    */\n   function productUpdater(uint _prodId, uint _price, uint _qty) public ownsProduct(_prodId)\n   {\n     product[_prodId].price = _price;\n     product[_prodId].qty = _qty;\n   }\n\n   /**\n    * @dev Mark a product as (de)activated.\n    */\n   function productActivator(uint _prodId, bool status) public ownsProduct(_prodId)\n   {\n     product[_prodId].active = status;\n   }\n\n   /**\n    * @dev Mark a store front as (de)activated.\n    */\n   function storeFrontActivator(uint _sFID, bool status) public ownsStore(_sFID)\n   {\n     storeFront[_sFID].active = status;\n   }\n\n  /**\n   * @dev Get store fronts for a shop owner\n   * todo:: see todo at contract's head\n   * @return sFID[], name[], prodQty[]\n   */\n  function getStoreFronts(address _storeOwner) public view \n        returns (uint[] memory, uint[] memory, bool[] memory, bytes32[] memory)\n  {\n    // return store owner's store fronts data using extractor library\n    return oMap[_storeOwner].extractStoreFronts(storeFront, storeFrontProducts); \n  }\n\n  /**\n   * @dev Get all store fronts\n   * @return sFID[], name[], prodQty[]\n   */\n  function getAllStoreFronts() public view \n        returns (uint[] memory, uint[] memory, bool[] memory, bytes32[] memory)\n  {\n    // return store fronts data using extractor library\n    return sFIDs.extractStoreFronts(storeFront, storeFrontProducts);    \n  }\n\n  /**\n   * @dev Get store front details\n   * @return sFID[], name[], prodQty[]\n   */\n   function getStoreFrontDetails(uint _sFID) public view\n         returns (string memory name, bool active, uint prodQty)\n   {\n     name = storeFront[_sFID].name;\n     active = storeFront[_sFID].active;\n     prodQty = storeFrontProducts[_sFID].length;\n     return (name, active, prodQty);\n   }\n\n  /**\n   * @dev Get the products in a store front\n   */\n  function getStoreFrontProducts(uint _sFID) public view\n        returns (uint[] memory, uint[] memory, uint[] memory, \n        bool[] memory, bytes32[] memory, bytes32[] memory)\n  {\n    // return a tuple of arrays of product props\n    return storeFrontProducts[_sFID].extractProducts(product);\n  }\n\n  /**\n   * @dev Get store front details\n   */\n   function getProductDetails(uint _prodId) public view\n         returns (uint price, uint qty, bool active, string memory name, string memory imageId)\n   {\n     price = product[_prodId].price;\n     qty = product[_prodId].qty;\n     active = product[_prodId].active;\n     name = product[_prodId].name;\n     imageId = product[_prodId].imageId;\n     return (price, qty, active, name, imageId);\n   }\n  \n}\n",
  "sourcePath": "/home/cmdlucas/blockchain-dev/consensys-project/online-marketplace-dapp/contracts/store/StoreManager.sol",
  "compiler": {
    "name": "solc",
    "version": "0.5.0+commit.1d4f565a.Emscripten.clang"
  },
  "schemaVersion": "3.0.9",
  "updatedAt": "2019-07-04T22:23:47.238Z",
  "devdoc": {
    "details": "Manage store activities here todo:: determine the maximum limit to fetch to prevent a DoS attack",
    "methods": {
      "addProduct(uint256,uint256,uint256,string,string)": {
        "details": "Add a new product to a store front"
      },
      "createStoreFront(string)": {
        "details": "Create a new store front"
      },
      "getAllStoreFronts()": {
        "details": "Get all store fronts",
        "return": "sFID[], name[], prodQty[]"
      },
      "getProductDetails(uint256)": {
        "details": "Get store front details"
      },
      "getStoreFrontDetails(uint256)": {
        "details": "Get store front details",
        "return": "sFID[], name[], prodQty[]"
      },
      "getStoreFrontProducts(uint256)": {
        "details": "Get the products in a store front"
      },
      "getStoreFronts(address)": {
        "details": "Get store fronts for a shop owner todo:: see todo at contract's head",
        "return": "sFID[], name[], prodQty[]"
      },
      "productActivator(uint256,bool)": {
        "details": "Mark a product as (de)activated."
      },
      "productUpdater(uint256,uint256,uint256)": {
        "details": "Update a product's details."
      },
      "storeFrontActivator(uint256,bool)": {
        "details": "Mark a store front as (de)activated."
      }
    },
    "title": "StoreManager"
  },
  "userdoc": {
    "methods": {}
  }
}