{
  "contractName": "StoreManager",
  "abi": [
    {
      "constant": true,
      "inputs": [],
      "name": "prodCount",
      "outputs": [
        {
          "name": "",
          "type": "uint256"
        }
      ],
      "payable": false,
      "stateMutability": "view",
      "type": "function"
    },
    {
      "constant": true,
      "inputs": [
        {
          "name": "",
          "type": "uint256"
        }
      ],
      "name": "sFIDs",
      "outputs": [
        {
          "name": "",
          "type": "uint256"
        }
      ],
      "payable": false,
      "stateMutability": "view",
      "type": "function"
    },
    {
      "inputs": [
        {
          "name": "_ui",
          "type": "address"
        }
      ],
      "payable": false,
      "stateMutability": "nonpayable",
      "type": "constructor"
    },
    {
      "anonymous": false,
      "inputs": [
        {
          "indexed": false,
          "name": "status",
          "type": "int8"
        },
        {
          "indexed": false,
          "name": "statement",
          "type": "string"
        }
      ],
      "name": "ActionDone",
      "type": "event"
    },
    {
      "constant": false,
      "inputs": [
        {
          "name": "name",
          "type": "string"
        }
      ],
      "name": "createStoreFront",
      "outputs": [
        {
          "name": "newIndex",
          "type": "uint256"
        }
      ],
      "payable": false,
      "stateMutability": "nonpayable",
      "type": "function"
    },
    {
      "constant": false,
      "inputs": [
        {
          "name": "_sFID",
          "type": "uint256"
        },
        {
          "name": "_price",
          "type": "uint256"
        },
        {
          "name": "_qty",
          "type": "uint256"
        },
        {
          "name": "_name",
          "type": "string"
        },
        {
          "name": "_imageId",
          "type": "string"
        }
      ],
      "name": "addProduct",
      "outputs": [
        {
          "name": "newIndex",
          "type": "uint256"
        }
      ],
      "payable": false,
      "stateMutability": "nonpayable",
      "type": "function"
    },
    {
      "constant": false,
      "inputs": [
        {
          "name": "_prodId",
          "type": "uint256"
        },
        {
          "name": "_price",
          "type": "uint256"
        },
        {
          "name": "_qty",
          "type": "uint256"
        }
      ],
      "name": "productUpdater",
      "outputs": [],
      "payable": false,
      "stateMutability": "nonpayable",
      "type": "function"
    },
    {
      "constant": false,
      "inputs": [
        {
          "name": "_prodId",
          "type": "uint256"
        },
        {
          "name": "status",
          "type": "bool"
        }
      ],
      "name": "productActivator",
      "outputs": [],
      "payable": false,
      "stateMutability": "nonpayable",
      "type": "function"
    },
    {
      "constant": false,
      "inputs": [
        {
          "name": "_sFID",
          "type": "uint256"
        },
        {
          "name": "status",
          "type": "bool"
        }
      ],
      "name": "storeFrontActivator",
      "outputs": [],
      "payable": false,
      "stateMutability": "nonpayable",
      "type": "function"
    },
    {
      "constant": true,
      "inputs": [
        {
          "name": "_storeOwner",
          "type": "address"
        },
        {
          "name": "from",
          "type": "uint256"
        },
        {
          "name": "to",
          "type": "uint256"
        }
      ],
      "name": "getStoreFronts",
      "outputs": [
        {
          "name": "",
          "type": "uint256[]"
        },
        {
          "name": "",
          "type": "uint256[]"
        },
        {
          "name": "",
          "type": "bool[]"
        },
        {
          "name": "",
          "type": "bytes32[]"
        }
      ],
      "payable": false,
      "stateMutability": "view",
      "type": "function"
    },
    {
      "constant": true,
      "inputs": [
        {
          "name": "from",
          "type": "uint256"
        },
        {
          "name": "to",
          "type": "uint256"
        }
      ],
      "name": "getSomeStoreFronts",
      "outputs": [
        {
          "name": "",
          "type": "uint256[]"
        },
        {
          "name": "",
          "type": "uint256[]"
        },
        {
          "name": "",
          "type": "bool[]"
        },
        {
          "name": "",
          "type": "bytes32[]"
        }
      ],
      "payable": false,
      "stateMutability": "view",
      "type": "function"
    },
    {
      "constant": true,
      "inputs": [
        {
          "name": "_sFID",
          "type": "uint256"
        }
      ],
      "name": "getStoreFrontDetails",
      "outputs": [
        {
          "name": "name",
          "type": "string"
        },
        {
          "name": "active",
          "type": "bool"
        },
        {
          "name": "prodQty",
          "type": "uint256"
        },
        {
          "name": "",
          "type": "bytes32[]"
        }
      ],
      "payable": false,
      "stateMutability": "view",
      "type": "function"
    },
    {
      "constant": true,
      "inputs": [
        {
          "name": "_sFID",
          "type": "uint256"
        },
        {
          "name": "from",
          "type": "uint256"
        },
        {
          "name": "to",
          "type": "uint256"
        }
      ],
      "name": "getStoreFrontProducts",
      "outputs": [
        {
          "name": "",
          "type": "uint256[]"
        },
        {
          "name": "",
          "type": "uint256[]"
        },
        {
          "name": "",
          "type": "uint256[]"
        },
        {
          "name": "",
          "type": "bool[]"
        },
        {
          "name": "",
          "type": "bytes32[]"
        }
      ],
      "payable": false,
      "stateMutability": "view",
      "type": "function"
    },
    {
      "constant": true,
      "inputs": [
        {
          "name": "_prodId",
          "type": "uint256"
        },
        {
          "name": "from",
          "type": "uint256"
        },
        {
          "name": "to",
          "type": "uint256"
        }
      ],
      "name": "getProductDetails",
      "outputs": [
        {
          "name": "price",
          "type": "uint256"
        },
        {
          "name": "qty",
          "type": "uint256"
        },
        {
          "name": "active",
          "type": "bool"
        },
        {
          "name": "name",
          "type": "string"
        },
        {
          "name": "imageId",
          "type": "string"
        },
        {
          "name": "",
          "type": "bytes32[]"
        }
      ],
      "payable": false,
      "stateMutability": "view",
      "type": "function"
    },
    {
      "constant": true,
      "inputs": [
        {
          "name": "_prodId",
          "type": "uint256"
        }
      ],
      "name": "getProductDetails",
      "outputs": [
        {
          "name": "price",
          "type": "uint256"
        },
        {
          "name": "qty",
          "type": "uint256"
        },
        {
          "name": "active",
          "type": "bool"
        },
        {
          "name": "name",
          "type": "string"
        },
        {
          "name": "imageId",
          "type": "string"
        }
      ],
      "payable": false,
      "stateMutability": "view",
      "type": "function"
    }
  ],
  "bytecode": "0x608060405234801561001057600080fd5b5060405160208061247f8339810180604052602081101561003057600080fd5b8101908080519060200190929190505050806000806101000a81548173ffffffffffffffffffffffffffffffffffffffff021916908373ffffffffffffffffffffffffffffffffffffffff160217905550506123ee806100916000396000f3fe6080604052600436106100ba576000357c0100000000000000000000000000000000000000000000000000000000900463ffffffff168063017e19a3146100bf57806309d0df32146100ea5780632fc826bd1461027c5780633d967a3d14610358578063401c20031461039f57806341e17574146103e65780636813b53b146104ac5780638f00922d146105e557806392158b86146106345780639ee129e8146106835780639f90cf2114610847578063acec337a146109b9575b600080fd5b3480156100cb57600080fd5b506100d4610b4a565b6040518082815260200191505060405180910390f35b3480156100f657600080fd5b5061014d6004803603606081101561010d57600080fd5b81019080803573ffffffffffffffffffffffffffffffffffffffff1690602001909291908035906020019092919080359060200190929190505050610b50565b6040518080602001806020018060200180602001858103855289818151815260200191508051906020019060200280838360005b8381101561019c578082015181840152602081019050610181565b50505050905001858103845288818151815260200191508051906020019060200280838360005b838110156101de5780820151818401526020810190506101c3565b50505050905001858103835287818151815260200191508051906020019060200280838360005b83811015610220578082015181840152602081019050610205565b50505050905001858103825286818151815260200191508051906020019060200280838360005b83811015610262578082015181840152602081019050610247565b505050509050019850505050505050505060405180910390f35b34801561028857600080fd5b506103426004803603602081101561029f57600080fd5b81019080803590602001906401000000008111156102bc57600080fd5b8201836020820111156102ce57600080fd5b803590602001918460018302840111640100000000831117156102f057600080fd5b91908080601f016020809104026020016040519081016040528093929190818152602001838380828437600081840152601f19601f820116905080830192505050505050509192919290505050610c55565b6040518082815260200191505060405180910390f35b34801561036457600080fd5b5061039d6004803603604081101561037b57600080fd5b8101908080359060200190929190803515159060200190929190505050610fa6565b005b3480156103ab57600080fd5b506103e4600480360360408110156103c257600080fd5b81019080803590602001909291908035151590602001909291905050506110d9565b005b3480156103f257600080fd5b5061041f6004803603602081101561040957600080fd5b81019080803590602001909291905050506111e6565b604051808060200184151515158152602001838152602001828103825285818151815260200191508051906020019080838360005b8381101561046f578082015181840152602081019050610454565b50505050905090810190601f16801561049c5780820380516001836020036101000a031916815260200191505b5094505050505060405180910390f35b3480156104b857600080fd5b506104e5600480360360208110156104cf57600080fd5b81019080803590602001909291905050506112eb565b60405180868152602001858152602001841515151581526020018060200180602001838103835285818151815260200191508051906020019080838360005b8381101561053f578082015181840152602081019050610524565b50505050905090810190601f16801561056c5780820380516001836020036101000a031916815260200191505b50838103825284818151815260200191508051906020019080838360005b838110156105a557808201518184015260208101905061058a565b50505050905090810190601f1680156105d25780820380516001836020036101000a031916815260200191505b5097505050505050505060405180910390f35b3480156105f157600080fd5b506106326004803603606081101561060857600080fd5b810190808035906020019092919080359060200190929190803590602001909291905050506114c5565b005b34801561064057600080fd5b5061066d6004803603602081101561065757600080fd5b8101908080359060200190929190505050611601565b6040518082815260200191505060405180910390f35b34801561068f57600080fd5b506106d0600480360360608110156106a657600080fd5b81019080803590602001909291908035906020019092919080359060200190929190505050611624565b60405180806020018060200180602001806020018060200186810386528b818151815260200191508051906020019060200280838360005b83811015610723578082015181840152602081019050610708565b5050505090500186810385528a818151815260200191508051906020019060200280838360005b8381101561076557808201518184015260208101905061074a565b50505050905001868103845289818151815260200191508051906020019060200280838360005b838110156107a757808201518184015260208101905061078c565b50505050905001868103835288818151815260200191508051906020019060200280838360005b838110156107e95780820151818401526020810190506107ce565b50505050905001868103825287818151815260200191508051906020019060200280838360005b8381101561082b578082015181840152602081019050610810565b505050509050019a505050505050505050505060405180910390f35b34801561085357600080fd5b5061088a6004803603604081101561086a57600080fd5b810190808035906020019092919080359060200190929190505050611700565b6040518080602001806020018060200180602001858103855289818151815260200191508051906020019060200280838360005b838110156108d95780820151818401526020810190506108be565b50505050905001858103845288818151815260200191508051906020019060200280838360005b8381101561091b578082015181840152602081019050610900565b50505050905001858103835287818151815260200191508051906020019060200280838360005b8381101561095d578082015181840152602081019050610942565b50505050905001858103825286818151815260200191508051906020019060200280838360005b8381101561099f578082015181840152602081019050610984565b505050509050019850505050505050505060405180910390f35b3480156109c557600080fd5b50610b34600480360360a08110156109dc57600080fd5b8101908080359060200190929190803590602001909291908035906020019092919080359060200190640100000000811115610a1757600080fd5b820183602082011115610a2957600080fd5b80359060200191846001830284011164010000000083111715610a4b57600080fd5b91908080601f016020809104026020016040519081016040528093929190818152602001838380828437600081840152601f19601f82011690508083019250505050505050919291929080359060200190640100000000811115610aae57600080fd5b820183602082011115610ac057600080fd5b80359060200191846001830284011164010000000083111715610ae257600080fd5b91908080601f016020809104026020016040519081016040528093929190818152602001838380828437600081840152601f19601f8201169050808301925050505050505091929192905050506117c8565b6040518082815260200191505060405180910390f35b60015481565b60608060608060008610158015610b68575060008510155b8015610b775750601986860311155b1515610beb576040517f08c379a00000000000000000000000000000000000000000000000000000000081526004018080602001828103825260178152602001807f496e76616c69642072616e676520737570706c6965642e00000000000000000081525060200191505060405180910390fd5b610c44868660036005600660008d73ffffffffffffffffffffffffffffffffffffffff1673ffffffffffffffffffffffffffffffffffffffff168152602001908152602001600020611a5b90949392919063ffffffff16565b935093509350935093509350935093565b60008060009054906101000a900473ffffffffffffffffffffffffffffffffffffffff1673ffffffffffffffffffffffffffffffffffffffff1663ff0c2085336040518263ffffffff167c0100000000000000000000000000000000000000000000000000000000028152600401808273ffffffffffffffffffffffffffffffffffffffff1673ffffffffffffffffffffffffffffffffffffffff16815260200191505060206040518083038186803b158015610d1157600080fd5b505afa158015610d25573d6000803e3d6000fd5b505050506040513d6020811015610d3b57600080fd5b81019080805190602001909291905050501515610dc0576040517f08c379a000000000000000000000000000000000000000000000000000000000815260040180806020018281038252601c8152602001807f4f6e6c792073686f70206f776e6572732063616e20646f20746869730000000081525060200191505060405180910390fd5b60028054905090506080604051908101604052808281526020016001151581526020018381526020013373ffffffffffffffffffffffffffffffffffffffff16815250600360008381526020019081526020016000206000820151816000015560208201518160010160006101000a81548160ff0219169083151502179055506040820151816002019080519060200190610e5c929190612286565b5060608201518160030160006101000a81548173ffffffffffffffffffffffffffffffffffffffff021916908373ffffffffffffffffffffffffffffffffffffffff160217905550905050600660003373ffffffffffffffffffffffffffffffffffffffff1673ffffffffffffffffffffffffffffffffffffffff1681526020019081526020016000208190806001815401808255809150509060018203906000526020600020016000909192909190915055506002819080600181540180825580915050906001820390600052602060002001600090919290919091505550610fa1606060405190810160405280602181526020017f53746f72652066726f6e742063726561746564207375636365737366756c6c7981526020017f2e00000000000000000000000000000000000000000000000000000000000000815250611d9d565b919050565b813373ffffffffffffffffffffffffffffffffffffffff166004600083815260200190815260200160002060060160009054906101000a900473ffffffffffffffffffffffffffffffffffffffff1673ffffffffffffffffffffffffffffffffffffffff161415156110a6576040517f08c379a00000000000000000000000000000000000000000000000000000000081526004018080602001828103825260248152602001807f4f6e6c79207468652070726f647563742773206f776e65722063616e20646f2081526020017f746869730000000000000000000000000000000000000000000000000000000081525060400191505060405180910390fd5b816004600085815260200190815260200160002060030160006101000a81548160ff021916908315150217905550505050565b813373ffffffffffffffffffffffffffffffffffffffff166003600083815260200190815260200160002060030160009054906101000a900473ffffffffffffffffffffffffffffffffffffffff1673ffffffffffffffffffffffffffffffffffffffff161415156111b3576040517f08c379a00000000000000000000000000000000000000000000000000000000081526004018080602001828103825260208152602001807f4f6e6c79207468652073746f7265206f776e65722063616e20646f207468697381525060200191505060405180910390fd5b816003600085815260200190815260200160002060010160006101000a81548160ff021916908315150217905550505050565b6060600080600360008581526020019081526020016000206002018054600181600116156101000203166002900480601f0160208091040260200160405190810160405280929190818152602001828054600181600116156101000203166002900480156112955780601f1061126a57610100808354040283529160200191611295565b820191906000526020600020905b81548152906001019060200180831161127857829003601f168201915b505050505092506003600085815260200190815260200160002060010160009054906101000a900460ff169150600560008581526020019081526020016000208054905090508282829250925092509193909250565b600080600060608060046000878152602001908152602001600020600101549450600460008781526020019081526020016000206002015493506004600087815260200190815260200160002060030160009054906101000a900460ff169250600460008781526020019081526020016000206004018054600181600116156101000203166002900480601f0160208091040260200160405190810160405280929190818152602001828054600181600116156101000203166002900480156113f55780601f106113ca576101008083540402835291602001916113f5565b820191906000526020600020905b8154815290600101906020018083116113d857829003601f168201915b50505050509150600460008781526020019081526020016000206005018054600181600116156101000203166002900480601f0160208091040260200160405190810160405280929190818152602001828054600181600116156101000203166002900480156114a65780601f1061147b576101008083540402835291602001916114a6565b820191906000526020600020905b81548152906001019060200180831161148957829003601f168201915b5050505050905084848484849450945094509450945091939590929450565b823373ffffffffffffffffffffffffffffffffffffffff166004600083815260200190815260200160002060060160009054906101000a900473ffffffffffffffffffffffffffffffffffffffff1673ffffffffffffffffffffffffffffffffffffffff161415156115c5576040517f08c379a00000000000000000000000000000000000000000000000000000000081526004018080602001828103825260248152602001807f4f6e6c79207468652070726f647563742773206f776e65722063616e20646f2081526020017f746869730000000000000000000000000000000000000000000000000000000081525060400191505060405180910390fd5b82600460008681526020019081526020016000206001018190555081600460008681526020019081526020016000206002018190555050505050565b60028181548110151561161057fe5b906000526020600020016000915090505481565b60608060608060606000871015801561163e575060008610155b801561164d5750601987870311155b15156116c1576040517f08c379a00000000000000000000000000000000000000000000000000000000081526004018080602001828103825260178152602001807f496e76616c69642072616e676520737570706c6965642e00000000000000000081525060200191505060405180910390fd5b6116eb87876004600560008d8152602001908152602001600020611e48909392919063ffffffff16565b94509450945094509450939792965093509350565b60608060608060008610158015611718575060008510155b80156117275750601986860311155b151561179b576040517f08c379a00000000000000000000000000000000000000000000000000000000081526004018080602001828103825260178152602001807f496e76616c69642072616e676520737570706c6965642e00000000000000000081525060200191505060405180910390fd5b6117b78686600360056002611a5b90949392919063ffffffff16565b935093509350935092959194509250565b6000853373ffffffffffffffffffffffffffffffffffffffff166003600083815260200190815260200160002060030160009054906101000a900473ffffffffffffffffffffffffffffffffffffffff1673ffffffffffffffffffffffffffffffffffffffff161415156118a4576040517f08c379a00000000000000000000000000000000000000000000000000000000081526004018080602001828103825260208152602001807f4f6e6c79207468652073746f7265206f776e65722063616e20646f207468697381525060200191505060405180910390fd5b600154915060e0604051908101604052808381526020018781526020018681526020016001151581526020018581526020018481526020013373ffffffffffffffffffffffffffffffffffffffff168152506004600084815260200190815260200160002060008201518160000155602082015181600101556040820151816002015560608201518160030160006101000a81548160ff0219169083151502179055506080820151816004019080519060200190611963929190612286565b5060a0820151816005019080519060200190611980929190612286565b5060c08201518160060160006101000a81548173ffffffffffffffffffffffffffffffffffffffff021916908373ffffffffffffffffffffffffffffffffffffffff16021790555090505060056000888152602001908152602001600020829080600181540180825580915050906001820390600052602060002001600090919290919091505550611a466040805190810160405280601d81526020017f50726f647563742063726561746564207375636365737366756c6c792e000000815250611d9d565b60018054016001819055505095945050505050565b60608060608060008980549050881015611a755787611a7b565b89805490505b905060608a80549050604051908082528060200260200182016040528015611ab25781602001602082028038833980820191505090505b50905060608b80549050604051908082528060200260200182016040528015611aea5781602001602082028038833980820191505090505b50905060608c80549050604051908082528060200260200182016040528015611b225781602001602082028038833980820191505090505b50905060008c90505b84811015611d2e5760008e82815481101515611b4357fe5b90600052602060002001549050611b58612306565b8c600083815260200190815260200160002060806040519081016040529081600082015481526020016001820160009054906101000a900460ff16151515158152602001600282018054600181600116156101000203166002900480601f016020809104026020016040519081016040528092919081815260200182805460018160011615610100020316600290048015611c345780601f10611c0957610100808354040283529160200191611c34565b820191906000526020600020905b815481529060010190602001808311611c1757829003601f168201915b505050505081526020016003820160009054906101000a900473ffffffffffffffffffffffffffffffffffffffff1673ffffffffffffffffffffffffffffffffffffffff1673ffffffffffffffffffffffffffffffffffffffff16815250509050606081604001519050600060208201519050808686815181101515611cb657fe5b906020019060200201818152505082602001518786815181101515611cd757fe5b90602001906020020190151590811515815250508d6000858152602001908152602001600020805490508886815181101515611d0f57fe5b9060200190602002018181525050505050508080600101915050611b2b565b508c83838383805480602002602001604051908101604052809291908181526020018280548015611d7e57602002820191906000526020600020905b815481526020019060010190808311611d6a575b5050505050935097509750975097505050505095509550955095915050565b7f73e8d12a7b1137bf3268a42d52951e3ffbdee6d9518c4747fdb0c20f16bf6fa4600182604051808360000b815260200180602001828103825283818151815260200191508051906020019080838360005b83811015611e0a578082015181840152602081019050611def565b50505050905090810190601f168015611e375780820380516001836020036101000a031916815260200191505b50935050505060405180910390a150565b606080606080606060008980549050881015611e645787611e6a565b89805490505b90508980549050604051908082528060200260200182016040528015611e9f5781602001602082028038833980820191505090505b5095508980549050604051908082528060200260200182016040528015611ed55781602001602082028038833980820191505090505b5094508980549050604051908082528060200260200182016040528015611f0b5781602001602082028038833980820191505090505b5093508980549050604051908082528060200260200182016040528015611f415781602001602082028038833980820191505090505b5092508980549050604051908082528060200260200182016040528015611f775781602001602082028038833980820191505090505b50915060008990505b8181101561226a5760008b82815481101515611f9857fe5b90600052602060002001549050611fad612347565b89600083815260200190815260200160002060e060405190810160405290816000820154815260200160018201548152602001600282015481526020016003820160009054906101000a900460ff16151515158152602001600482018054600181600116156101000203166002900480601f01602080910402602001604051908101604052809291908181526020018280546001816001161561010002031660029004801561209d5780601f106120725761010080835404028352916020019161209d565b820191906000526020600020905b81548152906001019060200180831161208057829003601f168201915b50505050508152602001600582018054600181600116156101000203166002900480601f01602080910402602001604051908101604052809291908181526020018280546001816001161561010002031660029004801561213f5780601f106121145761010080835404028352916020019161213f565b820191906000526020600020905b81548152906001019060200180831161212257829003601f168201915b505050505081526020016006820160009054906101000a900473ffffffffffffffffffffffffffffffffffffffff1673ffffffffffffffffffffffffffffffffffffffff1673ffffffffffffffffffffffffffffffffffffffff16815250509050806000015189848151811015156121b357fe5b9060200190602002018181525050806020015188848151811015156121d457fe5b9060200190602002018181525050806040015187848151811015156121f557fe5b90602001906020020181815250508060600151868481518110151561221657fe5b906020019060200201901515908115158152505060608160800151905060006020820151905080878681518110151561224b57fe5b9060200190602002018181525050505050508080600101915050611f80565b5085858585859550955095509550955050945094509450945094565b828054600181600116156101000203166002900490600052602060002090601f016020900481019282601f106122c757805160ff19168380011785556122f5565b828001600101855582156122f5579182015b828111156122f45782518255916020019190600101906122d9565b5b509050612302919061239d565b5090565b6080604051908101604052806000815260200160001515815260200160608152602001600073ffffffffffffffffffffffffffffffffffffffff1681525090565b60e0604051908101604052806000815260200160008152602001600081526020016000151581526020016060815260200160608152602001600073ffffffffffffffffffffffffffffffffffffffff1681525090565b6123bf91905b808211156123bb5760008160009055506001016123a3565b5090565b9056fea165627a7a7230582009ff8f01eb9c433c55a2b74a075b07096afcd9c8b4de469b0b8ac7fdaebeb2810029",
  "source": "pragma solidity ^0.5.0;\nimport { UserIdentity } from '../user/UserIdentity.sol';\nimport { EmitsEvent } from '../event/EmitsEvent.sol';\nimport { StoreExtractor } from '../_libs/StoreExtractor.sol';\n\n/**\n * @title StoreManager\n * @dev Manage store activities here\n */\ncontract StoreManager is EmitsEvent {\n  // allow identification of user\n  UserIdentity ui;\n  // allow extractor to work on arrays of ids\n  using StoreExtractor for uint[];\n  \n  // track product count\n  uint public prodCount;\n\n  // keep track of all the store front by their IDs\n  uint[] public sFIDs;\n\n  // event Mad(uint);\n\n  // map each storefront to it's content\n  mapping(uint => StoreExtractor.StoreFront) storeFront;\n\n  // map each product id to it's content\n  mapping(uint => StoreExtractor.Product) product;\n\n  // map store front to it's products (id)\n  mapping(uint => uint[]) storeFrontProducts;\n\n  // map store owner to their store fronts \n  mapping(address => uint[]) oMap;\n\n  modifier isShopOwner {\n    // require that the caller is a shop owner\n    require(ui.fnIsShopOwner(msg.sender), \"Only shop owners can do this\"); _;\n  }\n  \n  // restrict access to product\n  modifier ownsProduct(uint _prodId) {\n    require(product[_prodId].productOwner == msg.sender, \n        \"Only the product's owner can do this\"); _;\n  }\n  \n  // restrict access to owner of the store\n  modifier ownsStore(uint _sFID) {\n    require(storeFront[_sFID].storeOwner == msg.sender, \n        \"Only the store owner can do this\"); _;\n  }\n\n  constructor(UserIdentity _ui) public {\n    // allow the identification of users\n    ui = UserIdentity(_ui);\n  }\n\n  /**\n   * @dev Create a new store front\n   */\n  function createStoreFront(string memory name) public isShopOwner returns (uint newIndex)\n  {\n    // create unique ID to use\n    newIndex = sFIDs.length;\n    // add new store front\n    storeFront[newIndex] = StoreExtractor.StoreFront(newIndex, true, name, msg.sender);\n    // add store front to owner's list\n    oMap[msg.sender].push(newIndex);\n    // track all sFIDs\n    sFIDs.push(newIndex);\n    // emit success event\n    emitActionSuccess(\"Store front created successfully.\");\n  }\n\n  /**\n   * @dev Add a new product to a store front\n   */\n  function addProduct(uint _sFID, uint _price, uint _qty, \n          string memory _name, string memory _imageId) public ownsStore(_sFID)\n          returns (uint newIndex)\n  {\n    // create unique ID to use\n    newIndex = prodCount;\n    // register product's details\n    product[newIndex] = StoreExtractor.Product(newIndex, _price, _qty, true, _name, _imageId, msg.sender);\n    // add product to store front's list of products\n    storeFrontProducts[_sFID].push(newIndex);\n    // emit success event\n    emitActionSuccess(\"Product created successfully.\");\n    // increment product count\n    prodCount = prodCount + 1;\n  }\n\n   /**\n    * @dev Update a product's details.\n    */\n   function productUpdater(uint _prodId, uint _price, uint _qty) public ownsProduct(_prodId)\n   {\n     product[_prodId].price = _price;\n     product[_prodId].qty = _qty;\n   }\n\n   /**\n    * @dev Mark a product as (de)activated.\n    */\n   function productActivator(uint _prodId, bool status) public ownsProduct(_prodId)\n   {\n     product[_prodId].active = status;\n   }\n\n   /**\n    * @dev Mark a store front as (de)activated.\n    */\n   function storeFrontActivator(uint _sFID, bool status) public ownsStore(_sFID)\n   {\n     storeFront[_sFID].active = status;\n   }\n\n  /**\n   * @dev Get store fronts for a shop owner\n   * @return sFID[], name[], prodQty[]\n   */\n  function getStoreFronts(address _storeOwner, uint from, uint to) public view \n        returns (uint[] memory, uint[] memory, bool[] memory, bytes32[] memory)\n  {\n    require(from >= 0 && to >= 0 && to - from <= 25, \"Invalid range supplied.\");\n    // return store owner's store fronts data using extractor library\n    return oMap[_storeOwner].extractStoreFronts(from, to, storeFront, storeFrontProducts);\n  }\n\n  /**\n   * @dev Get some store fronts by range\n   * @return sFID[], name[], prodQty[]\n   */\n  function getSomeStoreFronts(uint from, uint to) public view \n        returns (uint[] memory, uint[] memory, bool[] memory, bytes32[] memory)\n  {\n    require(from >= 0 && to >= 0 && to - from <= 25, \"Invalid range supplied.\");\n    // return store fronts data using extractor library\n    return sFIDs.extractStoreFronts(from, to, storeFront, storeFrontProducts);\n  }\n\n  /**\n   * @dev Get all store fronts\n   * @return sFID[], name[], prodQty[]\n   * todo:: remove this function in future to prevent DoS attack\n   */\n  function getAllStoreFronts() internal view \n        returns (uint[] memory, uint[] memory, bool[] memory, bytes32[] memory)\n  {\n    // return store fronts data using extractor library\n    return sFIDs.extractStoreFronts(0, sFIDs.length, storeFront, storeFrontProducts);    \n  }\n\n  /**\n   * @dev Get store front details\n   * @return (string, bool, uint)\n   */\n  function getStoreFrontDetails(uint _sFID) public view\n         returns (string memory name, bool active, uint prodQty)\n  {\n    name = storeFront[_sFID].name;\n    active = storeFront[_sFID].active;\n    prodQty = storeFrontProducts[_sFID].length;\n    return (name, active, prodQty);\n  }\n\n  /**\n   * @dev Get the products in a store front\n   */\n  function getStoreFrontProducts(uint _sFID, uint from, uint to) public view\n        returns (uint[] memory, uint[] memory, uint[] memory, \n        bool[] memory, bytes32[] memory)\n  {\n    require(from >= 0 && to >= 0 && to - from <= 25, \"Invalid range supplied.\");\n    // return a tuple of arrays of product props\n    return storeFrontProducts[_sFID].extractProducts(from, to, product);\n    // uint[] memory a = new uint[](2);\n    // uint[] memory b = new uint[](2);\n    // uint[] memory c = new uint[](2);\n    // bool[] memory d = new bool[](2);\n    // bytes32[] memory e = new bytes32[](2);\n    // return (a, b, c, d, e);\n  }\n\n  /**\n   * @dev Get store front details\n   */\n   function getProductDetails(uint _prodId) public view\n         returns (uint price, uint qty, bool active, string memory name, string memory imageId)\n   {\n     price = product[_prodId].price;\n     qty = product[_prodId].qty;\n     active = product[_prodId].active;\n     name = product[_prodId].name;\n     imageId = product[_prodId].imageId;\n     return (price, qty, active, name, imageId);\n   }\n  \n}\n",
  "sourcePath": "/home/cmdlucas/blockchain-dev/consensys-project/online-marketplace-dapp/contracts/store/StoreManager.sol",
  "compiler": {
    "name": "solc",
    "version": "0.5.0+commit.1d4f565a.Emscripten.clang"
  },
  "schemaVersion": "3.0.9",
  "updatedAt": "2019-07-07T11:45:10.708Z",
  "devdoc": {
    "details": "Manage store activities here",
    "methods": {
      "addProduct(uint256,uint256,uint256,string,string)": {
        "details": "Add a new product to a store front"
      },
      "createStoreFront(string)": {
        "details": "Create a new store front"
      },
      "getAllStoreFronts()": {
        "details": "Get all store fronts",
        "return": "sFID[], name[], prodQty[] todo:: remove this function in future to prevent DoS attack"
      },
      "getProductDetails(uint256)": {
        "details": "Get store front details"
      },
      "getSomeStoreFronts(uint256,uint256)": {
        "details": "Get some store fronts by range",
        "return": "sFID[], name[], prodQty[]"
      },
      "getStoreFrontDetails(uint256)": {
        "details": "Get store front details",
        "return": "(string, bool, uint)"
      },
      "getStoreFrontProducts(uint256,uint256,uint256)": {
        "details": "Get the products in a store front"
      },
      "getStoreFronts(address,uint256,uint256)": {
        "details": "Get store fronts for a shop owner",
        "return": "sFID[], name[], prodQty[]"
      },
      "productActivator(uint256,bool)": {
        "details": "Mark a product as (de)activated."
      },
      "productUpdater(uint256,uint256,uint256)": {
        "details": "Update a product's details."
      },
      "storeFrontActivator(uint256,bool)": {
        "details": "Mark a store front as (de)activated."
      }
    },
    "title": "StoreManager"
  },
  "userdoc": {
    "methods": {}
  }
}