{
  "contractName": "StoreManager",
  "abi": [
    {
      "constant": true,
      "inputs": [],
      "name": "prodCount",
      "outputs": [
        {
          "name": "",
          "type": "uint256"
        }
      ],
      "payable": false,
      "stateMutability": "view",
      "type": "function"
    },
    {
      "constant": true,
      "inputs": [
        {
          "name": "",
          "type": "uint256"
        }
      ],
      "name": "product",
      "outputs": [
        {
          "name": "id",
          "type": "uint256"
        },
        {
          "name": "price",
          "type": "uint256"
        },
        {
          "name": "qty",
          "type": "uint256"
        },
        {
          "name": "active",
          "type": "bool"
        },
        {
          "name": "name",
          "type": "string"
        },
        {
          "name": "imageId",
          "type": "string"
        },
        {
          "name": "productOwner",
          "type": "address"
        }
      ],
      "payable": false,
      "stateMutability": "view",
      "type": "function"
    },
    {
      "constant": true,
      "inputs": [
        {
          "name": "",
          "type": "uint256"
        }
      ],
      "name": "storeFrontProductsActive",
      "outputs": [
        {
          "name": "",
          "type": "uint256"
        }
      ],
      "payable": false,
      "stateMutability": "view",
      "type": "function"
    },
    {
      "constant": true,
      "inputs": [
        {
          "name": "",
          "type": "uint256"
        }
      ],
      "name": "sFIDs",
      "outputs": [
        {
          "name": "",
          "type": "uint256"
        }
      ],
      "payable": false,
      "stateMutability": "view",
      "type": "function"
    },
    {
      "constant": true,
      "inputs": [
        {
          "name": "",
          "type": "uint256"
        },
        {
          "name": "",
          "type": "uint256"
        }
      ],
      "name": "storeFrontProducts",
      "outputs": [
        {
          "name": "",
          "type": "uint256"
        }
      ],
      "payable": false,
      "stateMutability": "view",
      "type": "function"
    },
    {
      "constant": true,
      "inputs": [
        {
          "name": "",
          "type": "address"
        },
        {
          "name": "",
          "type": "uint256"
        }
      ],
      "name": "oMap",
      "outputs": [
        {
          "name": "",
          "type": "uint256"
        }
      ],
      "payable": false,
      "stateMutability": "view",
      "type": "function"
    },
    {
      "constant": true,
      "inputs": [
        {
          "name": "",
          "type": "uint256"
        }
      ],
      "name": "storeFront",
      "outputs": [
        {
          "name": "id",
          "type": "uint256"
        },
        {
          "name": "active",
          "type": "bool"
        },
        {
          "name": "name",
          "type": "string"
        },
        {
          "name": "storeOwner",
          "type": "address"
        }
      ],
      "payable": false,
      "stateMutability": "view",
      "type": "function"
    },
    {
      "inputs": [
        {
          "name": "_ui",
          "type": "address"
        }
      ],
      "payable": false,
      "stateMutability": "nonpayable",
      "type": "constructor"
    },
    {
      "anonymous": false,
      "inputs": [
        {
          "indexed": false,
          "name": "status",
          "type": "int8"
        },
        {
          "indexed": false,
          "name": "statement",
          "type": "string"
        }
      ],
      "name": "ActionDone",
      "type": "event"
    },
    {
      "constant": false,
      "inputs": [
        {
          "name": "name",
          "type": "string"
        }
      ],
      "name": "createStoreFront",
      "outputs": [
        {
          "name": "newIndex",
          "type": "uint256"
        }
      ],
      "payable": false,
      "stateMutability": "nonpayable",
      "type": "function"
    },
    {
      "constant": false,
      "inputs": [
        {
          "name": "_sFID",
          "type": "uint256"
        },
        {
          "name": "_price",
          "type": "uint256"
        },
        {
          "name": "_qty",
          "type": "uint256"
        },
        {
          "name": "_name",
          "type": "string"
        },
        {
          "name": "_imageId",
          "type": "string"
        }
      ],
      "name": "addProduct",
      "outputs": [
        {
          "name": "newIndex",
          "type": "uint256"
        }
      ],
      "payable": false,
      "stateMutability": "nonpayable",
      "type": "function"
    },
    {
      "constant": false,
      "inputs": [
        {
          "name": "_sender",
          "type": "address"
        },
        {
          "name": "_prodId",
          "type": "uint256"
        },
        {
          "name": "_price",
          "type": "uint256"
        },
        {
          "name": "_qty",
          "type": "uint256"
        }
      ],
      "name": "productUpdater",
      "outputs": [],
      "payable": false,
      "stateMutability": "nonpayable",
      "type": "function"
    },
    {
      "constant": false,
      "inputs": [
        {
          "name": "_sfid",
          "type": "uint256"
        },
        {
          "name": "_prodId",
          "type": "uint256"
        },
        {
          "name": "status",
          "type": "bool"
        }
      ],
      "name": "productActivator",
      "outputs": [],
      "payable": false,
      "stateMutability": "nonpayable",
      "type": "function"
    },
    {
      "constant": false,
      "inputs": [
        {
          "name": "_sFID",
          "type": "uint256"
        },
        {
          "name": "status",
          "type": "bool"
        }
      ],
      "name": "storeFrontActivator",
      "outputs": [],
      "payable": false,
      "stateMutability": "nonpayable",
      "type": "function"
    },
    {
      "constant": true,
      "inputs": [
        {
          "name": "_storeOwner",
          "type": "address"
        },
        {
          "name": "from",
          "type": "uint256"
        },
        {
          "name": "to",
          "type": "uint256"
        }
      ],
      "name": "getStoreFronts",
      "outputs": [
        {
          "name": "",
          "type": "uint256[]"
        },
        {
          "name": "",
          "type": "uint256[]"
        },
        {
          "name": "",
          "type": "bool[]"
        },
        {
          "name": "",
          "type": "bytes32[]"
        }
      ],
      "payable": false,
      "stateMutability": "view",
      "type": "function"
    },
    {
      "constant": true,
      "inputs": [
        {
          "name": "from",
          "type": "uint256"
        },
        {
          "name": "to",
          "type": "uint256"
        }
      ],
      "name": "getSomeStoreFronts",
      "outputs": [
        {
          "name": "",
          "type": "uint256[]"
        },
        {
          "name": "",
          "type": "uint256[]"
        },
        {
          "name": "",
          "type": "bool[]"
        },
        {
          "name": "",
          "type": "bytes32[]"
        }
      ],
      "payable": false,
      "stateMutability": "view",
      "type": "function"
    },
    {
      "constant": true,
      "inputs": [
        {
          "name": "_sFID",
          "type": "uint256"
        }
      ],
      "name": "getStoreFrontDetails",
      "outputs": [
        {
          "name": "name",
          "type": "string"
        },
        {
          "name": "active",
          "type": "bool"
        },
        {
          "name": "prodQty",
          "type": "uint256"
        }
      ],
      "payable": false,
      "stateMutability": "view",
      "type": "function"
    },
    {
      "constant": true,
      "inputs": [
        {
          "name": "_sFID",
          "type": "uint256"
        },
        {
          "name": "from",
          "type": "uint256"
        },
        {
          "name": "to",
          "type": "uint256"
        }
      ],
      "name": "getStoreFrontProducts",
      "outputs": [
        {
          "name": "",
          "type": "uint256[]"
        },
        {
          "name": "",
          "type": "uint256[]"
        },
        {
          "name": "",
          "type": "uint256[]"
        },
        {
          "name": "",
          "type": "bool[]"
        },
        {
          "name": "",
          "type": "bytes32[]"
        }
      ],
      "payable": false,
      "stateMutability": "view",
      "type": "function"
    },
    {
      "constant": true,
      "inputs": [
        {
          "name": "_prodId",
          "type": "uint256"
        }
      ],
      "name": "getProductDetails",
      "outputs": [
        {
          "name": "price",
          "type": "uint256"
        },
        {
          "name": "qty",
          "type": "uint256"
        },
        {
          "name": "active",
          "type": "bool"
        },
        {
          "name": "name",
          "type": "string"
        },
        {
          "name": "imageId",
          "type": "string"
        }
      ],
      "payable": false,
      "stateMutability": "view",
      "type": "function"
    },
    {
      "constant": false,
      "inputs": [],
      "name": "toggleContractActive",
      "outputs": [],
      "payable": false,
      "stateMutability": "nonpayable",
      "type": "function"
    }
  ],
  "bytecode": "0x608060405260008060006101000a81548160ff02191690831515021790555034801561002a57600080fd5b50604051602080612fb68339810180604052602081101561004a57600080fd5b810190808051906020019092919050505080600060016101000a81548173ffffffffffffffffffffffffffffffffffffffff021916908373ffffffffffffffffffffffffffffffffffffffff16021790555050612f0a806100ac6000396000f3fe6080604052600436106100fc576000357c0100000000000000000000000000000000000000000000000000000000900463ffffffff168063017e19a31461010157806309d0df321461012c5780631385d24c146102be5780632fc826bd146102d5578063401c2003146103b157806341e17574146103f85780635ea1ee04146104be5780636813b53b1461052d578063780bd3f1146106665780638254ab40146107d957806392158b86146108285780639498b474146108775780639ee129e8146108d05780639f90cf2114610a94578063acec337a14610c06578063b3e7677014610d97578063cb58a17614610e06578063fd5e943a14610e57575b600080fd5b34801561010d57600080fd5b50610116610f50565b6040518082815260200191505060405180910390f35b34801561013857600080fd5b5061018f6004803603606081101561014f57600080fd5b81019080803573ffffffffffffffffffffffffffffffffffffffff1690602001909291908035906020019092919080359060200190929190505050610f56565b6040518080602001806020018060200180602001858103855289818151815260200191508051906020019060200280838360005b838110156101de5780820151818401526020810190506101c3565b50505050905001858103845288818151815260200191508051906020019060200280838360005b83811015610220578082015181840152602081019050610205565b50505050905001858103835287818151815260200191508051906020019060200280838360005b83811015610262578082015181840152602081019050610247565b50505050905001858103825286818151815260200191508051906020019060200280838360005b838110156102a4578082015181840152602081019050610289565b505050509050019850505050505050505060405180910390f35b3480156102ca57600080fd5b506102d361105b565b005b3480156102e157600080fd5b5061039b600480360360208110156102f857600080fd5b810190808035906020019064010000000081111561031557600080fd5b82018360208201111561032757600080fd5b8035906020019184600183028401116401000000008311171561034957600080fd5b91908080601f016020809104026020016040519081016040528093929190818152602001838380828437600081840152601f19601f8201169050808301925050505050505091929192905050506111ef565b6040518082815260200191505060405180910390f35b3480156103bd57600080fd5b506103f6600480360360408110156103d457600080fd5b8101908080359060200190929190803515159060200190929190505050611556565b005b34801561040457600080fd5b506104316004803603602081101561041b57600080fd5b8101908080359060200190929190505050611663565b604051808060200184151515158152602001838152602001828103825285818151815260200191508051906020019080838360005b83811015610481578082015181840152602081019050610466565b50505050905090810190601f1680156104ae5780820380516001836020036101000a031916815260200191505b5094505050505060405180910390f35b3480156104ca57600080fd5b5061052b600480360360808110156104e157600080fd5b81019080803573ffffffffffffffffffffffffffffffffffffffff169060200190929190803590602001909291908035906020019092919080359060200190929190505050611765565b005b34801561053957600080fd5b506105666004803603602081101561055057600080fd5b8101908080359060200190929190505050611926565b60405180868152602001858152602001841515151581526020018060200180602001838103835285818151815260200191508051906020019080838360005b838110156105c05780820151818401526020810190506105a5565b50505050905090810190601f1680156105ed5780820380516001836020036101000a031916815260200191505b50838103825284818151815260200191508051906020019080838360005b8381101561062657808201518184015260208101905061060b565b50505050905090810190601f1680156106535780820380516001836020036101000a031916815260200191505b5097505050505050505060405180910390f35b34801561067257600080fd5b5061069f6004803603602081101561068957600080fd5b8101908080359060200190929190505050611b00565b604051808881526020018781526020018681526020018515151515815260200180602001806020018473ffffffffffffffffffffffffffffffffffffffff1673ffffffffffffffffffffffffffffffffffffffff168152602001838103835286818151815260200191508051906020019080838360005b83811015610731578082015181840152602081019050610716565b50505050905090810190601f16801561075e5780820380516001836020036101000a031916815260200191505b50838103825285818151815260200191508051906020019080838360005b8381101561079757808201518184015260208101905061077c565b50505050905090810190601f1680156107c45780820380516001836020036101000a031916815260200191505b50995050505050505050505060405180910390f35b3480156107e557600080fd5b50610812600480360360208110156107fc57600080fd5b8101908080359060200190929190505050611c9f565b6040518082815260200191505060405180910390f35b34801561083457600080fd5b506108616004803603602081101561084b57600080fd5b8101908080359060200190929190505050611cb7565b6040518082815260200191505060405180910390f35b34801561088357600080fd5b506108ba6004803603604081101561089a57600080fd5b810190808035906020019092919080359060200190929190505050611cda565b6040518082815260200191505060405180910390f35b3480156108dc57600080fd5b5061091d600480360360608110156108f357600080fd5b81019080803590602001909291908035906020019092919080359060200190929190505050611d0a565b60405180806020018060200180602001806020018060200186810386528b818151815260200191508051906020019060200280838360005b83811015610970578082015181840152602081019050610955565b5050505090500186810385528a818151815260200191508051906020019060200280838360005b838110156109b2578082015181840152602081019050610997565b50505050905001868103845289818151815260200191508051906020019060200280838360005b838110156109f45780820151818401526020810190506109d9565b50505050905001868103835288818151815260200191508051906020019060200280838360005b83811015610a36578082015181840152602081019050610a1b565b50505050905001868103825287818151815260200191508051906020019060200280838360005b83811015610a78578082015181840152602081019050610a5d565b505050509050019a505050505050505050505060405180910390f35b348015610aa057600080fd5b50610ad760048036036040811015610ab757600080fd5b810190808035906020019092919080359060200190929190505050611de6565b6040518080602001806020018060200180602001858103855289818151815260200191508051906020019060200280838360005b83811015610b26578082015181840152602081019050610b0b565b50505050905001858103845288818151815260200191508051906020019060200280838360005b83811015610b68578082015181840152602081019050610b4d565b50505050905001858103835287818151815260200191508051906020019060200280838360005b83811015610baa578082015181840152602081019050610b8f565b50505050905001858103825286818151815260200191508051906020019060200280838360005b83811015610bec578082015181840152602081019050610bd1565b505050509050019850505050505050505060405180910390f35b348015610c1257600080fd5b50610d81600480360360a0811015610c2957600080fd5b8101908080359060200190929190803590602001909291908035906020019092919080359060200190640100000000811115610c6457600080fd5b820183602082011115610c7657600080fd5b80359060200191846001830284011164010000000083111715610c9857600080fd5b91908080601f016020809104026020016040519081016040528093929190818152602001838380828437600081840152601f19601f82011690508083019250505050505050919291929080359060200190640100000000811115610cfb57600080fd5b820183602082011115610d0d57600080fd5b80359060200191846001830284011164010000000083111715610d2f57600080fd5b91908080601f016020809104026020016040519081016040528093929190818152602001838380828437600081840152601f19601f820116905080830192505050505050509192919290505050611eae565b6040518082815260200191505060405180910390f35b348015610da357600080fd5b50610df060048036036040811015610dba57600080fd5b81019080803573ffffffffffffffffffffffffffffffffffffffff169060200190929190803590602001909291905050506121fd565b6040518082815260200191505060405180910390f35b348015610e1257600080fd5b50610e5560048036036060811015610e2957600080fd5b81019080803590602001909291908035906020019092919080351515906020019092919050505061222d565b005b348015610e6357600080fd5b50610e9060048036036020811015610e7a57600080fd5b8101908080359060200190929190505050612482565b6040518085815260200184151515158152602001806020018373ffffffffffffffffffffffffffffffffffffffff1673ffffffffffffffffffffffffffffffffffffffff168152602001828103825284818151815260200191508051906020019080838360005b83811015610f12578082015181840152602081019050610ef7565b50505050905090810190601f168015610f3f5780820380516001836020036101000a031916815260200191505b509550505050505060405180910390f35b60015481565b60608060608060008610158015610f6e575060008510155b8015610f7d5750601986860311155b1515610ff1576040517f08c379a00000000000000000000000000000000000000000000000000000000081526004018080602001828103825260178152602001807f496e76616c69642072616e676520737570706c6965642e00000000000000000081525060200191505060405180910390fd5b61104a868660036006600760008d73ffffffffffffffffffffffffffffffffffffffff1673ffffffffffffffffffffffffffffffffffffffff16815260200190815260200160002061257790949392919063ffffffff16565b935093509350935093509350935093565b600060019054906101000a900473ffffffffffffffffffffffffffffffffffffffff1673ffffffffffffffffffffffffffffffffffffffff16634cf8097e336040518263ffffffff167c0100000000000000000000000000000000000000000000000000000000028152600401808273ffffffffffffffffffffffffffffffffffffffff1673ffffffffffffffffffffffffffffffffffffffff16815260200191505060206040518083038186803b15801561111657600080fd5b505afa15801561112a573d6000803e3d6000fd5b505050506040513d602081101561114057600080fd5b810190808051906020019092919050505015156111c5576040517f08c379a000000000000000000000000000000000000000000000000000000000815260040180806020018281038252601a8152602001807f4f6e6c7920617070206f776e65722063616e20646f207468697300000000000081525060200191505060405180910390fd5b6000809054906101000a900460ff16156000806101000a81548160ff021916908315150217905550565b60008060019054906101000a900473ffffffffffffffffffffffffffffffffffffffff1673ffffffffffffffffffffffffffffffffffffffff1663ff0c2085336040518263ffffffff167c0100000000000000000000000000000000000000000000000000000000028152600401808273ffffffffffffffffffffffffffffffffffffffff1673ffffffffffffffffffffffffffffffffffffffff16815260200191505060206040518083038186803b1580156112ab57600080fd5b505afa1580156112bf573d6000803e3d6000fd5b505050506040513d60208110156112d557600080fd5b8101908080519060200190929190505050151561135a576040517f08c379a000000000000000000000000000000000000000000000000000000000815260040180806020018281038252601c8152602001807f4f6e6c792073686f70206f776e6572732063616e20646f20746869730000000081525060200191505060405180910390fd5b6000809054906101000a900460ff1615156115515760028054905090506080604051908101604052808281526020016001151581526020018381526020013373ffffffffffffffffffffffffffffffffffffffff16815250600360008381526020019081526020016000206000820151816000015560208201518160010160006101000a81548160ff021916908315150217905550604082015181600201908051906020019061140b929190612da2565b5060608201518160030160006101000a81548173ffffffffffffffffffffffffffffffffffffffff021916908373ffffffffffffffffffffffffffffffffffffffff160217905550905050600760003373ffffffffffffffffffffffffffffffffffffffff1673ffffffffffffffffffffffffffffffffffffffff1681526020019081526020016000208190806001815401808255809150509060018203906000526020600020016000909192909190915055506002819080600181540180825580915050906001820390600052602060002001600090919290919091505550611550606060405190810160405280602181526020017f53746f72652066726f6e742063726561746564207375636365737366756c6c7981526020017f2e000000000000000000000000000000000000000000000000000000000000008152506128c3565b5b919050565b813373ffffffffffffffffffffffffffffffffffffffff166003600083815260200190815260200160002060030160009054906101000a900473ffffffffffffffffffffffffffffffffffffffff1673ffffffffffffffffffffffffffffffffffffffff16141515611630576040517f08c379a00000000000000000000000000000000000000000000000000000000081526004018080602001828103825260208152602001807f4f6e6c79207468652073746f7265206f776e65722063616e20646f207468697381525060200191505060405180910390fd5b816003600085815260200190815260200160002060010160006101000a81548160ff021916908315150217905550505050565b6060600080600360008581526020019081526020016000206002018054600181600116156101000203166002900480601f0160208091040260200160405190810160405280929190818152602001828054600181600116156101000203166002900480156117125780601f106116e757610100808354040283529160200191611712565b820191906000526020600020905b8154815290600101906020018083116116f557829003601f168201915b505050505092506003600085815260200190815260200160002060010160009054906101000a900460ff169150600660008581526020019081526020016000205490508282829250925092509193909250565b6000809054906101000a900460ff1615156119205783833373ffffffffffffffffffffffffffffffffffffffff166004600083815260200190815260200160002060060160009054906101000a900473ffffffffffffffffffffffffffffffffffffffff1673ffffffffffffffffffffffffffffffffffffffff16148061184d57508173ffffffffffffffffffffffffffffffffffffffff166004600083815260200190815260200160002060060160009054906101000a900473ffffffffffffffffffffffffffffffffffffffff1673ffffffffffffffffffffffffffffffffffffffff16145b15156118e7576040517f08c379a00000000000000000000000000000000000000000000000000000000081526004018080602001828103825260248152602001807f4f6e6c79207468652070726f647563742773206f776e65722063616e20646f2081526020017f746869730000000000000000000000000000000000000000000000000000000081525060400191505060405180910390fd5b83600460008781526020019081526020016000206001018190555082600460008781526020019081526020016000206002018190555050505b50505050565b600080600060608060046000878152602001908152602001600020600101549450600460008781526020019081526020016000206002015493506004600087815260200190815260200160002060030160009054906101000a900460ff169250600460008781526020019081526020016000206004018054600181600116156101000203166002900480601f016020809104026020016040519081016040528092919081815260200182805460018160011615610100020316600290048015611a305780601f10611a0557610100808354040283529160200191611a30565b820191906000526020600020905b815481529060010190602001808311611a1357829003601f168201915b50505050509150600460008781526020019081526020016000206005018054600181600116156101000203166002900480601f016020809104026020016040519081016040528092919081815260200182805460018160011615610100020316600290048015611ae15780601f10611ab657610100808354040283529160200191611ae1565b820191906000526020600020905b815481529060010190602001808311611ac457829003601f168201915b5050505050905084848484849450945094509450945091939590929450565b60046020528060005260406000206000915090508060000154908060010154908060020154908060030160009054906101000a900460ff1690806004018054600181600116156101000203166002900480601f016020809104026020016040519081016040528092919081815260200182805460018160011615610100020316600290048015611bd15780601f10611ba657610100808354040283529160200191611bd1565b820191906000526020600020905b815481529060010190602001808311611bb457829003601f168201915b505050505090806005018054600181600116156101000203166002900480601f016020809104026020016040519081016040528092919081815260200182805460018160011615610100020316600290048015611c6f5780601f10611c4457610100808354040283529160200191611c6f565b820191906000526020600020905b815481529060010190602001808311611c5257829003601f168201915b5050505050908060060160009054906101000a900473ffffffffffffffffffffffffffffffffffffffff16905087565b60066020528060005260406000206000915090505481565b600281815481101515611cc657fe5b906000526020600020016000915090505481565b600560205281600052604060002081815481101515611cf557fe5b90600052602060002001600091509150505481565b606080606080606060008710158015611d24575060008610155b8015611d335750601987870311155b1515611da7576040517f08c379a00000000000000000000000000000000000000000000000000000000081526004018080602001828103825260178152602001807f496e76616c69642072616e676520737570706c6965642e00000000000000000081525060200191505060405180910390fd5b611dd187876004600560008d815260200190815260200160002061296e909392919063ffffffff16565b94509450945094509450939792965093509350565b60608060608060008610158015611dfe575060008510155b8015611e0d5750601986860311155b1515611e81576040517f08c379a00000000000000000000000000000000000000000000000000000000081526004018080602001828103825260178152602001807f496e76616c69642072616e676520737570706c6965642e00000000000000000081525060200191505060405180910390fd5b611e9d868660036006600261257790949392919063ffffffff16565b935093509350935092959194509250565b60008060009054906101000a900460ff1615156121f457853373ffffffffffffffffffffffffffffffffffffffff166003600083815260200190815260200160002060030160009054906101000a900473ffffffffffffffffffffffffffffffffffffffff1673ffffffffffffffffffffffffffffffffffffffff16141515611f9f576040517f08c379a00000000000000000000000000000000000000000000000000000000081526004018080602001828103825260208152602001807f4f6e6c79207468652073746f7265206f776e65722063616e20646f207468697381525060200191505060405180910390fd5b600086111515612017576040517f08c379a000000000000000000000000000000000000000000000000000000000815260040180806020018281038252601c8152602001807f5072696365206d757374206265206d6f7265207468616e207a65726f0000000081525060200191505060405180910390fd5b600154915060e0604051908101604052808381526020018781526020018681526020016001151581526020018581526020018481526020013373ffffffffffffffffffffffffffffffffffffffff168152506004600084815260200190815260200160002060008201518160000155602082015181600101556040820151816002015560608201518160030160006101000a81548160ff02191690831515021790555060808201518160040190805190602001906120d6929190612da2565b5060a08201518160050190805190602001906120f3929190612da2565b5060c08201518160060160006101000a81548173ffffffffffffffffffffffffffffffffffffffff021916908373ffffffffffffffffffffffffffffffffffffffff16021790555090505060056000888152602001908152602001600020829080600181540180825580915050906001820390600052602060002001600090919290919091505550600560008881526020019081526020016000208054905060066000898152602001908152602001600020819055506121e76040805190810160405280601d81526020017f50726f647563742063726561746564207375636365737366756c6c792e0000008152506128c3565b6001805401600181905550505b95945050505050565b60076020528160005260406000208181548110151561221857fe5b90600052602060002001600091509150505481565b6000809054906101000a900460ff16151561247d5733823373ffffffffffffffffffffffffffffffffffffffff166004600083815260200190815260200160002060060160009054906101000a900473ffffffffffffffffffffffffffffffffffffffff1673ffffffffffffffffffffffffffffffffffffffff16148061231557508173ffffffffffffffffffffffffffffffffffffffff166004600083815260200190815260200160002060060160009054906101000a900473ffffffffffffffffffffffffffffffffffffffff1673ffffffffffffffffffffffffffffffffffffffff16145b15156123af576040517f08c379a00000000000000000000000000000000000000000000000000000000081526004018080602001828103825260248152602001807f4f6e6c79207468652070726f647563742773206f776e65722063616e20646f2081526020017f746869730000000000000000000000000000000000000000000000000000000081525060400191505060405180910390fd5b826004600086815260200190815260200160002060030160006101000a81548160ff021916908315150217905550826123fe576001600660008781526020019081526020016000205403612463565b600560008681526020019081526020016000208054905060066000878152602001908152602001600020541061244a576005600086815260200190815260200160002080549050612462565b60016006600087815260200190815260200160002054015b5b600660008781526020019081526020016000208190555050505b505050565b60036020528060005260406000206000915090508060000154908060010160009054906101000a900460ff1690806002018054600181600116156101000203166002900480601f0160208091040260200160405190810160405280929190818152602001828054600181600116156101000203166002900480156125475780601f1061251c57610100808354040283529160200191612547565b820191906000526020600020905b81548152906001019060200180831161252a57829003601f168201915b5050505050908060030160009054906101000a900473ffffffffffffffffffffffffffffffffffffffff16905084565b606080606080600089805490508810156125915787612597565b89805490505b9050600089890390508181116125ad57806125af565b815b90506060816040519080825280602002602001820160405280156125e25781602001602082028038833980820191505090505b5090506060826040519080825280602002602001820160405280156126165781602001602082028038833980820191505090505b50905060608360405190808252806020026020018201604052801561264a5781602001602082028038833980820191505090505b50905060008d90505b858110156128535760008f8281548110151561266b57fe5b90600052602060002001549050612680612e22565b8d600083815260200190815260200160002060806040519081016040529081600082015481526020016001820160009054906101000a900460ff16151515158152602001600282018054600181600116156101000203166002900480601f01602080910402602001604051908101604052809291908181526020018280546001816001161561010002031660029004801561275c5780601f106127315761010080835404028352916020019161275c565b820191906000526020600020905b81548152906001019060200180831161273f57829003601f168201915b505050505081526020016003820160009054906101000a900473ffffffffffffffffffffffffffffffffffffffff1673ffffffffffffffffffffffffffffffffffffffff1673ffffffffffffffffffffffffffffffffffffffff168152505090506060816040015190506000602082015190508086868151811015156127de57fe5b9060200190602002018181525050826020015187868151811015156127ff57fe5b90602001906020020190151590811515815250508e600085815260200190815260200160002054888681518110151561283457fe5b9060200190602002018181525050505050508080600101915050612653565b508d838383838054806020026020016040519081016040528092919081815260200182805480156128a357602002820191906000526020600020905b81548152602001906001019080831161288f575b505050505093509850985098509850505050505095509550955095915050565b7f73e8d12a7b1137bf3268a42d52951e3ffbdee6d9518c4747fdb0c20f16bf6fa4600182604051808360000b815260200180602001828103825283818151815260200191508051906020019080838360005b83811015612930578082015181840152602081019050612915565b50505050905090810190601f16801561295d5780820380516001836020036101000a031916815260200191505b50935050505060405180910390a150565b60608060608060606000898054905088101561298a5787612990565b89805490505b9050600089890390508181116129a657806129a8565b815b9050806040519080825280602002602001820160405280156129d95781602001602082028038833980820191505090505b50965080604051908082528060200260200182016040528015612a0b5781602001602082028038833980820191505090505b50955080604051908082528060200260200182016040528015612a3d5781602001602082028038833980820191505090505b50945080604051908082528060200260200182016040528015612a6f5781602001602082028038833980820191505090505b50935080604051908082528060200260200182016040528015612aa15781602001602082028038833980820191505090505b50925060008a90505b82811015612d945760008c82815481101515612ac257fe5b90600052602060002001549050612ad7612e63565b8a600083815260200190815260200160002060e060405190810160405290816000820154815260200160018201548152602001600282015481526020016003820160009054906101000a900460ff16151515158152602001600482018054600181600116156101000203166002900480601f016020809104026020016040519081016040528092919081815260200182805460018160011615610100020316600290048015612bc75780601f10612b9c57610100808354040283529160200191612bc7565b820191906000526020600020905b815481529060010190602001808311612baa57829003601f168201915b50505050508152602001600582018054600181600116156101000203166002900480601f016020809104026020016040519081016040528092919081815260200182805460018160011615610100020316600290048015612c695780601f10612c3e57610100808354040283529160200191612c69565b820191906000526020600020905b815481529060010190602001808311612c4c57829003601f168201915b505050505081526020016006820160009054906101000a900473ffffffffffffffffffffffffffffffffffffffff1673ffffffffffffffffffffffffffffffffffffffff1673ffffffffffffffffffffffffffffffffffffffff1681525050905080600001518a84815181101515612cdd57fe5b906020019060200201818152505080602001518984815181101515612cfe57fe5b906020019060200201818152505080604001518884815181101515612d1f57fe5b906020019060200201818152505080606001518784815181101515612d4057fe5b9060200190602002019015159081151581525050606081608001519050600060208201519050808886815181101515612d7557fe5b9060200190602002018181525050505050508080600101915050612aaa565b505050945094509450945094565b828054600181600116156101000203166002900490600052602060002090601f016020900481019282601f10612de357805160ff1916838001178555612e11565b82800160010185558215612e11579182015b82811115612e10578251825591602001919060010190612df5565b5b509050612e1e9190612eb9565b5090565b6080604051908101604052806000815260200160001515815260200160608152602001600073ffffffffffffffffffffffffffffffffffffffff1681525090565b60e0604051908101604052806000815260200160008152602001600081526020016000151581526020016060815260200160608152602001600073ffffffffffffffffffffffffffffffffffffffff1681525090565b612edb91905b80821115612ed7576000816000905550600101612ebf565b5090565b9056fea165627a7a72305820ce5d653007004eac80bd615166f0824a4d9fbb632c2bf38c1adc5fb7bd30dd980029",
  "source": "pragma solidity ^0.5.0;\nimport { UserIdentity } from '../user/UserIdentity.sol';\nimport { EmitsEvent } from '../event/EmitsEvent.sol';\nimport { StoreExtractor } from '../_libs/StoreExtractor.sol';\n\n/**\n * @title StoreManager\n * @dev Manage store activities here\n */\ncontract StoreManager is EmitsEvent \n{\n  // allow contract to be deactivated when necessary\n  bool private stopped = false;\n  \n  // allow identification of user\n  UserIdentity ui;\n\n  // allow extractor to work on arrays of ids\n  using StoreExtractor for uint[];\n  \n  // track product count\n  uint public prodCount;\n\n  // keep track of all the store front by their IDs\n  uint[] public sFIDs;\n\n  // map each storefront to it's content\n  mapping(uint => StoreExtractor.StoreFront) public storeFront;\n\n  // map each product id to it's content\n  mapping(uint => StoreExtractor.Product) public product;\n\n  // map store front to it's products (id)\n  mapping(uint => uint[]) public storeFrontProducts;\n\n  // map store front to active products count\n  mapping(uint => uint) public storeFrontProductsActive;\n\n  // map store owner to their store fronts \n  mapping(address => uint[]) public oMap;\n\n  modifier isOwner {\n    // require that the caller is a shop owner\n    require(ui.fnIsOwner(msg.sender), \"Only app owner can do this\"); _;\n  }\n\n  modifier isShopOwner {\n    // require that the caller is a shop owner\n    require(ui.fnIsShopOwner(msg.sender), \"Only shop owners can do this\"); _;\n  }\n\n  // restrict access to product\n  modifier ownsProduct(address _sender, uint _prodId) {\n    require(product[_prodId].productOwner == msg.sender || product[_prodId].productOwner == _sender, \n        \"Only the product's owner can do this\"); _;\n  }\n  \n  // restrict access to owner of the store\n  modifier ownsStore(uint _sFID) {\n    require(storeFront[_sFID].storeOwner == msg.sender, \n        \"Only the store owner can do this\"); _;\n  }\n  \n  // force execution to stop in emergency\n  modifier stopInEmergency { if (!stopped) _; }\n  \n  // only allow execution in emergency\n  modifier onlyInEmergency { if (stopped) _; }\n\n  constructor(UserIdentity _ui) public {\n    // allow the identification of users\n    ui = UserIdentity(_ui);\n  }\n\n  /**\n   * @dev Create a new store front\n   */\n  function createStoreFront(string memory name) public isShopOwner stopInEmergency returns (uint newIndex)\n  {\n    // create unique ID to use\n    newIndex = sFIDs.length;\n    // add new store front\n    storeFront[newIndex] = StoreExtractor.StoreFront(newIndex, true, name, msg.sender);\n    // add store front to owner's list\n    oMap[msg.sender].push(newIndex);\n    // track all sFIDs\n    sFIDs.push(newIndex);\n    // emit success event\n    emitActionSuccess(\"Store front created successfully.\");\n  }\n\n  /**\n   * @dev Add a new product to a store front\n   */\n  function addProduct(uint _sFID, uint _price, uint _qty, \n          string memory _name, string memory _imageId) public stopInEmergency ownsStore(_sFID)\n          returns (uint newIndex)\n  {\n    require(_price > 0, \"Price must be more than zero\");\n    // create unique ID to use\n    newIndex = prodCount;\n    // register product's details\n    product[newIndex] = StoreExtractor.Product(newIndex, _price, _qty, true, _name, _imageId, msg.sender);\n    // add product to store front's list of products\n    storeFrontProducts[_sFID].push(newIndex);\n    storeFrontProductsActive[_sFID] = storeFrontProducts[_sFID].length;\n    // emit success event\n    emitActionSuccess(\"Product created successfully.\");\n    // increment product count\n    prodCount = prodCount + 1;\n  }\n\n   /**\n    * @dev Update a product's details.\n    * @param _sender - allows versatility with function\n    */\n   function productUpdater(address _sender, uint _prodId, uint _price, uint _qty) public \n        stopInEmergency ownsProduct(_sender, _prodId)\n   {\n     product[_prodId].price = _price;\n     product[_prodId].qty = _qty;\n   }\n\n   /**\n    * @dev Mark a product as (de)activated.\n    */\n   function productActivator(uint _sfid, uint _prodId, bool status) public \n        stopInEmergency ownsProduct(msg.sender, _prodId) \n   {\n     // update product status\n     product[_prodId].active = status;\n     // update store products' count\n    storeFrontProductsActive[_sfid] = status \n          ? (\n              storeFrontProductsActive[_sfid] < storeFrontProducts[_sfid].length \n              ? storeFrontProductsActive[_sfid] + 1  \n              : storeFrontProducts[_sfid].length\n            )\n          : storeFrontProductsActive[_sfid] - 1;\n   }\n\n   /**\n    * @dev Mark a store front as (de)activated.\n    */\n   function storeFrontActivator(uint _sFID, bool status) public ownsStore(_sFID)\n   {\n     storeFront[_sFID].active = status;\n   }\n\n  /**\n   * @dev Get store fronts for a shop owner\n   * @return sFID[], name[], prodQty[]\n   */\n  function getStoreFronts(address _storeOwner, uint from, uint to) public view \n        returns (uint[] memory, uint[] memory, bool[] memory, bytes32[] memory)\n  {\n    // cover a specific range per request\n    require(from >= 0 && to >= 0 && to - from <= 25, \"Invalid range supplied.\");\n    // return store owner's store fronts data using extractor library\n    return oMap[_storeOwner].extractStoreFronts(from, to, storeFront, storeFrontProductsActive);\n  }\n\n  /**\n   * @dev Get some store fronts by range\n   * @return sFID[], name[], prodQty[]\n   */\n  function getSomeStoreFronts(uint from, uint to) public view \n        returns (uint[] memory, uint[] memory, bool[] memory, bytes32[] memory)\n  {\n    // cover range\n    require(from >= 0 && to >= 0 && to - from <= 25, \"Invalid range supplied.\");\n    // return store fronts data using extractor library\n    return sFIDs.extractStoreFronts(from, to, storeFront, storeFrontProductsActive);\n  }\n\n  /**\n   * @dev Get all store fronts\n   * @return sFID[], name[], prodQty[]\n   * todo:: remove this function in future to prevent DoS attack\n   */\n  function getAllStoreFronts() internal view \n        returns (uint[] memory, uint[] memory, bool[] memory, bytes32[] memory)\n  {\n    // return store fronts data using extractor library\n    return sFIDs.extractStoreFronts(0, sFIDs.length, storeFront, storeFrontProductsActive);    \n  }\n\n  /**\n   * @dev Get store front details\n   * @return (string, bool, uint)\n   */\n  function getStoreFrontDetails(uint _sFID) public view\n         returns (string memory name, bool active, uint prodQty)\n  {\n    name = storeFront[_sFID].name;\n    active = storeFront[_sFID].active;\n    prodQty = storeFrontProductsActive[_sFID];\n    return (name, active, prodQty);\n  }\n\n  /**\n   * @dev Get the products in a store front\n   */\n  function getStoreFrontProducts(uint _sFID, uint from, uint to) public view\n        returns (uint[] memory, uint[] memory, uint[] memory, \n        bool[] memory, bytes32[] memory)\n  {\n    // cover range\n    require(from >= 0 && to >= 0 && to - from <= 25, \"Invalid range supplied.\");\n    // return a tuple of arrays of product props\n    return storeFrontProducts[_sFID].extractProducts(from, to, product);\n  }\n\n  /**\n   * @dev Get store front details\n   */\n  function getProductDetails(uint _prodId) public view\n         returns (uint price, uint qty, bool active, string memory name, string memory imageId)\n  {\n    price = product[_prodId].price;\n    qty = product[_prodId].qty;\n    active = product[_prodId].active;\n    name = product[_prodId].name;\n    imageId = product[_prodId].imageId;\n    return (price, qty, active, name, imageId);\n  }\n\n  /**\n   * @dev Force contract to stop on emergency\n   */\n  function toggleContractActive() public isOwner {\n    // toggle contract active state\n    stopped = !stopped;\n  }\n  \n}\n",
  "sourcePath": "/home/cmdlucas/blockchain-dev/consensys-project/online-marketplace-dapp/contracts/store/StoreManager.sol",
  "compiler": {
    "name": "solc",
    "version": "0.5.0+commit.1d4f565a.Emscripten.clang"
  },
  "schemaVersion": "3.0.9",
  "updatedAt": "2019-07-08T19:26:41.921Z",
  "devdoc": {
    "details": "Manage store activities here",
    "methods": {
      "addProduct(uint256,uint256,uint256,string,string)": {
        "details": "Add a new product to a store front"
      },
      "createStoreFront(string)": {
        "details": "Create a new store front"
      },
      "getProductDetails(uint256)": {
        "details": "Get store front details"
      },
      "getSomeStoreFronts(uint256,uint256)": {
        "details": "Get some store fronts by range",
        "return": "sFID[], name[], prodQty[]"
      },
      "getStoreFrontDetails(uint256)": {
        "details": "Get store front details",
        "return": "(string, bool, uint)"
      },
      "getStoreFrontProducts(uint256,uint256,uint256)": {
        "details": "Get the products in a store front"
      },
      "getStoreFronts(address,uint256,uint256)": {
        "details": "Get store fronts for a shop owner",
        "return": "sFID[], name[], prodQty[]"
      },
      "productActivator(uint256,uint256,bool)": {
        "details": "Mark a product as (de)activated."
      },
      "productUpdater(address,uint256,uint256,uint256)": {
        "details": "Update a product's details.",
        "params": {
          "_sender": "- allows versatility with function"
        }
      },
      "storeFrontActivator(uint256,bool)": {
        "details": "Mark a store front as (de)activated."
      },
      "toggleContractActive()": {
        "details": "Force contract to stop on emergency"
      }
    },
    "title": "StoreManager"
  },
  "userdoc": {
    "methods": {}
  }
}