{
  "contractName": "StoreManager",
  "abi": [
    {
      "constant": true,
      "inputs": [],
      "name": "prodCount",
      "outputs": [
        {
          "name": "",
          "type": "uint256"
        }
      ],
      "payable": false,
      "stateMutability": "view",
      "type": "function"
    },
    {
      "constant": true,
      "inputs": [
        {
          "name": "",
          "type": "uint256"
        }
      ],
      "name": "product",
      "outputs": [
        {
          "name": "id",
          "type": "uint256"
        },
        {
          "name": "price",
          "type": "uint256"
        },
        {
          "name": "qty",
          "type": "uint256"
        },
        {
          "name": "active",
          "type": "bool"
        },
        {
          "name": "name",
          "type": "string"
        },
        {
          "name": "imageId",
          "type": "string"
        },
        {
          "name": "productOwner",
          "type": "address"
        }
      ],
      "payable": false,
      "stateMutability": "view",
      "type": "function"
    },
    {
      "constant": true,
      "inputs": [
        {
          "name": "",
          "type": "uint256"
        }
      ],
      "name": "sFIDs",
      "outputs": [
        {
          "name": "",
          "type": "uint256"
        }
      ],
      "payable": false,
      "stateMutability": "view",
      "type": "function"
    },
    {
      "constant": true,
      "inputs": [
        {
          "name": "",
          "type": "uint256"
        },
        {
          "name": "",
          "type": "uint256"
        }
      ],
      "name": "storeFrontProducts",
      "outputs": [
        {
          "name": "",
          "type": "uint256"
        }
      ],
      "payable": false,
      "stateMutability": "view",
      "type": "function"
    },
    {
      "constant": true,
      "inputs": [
        {
          "name": "",
          "type": "address"
        },
        {
          "name": "",
          "type": "uint256"
        }
      ],
      "name": "oMap",
      "outputs": [
        {
          "name": "",
          "type": "uint256"
        }
      ],
      "payable": false,
      "stateMutability": "view",
      "type": "function"
    },
    {
      "constant": true,
      "inputs": [
        {
          "name": "",
          "type": "uint256"
        }
      ],
      "name": "storeFront",
      "outputs": [
        {
          "name": "id",
          "type": "uint256"
        },
        {
          "name": "active",
          "type": "bool"
        },
        {
          "name": "name",
          "type": "string"
        },
        {
          "name": "storeOwner",
          "type": "address"
        }
      ],
      "payable": false,
      "stateMutability": "view",
      "type": "function"
    },
    {
      "inputs": [
        {
          "name": "_ui",
          "type": "address"
        }
      ],
      "payable": false,
      "stateMutability": "nonpayable",
      "type": "constructor"
    },
    {
      "anonymous": false,
      "inputs": [
        {
          "indexed": false,
          "name": "status",
          "type": "int8"
        },
        {
          "indexed": false,
          "name": "statement",
          "type": "string"
        }
      ],
      "name": "ActionDone",
      "type": "event"
    },
    {
      "constant": false,
      "inputs": [
        {
          "name": "name",
          "type": "string"
        }
      ],
      "name": "createStoreFront",
      "outputs": [
        {
          "name": "newIndex",
          "type": "uint256"
        }
      ],
      "payable": false,
      "stateMutability": "nonpayable",
      "type": "function"
    },
    {
      "constant": false,
      "inputs": [
        {
          "name": "_sFID",
          "type": "uint256"
        },
        {
          "name": "_price",
          "type": "uint256"
        },
        {
          "name": "_qty",
          "type": "uint256"
        },
        {
          "name": "_name",
          "type": "string"
        },
        {
          "name": "_imageId",
          "type": "string"
        }
      ],
      "name": "addProduct",
      "outputs": [
        {
          "name": "newIndex",
          "type": "uint256"
        }
      ],
      "payable": false,
      "stateMutability": "nonpayable",
      "type": "function"
    },
    {
      "constant": false,
      "inputs": [
        {
          "name": "_sender",
          "type": "address"
        },
        {
          "name": "_prodId",
          "type": "uint256"
        },
        {
          "name": "_price",
          "type": "uint256"
        },
        {
          "name": "_qty",
          "type": "uint256"
        }
      ],
      "name": "productUpdater",
      "outputs": [],
      "payable": false,
      "stateMutability": "nonpayable",
      "type": "function"
    },
    {
      "constant": false,
      "inputs": [
        {
          "name": "_prodId",
          "type": "uint256"
        },
        {
          "name": "status",
          "type": "bool"
        }
      ],
      "name": "productActivator",
      "outputs": [],
      "payable": false,
      "stateMutability": "nonpayable",
      "type": "function"
    },
    {
      "constant": false,
      "inputs": [
        {
          "name": "_sFID",
          "type": "uint256"
        },
        {
          "name": "status",
          "type": "bool"
        }
      ],
      "name": "storeFrontActivator",
      "outputs": [],
      "payable": false,
      "stateMutability": "nonpayable",
      "type": "function"
    },
    {
      "constant": true,
      "inputs": [
        {
          "name": "_storeOwner",
          "type": "address"
        },
        {
          "name": "from",
          "type": "uint256"
        },
        {
          "name": "to",
          "type": "uint256"
        }
      ],
      "name": "getStoreFronts",
      "outputs": [
        {
          "name": "",
          "type": "uint256[]"
        },
        {
          "name": "",
          "type": "uint256[]"
        },
        {
          "name": "",
          "type": "bool[]"
        },
        {
          "name": "",
          "type": "bytes32[]"
        }
      ],
      "payable": false,
      "stateMutability": "view",
      "type": "function"
    },
    {
      "constant": true,
      "inputs": [
        {
          "name": "from",
          "type": "uint256"
        },
        {
          "name": "to",
          "type": "uint256"
        }
      ],
      "name": "getSomeStoreFronts",
      "outputs": [
        {
          "name": "",
          "type": "uint256[]"
        },
        {
          "name": "",
          "type": "uint256[]"
        },
        {
          "name": "",
          "type": "bool[]"
        },
        {
          "name": "",
          "type": "bytes32[]"
        }
      ],
      "payable": false,
      "stateMutability": "view",
      "type": "function"
    },
    {
      "constant": true,
      "inputs": [
        {
          "name": "_sFID",
          "type": "uint256"
        }
      ],
      "name": "getStoreFrontDetails",
      "outputs": [
        {
          "name": "name",
          "type": "string"
        },
        {
          "name": "active",
          "type": "bool"
        },
        {
          "name": "prodQty",
          "type": "uint256"
        }
      ],
      "payable": false,
      "stateMutability": "view",
      "type": "function"
    },
    {
      "constant": true,
      "inputs": [
        {
          "name": "_sFID",
          "type": "uint256"
        },
        {
          "name": "from",
          "type": "uint256"
        },
        {
          "name": "to",
          "type": "uint256"
        }
      ],
      "name": "getStoreFrontProducts",
      "outputs": [
        {
          "name": "",
          "type": "uint256[]"
        },
        {
          "name": "",
          "type": "uint256[]"
        },
        {
          "name": "",
          "type": "uint256[]"
        },
        {
          "name": "",
          "type": "bool[]"
        },
        {
          "name": "",
          "type": "bytes32[]"
        }
      ],
      "payable": false,
      "stateMutability": "view",
      "type": "function"
    },
    {
      "constant": true,
      "inputs": [
        {
          "name": "_prodId",
          "type": "uint256"
        }
      ],
      "name": "getProductDetails",
      "outputs": [
        {
          "name": "price",
          "type": "uint256"
        },
        {
          "name": "qty",
          "type": "uint256"
        },
        {
          "name": "active",
          "type": "bool"
        },
        {
          "name": "name",
          "type": "string"
        },
        {
          "name": "imageId",
          "type": "string"
        }
      ],
      "payable": false,
      "stateMutability": "view",
      "type": "function"
    }
  ],
  "bytecode": "0x608060405234801561001057600080fd5b50604051602080612c488339810180604052602081101561003057600080fd5b8101908080519060200190929190505050806000806101000a81548173ffffffffffffffffffffffffffffffffffffffff021916908373ffffffffffffffffffffffffffffffffffffffff16021790555050612bb7806100916000396000f3fe6080604052600436106100e6576000357c0100000000000000000000000000000000000000000000000000000000900463ffffffff168063017e19a3146100eb57806309d0df32146101165780632fc826bd146102a85780633d967a3d14610384578063401c2003146103cb57806341e17574146104125780635ea1ee04146104d85780636813b53b14610547578063780bd3f11461068057806392158b86146107f35780639498b474146108425780639ee129e81461089b5780639f90cf2114610a5f578063acec337a14610bd1578063b3e7677014610d62578063fd5e943a14610dd1575b600080fd5b3480156100f757600080fd5b50610100610eca565b6040518082815260200191505060405180910390f35b34801561012257600080fd5b506101796004803603606081101561013957600080fd5b81019080803573ffffffffffffffffffffffffffffffffffffffff1690602001909291908035906020019092919080359060200190929190505050610ed0565b6040518080602001806020018060200180602001858103855289818151815260200191508051906020019060200280838360005b838110156101c85780820151818401526020810190506101ad565b50505050905001858103845288818151815260200191508051906020019060200280838360005b8381101561020a5780820151818401526020810190506101ef565b50505050905001858103835287818151815260200191508051906020019060200280838360005b8381101561024c578082015181840152602081019050610231565b50505050905001858103825286818151815260200191508051906020019060200280838360005b8381101561028e578082015181840152602081019050610273565b505050509050019850505050505050505060405180910390f35b3480156102b457600080fd5b5061036e600480360360208110156102cb57600080fd5b81019080803590602001906401000000008111156102e857600080fd5b8201836020820111156102fa57600080fd5b8035906020019184600183028401116401000000008311171561031c57600080fd5b91908080601f016020809104026020016040519081016040528093929190818152602001838380828437600081840152601f19601f820116905080830192505050505050509192919290505050610fd5565b6040518082815260200191505060405180910390f35b34801561039057600080fd5b506103c9600480360360408110156103a757600080fd5b8101908080359060200190929190803515159060200190929190505050611326565b005b3480156103d757600080fd5b50610410600480360360408110156103ee57600080fd5b81019080803590602001909291908035151590602001909291905050506114c7565b005b34801561041e57600080fd5b5061044b6004803603602081101561043557600080fd5b81019080803590602001909291905050506115d4565b604051808060200184151515158152602001838152602001828103825285818151815260200191508051906020019080838360005b8381101561049b578082015181840152602081019050610480565b50505050905090810190601f1680156104c85780820380516001836020036101000a031916815260200191505b5094505050505060405180910390f35b3480156104e457600080fd5b50610545600480360360808110156104fb57600080fd5b81019080803573ffffffffffffffffffffffffffffffffffffffff1690602001909291908035906020019092919080359060200190929190803590602001909291905050506116d9565b005b34801561055357600080fd5b506105806004803603602081101561056a57600080fd5b8101908080359060200190929190505050611884565b60405180868152602001858152602001841515151581526020018060200180602001838103835285818151815260200191508051906020019080838360005b838110156105da5780820151818401526020810190506105bf565b50505050905090810190601f1680156106075780820380516001836020036101000a031916815260200191505b50838103825284818151815260200191508051906020019080838360005b83811015610640578082015181840152602081019050610625565b50505050905090810190601f16801561066d5780820380516001836020036101000a031916815260200191505b5097505050505050505060405180910390f35b34801561068c57600080fd5b506106b9600480360360208110156106a357600080fd5b8101908080359060200190929190505050611a5e565b604051808881526020018781526020018681526020018515151515815260200180602001806020018473ffffffffffffffffffffffffffffffffffffffff1673ffffffffffffffffffffffffffffffffffffffff168152602001838103835286818151815260200191508051906020019080838360005b8381101561074b578082015181840152602081019050610730565b50505050905090810190601f1680156107785780820380516001836020036101000a031916815260200191505b50838103825285818151815260200191508051906020019080838360005b838110156107b1578082015181840152602081019050610796565b50505050905090810190601f1680156107de5780820380516001836020036101000a031916815260200191505b50995050505050505050505060405180910390f35b3480156107ff57600080fd5b5061082c6004803603602081101561081657600080fd5b8101908080359060200190929190505050611bfd565b6040518082815260200191505060405180910390f35b34801561084e57600080fd5b506108856004803603604081101561086557600080fd5b810190808035906020019092919080359060200190929190505050611c20565b6040518082815260200191505060405180910390f35b3480156108a757600080fd5b506108e8600480360360608110156108be57600080fd5b81019080803590602001909291908035906020019092919080359060200190929190505050611c50565b60405180806020018060200180602001806020018060200186810386528b818151815260200191508051906020019060200280838360005b8381101561093b578082015181840152602081019050610920565b5050505090500186810385528a818151815260200191508051906020019060200280838360005b8381101561097d578082015181840152602081019050610962565b50505050905001868103845289818151815260200191508051906020019060200280838360005b838110156109bf5780820151818401526020810190506109a4565b50505050905001868103835288818151815260200191508051906020019060200280838360005b83811015610a015780820151818401526020810190506109e6565b50505050905001868103825287818151815260200191508051906020019060200280838360005b83811015610a43578082015181840152602081019050610a28565b505050509050019a505050505050505050505060405180910390f35b348015610a6b57600080fd5b50610aa260048036036040811015610a8257600080fd5b810190808035906020019092919080359060200190929190505050611d2c565b6040518080602001806020018060200180602001858103855289818151815260200191508051906020019060200280838360005b83811015610af1578082015181840152602081019050610ad6565b50505050905001858103845288818151815260200191508051906020019060200280838360005b83811015610b33578082015181840152602081019050610b18565b50505050905001858103835287818151815260200191508051906020019060200280838360005b83811015610b75578082015181840152602081019050610b5a565b50505050905001858103825286818151815260200191508051906020019060200280838360005b83811015610bb7578082015181840152602081019050610b9c565b505050509050019850505050505050505060405180910390f35b348015610bdd57600080fd5b50610d4c600480360360a0811015610bf457600080fd5b8101908080359060200190929190803590602001909291908035906020019092919080359060200190640100000000811115610c2f57600080fd5b820183602082011115610c4157600080fd5b80359060200191846001830284011164010000000083111715610c6357600080fd5b91908080601f016020809104026020016040519081016040528093929190818152602001838380828437600081840152601f19601f82011690508083019250505050505050919291929080359060200190640100000000811115610cc657600080fd5b820183602082011115610cd857600080fd5b80359060200191846001830284011164010000000083111715610cfa57600080fd5b91908080601f016020809104026020016040519081016040528093929190818152602001838380828437600081840152601f19601f820116905080830192505050505050509192919290505050611df4565b6040518082815260200191505060405180910390f35b348015610d6e57600080fd5b50610dbb60048036036040811015610d8557600080fd5b81019080803573ffffffffffffffffffffffffffffffffffffffff169060200190929190803590602001909291905050506120ff565b6040518082815260200191505060405180910390f35b348015610ddd57600080fd5b50610e0a60048036036020811015610df457600080fd5b810190808035906020019092919050505061212f565b6040518085815260200184151515158152602001806020018373ffffffffffffffffffffffffffffffffffffffff1673ffffffffffffffffffffffffffffffffffffffff168152602001828103825284818151815260200191508051906020019080838360005b83811015610e8c578082015181840152602081019050610e71565b50505050905090810190601f168015610eb95780820380516001836020036101000a031916815260200191505b509550505050505060405180910390f35b60015481565b60608060608060008610158015610ee8575060008510155b8015610ef75750601986860311155b1515610f6b576040517f08c379a00000000000000000000000000000000000000000000000000000000081526004018080602001828103825260178152602001807f496e76616c69642072616e676520737570706c6965642e00000000000000000081525060200191505060405180910390fd5b610fc4868660036005600660008d73ffffffffffffffffffffffffffffffffffffffff1673ffffffffffffffffffffffffffffffffffffffff16815260200190815260200160002061222490949392919063ffffffff16565b935093509350935093509350935093565b60008060009054906101000a900473ffffffffffffffffffffffffffffffffffffffff1673ffffffffffffffffffffffffffffffffffffffff1663ff0c2085336040518263ffffffff167c0100000000000000000000000000000000000000000000000000000000028152600401808273ffffffffffffffffffffffffffffffffffffffff1673ffffffffffffffffffffffffffffffffffffffff16815260200191505060206040518083038186803b15801561109157600080fd5b505afa1580156110a5573d6000803e3d6000fd5b505050506040513d60208110156110bb57600080fd5b81019080805190602001909291905050501515611140576040517f08c379a000000000000000000000000000000000000000000000000000000000815260040180806020018281038252601c8152602001807f4f6e6c792073686f70206f776e6572732063616e20646f20746869730000000081525060200191505060405180910390fd5b60028054905090506080604051908101604052808281526020016001151581526020018381526020013373ffffffffffffffffffffffffffffffffffffffff16815250600360008381526020019081526020016000206000820151816000015560208201518160010160006101000a81548160ff02191690831515021790555060408201518160020190805190602001906111dc929190612a4f565b5060608201518160030160006101000a81548173ffffffffffffffffffffffffffffffffffffffff021916908373ffffffffffffffffffffffffffffffffffffffff160217905550905050600660003373ffffffffffffffffffffffffffffffffffffffff1673ffffffffffffffffffffffffffffffffffffffff1681526020019081526020016000208190806001815401808255809150509060018203906000526020600020016000909192909190915055506002819080600181540180825580915050906001820390600052602060002001600090919290919091505550611321606060405190810160405280602181526020017f53746f72652066726f6e742063726561746564207375636365737366756c6c7981526020017f2e00000000000000000000000000000000000000000000000000000000000000815250612566565b919050565b33823373ffffffffffffffffffffffffffffffffffffffff166004600083815260200190815260200160002060060160009054906101000a900473ffffffffffffffffffffffffffffffffffffffff1673ffffffffffffffffffffffffffffffffffffffff1614806113f957508173ffffffffffffffffffffffffffffffffffffffff166004600083815260200190815260200160002060060160009054906101000a900473ffffffffffffffffffffffffffffffffffffffff1673ffffffffffffffffffffffffffffffffffffffff16145b1515611493576040517f08c379a00000000000000000000000000000000000000000000000000000000081526004018080602001828103825260248152602001807f4f6e6c79207468652070726f647563742773206f776e65722063616e20646f2081526020017f746869730000000000000000000000000000000000000000000000000000000081525060400191505060405180910390fd5b826004600086815260200190815260200160002060030160006101000a81548160ff02191690831515021790555050505050565b813373ffffffffffffffffffffffffffffffffffffffff166003600083815260200190815260200160002060030160009054906101000a900473ffffffffffffffffffffffffffffffffffffffff1673ffffffffffffffffffffffffffffffffffffffff161415156115a1576040517f08c379a00000000000000000000000000000000000000000000000000000000081526004018080602001828103825260208152602001807f4f6e6c79207468652073746f7265206f776e65722063616e20646f207468697381525060200191505060405180910390fd5b816003600085815260200190815260200160002060010160006101000a81548160ff021916908315150217905550505050565b6060600080600360008581526020019081526020016000206002018054600181600116156101000203166002900480601f0160208091040260200160405190810160405280929190818152602001828054600181600116156101000203166002900480156116835780601f1061165857610100808354040283529160200191611683565b820191906000526020600020905b81548152906001019060200180831161166657829003601f168201915b505050505092506003600085815260200190815260200160002060010160009054906101000a900460ff169150600560008581526020019081526020016000208054905090508282829250925092509193909250565b83833373ffffffffffffffffffffffffffffffffffffffff166004600083815260200190815260200160002060060160009054906101000a900473ffffffffffffffffffffffffffffffffffffffff1673ffffffffffffffffffffffffffffffffffffffff1614806117ac57508173ffffffffffffffffffffffffffffffffffffffff166004600083815260200190815260200160002060060160009054906101000a900473ffffffffffffffffffffffffffffffffffffffff1673ffffffffffffffffffffffffffffffffffffffff16145b1515611846576040517f08c379a00000000000000000000000000000000000000000000000000000000081526004018080602001828103825260248152602001807f4f6e6c79207468652070726f647563742773206f776e65722063616e20646f2081526020017f746869730000000000000000000000000000000000000000000000000000000081525060400191505060405180910390fd5b836004600087815260200190815260200160002060010181905550826004600087815260200190815260200160002060020181905550505050505050565b600080600060608060046000878152602001908152602001600020600101549450600460008781526020019081526020016000206002015493506004600087815260200190815260200160002060030160009054906101000a900460ff169250600460008781526020019081526020016000206004018054600181600116156101000203166002900480601f01602080910402602001604051908101604052809291908181526020018280546001816001161561010002031660029004801561198e5780601f106119635761010080835404028352916020019161198e565b820191906000526020600020905b81548152906001019060200180831161197157829003601f168201915b50505050509150600460008781526020019081526020016000206005018054600181600116156101000203166002900480601f016020809104026020016040519081016040528092919081815260200182805460018160011615610100020316600290048015611a3f5780601f10611a1457610100808354040283529160200191611a3f565b820191906000526020600020905b815481529060010190602001808311611a2257829003601f168201915b5050505050905084848484849450945094509450945091939590929450565b60046020528060005260406000206000915090508060000154908060010154908060020154908060030160009054906101000a900460ff1690806004018054600181600116156101000203166002900480601f016020809104026020016040519081016040528092919081815260200182805460018160011615610100020316600290048015611b2f5780601f10611b0457610100808354040283529160200191611b2f565b820191906000526020600020905b815481529060010190602001808311611b1257829003601f168201915b505050505090806005018054600181600116156101000203166002900480601f016020809104026020016040519081016040528092919081815260200182805460018160011615610100020316600290048015611bcd5780601f10611ba257610100808354040283529160200191611bcd565b820191906000526020600020905b815481529060010190602001808311611bb057829003601f168201915b5050505050908060060160009054906101000a900473ffffffffffffffffffffffffffffffffffffffff16905087565b600281815481101515611c0c57fe5b906000526020600020016000915090505481565b600560205281600052604060002081815481101515611c3b57fe5b90600052602060002001600091509150505481565b606080606080606060008710158015611c6a575060008610155b8015611c795750601987870311155b1515611ced576040517f08c379a00000000000000000000000000000000000000000000000000000000081526004018080602001828103825260178152602001807f496e76616c69642072616e676520737570706c6965642e00000000000000000081525060200191505060405180910390fd5b611d1787876004600560008d8152602001908152602001600020612611909392919063ffffffff16565b94509450945094509450939792965093509350565b60608060608060008610158015611d44575060008510155b8015611d535750601986860311155b1515611dc7576040517f08c379a00000000000000000000000000000000000000000000000000000000081526004018080602001828103825260178152602001807f496e76616c69642072616e676520737570706c6965642e00000000000000000081525060200191505060405180910390fd5b611de3868660036005600261222490949392919063ffffffff16565b935093509350935092959194509250565b6000853373ffffffffffffffffffffffffffffffffffffffff166003600083815260200190815260200160002060030160009054906101000a900473ffffffffffffffffffffffffffffffffffffffff1673ffffffffffffffffffffffffffffffffffffffff16141515611ed0576040517f08c379a00000000000000000000000000000000000000000000000000000000081526004018080602001828103825260208152602001807f4f6e6c79207468652073746f7265206f776e65722063616e20646f207468697381525060200191505060405180910390fd5b600086111515611f48576040517f08c379a000000000000000000000000000000000000000000000000000000000815260040180806020018281038252601c8152602001807f5072696365206d757374206265206d6f7265207468616e207a65726f0000000081525060200191505060405180910390fd5b600154915060e0604051908101604052808381526020018781526020018681526020016001151581526020018581526020018481526020013373ffffffffffffffffffffffffffffffffffffffff168152506004600084815260200190815260200160002060008201518160000155602082015181600101556040820151816002015560608201518160030160006101000a81548160ff0219169083151502179055506080820151816004019080519060200190612007929190612a4f565b5060a0820151816005019080519060200190612024929190612a4f565b5060c08201518160060160006101000a81548173ffffffffffffffffffffffffffffffffffffffff021916908373ffffffffffffffffffffffffffffffffffffffff160217905550905050600560008881526020019081526020016000208290806001815401808255809150509060018203906000526020600020016000909192909190915055506120ea6040805190810160405280601d81526020017f50726f647563742063726561746564207375636365737366756c6c792e000000815250612566565b60018054016001819055505095945050505050565b60066020528160005260406000208181548110151561211a57fe5b90600052602060002001600091509150505481565b60036020528060005260406000206000915090508060000154908060010160009054906101000a900460ff1690806002018054600181600116156101000203166002900480601f0160208091040260200160405190810160405280929190818152602001828054600181600116156101000203166002900480156121f45780601f106121c9576101008083540402835291602001916121f4565b820191906000526020600020905b8154815290600101906020018083116121d757829003601f168201915b5050505050908060030160009054906101000a900473ffffffffffffffffffffffffffffffffffffffff16905084565b6060806060806000898054905088101561223e5787612244565b89805490505b905060608a8054905060405190808252806020026020018201604052801561227b5781602001602082028038833980820191505090505b50905060608b805490506040519080825280602002602001820160405280156122b35781602001602082028038833980820191505090505b50905060608c805490506040519080825280602002602001820160405280156122eb5781602001602082028038833980820191505090505b50905060008c90505b848110156124f75760008e8281548110151561230c57fe5b90600052602060002001549050612321612acf565b8c600083815260200190815260200160002060806040519081016040529081600082015481526020016001820160009054906101000a900460ff16151515158152602001600282018054600181600116156101000203166002900480601f0160208091040260200160405190810160405280929190818152602001828054600181600116156101000203166002900480156123fd5780601f106123d2576101008083540402835291602001916123fd565b820191906000526020600020905b8154815290600101906020018083116123e057829003601f168201915b505050505081526020016003820160009054906101000a900473ffffffffffffffffffffffffffffffffffffffff1673ffffffffffffffffffffffffffffffffffffffff1673ffffffffffffffffffffffffffffffffffffffff1681525050905060608160400151905060006020820151905080868681518110151561247f57fe5b9060200190602002018181525050826020015187868151811015156124a057fe5b90602001906020020190151590811515815250508d60008581526020019081526020016000208054905088868151811015156124d857fe5b90602001906020020181815250505050505080806001019150506122f4565b508c8383838380548060200260200160405190810160405280929190818152602001828054801561254757602002820191906000526020600020905b815481526020019060010190808311612533575b5050505050935097509750975097505050505095509550955095915050565b7f73e8d12a7b1137bf3268a42d52951e3ffbdee6d9518c4747fdb0c20f16bf6fa4600182604051808360000b815260200180602001828103825283818151815260200191508051906020019080838360005b838110156125d35780820151818401526020810190506125b8565b50505050905090810190601f1680156126005780820380516001836020036101000a031916815260200191505b50935050505060405180910390a150565b60608060608060606000898054905088101561262d5787612633565b89805490505b905089805490506040519080825280602002602001820160405280156126685781602001602082028038833980820191505090505b509550898054905060405190808252806020026020018201604052801561269e5781602001602082028038833980820191505090505b50945089805490506040519080825280602002602001820160405280156126d45781602001602082028038833980820191505090505b509350898054905060405190808252806020026020018201604052801561270a5781602001602082028038833980820191505090505b50925089805490506040519080825280602002602001820160405280156127405781602001602082028038833980820191505090505b50915060008990505b81811015612a335760008b8281548110151561276157fe5b90600052602060002001549050612776612b10565b89600083815260200190815260200160002060e060405190810160405290816000820154815260200160018201548152602001600282015481526020016003820160009054906101000a900460ff16151515158152602001600482018054600181600116156101000203166002900480601f0160208091040260200160405190810160405280929190818152602001828054600181600116156101000203166002900480156128665780601f1061283b57610100808354040283529160200191612866565b820191906000526020600020905b81548152906001019060200180831161284957829003601f168201915b50505050508152602001600582018054600181600116156101000203166002900480601f0160208091040260200160405190810160405280929190818152602001828054600181600116156101000203166002900480156129085780601f106128dd57610100808354040283529160200191612908565b820191906000526020600020905b8154815290600101906020018083116128eb57829003601f168201915b505050505081526020016006820160009054906101000a900473ffffffffffffffffffffffffffffffffffffffff1673ffffffffffffffffffffffffffffffffffffffff1673ffffffffffffffffffffffffffffffffffffffff168152505090508060000151898481518110151561297c57fe5b90602001906020020181815250508060200151888481518110151561299d57fe5b9060200190602002018181525050806040015187848151811015156129be57fe5b9060200190602002018181525050806060015186848151811015156129df57fe5b9060200190602002019015159081151581525050606081608001519050600060208201519050808786815181101515612a1457fe5b9060200190602002018181525050505050508080600101915050612749565b5085858585859550955095509550955050945094509450945094565b828054600181600116156101000203166002900490600052602060002090601f016020900481019282601f10612a9057805160ff1916838001178555612abe565b82800160010185558215612abe579182015b82811115612abd578251825591602001919060010190612aa2565b5b509050612acb9190612b66565b5090565b6080604051908101604052806000815260200160001515815260200160608152602001600073ffffffffffffffffffffffffffffffffffffffff1681525090565b60e0604051908101604052806000815260200160008152602001600081526020016000151581526020016060815260200160608152602001600073ffffffffffffffffffffffffffffffffffffffff1681525090565b612b8891905b80821115612b84576000816000905550600101612b6c565b5090565b9056fea165627a7a7230582078e817cd48334c8cd67c410690b488b2e3cba75ed0c5224e0c2789fb4334f6ee0029",
  "source": "pragma solidity ^0.5.0;\nimport { UserIdentity } from '../user/UserIdentity.sol';\nimport { EmitsEvent } from '../event/EmitsEvent.sol';\nimport { StoreExtractor } from '../_libs/StoreExtractor.sol';\n\n/**\n * @title StoreManager\n * @dev Manage store activities here\n */\ncontract StoreManager is EmitsEvent \n{\n  // allow identification of user\n  UserIdentity ui;\n\n  // allow extractor to work on arrays of ids\n  using StoreExtractor for uint[];\n  \n  // track product count\n  uint public prodCount;\n\n  // keep track of all the store front by their IDs\n  uint[] public sFIDs;\n\n  // map each storefront to it's content\n  mapping(uint => StoreExtractor.StoreFront) public storeFront;\n\n  // map each product id to it's content\n  mapping(uint => StoreExtractor.Product) public product;\n\n  // map store front to it's products (id)\n  mapping(uint => uint[]) public storeFrontProducts;\n\n  // map store owner to their store fronts \n  mapping(address => uint[]) public oMap;\n\n  modifier isShopOwner {\n    // require that the caller is a shop owner\n    require(ui.fnIsShopOwner(msg.sender), \"Only shop owners can do this\"); _;\n  }\n  \n  // restrict access to product\n  modifier ownsProduct(address _sender, uint _prodId) {\n    require(product[_prodId].productOwner == msg.sender || product[_prodId].productOwner == _sender, \n        \"Only the product's owner can do this\"); _;\n  }\n  \n  // restrict access to owner of the store\n  modifier ownsStore(uint _sFID) {\n    require(storeFront[_sFID].storeOwner == msg.sender, \n        \"Only the store owner can do this\"); _;\n  }\n\n  constructor(UserIdentity _ui) public {\n    // allow the identification of users\n    ui = UserIdentity(_ui);\n  }\n\n  /**\n   * @dev Create a new store front\n   */\n  function createStoreFront(string memory name) public isShopOwner returns (uint newIndex)\n  {\n    // create unique ID to use\n    newIndex = sFIDs.length;\n    // add new store front\n    storeFront[newIndex] = StoreExtractor.StoreFront(newIndex, true, name, msg.sender);\n    // add store front to owner's list\n    oMap[msg.sender].push(newIndex);\n    // track all sFIDs\n    sFIDs.push(newIndex);\n    // emit success event\n    emitActionSuccess(\"Store front created successfully.\");\n  }\n\n  /**\n   * @dev Add a new product to a store front\n   */\n  function addProduct(uint _sFID, uint _price, uint _qty, \n          string memory _name, string memory _imageId) public ownsStore(_sFID)\n          returns (uint newIndex)\n  {\n    require(_price > 0, \"Price must be more than zero\");\n    // create unique ID to use\n    newIndex = prodCount;\n    // register product's details\n    product[newIndex] = StoreExtractor.Product(newIndex, _price, _qty, true, _name, _imageId, msg.sender);\n    // add product to store front's list of products\n    storeFrontProducts[_sFID].push(newIndex);\n    // emit success event\n    emitActionSuccess(\"Product created successfully.\");\n    // increment product count\n    prodCount = prodCount + 1;\n  }\n\n   /**\n    * @dev Update a product's details.\n    * @param _sender - allows versatility with function\n    */\n   function productUpdater(address _sender, uint _prodId, uint _price, uint _qty) public \n        ownsProduct(_sender, _prodId)\n   {\n     product[_prodId].price = _price;\n     product[_prodId].qty = _qty;\n   }\n\n   /**\n    * @dev Mark a product as (de)activated.\n    */\n   function productActivator(uint _prodId, bool status) public ownsProduct(msg.sender, _prodId)\n   {\n     product[_prodId].active = status;\n   }\n\n   /**\n    * @dev Mark a store front as (de)activated.\n    */\n   function storeFrontActivator(uint _sFID, bool status) public ownsStore(_sFID)\n   {\n     storeFront[_sFID].active = status;\n   }\n\n  /**\n   * @dev Get store fronts for a shop owner\n   * @return sFID[], name[], prodQty[]\n   */\n  function getStoreFronts(address _storeOwner, uint from, uint to) public view \n        returns (uint[] memory, uint[] memory, bool[] memory, bytes32[] memory)\n  {\n    // cover range\n    require(from >= 0 && to >= 0 && to - from <= 25, \"Invalid range supplied.\");\n    // return store owner's store fronts data using extractor library\n    return oMap[_storeOwner].extractStoreFronts(from, to, storeFront, storeFrontProducts);\n  }\n\n  /**\n   * @dev Get some store fronts by range\n   * @return sFID[], name[], prodQty[]\n   */\n  function getSomeStoreFronts(uint from, uint to) public view \n        returns (uint[] memory, uint[] memory, bool[] memory, bytes32[] memory)\n  {\n    // cover range\n    require(from >= 0 && to >= 0 && to - from <= 25, \"Invalid range supplied.\");\n    // return store fronts data using extractor library\n    return sFIDs.extractStoreFronts(from, to, storeFront, storeFrontProducts);\n  }\n\n  /**\n   * @dev Get all store fronts\n   * @return sFID[], name[], prodQty[]\n   * todo:: remove this function in future to prevent DoS attack\n   */\n  function getAllStoreFronts() internal view \n        returns (uint[] memory, uint[] memory, bool[] memory, bytes32[] memory)\n  {\n    // return store fronts data using extractor library\n    return sFIDs.extractStoreFronts(0, sFIDs.length, storeFront, storeFrontProducts);    \n  }\n\n  /**\n   * @dev Get store front details\n   * @return (string, bool, uint)\n   */\n  function getStoreFrontDetails(uint _sFID) public view\n         returns (string memory name, bool active, uint prodQty)\n  {\n    name = storeFront[_sFID].name;\n    active = storeFront[_sFID].active;\n    prodQty = storeFrontProducts[_sFID].length;\n    return (name, active, prodQty);\n  }\n\n  /**\n   * @dev Get the products in a store front\n   */\n  function getStoreFrontProducts(uint _sFID, uint from, uint to) public view\n        returns (uint[] memory, uint[] memory, uint[] memory, \n        bool[] memory, bytes32[] memory)\n  {\n    // cover range\n    require(from >= 0 && to >= 0 && to - from <= 25, \"Invalid range supplied.\");\n    // return a tuple of arrays of product props\n    return storeFrontProducts[_sFID].extractProducts(from, to, product);\n  }\n\n  /**\n   * @dev Get store front details\n   */\n   function getProductDetails(uint _prodId) public view\n         returns (uint price, uint qty, bool active, string memory name, string memory imageId)\n   {\n     price = product[_prodId].price;\n     qty = product[_prodId].qty;\n     active = product[_prodId].active;\n     name = product[_prodId].name;\n     imageId = product[_prodId].imageId;\n     return (price, qty, active, name, imageId);\n   }\n  \n}\n",
  "sourcePath": "/home/cmdlucas/blockchain-dev/consensys-project/online-marketplace-dapp/contracts/store/StoreManager.sol",
  "compiler": {
    "name": "solc",
    "version": "0.5.0+commit.1d4f565a.Emscripten.clang"
  },
  "schemaVersion": "3.0.9",
  "updatedAt": "2019-07-08T07:33:50.537Z",
  "devdoc": {
    "details": "Manage store activities here",
    "methods": {
      "addProduct(uint256,uint256,uint256,string,string)": {
        "details": "Add a new product to a store front"
      },
      "createStoreFront(string)": {
        "details": "Create a new store front"
      },
      "getProductDetails(uint256)": {
        "details": "Get store front details"
      },
      "getSomeStoreFronts(uint256,uint256)": {
        "details": "Get some store fronts by range",
        "return": "sFID[], name[], prodQty[]"
      },
      "getStoreFrontDetails(uint256)": {
        "details": "Get store front details",
        "return": "(string, bool, uint)"
      },
      "getStoreFrontProducts(uint256,uint256,uint256)": {
        "details": "Get the products in a store front"
      },
      "getStoreFronts(address,uint256,uint256)": {
        "details": "Get store fronts for a shop owner",
        "return": "sFID[], name[], prodQty[]"
      },
      "productActivator(uint256,bool)": {
        "details": "Mark a product as (de)activated."
      },
      "productUpdater(address,uint256,uint256,uint256)": {
        "details": "Update a product's details.",
        "params": {
          "_sender": "- allows versatility with function"
        }
      },
      "storeFrontActivator(uint256,bool)": {
        "details": "Mark a store front as (de)activated."
      }
    },
    "title": "StoreManager"
  },
  "userdoc": {
    "methods": {}
  }
}