{
  "contractName": "UserProfileManager",
  "abi": [
    {
      "inputs": [
        {
          "name": "_ui",
          "type": "address"
        }
      ],
      "payable": false,
      "stateMutability": "nonpayable",
      "type": "constructor"
    },
    {
      "anonymous": false,
      "inputs": [
        {
          "indexed": false,
          "name": "status",
          "type": "int8"
        },
        {
          "indexed": false,
          "name": "statement",
          "type": "string"
        }
      ],
      "name": "ActionDone",
      "type": "event"
    },
    {
      "constant": false,
      "inputs": [
        {
          "name": "user",
          "type": "address"
        },
        {
          "name": "uType",
          "type": "uint8"
        },
        {
          "name": "firstName",
          "type": "string"
        },
        {
          "name": "lastName",
          "type": "string"
        }
      ],
      "name": "addNewProfile",
      "outputs": [],
      "payable": false,
      "stateMutability": "nonpayable",
      "type": "function"
    },
    {
      "constant": false,
      "inputs": [
        {
          "name": "user",
          "type": "address"
        },
        {
          "name": "uType",
          "type": "uint8"
        },
        {
          "name": "firstName",
          "type": "string"
        },
        {
          "name": "lastName",
          "type": "string"
        }
      ],
      "name": "addProfile",
      "outputs": [],
      "payable": false,
      "stateMutability": "nonpayable",
      "type": "function"
    },
    {
      "constant": false,
      "inputs": [
        {
          "name": "user",
          "type": "address"
        },
        {
          "name": "uType",
          "type": "uint8"
        },
        {
          "name": "firstName",
          "type": "string"
        },
        {
          "name": "lastName",
          "type": "string"
        }
      ],
      "name": "updateProfile",
      "outputs": [],
      "payable": false,
      "stateMutability": "nonpayable",
      "type": "function"
    },
    {
      "constant": false,
      "inputs": [
        {
          "name": "user",
          "type": "address"
        }
      ],
      "name": "activateAdmin",
      "outputs": [],
      "payable": false,
      "stateMutability": "nonpayable",
      "type": "function"
    },
    {
      "constant": false,
      "inputs": [
        {
          "name": "user",
          "type": "address"
        }
      ],
      "name": "deActivateAdmin",
      "outputs": [],
      "payable": false,
      "stateMutability": "nonpayable",
      "type": "function"
    },
    {
      "constant": false,
      "inputs": [
        {
          "name": "user",
          "type": "address"
        }
      ],
      "name": "activateShopOwner",
      "outputs": [],
      "payable": false,
      "stateMutability": "nonpayable",
      "type": "function"
    },
    {
      "constant": false,
      "inputs": [
        {
          "name": "user",
          "type": "address"
        }
      ],
      "name": "deActivateShopOwner",
      "outputs": [],
      "payable": false,
      "stateMutability": "nonpayable",
      "type": "function"
    },
    {
      "constant": true,
      "inputs": [
        {
          "name": "user",
          "type": "address"
        }
      ],
      "name": "getUserProfile",
      "outputs": [
        {
          "name": "addr",
          "type": "address"
        },
        {
          "name": "active",
          "type": "bool"
        },
        {
          "name": "firstName",
          "type": "string"
        },
        {
          "name": "lastName",
          "type": "string"
        },
        {
          "name": "userType",
          "type": "uint8"
        }
      ],
      "payable": false,
      "stateMutability": "view",
      "type": "function"
    },
    {
      "constant": true,
      "inputs": [],
      "name": "getAdminsProfiles",
      "outputs": [
        {
          "name": "",
          "type": "address[]"
        },
        {
          "name": "",
          "type": "bool[]"
        },
        {
          "name": "",
          "type": "bytes32[]"
        },
        {
          "name": "",
          "type": "bytes32[]"
        },
        {
          "name": "",
          "type": "uint8[]"
        }
      ],
      "payable": false,
      "stateMutability": "view",
      "type": "function"
    },
    {
      "constant": true,
      "inputs": [],
      "name": "getShopOwnersProfiles",
      "outputs": [
        {
          "name": "",
          "type": "address[]"
        },
        {
          "name": "",
          "type": "bool[]"
        },
        {
          "name": "",
          "type": "bytes32[]"
        },
        {
          "name": "",
          "type": "bytes32[]"
        },
        {
          "name": "",
          "type": "uint8[]"
        }
      ],
      "payable": false,
      "stateMutability": "view",
      "type": "function"
    },
    {
      "constant": false,
      "inputs": [],
      "name": "toggleContractActive",
      "outputs": [],
      "payable": false,
      "stateMutability": "nonpayable",
      "type": "function"
    }
  ],
  "bytecode": "0x608060405260008060006101000a81548160ff0219169083151502179055503480156200002b57600080fd5b506040516020806200404c833981018060405260208110156200004d57600080fd5b810190808051906020019092919050505080600060016101000a81548173ffffffffffffffffffffffffffffffffffffffff021916908373ffffffffffffffffffffffffffffffffffffffff16021790555060a0604051908101604052803373ffffffffffffffffffffffffffffffffffffffff1681526020016001151581526020016040805190810160405280600581526020017f43616c656200000000000000000000000000000000000000000000000000000081525081526020016040805190810160405280600581526020017f4c756361730000000000000000000000000000000000000000000000000000008152508152602001600060028111156200015457fe5b815250600160003373ffffffffffffffffffffffffffffffffffffffff1673ffffffffffffffffffffffffffffffffffffffff16815260200190815260200160002060008201518160000160006101000a81548173ffffffffffffffffffffffffffffffffffffffff021916908373ffffffffffffffffffffffffffffffffffffffff16021790555060208201518160000160146101000a81548160ff02191690831515021790555060408201518160010190805190602001906200021b9291906200026f565b5060608201518160020190805190602001906200023a9291906200026f565b5060808201518160030160006101000a81548160ff021916908360028111156200026057fe5b0217905550905050506200031e565b828054600181600116156101000203166002900490600052602060002090601f016020900481019282601f10620002b257805160ff1916838001178555620002e3565b82800160010185558215620002e3579182015b82811115620002e2578251825591602001919060010190620002c5565b5b509050620002f29190620002f6565b5090565b6200031b91905b8082111562000317576000816000905550600101620002fd565b5090565b90565b613d1e806200032e6000396000f3fe6080604052600436106100af576000357c0100000000000000000000000000000000000000000000000000000000900463ffffffff16806305c5f5d7146100b45780631385d24c146102405780631af1a768146102575780631ef53a8d146102a85780634904c8aa146102f95780636ca3a08c146104855780638225354f146104d6578063987ee156146106625780639d3670ee146107eb578063c863554a1461083c578063d132a873146109c8575b600080fd5b3480156100c057600080fd5b5061023e600480360360808110156100d757600080fd5b81019080803573ffffffffffffffffffffffffffffffffffffffff169060200190929190803560ff1690602001909291908035906020019064010000000081111561012157600080fd5b82018360208201111561013357600080fd5b8035906020019184600183028401116401000000008311171561015557600080fd5b91908080601f016020809104026020016040519081016040528093929190818152602001838380828437600081840152601f19601f820116905080830192505050505050509192919290803590602001906401000000008111156101b857600080fd5b8201836020820111156101ca57600080fd5b803590602001918460018302840111640100000000831117156101ec57600080fd5b91908080601f016020809104026020016040519081016040528093929190818152602001838380828437600081840152601f19601f820116905080830192505050505050509192919290505050610b54565b005b34801561024c57600080fd5b50610255610dc8565b005b34801561026357600080fd5b506102a66004803603602081101561027a57600080fd5b81019080803573ffffffffffffffffffffffffffffffffffffffff169060200190929190505050610f82565b005b3480156102b457600080fd5b506102f7600480360360208110156102cb57600080fd5b81019080803573ffffffffffffffffffffffffffffffffffffffff16906020019092919050505061129b565b005b34801561030557600080fd5b506104836004803603608081101561031c57600080fd5b81019080803573ffffffffffffffffffffffffffffffffffffffff169060200190929190803560ff1690602001909291908035906020019064010000000081111561036657600080fd5b82018360208201111561037857600080fd5b8035906020019184600183028401116401000000008311171561039a57600080fd5b91908080601f016020809104026020016040519081016040528093929190818152602001838380828437600081840152601f19601f820116905080830192505050505050509192919290803590602001906401000000008111156103fd57600080fd5b82018360208201111561040f57600080fd5b8035906020019184600183028401116401000000008311171561043157600080fd5b91908080601f016020809104026020016040519081016040528093929190818152602001838380828437600081840152601f19601f8201169050808301925050505050505091929192905050506115b5565b005b34801561049157600080fd5b506104d4600480360360208110156104a857600080fd5b81019080803573ffffffffffffffffffffffffffffffffffffffff16906020019092919050505061165f565b005b3480156104e257600080fd5b50610660600480360360808110156104f957600080fd5b81019080803573ffffffffffffffffffffffffffffffffffffffff169060200190929190803560ff1690602001909291908035906020019064010000000081111561054357600080fd5b82018360208201111561055557600080fd5b8035906020019184600183028401116401000000008311171561057757600080fd5b91908080601f016020809104026020016040519081016040528093929190818152602001838380828437600081840152601f19601f820116905080830192505050505050509192919290803590602001906401000000008111156105da57600080fd5b8201836020820111156105ec57600080fd5b8035906020019184600183028401116401000000008311171561060e57600080fd5b91908080601f016020809104026020016040519081016040528093929190818152602001838380828437600081840152601f19601f820116905080830192505050505050509192919290505050611953565b005b34801561066e57600080fd5b506106b16004803603602081101561068557600080fd5b81019080803573ffffffffffffffffffffffffffffffffffffffff1690602001909291905050506119ea565b604051808673ffffffffffffffffffffffffffffffffffffffff1673ffffffffffffffffffffffffffffffffffffffff16815260200185151515158152602001806020018060200184600281111561070557fe5b60ff168152602001838103835286818151815260200191508051906020019080838360005b8381101561074557808201518184015260208101905061072a565b50505050905090810190601f1680156107725780820380516001836020036101000a031916815260200191505b50838103825285818151815260200191508051906020019080838360005b838110156107ab578082015181840152602081019050610790565b50505050905090810190601f1680156107d85780820380516001836020036101000a031916815260200191505b5097505050505050505060405180910390f35b3480156107f757600080fd5b5061083a6004803603602081101561080e57600080fd5b81019080803573ffffffffffffffffffffffffffffffffffffffff169060200190929190505050611c5c565b005b34801561084857600080fd5b50610851611f4f565b60405180806020018060200180602001806020018060200186810386528b818151815260200191508051906020019060200280838360005b838110156108a4578082015181840152602081019050610889565b5050505090500186810385528a818151815260200191508051906020019060200280838360005b838110156108e65780820151818401526020810190506108cb565b50505050905001868103845289818151815260200191508051906020019060200280838360005b8381101561092857808201518184015260208101905061090d565b50505050905001868103835288818151815260200191508051906020019060200280838360005b8381101561096a57808201518184015260208101905061094f565b50505050905001868103825287818151815260200191508051906020019060200280838360005b838110156109ac578082015181840152602081019050610991565b505050509050019a505050505050505050505060405180910390f35b3480156109d457600080fd5b506109dd612226565b60405180806020018060200180602001806020018060200186810386528b818151815260200191508051906020019060200280838360005b83811015610a30578082015181840152602081019050610a15565b5050505090500186810385528a818151815260200191508051906020019060200280838360005b83811015610a72578082015181840152602081019050610a57565b50505050905001868103845289818151815260200191508051906020019060200280838360005b83811015610ab4578082015181840152602081019050610a99565b50505050905001868103835288818151815260200191508051906020019060200280838360005b83811015610af6578082015181840152602081019050610adb565b50505050905001868103825287818151815260200191508051906020019060200280838360005b83811015610b38578082015181840152602081019050610b1d565b505050509050019a505050505050505050505060405180910390f35b6000809054906101000a900460ff161515610dc25760016002811115610b7657fe5b60ff168360ff161415610c9157600060019054906101000a900473ffffffffffffffffffffffffffffffffffffffff1673ffffffffffffffffffffffffffffffffffffffff166385e9bd2b33866040518363ffffffff167c0100000000000000000000000000000000000000000000000000000000028152600401808373ffffffffffffffffffffffffffffffffffffffff1673ffffffffffffffffffffffffffffffffffffffff1681526020018273ffffffffffffffffffffffffffffffffffffffff1673ffffffffffffffffffffffffffffffffffffffff16815260200192505050600060405180830381600087803b158015610c7457600080fd5b505af1158015610c88573d6000803e3d6000fd5b50505050610db5565b600280811115610c9d57fe5b60ff168360ff161415610db457600060019054906101000a900473ffffffffffffffffffffffffffffffffffffffff1673ffffffffffffffffffffffffffffffffffffffff16637fd2642d33866040518363ffffffff167c0100000000000000000000000000000000000000000000000000000000028152600401808373ffffffffffffffffffffffffffffffffffffffff1673ffffffffffffffffffffffffffffffffffffffff1681526020018273ffffffffffffffffffffffffffffffffffffffff1673ffffffffffffffffffffffffffffffffffffffff16815260200192505050600060405180830381600087803b158015610d9b57600080fd5b505af1158015610daf573d6000803e3d6000fd5b505050505b5b610dc1848484846115b5565b5b50505050565b600060019054906101000a900473ffffffffffffffffffffffffffffffffffffffff1673ffffffffffffffffffffffffffffffffffffffff16634cf8097e336040518263ffffffff167c0100000000000000000000000000000000000000000000000000000000028152600401808273ffffffffffffffffffffffffffffffffffffffff1673ffffffffffffffffffffffffffffffffffffffff16815260200191505060206040518083038186803b158015610e8357600080fd5b505afa158015610e97573d6000803e3d6000fd5b505050506040513d6020811015610ead57600080fd5b81019080805190602001909291905050501515610f58576040517f08c379a000000000000000000000000000000000000000000000000000000000815260040180806020018281038252602c8152602001807f4f6e6c79207468652064417070206f776e65722063616e20706572666f726d2081526020017f7468697320616374696f6e2e000000000000000000000000000000000000000081525060400191505060405180910390fd5b6000809054906101000a900460ff16156000806101000a81548160ff021916908315150217905550565b600060019054906101000a900473ffffffffffffffffffffffffffffffffffffffff1673ffffffffffffffffffffffffffffffffffffffff16634cf8097e336040518263ffffffff167c0100000000000000000000000000000000000000000000000000000000028152600401808273ffffffffffffffffffffffffffffffffffffffff1673ffffffffffffffffffffffffffffffffffffffff16815260200191505060206040518083038186803b15801561103d57600080fd5b505afa158015611051573d6000803e3d6000fd5b505050506040513d602081101561106757600080fd5b81019080805190602001909291905050501515611112576040517f08c379a000000000000000000000000000000000000000000000000000000000815260040180806020018281038252602c8152602001807f4f6e6c79207468652064417070206f776e65722063616e20706572666f726d2081526020017f7468697320616374696f6e2e000000000000000000000000000000000000000081525060400191505060405180910390fd5b6000809054906101000a900460ff1615156112985760018060008373ffffffffffffffffffffffffffffffffffffffff1673ffffffffffffffffffffffffffffffffffffffff16815260200190815260200160002060000160146101000a81548160ff021916908315150217905550600060019054906101000a900473ffffffffffffffffffffffffffffffffffffffff1673ffffffffffffffffffffffffffffffffffffffff1663c484d2e8338360016040518463ffffffff167c0100000000000000000000000000000000000000000000000000000000028152600401808473ffffffffffffffffffffffffffffffffffffffff1673ffffffffffffffffffffffffffffffffffffffff1681526020018373ffffffffffffffffffffffffffffffffffffffff1673ffffffffffffffffffffffffffffffffffffffff168152602001821515151581526020019350505050600060405180830381600087803b15801561127f57600080fd5b505af1158015611293573d6000803e3d6000fd5b505050505b50565b600060019054906101000a900473ffffffffffffffffffffffffffffffffffffffff1673ffffffffffffffffffffffffffffffffffffffff16634cf8097e336040518263ffffffff167c0100000000000000000000000000000000000000000000000000000000028152600401808273ffffffffffffffffffffffffffffffffffffffff1673ffffffffffffffffffffffffffffffffffffffff16815260200191505060206040518083038186803b15801561135657600080fd5b505afa15801561136a573d6000803e3d6000fd5b505050506040513d602081101561138057600080fd5b8101908080519060200190929190505050151561142b576040517f08c379a000000000000000000000000000000000000000000000000000000000815260040180806020018281038252602c8152602001807f4f6e6c79207468652064417070206f776e65722063616e20706572666f726d2081526020017f7468697320616374696f6e2e000000000000000000000000000000000000000081525060400191505060405180910390fd5b6000809054906101000a900460ff1615156115b2576000600160008373ffffffffffffffffffffffffffffffffffffffff1673ffffffffffffffffffffffffffffffffffffffff16815260200190815260200160002060000160146101000a81548160ff021916908315150217905550600060019054906101000a900473ffffffffffffffffffffffffffffffffffffffff1673ffffffffffffffffffffffffffffffffffffffff1663c484d2e8338360006040518463ffffffff167c0100000000000000000000000000000000000000000000000000000000028152600401808473ffffffffffffffffffffffffffffffffffffffff1673ffffffffffffffffffffffffffffffffffffffff1681526020018373ffffffffffffffffffffffffffffffffffffffff1673ffffffffffffffffffffffffffffffffffffffff168152602001821515151581526020019350505050600060405180830381600087803b15801561159957600080fd5b505af11580156115ad573d6000803e3d6000fd5b505050505b50565b6000809054906101000a900460ff16151561165957600160028111156115d757fe5b60ff168360ff1614156115f4576115ef848383612523565b61161a565b60028081111561160057fe5b60ff168360ff16141561161957611618848383612811565b5b5b6116586040805190810160405280601981526020017f50726f66696c652061646465642073756363657366756c6c7900000000000000815250612b53565b5b50505050565b600060019054906101000a900473ffffffffffffffffffffffffffffffffffffffff1673ffffffffffffffffffffffffffffffffffffffff1663accc8cf1336040518263ffffffff167c0100000000000000000000000000000000000000000000000000000000028152600401808273ffffffffffffffffffffffffffffffffffffffff1673ffffffffffffffffffffffffffffffffffffffff16815260200191505060206040518083038186803b15801561171a57600080fd5b505afa15801561172e573d6000803e3d6000fd5b505050506040513d602081101561174457600080fd5b810190808051906020019092919050505015156117c9576040517f08c379a00000000000000000000000000000000000000000000000000000000081526004018080602001828103825260178152602001807f4f6e6c792061646d696e732063616e20646f207468697300000000000000000081525060200191505060405180910390fd5b6000809054906101000a900460ff161515611950576000600160008373ffffffffffffffffffffffffffffffffffffffff1673ffffffffffffffffffffffffffffffffffffffff16815260200190815260200160002060000160146101000a81548160ff021916908315150217905550600060019054906101000a900473ffffffffffffffffffffffffffffffffffffffff1673ffffffffffffffffffffffffffffffffffffffff16636b72e474338360006040518463ffffffff167c0100000000000000000000000000000000000000000000000000000000028152600401808473ffffffffffffffffffffffffffffffffffffffff1673ffffffffffffffffffffffffffffffffffffffff1681526020018373ffffffffffffffffffffffffffffffffffffffff1673ffffffffffffffffffffffffffffffffffffffff168152602001821515151581526020019350505050600060405180830381600087803b15801561193757600080fd5b505af115801561194b573d6000803e3d6000fd5b505050505b50565b6000809054906101000a900460ff1615156119e4576000600281111561197557fe5b60ff168360ff1614156119925761198d848383612bfe565b6119e3565b6001600281111561199f57fe5b60ff168360ff1614156119bc576119b7848383612f51565b6119e2565b6002808111156119c857fe5b60ff168360ff1614156119e1576119e0848383613354565b5b5b5b5b50505050565b60008060608060006119fa613bfa565b600160008873ffffffffffffffffffffffffffffffffffffffff1673ffffffffffffffffffffffffffffffffffffffff16815260200190815260200160002060a060405190810160405290816000820160009054906101000a900473ffffffffffffffffffffffffffffffffffffffff1673ffffffffffffffffffffffffffffffffffffffff1673ffffffffffffffffffffffffffffffffffffffff1681526020016000820160149054906101000a900460ff16151515158152602001600182018054600181600116156101000203166002900480601f016020809104026020016040519081016040528092919081815260200182805460018160011615610100020316600290048015611b4f5780601f10611b2457610100808354040283529160200191611b4f565b820191906000526020600020905b815481529060010190602001808311611b3257829003601f168201915b50505050508152602001600282018054600181600116156101000203166002900480601f016020809104026020016040519081016040528092919081815260200182805460018160011615610100020316600290048015611bf15780601f10611bc657610100808354040283529160200191611bf1565b820191906000526020600020905b815481529060010190602001808311611bd457829003601f168201915b505050505081526020016003820160009054906101000a900460ff166002811115611c1857fe5b6002811115611c2357fe5b81525050905080600001518160200151826040015183606001518460800151829250819150955095509550955095505091939590929450565b600060019054906101000a900473ffffffffffffffffffffffffffffffffffffffff1673ffffffffffffffffffffffffffffffffffffffff1663accc8cf1336040518263ffffffff167c0100000000000000000000000000000000000000000000000000000000028152600401808273ffffffffffffffffffffffffffffffffffffffff1673ffffffffffffffffffffffffffffffffffffffff16815260200191505060206040518083038186803b158015611d1757600080fd5b505afa158015611d2b573d6000803e3d6000fd5b505050506040513d6020811015611d4157600080fd5b81019080805190602001909291905050501515611dc6576040517f08c379a00000000000000000000000000000000000000000000000000000000081526004018080602001828103825260178152602001807f4f6e6c792061646d696e732063616e20646f207468697300000000000000000081525060200191505060405180910390fd5b6000809054906101000a900460ff161515611f4c5760018060008373ffffffffffffffffffffffffffffffffffffffff1673ffffffffffffffffffffffffffffffffffffffff16815260200190815260200160002060000160146101000a81548160ff021916908315150217905550600060019054906101000a900473ffffffffffffffffffffffffffffffffffffffff1673ffffffffffffffffffffffffffffffffffffffff16636b72e474338360016040518463ffffffff167c0100000000000000000000000000000000000000000000000000000000028152600401808473ffffffffffffffffffffffffffffffffffffffff1673ffffffffffffffffffffffffffffffffffffffff1681526020018373ffffffffffffffffffffffffffffffffffffffff1673ffffffffffffffffffffffffffffffffffffffff168152602001821515151581526020019350505050600060405180830381600087803b158015611f3357600080fd5b505af1158015611f47573d6000803e3d6000fd5b505050505b50565b6060806060806060600060019054906101000a900473ffffffffffffffffffffffffffffffffffffffff1673ffffffffffffffffffffffffffffffffffffffff1663accc8cf1336040518263ffffffff167c0100000000000000000000000000000000000000000000000000000000028152600401808273ffffffffffffffffffffffffffffffffffffffff1673ffffffffffffffffffffffffffffffffffffffff16815260200191505060206040518083038186803b15801561201257600080fd5b505afa158015612026573d6000803e3d6000fd5b505050506040513d602081101561203c57600080fd5b810190808051906020019092919050505015156120c1576040517f08c379a00000000000000000000000000000000000000000000000000000000081526004018080602001828103825260178152602001807f4f6e6c792061646d696e732063616e20646f207468697300000000000000000081525060200191505060405180910390fd5b612215600060019054906101000a900473ffffffffffffffffffffffffffffffffffffffff1673ffffffffffffffffffffffffffffffffffffffff1663cef93f17336040518263ffffffff167c0100000000000000000000000000000000000000000000000000000000028152600401808273ffffffffffffffffffffffffffffffffffffffff1673ffffffffffffffffffffffffffffffffffffffff16815260200191505060006040518083038186803b15801561217f57600080fd5b505afa158015612193573d6000803e3d6000fd5b505050506040513d6000823e3d601f19601f8201168201806040525060208110156121bd57600080fd5b8101908080516401000000008111156121d557600080fd5b828101905060208101848111156121eb57600080fd5b815185602082028301116401000000008211171561220857600080fd5b5050929190505050613756565b945094509450945094509091929394565b6060806060806060600060019054906101000a900473ffffffffffffffffffffffffffffffffffffffff1673ffffffffffffffffffffffffffffffffffffffff16634cf8097e336040518263ffffffff167c0100000000000000000000000000000000000000000000000000000000028152600401808273ffffffffffffffffffffffffffffffffffffffff1673ffffffffffffffffffffffffffffffffffffffff16815260200191505060206040518083038186803b1580156122e957600080fd5b505afa1580156122fd573d6000803e3d6000fd5b505050506040513d602081101561231357600080fd5b810190808051906020019092919050505015156123be576040517f08c379a000000000000000000000000000000000000000000000000000000000815260040180806020018281038252602c8152602001807f4f6e6c79207468652064417070206f776e65722063616e20706572666f726d2081526020017f7468697320616374696f6e2e000000000000000000000000000000000000000081525060400191505060405180910390fd5b612512600060019054906101000a900473ffffffffffffffffffffffffffffffffffffffff1673ffffffffffffffffffffffffffffffffffffffff1663ad5f2210336040518263ffffffff167c0100000000000000000000000000000000000000000000000000000000028152600401808273ffffffffffffffffffffffffffffffffffffffff1673ffffffffffffffffffffffffffffffffffffffff16815260200191505060006040518083038186803b15801561247c57600080fd5b505afa158015612490573d6000803e3d6000fd5b505050506040513d6000823e3d601f19601f8201168201806040525060208110156124ba57600080fd5b8101908080516401000000008111156124d257600080fd5b828101905060208101848111156124e857600080fd5b815185602082028301116401000000008211171561250557600080fd5b5050929190505050613756565b945094509450945094509091929394565b600060019054906101000a900473ffffffffffffffffffffffffffffffffffffffff1673ffffffffffffffffffffffffffffffffffffffff16634cf8097e336040518263ffffffff167c0100000000000000000000000000000000000000000000000000000000028152600401808273ffffffffffffffffffffffffffffffffffffffff1673ffffffffffffffffffffffffffffffffffffffff16815260200191505060206040518083038186803b1580156125de57600080fd5b505afa1580156125f2573d6000803e3d6000fd5b505050506040513d602081101561260857600080fd5b810190808051906020019092919050505015156126b3576040517f08c379a000000000000000000000000000000000000000000000000000000000815260040180806020018281038252602c8152602001807f4f6e6c79207468652064417070206f776e65722063616e20706572666f726d2081526020017f7468697320616374696f6e2e000000000000000000000000000000000000000081525060400191505060405180910390fd5b60a0604051908101604052808473ffffffffffffffffffffffffffffffffffffffff168152602001600115158152602001838152602001828152602001600160028111156126fd57fe5b815250600160008573ffffffffffffffffffffffffffffffffffffffff1673ffffffffffffffffffffffffffffffffffffffff16815260200190815260200160002060008201518160000160006101000a81548173ffffffffffffffffffffffffffffffffffffffff021916908373ffffffffffffffffffffffffffffffffffffffff16021790555060208201518160000160146101000a81548160ff02191690831515021790555060408201518160010190805190602001906127c2929190613c4d565b5060608201518160020190805190602001906127df929190613c4d565b5060808201518160030160006101000a81548160ff0219169083600281111561280457fe5b0217905550905050505050565b600060019054906101000a900473ffffffffffffffffffffffffffffffffffffffff1673ffffffffffffffffffffffffffffffffffffffff1663accc8cf1336040518263ffffffff167c0100000000000000000000000000000000000000000000000000000000028152600401808273ffffffffffffffffffffffffffffffffffffffff1673ffffffffffffffffffffffffffffffffffffffff16815260200191505060206040518083038186803b1580156128cc57600080fd5b505afa1580156128e0573d6000803e3d6000fd5b505050506040513d60208110156128f657600080fd5b8101908080519060200190929190505050151561297b576040517f08c379a00000000000000000000000000000000000000000000000000000000081526004018080602001828103825260178152602001807f4f6e6c792061646d696e732063616e20646f207468697300000000000000000081525060200191505060405180910390fd5b6000809054906101000a900460ff161515612b4e5760a0604051908101604052808473ffffffffffffffffffffffffffffffffffffffff1681526020016001151581526020018381526020018281526020016002808111156129d957fe5b815250600160008573ffffffffffffffffffffffffffffffffffffffff1673ffffffffffffffffffffffffffffffffffffffff16815260200190815260200160002060008201518160000160006101000a81548173ffffffffffffffffffffffffffffffffffffffff021916908373ffffffffffffffffffffffffffffffffffffffff16021790555060208201518160000160146101000a81548160ff0219169083151502179055506040820151816001019080519060200190612a9e929190613c4d565b506060820151816002019080519060200190612abb929190613c4d565b5060808201518160030160006101000a81548160ff02191690836002811115612ae057fe5b0217905550905050612b4d606060405190810160405280602681526020017f53686f70206f776e65722070726f66696c65206372656174656420737563636581526020017f7366756c6c790000000000000000000000000000000000000000000000000000815250612b53565b5b505050565b7f73e8d12a7b1137bf3268a42d52951e3ffbdee6d9518c4747fdb0c20f16bf6fa4600182604051808360000b815260200180602001828103825283818151815260200191508051906020019080838360005b83811015612bc0578082015181840152602081019050612ba5565b50505050905090810190601f168015612bed5780820380516001836020036101000a031916815260200191505b50935050505060405180910390a150565b600060019054906101000a900473ffffffffffffffffffffffffffffffffffffffff1673ffffffffffffffffffffffffffffffffffffffff16634cf8097e336040518263ffffffff167c0100000000000000000000000000000000000000000000000000000000028152600401808273ffffffffffffffffffffffffffffffffffffffff1673ffffffffffffffffffffffffffffffffffffffff16815260200191505060206040518083038186803b158015612cb957600080fd5b505afa158015612ccd573d6000803e3d6000fd5b505050506040513d6020811015612ce357600080fd5b81019080805190602001909291905050501515612d8e576040517f08c379a000000000000000000000000000000000000000000000000000000000815260040180806020018281038252602c8152602001807f4f6e6c79207468652064417070206f776e65722063616e20706572666f726d2081526020017f7468697320616374696f6e2e000000000000000000000000000000000000000081525060400191505060405180910390fd5b60a0604051908101604052808473ffffffffffffffffffffffffffffffffffffffff16815260200160011515815260200183815260200182815260200160006002811115612dd857fe5b815250600160008573ffffffffffffffffffffffffffffffffffffffff1673ffffffffffffffffffffffffffffffffffffffff16815260200190815260200160002060008201518160000160006101000a81548173ffffffffffffffffffffffffffffffffffffffff021916908373ffffffffffffffffffffffffffffffffffffffff16021790555060208201518160000160146101000a81548160ff0219169083151502179055506040820151816001019080519060200190612e9d929190613c4d565b506060820151816002019080519060200190612eba929190613c4d565b5060808201518160030160006101000a81548160ff02191690836002811115612edf57fe5b0217905550905050612f4c606060405190810160405280602281526020017f4f776e65722070726f66696c652063726561746564207375636365737366756c81526020017f6c79000000000000000000000000000000000000000000000000000000000000815250612b53565b505050565b6000809054906101000a900460ff16151561334f5782600160008273ffffffffffffffffffffffffffffffffffffffff1673ffffffffffffffffffffffffffffffffffffffff16815260200190815260200160002060000160009054906101000a900473ffffffffffffffffffffffffffffffffffffffff1673ffffffffffffffffffffffffffffffffffffffff163373ffffffffffffffffffffffffffffffffffffffff1614806130f55750600060019054906101000a900473ffffffffffffffffffffffffffffffffffffffff1673ffffffffffffffffffffffffffffffffffffffff16634cf8097e336040518263ffffffff167c0100000000000000000000000000000000000000000000000000000000028152600401808273ffffffffffffffffffffffffffffffffffffffff1673ffffffffffffffffffffffffffffffffffffffff16815260200191505060206040518083038186803b1580156130b957600080fd5b505afa1580156130cd573d6000803e3d6000fd5b505050506040513d60208110156130e357600080fd5b81019080805190602001909291905050505b151561318f576040517f08c379a00000000000000000000000000000000000000000000000000000000081526004018080602001828103825260308152602001807f596f7520646f6e2774206f776e20746869732070726f66696c6520616e64206381526020017f616e6e6f74207570646174652069742e0000000000000000000000000000000081525060400191505060405180910390fd5b60a0604051908101604052808573ffffffffffffffffffffffffffffffffffffffff168152602001600115158152602001848152602001838152602001600160028111156131d957fe5b815250600160008673ffffffffffffffffffffffffffffffffffffffff1673ffffffffffffffffffffffffffffffffffffffff16815260200190815260200160002060008201518160000160006101000a81548173ffffffffffffffffffffffffffffffffffffffff021916908373ffffffffffffffffffffffffffffffffffffffff16021790555060208201518160000160146101000a81548160ff021916908315150217905550604082015181600101908051906020019061329e929190613c4d565b5060608201518160020190805190602001906132bb929190613c4d565b5060808201518160030160006101000a81548160ff021916908360028111156132e057fe5b021790555090505061334d606060405190810160405280602181526020017f41646d696e2070726f66696c6520757064617465642073756363657366756c6c81526020017f7900000000000000000000000000000000000000000000000000000000000000815250612b53565b505b505050565b6000809054906101000a900460ff1615156137515782600160008273ffffffffffffffffffffffffffffffffffffffff1673ffffffffffffffffffffffffffffffffffffffff16815260200190815260200160002060000160009054906101000a900473ffffffffffffffffffffffffffffffffffffffff1673ffffffffffffffffffffffffffffffffffffffff163373ffffffffffffffffffffffffffffffffffffffff1614806134f85750600060019054906101000a900473ffffffffffffffffffffffffffffffffffffffff1673ffffffffffffffffffffffffffffffffffffffff1663accc8cf1336040518263ffffffff167c0100000000000000000000000000000000000000000000000000000000028152600401808273ffffffffffffffffffffffffffffffffffffffff1673ffffffffffffffffffffffffffffffffffffffff16815260200191505060206040518083038186803b1580156134bc57600080fd5b505afa1580156134d0573d6000803e3d6000fd5b505050506040513d60208110156134e657600080fd5b81019080805190602001909291905050505b1515613592576040517f08c379a00000000000000000000000000000000000000000000000000000000081526004018080602001828103825260308152602001807f596f7520646f6e2774206f776e20746869732070726f66696c6520616e64206381526020017f616e6e6f74207570646174652069742e0000000000000000000000000000000081525060400191505060405180910390fd5b60a0604051908101604052808573ffffffffffffffffffffffffffffffffffffffff1681526020016001151581526020018481526020018381526020016002808111156135db57fe5b815250600160008673ffffffffffffffffffffffffffffffffffffffff1673ffffffffffffffffffffffffffffffffffffffff16815260200190815260200160002060008201518160000160006101000a81548173ffffffffffffffffffffffffffffffffffffffff021916908373ffffffffffffffffffffffffffffffffffffffff16021790555060208201518160000160146101000a81548160ff02191690831515021790555060408201518160010190805190602001906136a0929190613c4d565b5060608201518160020190805190602001906136bd929190613c4d565b5060808201518160030160006101000a81548160ff021916908360028111156136e257fe5b021790555090505061374f606060405190810160405280602681526020017f53686f70206f776e65722070726f66696c65207570646174656420737563636581526020017f7366756c6c790000000000000000000000000000000000000000000000000000815250612b53565b505b505050565b606080606080606080865160405190808252806020026020018201604052801561378f5781602001602082028038833980820191505090505b509050606087516040519080825280602002602001820160405280156137c45781602001602082028038833980820191505090505b509050606088516040519080825280602002602001820160405280156137f95781602001602082028038833980820191505090505b5090506060895160405190808252806020026020018201604052801561382e5781602001602082028038833980820191505090505b50905060608a516040519080825280602002602001820160405280156138635781602001602082028038833980820191505090505b50905060008090505b8b51811015613bdc5761387d613bfa565b600160008e8481518110151561388f57fe5b9060200190602002015173ffffffffffffffffffffffffffffffffffffffff1673ffffffffffffffffffffffffffffffffffffffff16815260200190815260200160002060a060405190810160405290816000820160009054906101000a900473ffffffffffffffffffffffffffffffffffffffff1673ffffffffffffffffffffffffffffffffffffffff1673ffffffffffffffffffffffffffffffffffffffff1681526020016000820160149054906101000a900460ff16151515158152602001600182018054600181600116156101000203166002900480601f0160208091040260200160405190810160405280929190818152602001828054600181600116156101000203166002900480156139e95780601f106139be576101008083540402835291602001916139e9565b820191906000526020600020905b8154815290600101906020018083116139cc57829003601f168201915b50505050508152602001600282018054600181600116156101000203166002900480601f016020809104026020016040519081016040528092919081815260200182805460018160011615610100020316600290048015613a8b5780601f10613a6057610100808354040283529160200191613a8b565b820191906000526020600020905b815481529060010190602001808311613a6e57829003601f168201915b505050505081526020016003820160009054906101000a900460ff166002811115613ab257fe5b6002811115613abd57fe5b81525050905080600001518783815181101515613ad657fe5b9060200190602002019073ffffffffffffffffffffffffffffffffffffffff16908173ffffffffffffffffffffffffffffffffffffffff168152505080602001518683815181101515613b2557fe5b90602001906020020190151590811515815250506060816040015190506060826060015190506000806020840151915060208301519050818987815181101515613b6b57fe5b9060200190602002018181525050808887815181101515613b8857fe5b906020019060200201818152505084608001516002811115613ba657fe5b8787815181101515613bb457fe5b9060200190602002019060ff16908160ff16815250505050505050808060010191505061386c565b50848484848499509950995099509950505050505091939590929450565b60a060405190810160405280600073ffffffffffffffffffffffffffffffffffffffff168152602001600015158152602001606081526020016060815260200160006002811115613c4757fe5b81525090565b828054600181600116156101000203166002900490600052602060002090601f016020900481019282601f10613c8e57805160ff1916838001178555613cbc565b82800160010185558215613cbc579182015b82811115613cbb578251825591602001919060010190613ca0565b5b509050613cc99190613ccd565b5090565b613cef91905b80821115613ceb576000816000905550600101613cd3565b5090565b9056fea165627a7a723058207b944a8b0f7288d1246170ba7a2f6bd2462f469ed6069f4cad5d97466b284cf70029",
  "source": "pragma solidity ^0.5.0;\nimport { UserIdentity } from './UserIdentity.sol';\nimport '../event/EmitsEvent.sol';\n\n/** \n * @title UserProfileManager\n * @dev This contract provides us a way to store users profile\n * and update them based on the permissions declared.\n * 1. dApp Owner (who is also an admin) can create and update admin and shop owner profile\n * 2. dApp Admin can create shop owner profile\n * 3. dApp Admin can update both self and shop owner profile\n * 4. dApp shopOwner can only update their own profile\n * \n * todo:: manage the total number of users we can create to avoid a DoS exploitation where \n * so many accounts get created and the loops to fetch makes us always run out of gas.\n */\ncontract UserProfileManager is EmitsEvent \n{\n  // allow contract to be deactivated when necessary\n  bool private stopped = false;\n\n  // allow identification of user\n  UserIdentity ui;\n\n  enum UserType { Owner, Admin, ShopOwner }\n\n  struct Profile {\n    address addr;\n    bool active;\n    string firstName;\n    string lastName;\n    UserType userType;\n  }\n\n  mapping(address => Profile) profile;\n\n  modifier isOwner {\n      // require that the caller is the dApp owner\n      require(ui.fnIsOwner(msg.sender), \"Only the dApp owner can perform this action.\"); _;\n  }\n\n  modifier isAdmin {\n    // require that the caller is an admin\n    require(ui.fnIsAdmin(msg.sender), \"Only admins can do this\"); _;\n  }\n\n  modifier isShopOwner {\n    // require that the caller is a shop owner\n    require(ui.fnIsShopOwner(msg.sender), \"Only shop owners can do this\"); _;\n  }\n\n  modifier isAdminOrShopOwner {\n    // require that the caller is an admin or the shop owner\n    require(ui.fnIsAdminOrShopOwner(msg.sender), \"You must be an admin or shop owner to do this\"); _;\n  }\n\n  modifier ownsAdminProfile(address user) {\n    // require that the profile is owned by the admin; proceed if app owner is the caller\n    require((msg.sender == profile[user].addr || ui.fnIsOwner(msg.sender)),\n            \"You don't own this profile and cannot update it.\"); _;\n  }\n\n  modifier ownsShopOwnerProfile(address user) {\n    // require that the profile is owned by shop owner; proceed if admin is the caller\n    require(msg.sender == profile[user].addr || ui.fnIsAdmin(msg.sender),\n            \"You don't own this profile and cannot update it.\"); _;\n  }\n  \n  // force execution to stop in emergency\n  modifier stopInEmergency { if (!stopped) _; }\n  \n  // only allow execution in emergency\n  modifier onlyInEmergency { if (stopped) _; }\n\n  constructor(address _ui) public {\n    // explicit conversion to allow the identification of users\n    ui = UserIdentity(_ui);\n    // set my profile as the owner\n    profile[msg.sender] = Profile(msg.sender, true, \"Caleb\", \"Lucas\", UserType.Owner);\n  }\n\n  /**\n   * @dev Set new user profile based on user type\n   * - Overwrites profile if address previously existed\n   * @param uType can be any of 0, 1 or 2\n   */\n  function addNewProfile(address user, uint8 uType,\n                string memory firstName, string memory lastName) public stopInEmergency\n  {\n    // set address so that modififer can be aware\n    // to grant specific access to user in the future\n    if (uType == uint8(UserType.Admin)) {\n      ui.setAdminAddress(msg.sender, user);\n    }\n    else if (uType == uint8(UserType.ShopOwner)) {\n      ui.setShopOwnerAddress(msg.sender, user);\n    }\n    // now add profile\n    addProfile(user, uType, firstName, lastName);\n  }\n\n  /**\n   * @dev Set user profile based on user type\n   * - Overwrites profile if address previously existed\n   * @param user - do not assume msg.sender as the user profile we're adding: this function is versatile\n   * @param uType can be any of 0, 1 or 2\n   */\n  function addProfile(address user, uint8 uType,\n                string memory firstName, string memory lastName) public stopInEmergency\n  {\n    // set admin profile\n    if (uType == uint8(UserType.Admin)) {\n      addAdminProfile(user, firstName, lastName);\n    }\n    // set shop owner profile\n    else if (uType == uint8(UserType.ShopOwner)) {\n      addShopOwnerProfile(user, firstName, lastName);\n    }\n    // emit success event\n    emitActionSuccess(\"Profile added succesfully\");\n  }\n\n  /**\n   * @dev Create admin profile\n   */\n  function addAdminProfile(address user, string memory firstName,\n                            string memory lastName) private isOwner \n  {\n    // set profile\n    profile[user] = Profile(user, true, firstName, lastName, UserType.Admin);\n  }\n\n  /**\n   * @dev Create shop owner profile\n   */\n  function addShopOwnerProfile(address user, string memory firstName,\n                            string memory lastName) private isAdmin stopInEmergency\n  {\n    // set profile\n    profile[user] = Profile(user, true, firstName, lastName, UserType.ShopOwner);\n    // emit success event\n    emitActionSuccess(\"Shop owner profile created succesfully\");\n  }\n\n  /**\n   * @dev Update user profile based on user type\n   * @param user - do not rely on msg.sender because of function versatility\n   * @param uType can be any of 0, 1 or 2\n   */\n  function updateProfile(address user, uint8 uType,\n                string memory firstName, string memory lastName) public stopInEmergency\n  {\n    // set owner profile\n    if(uType == uint8(UserType.Owner)) {\n      setOwnerProfile(user, firstName, lastName);\n    }\n    // set admin profile\n    else if (uType == uint8(UserType.Admin)) {\n      setAdminProfile(user, firstName, lastName);\n    }\n    // set shop owner profile\n    else if (uType == uint8(UserType.ShopOwner)) {\n      setShopOwnerProfile(user, firstName, lastName);\n    }\n  }\n\n  /**\n   * @dev Create owner profile\n   */\n  function setOwnerProfile(address user, string memory firstName,\n                            string memory lastName) private isOwner\n  {\n    // set profile\n    profile[user] = Profile(user, true, firstName, lastName, UserType.Owner);\n    // emit success event\n    emitActionSuccess(\"Owner profile created successfully\");\n  }\n\n  /**\n   * @dev Set admin profile\n   */\n  function setAdminProfile(address user, string memory firstName,\n                            string memory lastName) private stopInEmergency ownsAdminProfile(user)\n  {\n    // set profile\n    profile[user] = Profile(user, true, firstName, lastName, UserType.Admin);\n    // emit success event\n    emitActionSuccess(\"Admin profile updated succesfully\");\n  }\n\n  /**\n   * @dev Set shop owner profile\n   */\n  function setShopOwnerProfile(address user, string memory firstName,\n                            string memory lastName) private \n                      stopInEmergency ownsShopOwnerProfile(user)\n  {\n    // set profile\n    profile[user] = Profile(user, true, firstName, lastName, UserType.ShopOwner);\n    // emit success event\n    emitActionSuccess(\"Shop owner profile updated succesfully\");\n  }\n\n  /**\n   * @dev Activate admin account\n   */\n  function activateAdmin(address user) public isOwner stopInEmergency\n  {\n    // activate profile\n    profile[user].active = true;\n    // update restriction access controller\n    ui.adminActivator(msg.sender, user, true);\n  }\n\n  /**\n   * @dev Deactivate admin account\n   */\n  function deActivateAdmin(address user) public isOwner stopInEmergency\n  {\n    // deactivate profile\n    profile[user].active = false;\n    // update restriction access controller\n    ui.adminActivator(msg.sender, user, false);\n  }\n\n  /**\n   * @dev Activate shop owner account\n   */\n  function activateShopOwner(address user) public isAdmin stopInEmergency\n  {\n    // activate profile\n    profile[user].active = true;\n    // update restriction access controller\n    ui.shopOwnerActivator(msg.sender, user, true);\n  }\n  \n  /**\n   * @dev Deactivate shop owner account\n   */\n  function deActivateShopOwner(address user) public isAdmin stopInEmergency\n  {\n    // deactivate profile\n    profile[user].active = false;\n    // update restriction access controller\n    ui.shopOwnerActivator(msg.sender, user, false);\n  }\n\n  /**\n   * @dev Get user profile\n   */\n  function getUserProfile(address user) public view returns(address addr, bool active,\n          string memory firstName, string memory lastName, UserType userType)\n  {\n    Profile memory p = profile[user];\n    return (p.addr, p.active, p.firstName, p.lastName, p.userType);\n  }\n\n  /**\n   * @dev Get all admins profiles\n   */\n  function getAdminsProfiles() public view isOwner returns(address[] memory, bool[] memory, \n          bytes32[] memory, bytes32[] memory, uint8[] memory)\n  {\n    return getUsers(ui.getAdmins(msg.sender));\n  }\n\n  /**\n   * @dev Get all shopowners profiles\n   */\n  function getShopOwnersProfiles() public view isAdmin returns(address[] memory, bool[] memory,\n          bytes32[] memory, bytes32[] memory, uint8[] memory)\n  {\n    return getUsers(ui.getShopOwners(msg.sender));\n  }\n\n  /**\n   * @dev Extract all users profiles\n   * todo:: see todo at contract's head\n   */\n  function getUsers (address[] memory users) private view returns(address[] memory, bool[] memory,\n          bytes32[] memory, bytes32[] memory, uint8[] memory)\n  {\n    address[] memory addrs = new address[] (users.length);\n    bool[] memory actives = new bool[] (users.length);\n    bytes32[] memory firstNames = new bytes32[] (users.length);\n    bytes32[] memory lastNames = new bytes32[] (users.length);\n    uint8[] memory userTypes = new uint8[] (users.length);\n    //Get users profile data\n    for(uint i = 0; i < users.length; i++) {\n      // get profile of this user\n      Profile memory p = profile[users[i]];\n      addrs[i] = p.addr;\n      actives[i] = p.active;\n      string memory fiName = p.firstName;\n      string memory laName = p.lastName;\n      bytes32 fName; bytes32 lName;\n      // convert string to bytes32\n      assembly {\n        fName := mload(add(fiName, 32))\n        lName := mload(add(laName, 32))\n      }\n      // store strings\n      firstNames[i] = fName;\n      lastNames[i] = lName;\n      userTypes[i] = uint8(p.userType);\n    }\n    return (addrs, actives, firstNames, lastNames, userTypes);\n  }\n\n  /**\n   * @dev Force contract to stop on emergency\n   */\n  function toggleContractActive() public isOwner {\n    // toggle contract active state\n    stopped = !stopped;\n  }\n}\n",
  "sourcePath": "/home/cmdlucas/blockchain-dev/consensys-project/online-marketplace-dapp/contracts/user/UserProfileManager.sol",
  "compiler": {
    "name": "solc",
    "version": "0.5.0+commit.1d4f565a.Emscripten.clang"
  },
  "schemaVersion": "3.0.9",
  "updatedAt": "2019-07-08T17:34:16.636Z",
  "devdoc": {
    "details": "This contract provides us a way to store users profile and update them based on the permissions declared. 1. dApp Owner (who is also an admin) can create and update admin and shop owner profile 2. dApp Admin can create shop owner profile 3. dApp Admin can update both self and shop owner profile 4. dApp shopOwner can only update their own profile  * todo:: manage the total number of users we can create to avoid a DoS exploitation where  so many accounts get created and the loops to fetch makes us always run out of gas.",
    "methods": {
      "activateAdmin(address)": {
        "details": "Activate admin account"
      },
      "activateShopOwner(address)": {
        "details": "Activate shop owner account"
      },
      "addNewProfile(address,uint8,string,string)": {
        "details": "Set new user profile based on user type - Overwrites profile if address previously existed",
        "params": {
          "uType": "can be any of 0, 1 or 2"
        }
      },
      "addProfile(address,uint8,string,string)": {
        "details": "Set user profile based on user type - Overwrites profile if address previously existed",
        "params": {
          "uType": "can be any of 0, 1 or 2",
          "user": "- do not assume msg.sender as the user profile we're adding: this function is versatile"
        }
      },
      "deActivateAdmin(address)": {
        "details": "Deactivate admin account"
      },
      "deActivateShopOwner(address)": {
        "details": "Deactivate shop owner account"
      },
      "getAdminsProfiles()": {
        "details": "Get all admins profiles"
      },
      "getShopOwnersProfiles()": {
        "details": "Get all shopowners profiles"
      },
      "getUserProfile(address)": {
        "details": "Get user profile"
      },
      "toggleContractActive()": {
        "details": "Force contract to stop on emergency"
      },
      "updateProfile(address,uint8,string,string)": {
        "details": "Update user profile based on user type",
        "params": {
          "uType": "can be any of 0, 1 or 2",
          "user": "- do not rely on msg.sender because of function versatility"
        }
      }
    },
    "title": "UserProfileManager"
  },
  "userdoc": {
    "methods": {}
  }
}