{
  "contractName": "UserIdentity",
  "abi": [
    {
      "constant": true,
      "inputs": [
        {
          "name": "",
          "type": "uint256"
        }
      ],
      "name": "admins",
      "outputs": [
        {
          "name": "",
          "type": "address"
        }
      ],
      "payable": false,
      "stateMutability": "view",
      "type": "function"
    },
    {
      "constant": true,
      "inputs": [
        {
          "name": "",
          "type": "address"
        }
      ],
      "name": "shop_owner",
      "outputs": [
        {
          "name": "",
          "type": "bool"
        }
      ],
      "payable": false,
      "stateMutability": "view",
      "type": "function"
    },
    {
      "constant": true,
      "inputs": [
        {
          "name": "",
          "type": "address"
        }
      ],
      "name": "admin",
      "outputs": [
        {
          "name": "",
          "type": "bool"
        }
      ],
      "payable": false,
      "stateMutability": "view",
      "type": "function"
    },
    {
      "constant": true,
      "inputs": [],
      "name": "owner",
      "outputs": [
        {
          "name": "",
          "type": "address"
        }
      ],
      "payable": false,
      "stateMutability": "view",
      "type": "function"
    },
    {
      "constant": true,
      "inputs": [
        {
          "name": "",
          "type": "uint256"
        }
      ],
      "name": "shop_owners",
      "outputs": [
        {
          "name": "",
          "type": "address"
        }
      ],
      "payable": false,
      "stateMutability": "view",
      "type": "function"
    },
    {
      "inputs": [],
      "payable": false,
      "stateMutability": "nonpayable",
      "type": "constructor"
    },
    {
      "constant": true,
      "inputs": [
        {
          "name": "sender",
          "type": "address"
        }
      ],
      "name": "fnIsOwner",
      "outputs": [
        {
          "name": "",
          "type": "bool"
        }
      ],
      "payable": false,
      "stateMutability": "view",
      "type": "function"
    },
    {
      "constant": true,
      "inputs": [
        {
          "name": "_sender",
          "type": "address"
        }
      ],
      "name": "fnIsAdmin",
      "outputs": [
        {
          "name": "",
          "type": "bool"
        }
      ],
      "payable": false,
      "stateMutability": "view",
      "type": "function"
    },
    {
      "constant": true,
      "inputs": [
        {
          "name": "_sender",
          "type": "address"
        }
      ],
      "name": "fnIsShopOwner",
      "outputs": [
        {
          "name": "",
          "type": "bool"
        }
      ],
      "payable": false,
      "stateMutability": "view",
      "type": "function"
    },
    {
      "constant": true,
      "inputs": [
        {
          "name": "_sender",
          "type": "address"
        }
      ],
      "name": "fnIsAdminOrShopOwner",
      "outputs": [
        {
          "name": "",
          "type": "bool"
        }
      ],
      "payable": false,
      "stateMutability": "view",
      "type": "function"
    },
    {
      "constant": false,
      "inputs": [
        {
          "name": "_sender",
          "type": "address"
        },
        {
          "name": "_admin",
          "type": "address"
        }
      ],
      "name": "setAdminAddress",
      "outputs": [],
      "payable": false,
      "stateMutability": "nonpayable",
      "type": "function"
    },
    {
      "constant": false,
      "inputs": [
        {
          "name": "_sender",
          "type": "address"
        },
        {
          "name": "_shop_owner",
          "type": "address"
        }
      ],
      "name": "setShopOwnerAddress",
      "outputs": [],
      "payable": false,
      "stateMutability": "nonpayable",
      "type": "function"
    },
    {
      "constant": false,
      "inputs": [
        {
          "name": "_sender",
          "type": "address"
        },
        {
          "name": "_admin",
          "type": "address"
        },
        {
          "name": "state",
          "type": "bool"
        }
      ],
      "name": "adminActivator",
      "outputs": [],
      "payable": false,
      "stateMutability": "nonpayable",
      "type": "function"
    },
    {
      "constant": false,
      "inputs": [
        {
          "name": "_sender",
          "type": "address"
        },
        {
          "name": "_admin",
          "type": "address"
        },
        {
          "name": "state",
          "type": "bool"
        }
      ],
      "name": "shopOwnerActivator",
      "outputs": [],
      "payable": false,
      "stateMutability": "nonpayable",
      "type": "function"
    },
    {
      "constant": true,
      "inputs": [
        {
          "name": "_sender",
          "type": "address"
        }
      ],
      "name": "getAdmins",
      "outputs": [
        {
          "name": "",
          "type": "address[]"
        }
      ],
      "payable": false,
      "stateMutability": "view",
      "type": "function"
    },
    {
      "constant": true,
      "inputs": [
        {
          "name": "_sender",
          "type": "address"
        }
      ],
      "name": "getShopOwners",
      "outputs": [
        {
          "name": "",
          "type": "address[]"
        }
      ],
      "payable": false,
      "stateMutability": "view",
      "type": "function"
    }
  ],
  "bytecode": "0x6080604052606060405190810160405280602c81526020017f4f6e6c79207468652064417070206f776e65722063616e20706572666f726d2081526020017f7468697320616374696f6e2e000000000000000000000000000000000000000081525060019080519060200190620000789291906200018b565b503480156200008657600080fd5b50336000806101000a81548173ffffffffffffffffffffffffffffffffffffffff021916908373ffffffffffffffffffffffffffffffffffffffff1602179055506001600460003373ffffffffffffffffffffffffffffffffffffffff1673ffffffffffffffffffffffffffffffffffffffff16815260200190815260200160002060006101000a81548160ff02191690831515021790555060023390806001815401808255809150509060018203906000526020600020016000909192909190916101000a81548173ffffffffffffffffffffffffffffffffffffffff021916908373ffffffffffffffffffffffffffffffffffffffff160217905550506200023a565b828054600181600116156101000203166002900490600052602060002090601f016020900481019282601f10620001ce57805160ff1916838001178555620001ff565b82800160010185558215620001ff579182015b82811115620001fe578251825591602001919060010190620001e1565b5b5090506200020e919062000212565b5090565b6200023791905b808211156200023357600081600090555060010162000219565b5090565b90565b611374806200024a6000396000f3fe6080604052600436106100db576000357c0100000000000000000000000000000000000000000000000000000000900463ffffffff168063051d1c36146100e057806314bfd6d01461014957806327b99924146101c45780634cf8097e1461022d57806363a846f8146102965780636b72e474146102ff5780637fd2642d1461037c57806385e9bd2b146103ed5780638da5cb5b1461045e578063accc8cf1146104b5578063ad5f22101461051e578063c484d2e8146105c4578063cef93f1714610641578063e7ccca81146106e7578063ff0c208514610762575b600080fd5b3480156100ec57600080fd5b5061012f6004803603602081101561010357600080fd5b81019080803573ffffffffffffffffffffffffffffffffffffffff1690602001909291905050506107cb565b604051808215151515815260200191505060405180910390f35b34801561015557600080fd5b506101826004803603602081101561016c57600080fd5b8101908080359060200190929190505050610875565b604051808273ffffffffffffffffffffffffffffffffffffffff1673ffffffffffffffffffffffffffffffffffffffff16815260200191505060405180910390f35b3480156101d057600080fd5b50610213600480360360208110156101e757600080fd5b81019080803573ffffffffffffffffffffffffffffffffffffffff1690602001909291905050506108b3565b604051808215151515815260200191505060405180910390f35b34801561023957600080fd5b5061027c6004803603602081101561025057600080fd5b81019080803573ffffffffffffffffffffffffffffffffffffffff1690602001909291905050506108d3565b604051808215151515815260200191505060405180910390f35b3480156102a257600080fd5b506102e5600480360360208110156102b957600080fd5b81019080803573ffffffffffffffffffffffffffffffffffffffff16906020019092919050505061092c565b604051808215151515815260200191505060405180910390f35b34801561030b57600080fd5b5061037a6004803603606081101561032257600080fd5b81019080803573ffffffffffffffffffffffffffffffffffffffff169060200190929190803573ffffffffffffffffffffffffffffffffffffffff16906020019092919080351515906020019092919050505061094c565b005b34801561038857600080fd5b506103eb6004803603604081101561039f57600080fd5b81019080803573ffffffffffffffffffffffffffffffffffffffff169060200190929190803573ffffffffffffffffffffffffffffffffffffffff169060200190929190505050610a6b565b005b3480156103f957600080fd5b5061045c6004803603604081101561041057600080fd5b81019080803573ffffffffffffffffffffffffffffffffffffffff169060200190929190803573ffffffffffffffffffffffffffffffffffffffff169060200190929190505050610bf0565b005b34801561046a57600080fd5b50610473610dca565b604051808273ffffffffffffffffffffffffffffffffffffffff1673ffffffffffffffffffffffffffffffffffffffff16815260200191505060405180910390f35b3480156104c157600080fd5b50610504600480360360208110156104d857600080fd5b81019080803573ffffffffffffffffffffffffffffffffffffffff169060200190929190505050610def565b604051808215151515815260200191505060405180910390f35b34801561052a57600080fd5b5061056d6004803603602081101561054157600080fd5b81019080803573ffffffffffffffffffffffffffffffffffffffff169060200190929190505050610e45565b6040518080602001828103825283818151815260200191508051906020019060200280838360005b838110156105b0578082015181840152602081019050610595565b505050509050019250505060405180910390f35b3480156105d057600080fd5b5061063f600480360360608110156105e757600080fd5b81019080803573ffffffffffffffffffffffffffffffffffffffff169060200190929190803573ffffffffffffffffffffffffffffffffffffffff169060200190929190803515159060200190929190505050610fed565b005b34801561064d57600080fd5b506106906004803603602081101561066457600080fd5b81019080803573ffffffffffffffffffffffffffffffffffffffff169060200190929190505050611161565b6040518080602001828103825283818151815260200191508051906020019060200280838360005b838110156106d35780820151818401526020810190506106b8565b505050509050019250505060405180910390f35b3480156106f357600080fd5b506107206004803603602081101561070a57600080fd5b81019080803590602001909291905050506112b4565b604051808273ffffffffffffffffffffffffffffffffffffffff1673ffffffffffffffffffffffffffffffffffffffff16815260200191505060405180910390f35b34801561076e57600080fd5b506107b16004803603602081101561078557600080fd5b81019080803573ffffffffffffffffffffffffffffffffffffffff1690602001909291905050506112f2565b604051808215151515815260200191505060405180910390f35b6000600460008373ffffffffffffffffffffffffffffffffffffffff1673ffffffffffffffffffffffffffffffffffffffff16815260200190815260200160002060009054906101000a900460ff168061086e5750600560008373ffffffffffffffffffffffffffffffffffffffff1673ffffffffffffffffffffffffffffffffffffffff16815260200190815260200160002060009054906101000a900460ff165b9050919050565b60028181548110151561088457fe5b906000526020600020016000915054906101000a900473ffffffffffffffffffffffffffffffffffffffff1681565b60056020528060005260406000206000915054906101000a900460ff1681565b60008060009054906101000a900473ffffffffffffffffffffffffffffffffffffffff1673ffffffffffffffffffffffffffffffffffffffff168273ffffffffffffffffffffffffffffffffffffffff16149050919050565b60046020528060005260406000206000915054906101000a900460ff1681565b82600460008273ffffffffffffffffffffffffffffffffffffffff1673ffffffffffffffffffffffffffffffffffffffff16815260200190815260200160002060009054906101000a900460ff161515610a0e576040517f08c379a00000000000000000000000000000000000000000000000000000000081526004018080602001828103825260178152602001807f4f6e6c792061646d696e732063616e20646f207468697300000000000000000081525060200191505060405180910390fd5b81600560008573ffffffffffffffffffffffffffffffffffffffff1673ffffffffffffffffffffffffffffffffffffffff16815260200190815260200160002060006101000a81548160ff02191690831515021790555050505050565b81600460008273ffffffffffffffffffffffffffffffffffffffff1673ffffffffffffffffffffffffffffffffffffffff16815260200190815260200160002060009054906101000a900460ff161515610b2d576040517f08c379a00000000000000000000000000000000000000000000000000000000081526004018080602001828103825260178152602001807f4f6e6c792061646d696e732063616e20646f207468697300000000000000000081525060200191505060405180910390fd5b6001600560008473ffffffffffffffffffffffffffffffffffffffff1673ffffffffffffffffffffffffffffffffffffffff16815260200190815260200160002060006101000a81548160ff02191690831515021790555060038290806001815401808255809150509060018203906000526020600020016000909192909190916101000a81548173ffffffffffffffffffffffffffffffffffffffff021916908373ffffffffffffffffffffffffffffffffffffffff16021790555050505050565b8173ffffffffffffffffffffffffffffffffffffffff166000809054906101000a900473ffffffffffffffffffffffffffffffffffffffff1673ffffffffffffffffffffffffffffffffffffffff16146001901515610d07576040517f08c379a00000000000000000000000000000000000000000000000000000000081526004018080602001828103825283818154600181600116156101000203166002900481526020019150805460018160011615610100020316600290048015610cf85780601f10610ccd57610100808354040283529160200191610cf8565b820191906000526020600020905b815481529060010190602001808311610cdb57829003601f168201915b50509250505060405180910390fd5b506001600460008373ffffffffffffffffffffffffffffffffffffffff1673ffffffffffffffffffffffffffffffffffffffff16815260200190815260200160002060006101000a81548160ff02191690831515021790555060028190806001815401808255809150509060018203906000526020600020016000909192909190916101000a81548173ffffffffffffffffffffffffffffffffffffffff021916908373ffffffffffffffffffffffffffffffffffffffff160217905550505050565b6000809054906101000a900473ffffffffffffffffffffffffffffffffffffffff1681565b6000600460008373ffffffffffffffffffffffffffffffffffffffff1673ffffffffffffffffffffffffffffffffffffffff16815260200190815260200160002060009054906101000a900460ff169050919050565b60608173ffffffffffffffffffffffffffffffffffffffff166000809054906101000a900473ffffffffffffffffffffffffffffffffffffffff1673ffffffffffffffffffffffffffffffffffffffff16146001901515610f5e576040517f08c379a00000000000000000000000000000000000000000000000000000000081526004018080602001828103825283818154600181600116156101000203166002900481526020019150805460018160011615610100020316600290048015610f4f5780601f10610f2457610100808354040283529160200191610f4f565b820191906000526020600020905b815481529060010190602001808311610f3257829003601f168201915b50509250505060405180910390fd5b506002805480602002602001604051908101604052809291908181526020018280548015610fe157602002820191906000526020600020905b8160009054906101000a900473ffffffffffffffffffffffffffffffffffffffff1673ffffffffffffffffffffffffffffffffffffffff1681526020019060010190808311610f97575b50505050509050919050565b8273ffffffffffffffffffffffffffffffffffffffff166000809054906101000a900473ffffffffffffffffffffffffffffffffffffffff1673ffffffffffffffffffffffffffffffffffffffff16146001901515611104576040517f08c379a000000000000000000000000000000000000000000000000000000000815260040180806020018281038252838181546001816001161561010002031660029004815260200191508054600181600116156101000203166002900480156110f55780601f106110ca576101008083540402835291602001916110f5565b820191906000526020600020905b8154815290600101906020018083116110d857829003601f168201915b50509250505060405180910390fd5b5080600460008473ffffffffffffffffffffffffffffffffffffffff1673ffffffffffffffffffffffffffffffffffffffff16815260200190815260200160002060006101000a81548160ff021916908315150217905550505050565b606081600460008273ffffffffffffffffffffffffffffffffffffffff1673ffffffffffffffffffffffffffffffffffffffff16815260200190815260200160002060009054906101000a900460ff161515611225576040517f08c379a00000000000000000000000000000000000000000000000000000000081526004018080602001828103825260178152602001807f4f6e6c792061646d696e732063616e20646f207468697300000000000000000081525060200191505060405180910390fd5b60038054806020026020016040519081016040528092919081815260200182805480156112a757602002820191906000526020600020905b8160009054906101000a900473ffffffffffffffffffffffffffffffffffffffff1673ffffffffffffffffffffffffffffffffffffffff168152602001906001019080831161125d575b5050505050915050919050565b6003818154811015156112c357fe5b906000526020600020016000915054906101000a900473ffffffffffffffffffffffffffffffffffffffff1681565b6000600560008373ffffffffffffffffffffffffffffffffffffffff1673ffffffffffffffffffffffffffffffffffffffff16815260200190815260200160002060009054906101000a900460ff16905091905056fea165627a7a72305820e067b902a1cf251ce69d38d7f4472b0cd5daf8edeece2387254da9a05054c1ce0029",
  "source": "pragma solidity ^0.5.0;\nimport { Owned } from './Owned.sol';\n\n/** \n * @title UserIdentity\n * @dev This contract defines who a user is,\n * It also provides permissions through its modifiers\n */\ncontract UserIdentity is Owned {\n  // Arrays to hold all user types;\n  address[] public admins;\n  address[] public shop_owners;\n\n  // Let's have a way to easily check for a user type\n  // mainly because of gas costs when we loop\n  mapping(address => bool) public admin;\n  mapping(address => bool) public shop_owner;\n\n  modifier isAdmin (address _sender) {\n    // require that the caller is an admin\n    require(admin[_sender], \"Only admins can do this\"); _;\n  }\n\n  modifier isShopOwner (address _sender) {\n    // require that the caller is a shop owner\n    require(shop_owner[_sender], \"Only shop owners can do this\"); _;\n  }\n\n  modifier isAdminOrShopOwner {\n      // require that the caller is an admin or the shop owner\n    require(admin[msg.sender] || shop_owner[msg.sender],\n    \"You must be an admin or shop owner to do this\"); _;\n  }\n\n  constructor() public \n  {\n    // set contract deployer as admin\n    admin[msg.sender] = true;\n    admins.push(msg.sender);\n  }\n\n  /**\n   * @dev help other contracts determine if caller is dApp owner\n   */\n  function fnIsOwner(address sender) public view returns (bool) \n  {\n    return sender == owner;\n  }\n\n  /**\n   * @dev help other contracts determine if caller is an admin\n   */\n  function fnIsAdmin(address _sender) public view returns (bool) {\n    return admin[_sender];\n  }\n\n  /**\n   * @dev help other contracts determine if caller is a shop owner\n   */\n  function fnIsShopOwner(address _sender) public view returns (bool) \n  {\n    return shop_owner[_sender];\n  }\n\n  /**\n   * @dev help other contracts determine if caller is a shop owner\n   */\n  function fnIsAdminOrShopOwner(address _sender) public view returns (bool) \n  {\n    return admin[_sender] || shop_owner[_sender];\n  }\n\n  /**\n   * @dev set admin address\n   */\n  function setAdminAddress(address _sender, address _admin) public\n  {\n    require(owner == _sender, ownerFailureStatement);\n    admin[_admin] = true;\n    admins.push(_admin);\n  }\n\n  /**\n   * @dev set shop owner address\n   */\n  function setShopOwnerAddress(address _sender ,address _shop_owner) public isAdmin(_sender)\n  {\n    shop_owner[_shop_owner] = true;\n    shop_owners.push(_shop_owner);\n  }\n\n  /**\n   * @dev activate/deactivate admin\n   */\n  function adminActivator(address _sender, address _admin, bool state) public\n  {\n    require(owner == _sender, ownerFailureStatement);\n    admin[_admin] = state;\n  }\n\n  /**\n   * @dev activate/deactivate shop owner\n   */\n  function shopOwnerActivator(address _sender, address _admin, bool state) public isAdmin(_sender)\n  {\n    shop_owner[_admin] = state;\n  }\n\n  /**\n   * @dev Get admins\n   */\n  function getAdmins(address _sender) public view returns (address[] memory)\n  {\n    require(owner == _sender, ownerFailureStatement);\n    return admins;\n  }\n\n  /**\n   * @dev Get shop owners\n   */\n  function getShopOwners(address _sender) public view isAdmin(_sender) returns (address[] memory) \n  {\n    return shop_owners;\n  }\n   \n}\n",
  "sourcePath": "/home/cmdlucas/blockchain-dev/consensys-project/online-marketplace-dapp/contracts/user/UserIdentity.sol",
  "compiler": {
    "name": "solc",
    "version": "0.5.0+commit.1d4f565a.Emscripten.clang"
  },
  "schemaVersion": "3.0.9",
  "updatedAt": "2019-07-07T11:45:10.572Z",
  "devdoc": {
    "details": "This contract defines who a user is, It also provides permissions through its modifiers",
    "methods": {
      "adminActivator(address,address,bool)": {
        "details": "activate/deactivate admin"
      },
      "fnIsAdmin(address)": {
        "details": "help other contracts determine if caller is an admin"
      },
      "fnIsAdminOrShopOwner(address)": {
        "details": "help other contracts determine if caller is a shop owner"
      },
      "fnIsOwner(address)": {
        "details": "help other contracts determine if caller is dApp owner"
      },
      "fnIsShopOwner(address)": {
        "details": "help other contracts determine if caller is a shop owner"
      },
      "getAdmins(address)": {
        "details": "Get admins"
      },
      "getShopOwners(address)": {
        "details": "Get shop owners"
      },
      "setAdminAddress(address,address)": {
        "details": "set admin address"
      },
      "setShopOwnerAddress(address,address)": {
        "details": "set shop owner address"
      },
      "shopOwnerActivator(address,address,bool)": {
        "details": "activate/deactivate shop owner"
      }
    },
    "title": "UserIdentity"
  },
  "userdoc": {
    "methods": {}
  }
}