{
  "contractName": "UserIdentity",
  "abi": [
    {
      "constant": true,
      "inputs": [
        {
          "name": "",
          "type": "uint256"
        }
      ],
      "name": "admins",
      "outputs": [
        {
          "name": "",
          "type": "address"
        }
      ],
      "payable": false,
      "stateMutability": "view",
      "type": "function"
    },
    {
      "constant": true,
      "inputs": [
        {
          "name": "",
          "type": "address"
        }
      ],
      "name": "shop_owner",
      "outputs": [
        {
          "name": "",
          "type": "bool"
        }
      ],
      "payable": false,
      "stateMutability": "view",
      "type": "function"
    },
    {
      "constant": true,
      "inputs": [
        {
          "name": "",
          "type": "address"
        }
      ],
      "name": "admin",
      "outputs": [
        {
          "name": "",
          "type": "bool"
        }
      ],
      "payable": false,
      "stateMutability": "view",
      "type": "function"
    },
    {
      "constant": true,
      "inputs": [],
      "name": "owner",
      "outputs": [
        {
          "name": "",
          "type": "address"
        }
      ],
      "payable": false,
      "stateMutability": "view",
      "type": "function"
    },
    {
      "constant": true,
      "inputs": [
        {
          "name": "",
          "type": "uint256"
        }
      ],
      "name": "shop_owners",
      "outputs": [
        {
          "name": "",
          "type": "address"
        }
      ],
      "payable": false,
      "stateMutability": "view",
      "type": "function"
    },
    {
      "inputs": [],
      "payable": false,
      "stateMutability": "nonpayable",
      "type": "constructor"
    },
    {
      "constant": true,
      "inputs": [
        {
          "name": "sender",
          "type": "address"
        }
      ],
      "name": "fnIsOwner",
      "outputs": [
        {
          "name": "",
          "type": "bool"
        }
      ],
      "payable": false,
      "stateMutability": "view",
      "type": "function"
    },
    {
      "constant": true,
      "inputs": [
        {
          "name": "_sender",
          "type": "address"
        }
      ],
      "name": "fnIsAdmin",
      "outputs": [
        {
          "name": "",
          "type": "bool"
        }
      ],
      "payable": false,
      "stateMutability": "view",
      "type": "function"
    },
    {
      "constant": true,
      "inputs": [
        {
          "name": "_sender",
          "type": "address"
        }
      ],
      "name": "fnIsShopOwner",
      "outputs": [
        {
          "name": "",
          "type": "bool"
        }
      ],
      "payable": false,
      "stateMutability": "view",
      "type": "function"
    },
    {
      "constant": true,
      "inputs": [
        {
          "name": "_sender",
          "type": "address"
        }
      ],
      "name": "fnIsAdminOrShopOwner",
      "outputs": [
        {
          "name": "",
          "type": "bool"
        }
      ],
      "payable": false,
      "stateMutability": "view",
      "type": "function"
    },
    {
      "constant": false,
      "inputs": [
        {
          "name": "_sender",
          "type": "address"
        },
        {
          "name": "_admin",
          "type": "address"
        }
      ],
      "name": "setAdminAddress",
      "outputs": [],
      "payable": false,
      "stateMutability": "nonpayable",
      "type": "function"
    },
    {
      "constant": false,
      "inputs": [
        {
          "name": "_sender",
          "type": "address"
        },
        {
          "name": "_shop_owner",
          "type": "address"
        }
      ],
      "name": "setShopOwnerAddress",
      "outputs": [],
      "payable": false,
      "stateMutability": "nonpayable",
      "type": "function"
    },
    {
      "constant": false,
      "inputs": [
        {
          "name": "_sender",
          "type": "address"
        },
        {
          "name": "_admin",
          "type": "address"
        },
        {
          "name": "state",
          "type": "bool"
        }
      ],
      "name": "adminActivator",
      "outputs": [],
      "payable": false,
      "stateMutability": "nonpayable",
      "type": "function"
    },
    {
      "constant": false,
      "inputs": [
        {
          "name": "_sender",
          "type": "address"
        },
        {
          "name": "_admin",
          "type": "address"
        },
        {
          "name": "state",
          "type": "bool"
        }
      ],
      "name": "shopOwnerActivator",
      "outputs": [],
      "payable": false,
      "stateMutability": "nonpayable",
      "type": "function"
    },
    {
      "constant": true,
      "inputs": [
        {
          "name": "_sender",
          "type": "address"
        }
      ],
      "name": "getAdmins",
      "outputs": [
        {
          "name": "",
          "type": "address[]"
        }
      ],
      "payable": false,
      "stateMutability": "view",
      "type": "function"
    },
    {
      "constant": true,
      "inputs": [
        {
          "name": "_sender",
          "type": "address"
        }
      ],
      "name": "getShopOwners",
      "outputs": [
        {
          "name": "",
          "type": "address[]"
        }
      ],
      "payable": false,
      "stateMutability": "view",
      "type": "function"
    },
    {
      "constant": false,
      "inputs": [],
      "name": "toggleContractActive",
      "outputs": [],
      "payable": false,
      "stateMutability": "nonpayable",
      "type": "function"
    }
  ],
  "bytecode": "0x6080604052606060405190810160405280602c81526020017f4f6e6c79207468652064417070206f776e65722063616e20706572666f726d2081526020017f7468697320616374696f6e2e00000000000000000000000000000000000000008152506001908051906020019062000078929190620001a6565b506000600260006101000a81548160ff021916908315150217905550348015620000a157600080fd5b50336000806101000a81548173ffffffffffffffffffffffffffffffffffffffff021916908373ffffffffffffffffffffffffffffffffffffffff1602179055506001600560003373ffffffffffffffffffffffffffffffffffffffff1673ffffffffffffffffffffffffffffffffffffffff16815260200190815260200160002060006101000a81548160ff02191690831515021790555060033390806001815401808255809150509060018203906000526020600020016000909192909190916101000a81548173ffffffffffffffffffffffffffffffffffffffff021916908373ffffffffffffffffffffffffffffffffffffffff1602179055505062000255565b828054600181600116156101000203166002900490600052602060002090601f016020900481019282601f10620001e957805160ff19168380011785556200021a565b828001600101855582156200021a579182015b8281111562000219578251825591602001919060010190620001fc565b5b5090506200022991906200022d565b5090565b6200025291905b808211156200024e57600081600090555060010162000234565b5090565b90565b6114e280620002656000396000f3fe6080604052600436106100e6576000357c0100000000000000000000000000000000000000000000000000000000900463ffffffff168063051d1c36146100eb5780631385d24c1461015457806314bfd6d01461016b57806327b99924146101e65780634cf8097e1461024f57806363a846f8146102b85780636b72e474146103215780637fd2642d1461039e57806385e9bd2b1461040f5780638da5cb5b14610480578063accc8cf1146104d7578063ad5f221014610540578063c484d2e8146105e6578063cef93f1714610663578063e7ccca8114610709578063ff0c208514610784575b600080fd5b3480156100f757600080fd5b5061013a6004803603602081101561010e57600080fd5b81019080803573ffffffffffffffffffffffffffffffffffffffff1690602001909291905050506107ed565b604051808215151515815260200191505060405180910390f35b34801561016057600080fd5b50610169610897565b005b34801561017757600080fd5b506101a46004803603602081101561018e57600080fd5b8101908080359060200190929190505050610987565b604051808273ffffffffffffffffffffffffffffffffffffffff1673ffffffffffffffffffffffffffffffffffffffff16815260200191505060405180910390f35b3480156101f257600080fd5b506102356004803603602081101561020957600080fd5b81019080803573ffffffffffffffffffffffffffffffffffffffff1690602001909291905050506109c5565b604051808215151515815260200191505060405180910390f35b34801561025b57600080fd5b5061029e6004803603602081101561027257600080fd5b81019080803573ffffffffffffffffffffffffffffffffffffffff1690602001909291905050506109e5565b604051808215151515815260200191505060405180910390f35b3480156102c457600080fd5b50610307600480360360208110156102db57600080fd5b81019080803573ffffffffffffffffffffffffffffffffffffffff169060200190929190505050610a3e565b604051808215151515815260200191505060405180910390f35b34801561032d57600080fd5b5061039c6004803603606081101561034457600080fd5b81019080803573ffffffffffffffffffffffffffffffffffffffff169060200190929190803573ffffffffffffffffffffffffffffffffffffffff169060200190929190803515159060200190929190505050610a5e565b005b3480156103aa57600080fd5b5061040d600480360360408110156103c157600080fd5b81019080803573ffffffffffffffffffffffffffffffffffffffff169060200190929190803573ffffffffffffffffffffffffffffffffffffffff169060200190929190505050610b94565b005b34801561041b57600080fd5b5061047e6004803603604081101561043257600080fd5b81019080803573ffffffffffffffffffffffffffffffffffffffff169060200190929190803573ffffffffffffffffffffffffffffffffffffffff169060200190929190505050610d30565b005b34801561048c57600080fd5b50610495610f21565b604051808273ffffffffffffffffffffffffffffffffffffffff1673ffffffffffffffffffffffffffffffffffffffff16815260200191505060405180910390f35b3480156104e357600080fd5b50610526600480360360208110156104fa57600080fd5b81019080803573ffffffffffffffffffffffffffffffffffffffff169060200190929190505050610f46565b604051808215151515815260200191505060405180910390f35b34801561054c57600080fd5b5061058f6004803603602081101561056357600080fd5b81019080803573ffffffffffffffffffffffffffffffffffffffff169060200190929190505050610f9c565b6040518080602001828103825283818151815260200191508051906020019060200280838360005b838110156105d25780820151818401526020810190506105b7565b505050509050019250505060405180910390f35b3480156105f257600080fd5b506106616004803603606081101561060957600080fd5b81019080803573ffffffffffffffffffffffffffffffffffffffff169060200190929190803573ffffffffffffffffffffffffffffffffffffffff169060200190929190803515159060200190929190505050611144565b005b34801561066f57600080fd5b506106b26004803603602081101561068657600080fd5b81019080803573ffffffffffffffffffffffffffffffffffffffff1690602001909291905050506112cf565b6040518080602001828103825283818151815260200191508051906020019060200280838360005b838110156106f55780820151818401526020810190506106da565b505050509050019250505060405180910390f35b34801561071557600080fd5b506107426004803603602081101561072c57600080fd5b8101908080359060200190929190505050611422565b604051808273ffffffffffffffffffffffffffffffffffffffff1673ffffffffffffffffffffffffffffffffffffffff16815260200191505060405180910390f35b34801561079057600080fd5b506107d3600480360360208110156107a757600080fd5b81019080803573ffffffffffffffffffffffffffffffffffffffff169060200190929190505050611460565b604051808215151515815260200191505060405180910390f35b6000600560008373ffffffffffffffffffffffffffffffffffffffff1673ffffffffffffffffffffffffffffffffffffffff16815260200190815260200160002060009054906101000a900460ff16806108905750600660008373ffffffffffffffffffffffffffffffffffffffff1673ffffffffffffffffffffffffffffffffffffffff16815260200190815260200160002060009054906101000a900460ff165b9050919050565b6000809054906101000a900473ffffffffffffffffffffffffffffffffffffffff1673ffffffffffffffffffffffffffffffffffffffff163373ffffffffffffffffffffffffffffffffffffffff1614151561095b576040517f08c379a000000000000000000000000000000000000000000000000000000000815260040180806020018281038252601a8152602001807f4f6e6c7920617070206f776e65722063616e20646f207468697300000000000081525060200191505060405180910390fd5b600260009054906101000a900460ff1615600260006101000a81548160ff021916908315150217905550565b60038181548110151561099657fe5b906000526020600020016000915054906101000a900473ffffffffffffffffffffffffffffffffffffffff1681565b60066020528060005260406000206000915054906101000a900460ff1681565b60008060009054906101000a900473ffffffffffffffffffffffffffffffffffffffff1673ffffffffffffffffffffffffffffffffffffffff168273ffffffffffffffffffffffffffffffffffffffff16149050919050565b60056020528060005260406000206000915054906101000a900460ff1681565b600260009054906101000a900460ff161515610b8f5782600560008273ffffffffffffffffffffffffffffffffffffffff1673ffffffffffffffffffffffffffffffffffffffff16815260200190815260200160002060009054906101000a900460ff161515610b36576040517f08c379a00000000000000000000000000000000000000000000000000000000081526004018080602001828103825260178152602001807f4f6e6c792061646d696e732063616e20646f207468697300000000000000000081525060200191505060405180910390fd5b81600660008573ffffffffffffffffffffffffffffffffffffffff1673ffffffffffffffffffffffffffffffffffffffff16815260200190815260200160002060006101000a81548160ff021916908315150217905550505b505050565b600260009054906101000a900460ff161515610d2c5781600560008273ffffffffffffffffffffffffffffffffffffffff1673ffffffffffffffffffffffffffffffffffffffff16815260200190815260200160002060009054906101000a900460ff161515610c6c576040517f08c379a00000000000000000000000000000000000000000000000000000000081526004018080602001828103825260178152602001807f4f6e6c792061646d696e732063616e20646f207468697300000000000000000081525060200191505060405180910390fd5b6001600660008473ffffffffffffffffffffffffffffffffffffffff1673ffffffffffffffffffffffffffffffffffffffff16815260200190815260200160002060006101000a81548160ff02191690831515021790555060048290806001815401808255809150509060018203906000526020600020016000909192909190916101000a81548173ffffffffffffffffffffffffffffffffffffffff021916908373ffffffffffffffffffffffffffffffffffffffff16021790555050505b5050565b600260009054906101000a900460ff161515610f1d578173ffffffffffffffffffffffffffffffffffffffff166000809054906101000a900473ffffffffffffffffffffffffffffffffffffffff1673ffffffffffffffffffffffffffffffffffffffff16146001901515610e5d576040517f08c379a00000000000000000000000000000000000000000000000000000000081526004018080602001828103825283818154600181600116156101000203166002900481526020019150805460018160011615610100020316600290048015610e4e5780601f10610e2357610100808354040283529160200191610e4e565b820191906000526020600020905b815481529060010190602001808311610e3157829003601f168201915b50509250505060405180910390fd5b506001600560008373ffffffffffffffffffffffffffffffffffffffff1673ffffffffffffffffffffffffffffffffffffffff16815260200190815260200160002060006101000a81548160ff02191690831515021790555060038190806001815401808255809150509060018203906000526020600020016000909192909190916101000a81548173ffffffffffffffffffffffffffffffffffffffff021916908373ffffffffffffffffffffffffffffffffffffffff160217905550505b5050565b6000809054906101000a900473ffffffffffffffffffffffffffffffffffffffff1681565b6000600560008373ffffffffffffffffffffffffffffffffffffffff1673ffffffffffffffffffffffffffffffffffffffff16815260200190815260200160002060009054906101000a900460ff169050919050565b60608173ffffffffffffffffffffffffffffffffffffffff166000809054906101000a900473ffffffffffffffffffffffffffffffffffffffff1673ffffffffffffffffffffffffffffffffffffffff161460019015156110b5576040517f08c379a000000000000000000000000000000000000000000000000000000000815260040180806020018281038252838181546001816001161561010002031660029004815260200191508054600181600116156101000203166002900480156110a65780601f1061107b576101008083540402835291602001916110a6565b820191906000526020600020905b81548152906001019060200180831161108957829003601f168201915b50509250505060405180910390fd5b50600380548060200260200160405190810160405280929190818152602001828054801561113857602002820191906000526020600020905b8160009054906101000a900473ffffffffffffffffffffffffffffffffffffffff1673ffffffffffffffffffffffffffffffffffffffff16815260200190600101908083116110ee575b50505050509050919050565b600260009054906101000a900460ff1615156112ca578273ffffffffffffffffffffffffffffffffffffffff166000809054906101000a900473ffffffffffffffffffffffffffffffffffffffff1673ffffffffffffffffffffffffffffffffffffffff16146001901515611271576040517f08c379a000000000000000000000000000000000000000000000000000000000815260040180806020018281038252838181546001816001161561010002031660029004815260200191508054600181600116156101000203166002900480156112625780601f1061123757610100808354040283529160200191611262565b820191906000526020600020905b81548152906001019060200180831161124557829003601f168201915b50509250505060405180910390fd5b5080600560008473ffffffffffffffffffffffffffffffffffffffff1673ffffffffffffffffffffffffffffffffffffffff16815260200190815260200160002060006101000a81548160ff0219169083151502179055505b505050565b606081600560008273ffffffffffffffffffffffffffffffffffffffff1673ffffffffffffffffffffffffffffffffffffffff16815260200190815260200160002060009054906101000a900460ff161515611393576040517f08c379a00000000000000000000000000000000000000000000000000000000081526004018080602001828103825260178152602001807f4f6e6c792061646d696e732063616e20646f207468697300000000000000000081525060200191505060405180910390fd5b600480548060200260200160405190810160405280929190818152602001828054801561141557602002820191906000526020600020905b8160009054906101000a900473ffffffffffffffffffffffffffffffffffffffff1673ffffffffffffffffffffffffffffffffffffffff16815260200190600101908083116113cb575b5050505050915050919050565b60048181548110151561143157fe5b906000526020600020016000915054906101000a900473ffffffffffffffffffffffffffffffffffffffff1681565b6000600660008373ffffffffffffffffffffffffffffffffffffffff1673ffffffffffffffffffffffffffffffffffffffff16815260200190815260200160002060009054906101000a900460ff16905091905056fea165627a7a72305820361f3eb18e844895ead994d07cefb3efd9b24cfd69f6df524603a2ef5859eae10029",
  "source": "pragma solidity ^0.5.0;\nimport { Owned } from './Owned.sol';\n\n/** \n * @title UserIdentity\n * @dev This contract defines who a user is,\n * It also provides permissions through its modifiers\n */\ncontract UserIdentity is Owned \n{\n  // allow contract to be deactivated when necessary\n  bool private stopped = false;\n\n  // Arrays to hold all user types;\n  address[] public admins;\n  address[] public shop_owners;\n\n  // Let's have a way to easily check for a user type\n  // mainly because of gas costs when we loop\n  mapping(address => bool) public admin;\n  mapping(address => bool) public shop_owner;\n\n  modifier isOwner {\n    // require that the caller is a shop owner\n    require(msg.sender == owner, \"Only app owner can do this\"); _;\n  }\n\n  modifier isAdmin (address _sender) {\n    // require that the caller is an admin\n    require(admin[_sender], \"Only admins can do this\"); _;\n  }\n\n  modifier isShopOwner (address _sender) {\n    // require that the caller is a shop owner\n    require(shop_owner[_sender], \"Only shop owners can do this\"); _;\n  }\n\n  modifier isAdminOrShopOwner {\n      // require that the caller is an admin or the shop owner\n    require(admin[msg.sender] || shop_owner[msg.sender],\n    \"You must be an admin or shop owner to do this\"); _;\n  }\n  \n  // force execution to stop in emergency\n  modifier stopInEmergency { if (!stopped) _; }\n  \n  // only allow execution in emergency\n  modifier onlyInEmergency { if (stopped) _; }\n\n  constructor() public \n  {\n    // set contract deployer as admin\n    admin[msg.sender] = true;\n    admins.push(msg.sender);\n  }\n\n  /**\n   * @dev help other contracts determine if caller is dApp owner\n   */\n  function fnIsOwner(address sender) public view returns (bool) \n  {\n    return sender == owner;\n  }\n\n  /**\n   * @dev help other contracts determine if caller is an admin\n   */\n  function fnIsAdmin(address _sender) public view returns (bool) {\n    return admin[_sender];\n  }\n\n  /**\n   * @dev help other contracts determine if caller is a shop owner\n   */\n  function fnIsShopOwner(address _sender) public view returns (bool) \n  {\n    return shop_owner[_sender];\n  }\n\n  /**\n   * @dev help other contracts determine if caller is a shop owner\n   */\n  function fnIsAdminOrShopOwner(address _sender) public view returns (bool) \n  {\n    return admin[_sender] || shop_owner[_sender];\n  }\n\n  /**\n   * @dev set admin address\n   */\n  function setAdminAddress(address _sender, address _admin) public stopInEmergency\n  {\n    require(owner == _sender, ownerFailureStatement);\n    admin[_admin] = true;\n    admins.push(_admin);\n  }\n\n  /**\n   * @dev set shop owner address\n   */\n  function setShopOwnerAddress(address _sender ,address _shop_owner) public stopInEmergency isAdmin(_sender)\n  {\n    shop_owner[_shop_owner] = true;\n    shop_owners.push(_shop_owner);\n  }\n\n  /**\n   * @dev activate/deactivate admin\n   */\n  function adminActivator(address _sender, address _admin, bool state) stopInEmergency public\n  {\n    require(owner == _sender, ownerFailureStatement);\n    admin[_admin] = state;\n  }\n\n  /**\n   * @dev activate/deactivate shop owner\n   */\n  function shopOwnerActivator(address _sender, address _admin, bool state) public stopInEmergency isAdmin(_sender)\n  {\n    shop_owner[_admin] = state;\n  }\n\n  /**\n   * @dev Get admins\n   */\n  function getAdmins(address _sender) public view returns (address[] memory)\n  {\n    require(owner == _sender, ownerFailureStatement);\n    return admins;\n  }\n\n  /**\n   * @dev Get shop owners\n   */\n  function getShopOwners(address _sender) public view isAdmin(_sender) returns (address[] memory) \n  {\n    return shop_owners;\n  }   \n\n  /**\n   * @dev Force contract to stop on emergency\n   */\n  function toggleContractActive() public isOwner {\n    // toggle contract active state\n    stopped = !stopped;\n  }\n}\n",
  "sourcePath": "/home/cmdlucas/blockchain-dev/consensys-project/online-marketplace-dapp/contracts/user/UserIdentity.sol",
  "compiler": {
    "name": "solc",
    "version": "0.5.0+commit.1d4f565a.Emscripten.clang"
  },
  "schemaVersion": "3.0.9",
  "updatedAt": "2019-07-08T19:31:13.611Z",
  "devdoc": {
    "details": "This contract defines who a user is, It also provides permissions through its modifiers",
    "methods": {
      "adminActivator(address,address,bool)": {
        "details": "activate/deactivate admin"
      },
      "fnIsAdmin(address)": {
        "details": "help other contracts determine if caller is an admin"
      },
      "fnIsAdminOrShopOwner(address)": {
        "details": "help other contracts determine if caller is a shop owner"
      },
      "fnIsOwner(address)": {
        "details": "help other contracts determine if caller is dApp owner"
      },
      "fnIsShopOwner(address)": {
        "details": "help other contracts determine if caller is a shop owner"
      },
      "getAdmins(address)": {
        "details": "Get admins"
      },
      "getShopOwners(address)": {
        "details": "Get shop owners"
      },
      "setAdminAddress(address,address)": {
        "details": "set admin address"
      },
      "setShopOwnerAddress(address,address)": {
        "details": "set shop owner address"
      },
      "shopOwnerActivator(address,address,bool)": {
        "details": "activate/deactivate shop owner"
      },
      "toggleContractActive()": {
        "details": "Force contract to stop on emergency"
      }
    },
    "title": "UserIdentity"
  },
  "userdoc": {
    "methods": {}
  }
}