{
  "contractName": "UserProfileManager",
  "abi": [
    {
      "constant": true,
      "inputs": [
        {
          "name": "",
          "type": "uint256"
        }
      ],
      "name": "admins",
      "outputs": [
        {
          "name": "",
          "type": "address"
        }
      ],
      "payable": false,
      "stateMutability": "view",
      "type": "function"
    },
    {
      "constant": true,
      "inputs": [
        {
          "name": "",
          "type": "uint256"
        }
      ],
      "name": "shop_owners",
      "outputs": [
        {
          "name": "",
          "type": "address"
        }
      ],
      "payable": false,
      "stateMutability": "view",
      "type": "function"
    },
    {
      "inputs": [],
      "payable": false,
      "stateMutability": "nonpayable",
      "type": "constructor"
    },
    {
      "anonymous": false,
      "inputs": [
        {
          "indexed": false,
          "name": "status",
          "type": "int8"
        },
        {
          "indexed": false,
          "name": "statement",
          "type": "string"
        }
      ],
      "name": "ActionDone",
      "type": "event"
    },
    {
      "constant": false,
      "inputs": [
        {
          "name": "user",
          "type": "address"
        },
        {
          "name": "uType",
          "type": "uint8"
        },
        {
          "name": "firstName",
          "type": "string"
        },
        {
          "name": "lastName",
          "type": "string"
        }
      ],
      "name": "addNewProfile",
      "outputs": [],
      "payable": false,
      "stateMutability": "nonpayable",
      "type": "function"
    },
    {
      "constant": false,
      "inputs": [
        {
          "name": "user",
          "type": "address"
        },
        {
          "name": "uType",
          "type": "uint8"
        },
        {
          "name": "firstName",
          "type": "string"
        },
        {
          "name": "lastName",
          "type": "string"
        }
      ],
      "name": "addProfile",
      "outputs": [],
      "payable": false,
      "stateMutability": "nonpayable",
      "type": "function"
    },
    {
      "constant": false,
      "inputs": [
        {
          "name": "user",
          "type": "address"
        },
        {
          "name": "uType",
          "type": "uint8"
        },
        {
          "name": "firstName",
          "type": "string"
        },
        {
          "name": "lastName",
          "type": "string"
        }
      ],
      "name": "updateProfile",
      "outputs": [],
      "payable": false,
      "stateMutability": "nonpayable",
      "type": "function"
    },
    {
      "constant": false,
      "inputs": [
        {
          "name": "user",
          "type": "address"
        }
      ],
      "name": "activateAdmin",
      "outputs": [],
      "payable": false,
      "stateMutability": "nonpayable",
      "type": "function"
    },
    {
      "constant": false,
      "inputs": [
        {
          "name": "user",
          "type": "address"
        }
      ],
      "name": "deActivateAdmin",
      "outputs": [],
      "payable": false,
      "stateMutability": "nonpayable",
      "type": "function"
    },
    {
      "constant": false,
      "inputs": [
        {
          "name": "user",
          "type": "address"
        }
      ],
      "name": "activateShopOwner",
      "outputs": [],
      "payable": false,
      "stateMutability": "nonpayable",
      "type": "function"
    },
    {
      "constant": false,
      "inputs": [
        {
          "name": "user",
          "type": "address"
        }
      ],
      "name": "deActivateShopOwner",
      "outputs": [],
      "payable": false,
      "stateMutability": "nonpayable",
      "type": "function"
    },
    {
      "constant": true,
      "inputs": [
        {
          "name": "user",
          "type": "address"
        }
      ],
      "name": "getUserProfile",
      "outputs": [
        {
          "name": "addr",
          "type": "address"
        },
        {
          "name": "active",
          "type": "bool"
        },
        {
          "name": "firstName",
          "type": "string"
        },
        {
          "name": "lastName",
          "type": "string"
        },
        {
          "name": "userType",
          "type": "uint8"
        }
      ],
      "payable": false,
      "stateMutability": "view",
      "type": "function"
    },
    {
      "constant": true,
      "inputs": [],
      "name": "getAdminsProfiles",
      "outputs": [
        {
          "name": "",
          "type": "address[]"
        },
        {
          "name": "",
          "type": "bool[]"
        },
        {
          "name": "",
          "type": "bytes32[]"
        },
        {
          "name": "",
          "type": "bytes32[]"
        },
        {
          "name": "",
          "type": "uint8[]"
        }
      ],
      "payable": false,
      "stateMutability": "view",
      "type": "function"
    },
    {
      "constant": true,
      "inputs": [],
      "name": "getShopOwnersProfiles",
      "outputs": [
        {
          "name": "",
          "type": "address[]"
        },
        {
          "name": "",
          "type": "bool[]"
        },
        {
          "name": "",
          "type": "bytes32[]"
        },
        {
          "name": "",
          "type": "bytes32[]"
        },
        {
          "name": "",
          "type": "uint8[]"
        }
      ],
      "payable": false,
      "stateMutability": "view",
      "type": "function"
    }
  ],
  "bytecode": "0x60806040523480156200001157600080fd5b50336000806101000a81548173ffffffffffffffffffffffffffffffffffffffff021916908373ffffffffffffffffffffffffffffffffffffffff1602179055506001600360003373ffffffffffffffffffffffffffffffffffffffff1673ffffffffffffffffffffffffffffffffffffffff16815260200190815260200160002060006101000a81548160ff02191690831515021790555060013390806001815401808255809150509060018203906000526020600020016000909192909190916101000a81548173ffffffffffffffffffffffffffffffffffffffff021916908373ffffffffffffffffffffffffffffffffffffffff1602179055505060a0604051908101604052803373ffffffffffffffffffffffffffffffffffffffff1681526020016001151581526020016040805190810160405280600581526020017f43616c656200000000000000000000000000000000000000000000000000000081525081526020016040805190810160405280600581526020017f4c75636173000000000000000000000000000000000000000000000000000000815250815260200160006002811115620001c557fe5b815250600560003373ffffffffffffffffffffffffffffffffffffffff1673ffffffffffffffffffffffffffffffffffffffff16815260200190815260200160002060008201518160000160006101000a81548173ffffffffffffffffffffffffffffffffffffffff021916908373ffffffffffffffffffffffffffffffffffffffff16021790555060208201518160000160146101000a81548160ff02191690831515021790555060408201518160010190805190602001906200028c929190620002df565b506060820151816002019080519060200190620002ab929190620002df565b5060808201518160030160006101000a81548160ff02191690836002811115620002d157fe5b02179055509050506200038e565b828054600181600116156101000203166002900490600052602060002090601f016020900481019282601f106200032257805160ff191683800117855562000353565b8280016001018555821562000353579182015b828111156200035257825182559160200191906001019062000335565b5b50905062000362919062000366565b5090565b6200038b91905b80821115620003875760008160009055506001016200036d565b5090565b90565b612fbf806200039e6000396000f3fe6080604052600436106100ba576000357c0100000000000000000000000000000000000000000000000000000000900463ffffffff16806305c5f5d7146100bf57806314bfd6d01461024b5780631af1a768146102c65780631ef53a8d146103175780634904c8aa146103685780636ca3a08c146104f45780638225354f14610545578063987ee156146106d15780639d3670ee1461085a578063c863554a146108ab578063d132a87314610a37578063e7ccca8114610bc3575b600080fd5b3480156100cb57600080fd5b50610249600480360360808110156100e257600080fd5b81019080803573ffffffffffffffffffffffffffffffffffffffff169060200190929190803560ff1690602001909291908035906020019064010000000081111561012c57600080fd5b82018360208201111561013e57600080fd5b8035906020019184600183028401116401000000008311171561016057600080fd5b91908080601f016020809104026020016040519081016040528093929190818152602001838380828437600081840152601f19601f820116905080830192505050505050509192919290803590602001906401000000008111156101c357600080fd5b8201836020820111156101d557600080fd5b803590602001918460018302840111640100000000831117156101f757600080fd5b91908080601f016020809104026020016040519081016040528093929190818152602001838380828437600081840152601f19601f820116905080830192505050505050509192919290505050610c3e565b005b34801561025757600080fd5b506102846004803603602081101561026e57600080fd5b8101908080359060200190929190505050610c9c565b604051808273ffffffffffffffffffffffffffffffffffffffff1673ffffffffffffffffffffffffffffffffffffffff16815260200191505060405180910390f35b3480156102d257600080fd5b50610315600480360360208110156102e957600080fd5b81019080803573ffffffffffffffffffffffffffffffffffffffff169060200190929190505050610cda565b005b34801561032357600080fd5b506103666004803603602081101561033a57600080fd5b81019080803573ffffffffffffffffffffffffffffffffffffffff169060200190929190505050610e7a565b005b34801561037457600080fd5b506104f26004803603608081101561038b57600080fd5b81019080803573ffffffffffffffffffffffffffffffffffffffff169060200190929190803560ff169060200190929190803590602001906401000000008111156103d557600080fd5b8201836020820111156103e757600080fd5b8035906020019184600183028401116401000000008311171561040957600080fd5b91908080601f016020809104026020016040519081016040528093929190818152602001838380828437600081840152601f19601f8201169050808301925050505050505091929192908035906020019064010000000081111561046c57600080fd5b82018360208201111561047e57600080fd5b803590602001918460018302840111640100000000831117156104a057600080fd5b91908080601f016020809104026020016040519081016040528093929190818152602001838380828437600081840152601f19601f82011690508083019250505050505050919291929050505061101a565b005b34801561050057600080fd5b506105436004803603602081101561051757600080fd5b81019080803573ffffffffffffffffffffffffffffffffffffffff1690602001909291905050506110ae565b005b34801561055157600080fd5b506106cf6004803603608081101561056857600080fd5b81019080803573ffffffffffffffffffffffffffffffffffffffff169060200190929190803560ff169060200190929190803590602001906401000000008111156105b257600080fd5b8201836020820111156105c457600080fd5b803590602001918460018302840111640100000000831117156105e657600080fd5b91908080601f016020809104026020016040519081016040528093929190818152602001838380828437600081840152601f19601f8201169050808301925050505050505091929192908035906020019064010000000081111561064957600080fd5b82018360208201111561065b57600080fd5b8035906020019184600183028401116401000000008311171561067d57600080fd5b91908080601f016020809104026020016040519081016040528093929190818152602001838380828437600081840152601f19601f820116905080830192505050505050509192919290505050611225565b005b3480156106dd57600080fd5b50610720600480360360208110156106f457600080fd5b81019080803573ffffffffffffffffffffffffffffffffffffffff1690602001909291905050506112a6565b604051808673ffffffffffffffffffffffffffffffffffffffff1673ffffffffffffffffffffffffffffffffffffffff16815260200185151515158152602001806020018060200184600281111561077457fe5b60ff168152602001838103835286818151815260200191508051906020019080838360005b838110156107b4578082015181840152602081019050610799565b50505050905090810190601f1680156107e15780820380516001836020036101000a031916815260200191505b50838103825285818151815260200191508051906020019080838360005b8381101561081a5780820151818401526020810190506107ff565b50505050905090810190601f1680156108475780820380516001836020036101000a031916815260200191505b5097505050505050505060405180910390f35b34801561086657600080fd5b506108a96004803603602081101561087d57600080fd5b81019080803573ffffffffffffffffffffffffffffffffffffffff169060200190929190505050611518565b005b3480156108b757600080fd5b506108c061168f565b60405180806020018060200180602001806020018060200186810386528b818151815260200191508051906020019060200280838360005b838110156109135780820151818401526020810190506108f8565b5050505090500186810385528a818151815260200191508051906020019060200280838360005b8381101561095557808201518184015260208101905061093a565b50505050905001868103845289818151815260200191508051906020019060200280838360005b8381101561099757808201518184015260208101905061097c565b50505050905001868103835288818151815260200191508051906020019060200280838360005b838110156109d95780820151818401526020810190506109be565b50505050905001868103825287818151815260200191508051906020019060200280838360005b83811015610a1b578082015181840152602081019050610a00565b505050509050019a505050505050505050505060405180910390f35b348015610a4357600080fd5b50610a4c611737565b60405180806020018060200180602001806020018060200186810386528b818151815260200191508051906020019060200280838360005b83811015610a9f578082015181840152602081019050610a84565b5050505090500186810385528a818151815260200191508051906020019060200280838360005b83811015610ae1578082015181840152602081019050610ac6565b50505050905001868103845289818151815260200191508051906020019060200280838360005b83811015610b23578082015181840152602081019050610b08565b50505050905001868103835288818151815260200191508051906020019060200280838360005b83811015610b65578082015181840152602081019050610b4a565b50505050905001868103825287818151815260200191508051906020019060200280838360005b83811015610ba7578082015181840152602081019050610b8c565b505050509050019a505050505050505050505060405180910390f35b348015610bcf57600080fd5b50610bfc60048036036020811015610be657600080fd5b81019080803590602001909291905050506117df565b604051808273ffffffffffffffffffffffffffffffffffffffff1673ffffffffffffffffffffffffffffffffffffffff16815260200191505060405180910390f35b60016002811115610c4b57fe5b60ff168360ff161415610c6657610c618461181d565b610c8a565b600280811115610c7257fe5b60ff168360ff161415610c8957610c88846119c8565b5b5b610c968484848461101a565b50505050565b600181815481101515610cab57fe5b906000526020600020016000915054906101000a900473ffffffffffffffffffffffffffffffffffffffff1681565b6000809054906101000a900473ffffffffffffffffffffffffffffffffffffffff1673ffffffffffffffffffffffffffffffffffffffff163373ffffffffffffffffffffffffffffffffffffffff16141515610dc4576040517f08c379a00000000000000000000000000000000000000000000000000000000081526004018080602001828103825260278152602001807f4f6e6c7920746865206f776e65722063616e20706572666f726d20746869732081526020017f616374696f6e2e0000000000000000000000000000000000000000000000000081525060400191505060405180910390fd5b6001600560008373ffffffffffffffffffffffffffffffffffffffff1673ffffffffffffffffffffffffffffffffffffffff16815260200190815260200160002060000160146101000a81548160ff0219169083151502179055506001600360008373ffffffffffffffffffffffffffffffffffffffff1673ffffffffffffffffffffffffffffffffffffffff16815260200190815260200160002060006101000a81548160ff02191690831515021790555050565b6000809054906101000a900473ffffffffffffffffffffffffffffffffffffffff1673ffffffffffffffffffffffffffffffffffffffff163373ffffffffffffffffffffffffffffffffffffffff16141515610f64576040517f08c379a00000000000000000000000000000000000000000000000000000000081526004018080602001828103825260278152602001807f4f6e6c7920746865206f776e65722063616e20706572666f726d20746869732081526020017f616374696f6e2e0000000000000000000000000000000000000000000000000081525060400191505060405180910390fd5b6000600560008373ffffffffffffffffffffffffffffffffffffffff1673ffffffffffffffffffffffffffffffffffffffff16815260200190815260200160002060000160146101000a81548160ff0219169083151502179055506000600360008373ffffffffffffffffffffffffffffffffffffffff1673ffffffffffffffffffffffffffffffffffffffff16815260200190815260200160002060006101000a81548160ff02191690831515021790555050565b6001600281111561102757fe5b60ff168360ff1614156110445761103f848383611b4a565b6110a8565b60028081111561105057fe5b60ff168360ff1614156110a757611068848383611d92565b6110a66040805190810160405280601981526020017f50726f66696c652061646465642073756363657366756c6c7900000000000000815250612015565b5b5b50505050565b600360003373ffffffffffffffffffffffffffffffffffffffff1673ffffffffffffffffffffffffffffffffffffffff16815260200190815260200160002060009054906101000a900460ff16151561116f576040517f08c379a00000000000000000000000000000000000000000000000000000000081526004018080602001828103825260178152602001807f4f6e6c792061646d696e732063616e20646f207468697300000000000000000081525060200191505060405180910390fd5b6000600560008373ffffffffffffffffffffffffffffffffffffffff1673ffffffffffffffffffffffffffffffffffffffff16815260200190815260200160002060000160146101000a81548160ff0219169083151502179055506000600460008373ffffffffffffffffffffffffffffffffffffffff1673ffffffffffffffffffffffffffffffffffffffff16815260200190815260200160002060006101000a81548160ff02191690831515021790555050565b6000600281111561123257fe5b60ff168360ff16141561124f5761124a8483836120c0565b6112a0565b6001600281111561125c57fe5b60ff168360ff1614156112795761127484838361236d565b61129f565b60028081111561128557fe5b60ff168360ff16141561129e5761129d8483836126b4565b5b5b5b50505050565b60008060608060006112b6612e9b565b600560008873ffffffffffffffffffffffffffffffffffffffff1673ffffffffffffffffffffffffffffffffffffffff16815260200190815260200160002060a060405190810160405290816000820160009054906101000a900473ffffffffffffffffffffffffffffffffffffffff1673ffffffffffffffffffffffffffffffffffffffff1673ffffffffffffffffffffffffffffffffffffffff1681526020016000820160149054906101000a900460ff16151515158152602001600182018054600181600116156101000203166002900480601f01602080910402602001604051908101604052809291908181526020018280546001816001161561010002031660029004801561140b5780601f106113e05761010080835404028352916020019161140b565b820191906000526020600020905b8154815290600101906020018083116113ee57829003601f168201915b50505050508152602001600282018054600181600116156101000203166002900480601f0160208091040260200160405190810160405280929190818152602001828054600181600116156101000203166002900480156114ad5780601f10611482576101008083540402835291602001916114ad565b820191906000526020600020905b81548152906001019060200180831161149057829003601f168201915b505050505081526020016003820160009054906101000a900460ff1660028111156114d457fe5b60028111156114df57fe5b81525050905080600001518160200151826040015183606001518460800151829250819150955095509550955095505091939590929450565b600360003373ffffffffffffffffffffffffffffffffffffffff1673ffffffffffffffffffffffffffffffffffffffff16815260200190815260200160002060009054906101000a900460ff1615156115d9576040517f08c379a00000000000000000000000000000000000000000000000000000000081526004018080602001828103825260178152602001807f4f6e6c792061646d696e732063616e20646f207468697300000000000000000081525060200191505060405180910390fd5b6001600560008373ffffffffffffffffffffffffffffffffffffffff1673ffffffffffffffffffffffffffffffffffffffff16815260200190815260200160002060000160146101000a81548160ff0219169083151502179055506000600460008373ffffffffffffffffffffffffffffffffffffffff1673ffffffffffffffffffffffffffffffffffffffff16815260200190815260200160002060006101000a81548160ff02191690831515021790555050565b6060806060806060611726600280548060200260200160405190810160405280929190818152602001828054801561171c57602002820191906000526020600020905b8160009054906101000a900473ffffffffffffffffffffffffffffffffffffffff1673ffffffffffffffffffffffffffffffffffffffff16815260200190600101908083116116d2575b50505050506129f7565b945094509450945094509091929394565b60608060608060606117ce60018054806020026020016040519081016040528092919081815260200182805480156117c457602002820191906000526020600020905b8160009054906101000a900473ffffffffffffffffffffffffffffffffffffffff1673ffffffffffffffffffffffffffffffffffffffff168152602001906001019080831161177a575b50505050506129f7565b945094509450945094509091929394565b6002818154811015156117ee57fe5b906000526020600020016000915054906101000a900473ffffffffffffffffffffffffffffffffffffffff1681565b6000809054906101000a900473ffffffffffffffffffffffffffffffffffffffff1673ffffffffffffffffffffffffffffffffffffffff163373ffffffffffffffffffffffffffffffffffffffff16141515611907576040517f08c379a00000000000000000000000000000000000000000000000000000000081526004018080602001828103825260278152602001807f4f6e6c7920746865206f776e65722063616e20706572666f726d20746869732081526020017f616374696f6e2e0000000000000000000000000000000000000000000000000081525060400191505060405180910390fd5b6001600360008373ffffffffffffffffffffffffffffffffffffffff1673ffffffffffffffffffffffffffffffffffffffff16815260200190815260200160002060006101000a81548160ff02191690831515021790555060018190806001815401808255809150509060018203906000526020600020016000909192909190916101000a81548173ffffffffffffffffffffffffffffffffffffffff021916908373ffffffffffffffffffffffffffffffffffffffff1602179055505050565b600360003373ffffffffffffffffffffffffffffffffffffffff1673ffffffffffffffffffffffffffffffffffffffff16815260200190815260200160002060009054906101000a900460ff161515611a89576040517f08c379a00000000000000000000000000000000000000000000000000000000081526004018080602001828103825260178152602001807f4f6e6c792061646d696e732063616e20646f207468697300000000000000000081525060200191505060405180910390fd5b6001600460008373ffffffffffffffffffffffffffffffffffffffff1673ffffffffffffffffffffffffffffffffffffffff16815260200190815260200160002060006101000a81548160ff02191690831515021790555060028190806001815401808255809150509060018203906000526020600020016000909192909190916101000a81548173ffffffffffffffffffffffffffffffffffffffff021916908373ffffffffffffffffffffffffffffffffffffffff1602179055505050565b6000809054906101000a900473ffffffffffffffffffffffffffffffffffffffff1673ffffffffffffffffffffffffffffffffffffffff163373ffffffffffffffffffffffffffffffffffffffff16141515611c34576040517f08c379a00000000000000000000000000000000000000000000000000000000081526004018080602001828103825260278152602001807f4f6e6c7920746865206f776e65722063616e20706572666f726d20746869732081526020017f616374696f6e2e0000000000000000000000000000000000000000000000000081525060400191505060405180910390fd5b60a0604051908101604052808473ffffffffffffffffffffffffffffffffffffffff16815260200160011515815260200183815260200182815260200160016002811115611c7e57fe5b815250600560008573ffffffffffffffffffffffffffffffffffffffff1673ffffffffffffffffffffffffffffffffffffffff16815260200190815260200160002060008201518160000160006101000a81548173ffffffffffffffffffffffffffffffffffffffff021916908373ffffffffffffffffffffffffffffffffffffffff16021790555060208201518160000160146101000a81548160ff0219169083151502179055506040820151816001019080519060200190611d43929190612eee565b506060820151816002019080519060200190611d60929190612eee565b5060808201518160030160006101000a81548160ff02191690836002811115611d8557fe5b0217905550905050505050565b600360003373ffffffffffffffffffffffffffffffffffffffff1673ffffffffffffffffffffffffffffffffffffffff16815260200190815260200160002060009054906101000a900460ff161515611e53576040517f08c379a00000000000000000000000000000000000000000000000000000000081526004018080602001828103825260178152602001807f4f6e6c792061646d696e732063616e20646f207468697300000000000000000081525060200191505060405180910390fd5b60a0604051908101604052808473ffffffffffffffffffffffffffffffffffffffff168152602001600115158152602001838152602001828152602001600280811115611e9c57fe5b815250600560008573ffffffffffffffffffffffffffffffffffffffff1673ffffffffffffffffffffffffffffffffffffffff16815260200190815260200160002060008201518160000160006101000a81548173ffffffffffffffffffffffffffffffffffffffff021916908373ffffffffffffffffffffffffffffffffffffffff16021790555060208201518160000160146101000a81548160ff0219169083151502179055506040820151816001019080519060200190611f61929190612eee565b506060820151816002019080519060200190611f7e929190612eee565b5060808201518160030160006101000a81548160ff02191690836002811115611fa357fe5b0217905550905050612010606060405190810160405280602681526020017f53686f70206f776e65722070726f66696c65206372656174656420737563636581526020017f7366756c6c790000000000000000000000000000000000000000000000000000815250612015565b505050565b7f73e8d12a7b1137bf3268a42d52951e3ffbdee6d9518c4747fdb0c20f16bf6fa4600182604051808360000b815260200180602001828103825283818151815260200191508051906020019080838360005b83811015612082578082015181840152602081019050612067565b50505050905090810190601f1680156120af5780820380516001836020036101000a031916815260200191505b50935050505060405180910390a150565b6000809054906101000a900473ffffffffffffffffffffffffffffffffffffffff1673ffffffffffffffffffffffffffffffffffffffff163373ffffffffffffffffffffffffffffffffffffffff161415156121aa576040517f08c379a00000000000000000000000000000000000000000000000000000000081526004018080602001828103825260278152602001807f4f6e6c7920746865206f776e65722063616e20706572666f726d20746869732081526020017f616374696f6e2e0000000000000000000000000000000000000000000000000081525060400191505060405180910390fd5b60a0604051908101604052808473ffffffffffffffffffffffffffffffffffffffff168152602001600115158152602001838152602001828152602001600060028111156121f457fe5b815250600560008573ffffffffffffffffffffffffffffffffffffffff1673ffffffffffffffffffffffffffffffffffffffff16815260200190815260200160002060008201518160000160006101000a81548173ffffffffffffffffffffffffffffffffffffffff021916908373ffffffffffffffffffffffffffffffffffffffff16021790555060208201518160000160146101000a81548160ff02191690831515021790555060408201518160010190805190602001906122b9929190612eee565b5060608201518160020190805190602001906122d6929190612eee565b5060808201518160030160006101000a81548160ff021916908360028111156122fb57fe5b0217905550905050612368606060405190810160405280602281526020017f4f776e65722070726f66696c652063726561746564207375636365737366756c81526020017f6c79000000000000000000000000000000000000000000000000000000000000815250612015565b505050565b82600560008273ffffffffffffffffffffffffffffffffffffffff1673ffffffffffffffffffffffffffffffffffffffff16815260200190815260200160002060000160009054906101000a900473ffffffffffffffffffffffffffffffffffffffff1673ffffffffffffffffffffffffffffffffffffffff163373ffffffffffffffffffffffffffffffffffffffff16148061245657506000809054906101000a900473ffffffffffffffffffffffffffffffffffffffff1673ffffffffffffffffffffffffffffffffffffffff163373ffffffffffffffffffffffffffffffffffffffff16145b15156124f0576040517f08c379a00000000000000000000000000000000000000000000000000000000081526004018080602001828103825260308152602001807f596f7520646f6e2774206f776e20746869732070726f66696c6520616e64206381526020017f616e6e6f74207570646174652069742e0000000000000000000000000000000081525060400191505060405180910390fd5b60a0604051908101604052808573ffffffffffffffffffffffffffffffffffffffff1681526020016001151581526020018481526020018381526020016001600281111561253a57fe5b815250600560008673ffffffffffffffffffffffffffffffffffffffff1673ffffffffffffffffffffffffffffffffffffffff16815260200190815260200160002060008201518160000160006101000a81548173ffffffffffffffffffffffffffffffffffffffff021916908373ffffffffffffffffffffffffffffffffffffffff16021790555060208201518160000160146101000a81548160ff02191690831515021790555060408201518160010190805190602001906125ff929190612eee565b50606082015181600201908051906020019061261c929190612eee565b5060808201518160030160006101000a81548160ff0219169083600281111561264157fe5b02179055509050506126ae606060405190810160405280602181526020017f41646d696e2070726f66696c6520757064617465642073756363657366756c6c81526020017f7900000000000000000000000000000000000000000000000000000000000000815250612015565b50505050565b82600560008273ffffffffffffffffffffffffffffffffffffffff1673ffffffffffffffffffffffffffffffffffffffff16815260200190815260200160002060000160009054906101000a900473ffffffffffffffffffffffffffffffffffffffff1673ffffffffffffffffffffffffffffffffffffffff163373ffffffffffffffffffffffffffffffffffffffff16148061279a5750600360003373ffffffffffffffffffffffffffffffffffffffff1673ffffffffffffffffffffffffffffffffffffffff16815260200190815260200160002060009054906101000a900460ff165b1515612834576040517f08c379a00000000000000000000000000000000000000000000000000000000081526004018080602001828103825260308152602001807f596f7520646f6e2774206f776e20746869732070726f66696c6520616e64206381526020017f616e6e6f74207570646174652069742e0000000000000000000000000000000081525060400191505060405180910390fd5b60a0604051908101604052808573ffffffffffffffffffffffffffffffffffffffff16815260200160011515815260200184815260200183815260200160028081111561287d57fe5b815250600560008673ffffffffffffffffffffffffffffffffffffffff1673ffffffffffffffffffffffffffffffffffffffff16815260200190815260200160002060008201518160000160006101000a81548173ffffffffffffffffffffffffffffffffffffffff021916908373ffffffffffffffffffffffffffffffffffffffff16021790555060208201518160000160146101000a81548160ff0219169083151502179055506040820151816001019080519060200190612942929190612eee565b50606082015181600201908051906020019061295f929190612eee565b5060808201518160030160006101000a81548160ff0219169083600281111561298457fe5b02179055509050506129f1606060405190810160405280602681526020017f53686f70206f776e65722070726f66696c65207570646174656420737563636581526020017f7366756c6c790000000000000000000000000000000000000000000000000000815250612015565b50505050565b6060806060806060808651604051908082528060200260200182016040528015612a305781602001602082028038833980820191505090505b50905060608751604051908082528060200260200182016040528015612a655781602001602082028038833980820191505090505b50905060608851604051908082528060200260200182016040528015612a9a5781602001602082028038833980820191505090505b50905060608951604051908082528060200260200182016040528015612acf5781602001602082028038833980820191505090505b50905060608a51604051908082528060200260200182016040528015612b045781602001602082028038833980820191505090505b50905060008090505b8b51811015612e7d57612b1e612e9b565b600560008e84815181101515612b3057fe5b9060200190602002015173ffffffffffffffffffffffffffffffffffffffff1673ffffffffffffffffffffffffffffffffffffffff16815260200190815260200160002060a060405190810160405290816000820160009054906101000a900473ffffffffffffffffffffffffffffffffffffffff1673ffffffffffffffffffffffffffffffffffffffff1673ffffffffffffffffffffffffffffffffffffffff1681526020016000820160149054906101000a900460ff16151515158152602001600182018054600181600116156101000203166002900480601f016020809104026020016040519081016040528092919081815260200182805460018160011615610100020316600290048015612c8a5780601f10612c5f57610100808354040283529160200191612c8a565b820191906000526020600020905b815481529060010190602001808311612c6d57829003601f168201915b50505050508152602001600282018054600181600116156101000203166002900480601f016020809104026020016040519081016040528092919081815260200182805460018160011615610100020316600290048015612d2c5780601f10612d0157610100808354040283529160200191612d2c565b820191906000526020600020905b815481529060010190602001808311612d0f57829003601f168201915b505050505081526020016003820160009054906101000a900460ff166002811115612d5357fe5b6002811115612d5e57fe5b81525050905080600001518783815181101515612d7757fe5b9060200190602002019073ffffffffffffffffffffffffffffffffffffffff16908173ffffffffffffffffffffffffffffffffffffffff168152505080602001518683815181101515612dc657fe5b90602001906020020190151590811515815250506060816040015190506060826060015190506000806020840151915060208301519050818987815181101515612e0c57fe5b9060200190602002018181525050808887815181101515612e2957fe5b906020019060200201818152505084608001516002811115612e4757fe5b8787815181101515612e5557fe5b9060200190602002019060ff16908160ff168152505050505050508080600101915050612b0d565b50848484848499509950995099509950505050505091939590929450565b60a060405190810160405280600073ffffffffffffffffffffffffffffffffffffffff168152602001600015158152602001606081526020016060815260200160006002811115612ee857fe5b81525090565b828054600181600116156101000203166002900490600052602060002090601f016020900481019282601f10612f2f57805160ff1916838001178555612f5d565b82800160010185558215612f5d579182015b82811115612f5c578251825591602001919060010190612f41565b5b509050612f6a9190612f6e565b5090565b612f9091905b80821115612f8c576000816000905550600101612f74565b5090565b9056fea165627a7a723058200c8890a1daefe5ecc3019d0894ce668035a40e56b8fdca4d4962eea4cbafa3380029",
  "source": "pragma solidity ^0.5.0;\nimport { UserIdentity } from './UserIdentity.sol';\nimport '../event/EmitsEvent.sol';\n\n/** \n * @title Users Profile Manager\n * This contract provides us a way to store users profile\n * and update them based on the permissions declared.\n * 1. dApp Owner (who is also an admin) can create and update admin and shop owner profile\n * 2. dApp Admin can create shop owner profile\n * 3. dApp Admin can update both self and shop owner profile\n * 4. dApp shopOwner can only update their own profile\n */\ncontract UserProfileManager is UserIdentity, EmitsEvent {\n\n  enum UserType { Owner, Admin, ShopOwner }\n\n  struct Profile {\n    address addr;\n    bool active;\n    string firstName;\n    string lastName;\n    UserType userType;\n  }\n\n  mapping(address => Profile) profile;\n\n  modifier ownsAdminProfile(address user) {\n    // require that the profile is owned by either the admin or app owner is the caller\n    require((msg.sender == profile[user].addr || msg.sender == owner),\n            \"You don't own this profile and cannot update it.\"); _;\n  }\n\n  modifier ownsShopOwnerProfile(address user) {\n    // require that the profile is owned by either shop owner or admin is the caller\n    require(msg.sender == profile[user].addr || admin[msg.sender],\n            \"You don't own this profile and cannot update it.\"); _;\n  }\n\n  constructor() public {\n    // set my profile as the owner\n    profile[msg.sender] = Profile(msg.sender, true, \"Caleb\", \"Lucas\", UserType.Owner);\n  }\n\n  /**\n   * @dev Set new user profile based on user type\n   * @param uType can be any of 0, 1 or 2\n   */\n  function addNewProfile(address user, uint8 uType,\n                string memory firstName, string memory lastName) public\n  {\n    // set address so that modififer can be aware\n    if (uType == uint8(UserType.Admin)) {\n      setAdminAddress(user);\n    }\n    else if (uType == uint8(UserType.ShopOwner)) {\n      setShopOwnerAddress(user);\n    }\n\n    // now add profile\n    addProfile(user, uType, firstName, lastName);\n  }\n\n  /**\n   * @dev Set user profile based on user type\n   * @param user - do not rely on msg.sender because of function versatility\n   * @param uType can be any of 0, 1 or 2\n   */\n  function addProfile(address user, uint8 uType,\n                string memory firstName, string memory lastName) public\n  {\n    // set admin profile\n    if (uType == uint8(UserType.Admin)) {\n      addAdminProfile(user, firstName, lastName);\n    }\n    // set shop owner profile\n    else if (uType == uint8(UserType.ShopOwner)) {\n      addShopOwnerProfile(user, firstName, lastName);\n    // emit success event\n    emitActionSuccess(\"Profile added succesfully\");\n    }\n  }\n\n  /**\n   * @dev Update user profile based on user type\n   * @param user - do not rely on msg.sender because of function versatility\n   * @param uType can be any of 0, 1 or 2\n   */\n  function updateProfile(address user, uint8 uType,\n                string memory firstName, string memory lastName) public\n  {\n    // set owner profile\n    if(uType == uint8(UserType.Owner)) {\n      setOwnerProfile(user, firstName, lastName);\n    }\n    // set admin profile\n    else if (uType == uint8(UserType.Admin)) {\n      setAdminProfile(user, firstName, lastName);\n    }\n    // set shop owner profile\n    else if (uType == uint8(UserType.ShopOwner)) {\n      setShopOwnerProfile(user, firstName, lastName);\n    }\n  }\n\n  /**\n   * @dev Create owner profile\n   */\n  function setOwnerProfile(address user, string memory firstName,\n                            string memory lastName) private isOwner\n  {\n    // set profile\n    profile[user] = Profile(user, true, firstName, lastName, UserType.Owner);\n    // emit success event\n    emitActionSuccess(\"Owner profile created successfully\");\n  }\n\n  /**\n   * @dev Create admin profile\n   */\n  function addAdminProfile(address user, string memory firstName,\n                            string memory lastName) private isOwner\n  {\n    // set profile\n    profile[user] = Profile(user, true, firstName, lastName, UserType.Admin);\n  }\n\n  /**\n   * @dev Create shop owner profile\n   */\n  function addShopOwnerProfile(address user, string memory firstName,\n                            string memory lastName) private isAdmin\n  {\n    // set profile\n    profile[user] = Profile(user, true, firstName, lastName, UserType.ShopOwner);\n    // emit success event\n    emitActionSuccess(\"Shop owner profile created succesfully\");\n  }\n\n  /**\n   * @dev Set admin profile\n   */\n  function setAdminProfile(address user, string memory firstName,\n                            string memory lastName) private ownsAdminProfile(user)\n  {\n    // set profile\n    profile[user] = Profile(user, true, firstName, lastName, UserType.Admin);\n    // emit success event\n    emitActionSuccess(\"Admin profile updated succesfully\");\n  }\n\n  /**\n   * @dev Set shop owner profile\n   */\n  function setShopOwnerProfile(address user, string memory firstName,\n                            string memory lastName) private ownsShopOwnerProfile(user)\n  {\n    // set profile\n    profile[user] = Profile(user, true, firstName, lastName, UserType.ShopOwner);\n    // emit success event\n    emitActionSuccess(\"Shop owner profile updated succesfully\");\n  }\n\n  /**\n   * @dev Activate admin account\n   */\n  function activateAdmin(address user) public isOwner\n  {\n    // activate profile\n    profile[user].active = true;\n    // update restriction access controller\n    admin[user] = true;\n  }\n\n  /**\n   * @dev Deactivate admin account\n   */\n  function deActivateAdmin(address user) public isOwner\n  {\n    // deactivate profile\n    profile[user].active = false;\n    // update restriction access controller\n    admin[user] = false;\n  }\n\n  /**\n   * @dev Activate shop owner account\n   */\n  function activateShopOwner(address user) public isAdmin\n  {\n    // activate profile\n    profile[user].active = true;\n    // update restriction access controller\n    shop_owner[user] = false;\n  }\n  \n  /**\n   * @dev Deactivate shop owner account\n   */\n  function deActivateShopOwner(address user) public isAdmin\n  {\n    // deactivate profile\n    profile[user].active = false;\n    // update restriction access controller\n    shop_owner[user] = false;\n  }\n\n  /**\n   * @dev Get user profile\n   */\n  function getUserProfile(address user) public view returns(address addr, bool active,\n          string memory firstName, string memory lastName, UserType userType)\n  {\n    Profile memory p = profile[user];\n    return (p.addr, p.active, p.firstName, p.lastName, p.userType);\n  }\n\n  /**\n   * @dev Get all users profiles\n   */\n  function getUsers (address[] memory users) private view returns(address[] memory, bool[] memory,\n          bytes32[] memory, bytes32[] memory, uint8[] memory)\n  {\n    address[] memory addrs = new address[] (users.length);\n    bool[] memory actives = new bool[] (users.length);\n    bytes32[] memory firstNames = new bytes32[] (users.length);\n    bytes32[] memory lastNames = new bytes32[] (users.length);\n    uint8[] memory userTypes = new uint8[] (users.length);\n    for(uint i = 0; i < users.length; i++) {\n      // get profile of this particular admin\n      Profile memory p = profile[users[i]];\n      addrs[i] = p.addr;\n      actives[i] = p.active;\n      string memory fiName = p.firstName;\n      string memory laName = p.lastName;\n      bytes32 fName;\n      bytes32 lName;\n      // convert string to bytes32\n      assembly {\n        fName := mload(add(fiName, 32))\n        lName := mload(add(laName, 32))\n      }\n      // store strings\n      firstNames[i] = fName;\n      lastNames[i] = lName;\n      userTypes[i] = uint8(p.userType);\n    }\n    return (addrs, actives, firstNames, lastNames, userTypes);\n  }\n\n  /**\n   * @dev Get all admins profiles\n   */\n  function getAdminsProfiles() public view returns(address[] memory, bool[] memory, \n          bytes32[] memory, bytes32[] memory, uint8[] memory)\n  {\n    return getUsers(admins);\n  }\n\n  /**\n   * @dev Get all shopowners profiles\n   */\n  function getShopOwnersProfiles() public view returns(address[] memory, bool[] memory,\n          bytes32[] memory, bytes32[] memory, uint8[] memory)\n  {\n    return getUsers(shop_owners);\n  }\n\n}\n",
  "sourcePath": "/home/cmdlucas/blockchain-dev/consensys-project/online-marketplace-dapp/contracts/user/UserProfileManager.sol",
  "compiler": {
    "name": "solc",
    "version": "0.5.0+commit.1d4f565a.Emscripten.clang"
  },
  "schemaVersion": "3.0.9",
  "updatedAt": "2019-06-30T14:29:50.214Z",
  "devdoc": {
    "methods": {
      "addNewProfile(address,uint8,string,string)": {
        "details": "Set new user profile based on user type",
        "params": {
          "uType": "can be any of 0, 1 or 2"
        }
      },
      "addProfile(address,uint8,string,string)": {
        "details": "Set user profile based on user type",
        "params": {
          "uType": "can be any of 0, 1 or 2",
          "user": "- do not rely on msg.sender because of function versatility"
        }
      },
      "getAdminsProfiles()": {
        "details": "Get all admins profiles"
      },
      "getShopOwnersProfiles()": {
        "details": "Get all shopowners profiles"
      },
      "getUserProfile(address)": {
        "details": "Get user profile"
      },
      "updateProfile(address,uint8,string,string)": {
        "details": "Update user profile based on user type",
        "params": {
          "uType": "can be any of 0, 1 or 2",
          "user": "- do not rely on msg.sender because of function versatility"
        }
      },
      "activateAdmin(address)": {
        "details": "Activate admin account"
      },
      "activateShopOwner(address)": {
        "details": "Activate shop owner account"
      },
      "deActivateAdmin(address)": {
        "details": "Deactivate admin account"
      },
      "deActivateShopOwner(address)": {
        "details": "Deactivate shop owner account"
      }
    },
    "title": "Users Profile Manager This contract provides us a way to store users profile and update them based on the permissions declared. 1. dApp Owner (who is also an admin) can create and update admin and shop owner profile 2. dApp Admin can create shop owner profile 3. dApp Admin can update both self and shop owner profile 4. dApp shopOwner can only update their own profile"
  },
  "userdoc": {
    "methods": {}
  }
}