{
  "contractName": "UserProfileManager",
  "abi": [
    {
      "inputs": [],
      "payable": false,
      "stateMutability": "nonpayable",
      "type": "constructor"
    },
    {
      "anonymous": false,
      "inputs": [
        {
          "indexed": false,
          "name": "status",
          "type": "int8"
        },
        {
          "indexed": false,
          "name": "statement",
          "type": "string"
        }
      ],
      "name": "ActionDone",
      "type": "event"
    },
    {
      "constant": false,
      "inputs": [
        {
          "name": "user",
          "type": "address"
        },
        {
          "name": "uType",
          "type": "uint8"
        },
        {
          "name": "firstName",
          "type": "string"
        },
        {
          "name": "lastName",
          "type": "string"
        }
      ],
      "name": "addNewProfile",
      "outputs": [],
      "payable": false,
      "stateMutability": "nonpayable",
      "type": "function"
    },
    {
      "constant": false,
      "inputs": [
        {
          "name": "user",
          "type": "address"
        },
        {
          "name": "uType",
          "type": "uint8"
        },
        {
          "name": "firstName",
          "type": "string"
        },
        {
          "name": "lastName",
          "type": "string"
        }
      ],
      "name": "addProfile",
      "outputs": [],
      "payable": false,
      "stateMutability": "nonpayable",
      "type": "function"
    },
    {
      "constant": false,
      "inputs": [
        {
          "name": "user",
          "type": "address"
        },
        {
          "name": "uType",
          "type": "uint8"
        },
        {
          "name": "firstName",
          "type": "string"
        },
        {
          "name": "lastName",
          "type": "string"
        }
      ],
      "name": "updateProfile",
      "outputs": [
        {
          "name": "addr",
          "type": "address"
        },
        {
          "name": "firstName",
          "type": "string"
        },
        {
          "name": "lastName",
          "type": "string"
        },
        {
          "name": "userType",
          "type": "uint8"
        }
      ],
      "payable": false,
      "stateMutability": "nonpayable",
      "type": "function"
    },
    {
      "constant": true,
      "inputs": [
        {
          "name": "user",
          "type": "address"
        }
      ],
      "name": "getUserProfile",
      "outputs": [
        {
          "name": "addr",
          "type": "address"
        },
        {
          "name": "firstName",
          "type": "string"
        },
        {
          "name": "lastName",
          "type": "string"
        },
        {
          "name": "userType",
          "type": "uint8"
        }
      ],
      "payable": false,
      "stateMutability": "view",
      "type": "function"
    }
  ],
  "bytecode": "0x60806040523480156200001157600080fd5b50336000806101000a81548173ffffffffffffffffffffffffffffffffffffffff021916908373ffffffffffffffffffffffffffffffffffffffff16021790555060018060003373ffffffffffffffffffffffffffffffffffffffff1673ffffffffffffffffffffffffffffffffffffffff16815260200190815260200160002060006101000a81548160ff0219169083151502179055506080604051908101604052803373ffffffffffffffffffffffffffffffffffffffff1681526020016040805190810160405280600581526020017f43616c656200000000000000000000000000000000000000000000000000000081525081526020016040805190810160405280600581526020017f4c756361730000000000000000000000000000000000000000000000000000008152508152602001600060028111156200015557fe5b815250600360003373ffffffffffffffffffffffffffffffffffffffff1673ffffffffffffffffffffffffffffffffffffffff16815260200190815260200160002060008201518160000160006101000a81548173ffffffffffffffffffffffffffffffffffffffff021916908373ffffffffffffffffffffffffffffffffffffffff1602179055506020820151816001019080519060200190620001fc9291906200024f565b5060408201518160020190805190602001906200021b9291906200024f565b5060608201518160030160006101000a81548160ff021916908360028111156200024157fe5b0217905550905050620002fe565b828054600181600116156101000203166002900490600052602060002090601f016020900481019282601f106200029257805160ff1916838001178555620002c3565b82800160010185558215620002c3579182015b82811115620002c2578251825591602001919060010190620002a5565b5b509050620002d29190620002d6565b5090565b620002fb91905b80821115620002f7576000816000905550600101620002dd565b5090565b90565b611ba4806200030e6000396000f3fe608060405260043610610062576000357c0100000000000000000000000000000000000000000000000000000000900463ffffffff16806305c5f5d7146100675780634904c8aa146101f35780638225354f1461037f578063987ee1561461050b575b600080fd5b34801561007357600080fd5b506101f16004803603608081101561008a57600080fd5b81019080803573ffffffffffffffffffffffffffffffffffffffff169060200190929190803560ff169060200190929190803590602001906401000000008111156100d457600080fd5b8201836020820111156100e657600080fd5b8035906020019184600183028401116401000000008311171561010857600080fd5b91908080601f016020809104026020016040519081016040528093929190818152602001838380828437600081840152601f19601f8201169050808301925050505050505091929192908035906020019064010000000081111561016b57600080fd5b82018360208201111561017d57600080fd5b8035906020019184600183028401116401000000008311171561019f57600080fd5b91908080601f016020809104026020016040519081016040528093929190818152602001838380828437600081840152601f19601f820116905080830192505050505050509192919290505050610689565b005b3480156101ff57600080fd5b5061037d6004803603608081101561021657600080fd5b81019080803573ffffffffffffffffffffffffffffffffffffffff169060200190929190803560ff1690602001909291908035906020019064010000000081111561026057600080fd5b82018360208201111561027257600080fd5b8035906020019184600183028401116401000000008311171561029457600080fd5b91908080601f016020809104026020016040519081016040528093929190818152602001838380828437600081840152601f19601f820116905080830192505050505050509192919290803590602001906401000000008111156102f757600080fd5b82018360208201111561030957600080fd5b8035906020019184600183028401116401000000008311171561032b57600080fd5b91908080601f016020809104026020016040519081016040528093929190818152602001838380828437600081840152601f19601f8201169050808301925050505050505091929192905050506106e7565b005b34801561038b57600080fd5b50610509600480360360808110156103a257600080fd5b81019080803573ffffffffffffffffffffffffffffffffffffffff169060200190929190803560ff169060200190929190803590602001906401000000008111156103ec57600080fd5b8201836020820111156103fe57600080fd5b8035906020019184600183028401116401000000008311171561042057600080fd5b91908080601f016020809104026020016040519081016040528093929190818152602001838380828437600081840152601f19601f8201169050808301925050505050505091929192908035906020019064010000000081111561048357600080fd5b82018360208201111561049557600080fd5b803590602001918460018302840111640100000000831117156104b757600080fd5b91908080601f016020809104026020016040519081016040528093929190818152602001838380828437600081840152601f19601f82011690508083019250505050505050919291929050505061077b565b005b34801561051757600080fd5b5061055a6004803603602081101561052e57600080fd5b81019080803573ffffffffffffffffffffffffffffffffffffffff1690602001909291905050506107fc565b604051808573ffffffffffffffffffffffffffffffffffffffff1673ffffffffffffffffffffffffffffffffffffffff16815260200180602001806020018460028111156105a457fe5b60ff168152602001838103835286818151815260200191508051906020019080838360005b838110156105e45780820151818401526020810190506105c9565b50505050905090810190601f1680156106115780820380516001836020036101000a031916815260200191505b50838103825285818151815260200191508051906020019080838360005b8381101561064a57808201518184015260208101905061062f565b50505050905090810190601f1680156106775780820380516001836020036101000a031916815260200191505b50965050505050505060405180910390f35b6001600281111561069657fe5b60ff168360ff1614156106b1576106ac84610a49565b6106d5565b6002808111156106bd57fe5b60ff168360ff1614156106d4576106d384610b8d565b5b5b6106e1848484846106e7565b50505050565b600160028111156106f457fe5b60ff168360ff1614156107115761070c848383610ca9565b610775565b60028081111561071d57fe5b60ff168360ff16141561077457610735848383610ec8565b6107736040805190810160405280601981526020017f50726f66696c652061646465642073756363657366756c6c7900000000000000815250611122565b5b5b50505050565b6000600281111561078857fe5b60ff168360ff1614156107a5576107a08483836111cd565b6107f6565b600160028111156107b257fe5b60ff168360ff1614156107cf576107ca848383611451565b6107f5565b6002808111156107db57fe5b60ff168360ff1614156107f4576107f384838361176f565b5b5b5b50505050565b6000606080600061080b611a89565b600360008773ffffffffffffffffffffffffffffffffffffffff1673ffffffffffffffffffffffffffffffffffffffff168152602001908152602001600020608060405190810160405290816000820160009054906101000a900473ffffffffffffffffffffffffffffffffffffffff1673ffffffffffffffffffffffffffffffffffffffff1673ffffffffffffffffffffffffffffffffffffffff168152602001600182018054600181600116156101000203166002900480601f0160208091040260200160405190810160405280929190818152602001828054600181600116156101000203166002900480156109455780601f1061091a57610100808354040283529160200191610945565b820191906000526020600020905b81548152906001019060200180831161092857829003601f168201915b50505050508152602001600282018054600181600116156101000203166002900480601f0160208091040260200160405190810160405280929190818152602001828054600181600116156101000203166002900480156109e75780601f106109bc576101008083540402835291602001916109e7565b820191906000526020600020905b8154815290600101906020018083116109ca57829003601f168201915b505050505081526020016003820160009054906101000a900460ff166002811115610a0e57fe5b6002811115610a1957fe5b81525050905080600001518160200151826040015183606001518292508191509450945094509450509193509193565b6000809054906101000a900473ffffffffffffffffffffffffffffffffffffffff1673ffffffffffffffffffffffffffffffffffffffff163373ffffffffffffffffffffffffffffffffffffffff16141515610b33576040517f08c379a00000000000000000000000000000000000000000000000000000000081526004018080602001828103825260278152602001807f4f6e6c7920746865206f776e65722063616e20706572666f726d20746869732081526020017f616374696f6e2e0000000000000000000000000000000000000000000000000081525060400191505060405180910390fd5b60018060008373ffffffffffffffffffffffffffffffffffffffff1673ffffffffffffffffffffffffffffffffffffffff16815260200190815260200160002060006101000a81548160ff02191690831515021790555050565b600160003373ffffffffffffffffffffffffffffffffffffffff1673ffffffffffffffffffffffffffffffffffffffff16815260200190815260200160002060009054906101000a900460ff161515610c4e576040517f08c379a00000000000000000000000000000000000000000000000000000000081526004018080602001828103825260178152602001807f4f6e6c792061646d696e732063616e20646f207468697300000000000000000081525060200191505060405180910390fd5b6001600260008373ffffffffffffffffffffffffffffffffffffffff1673ffffffffffffffffffffffffffffffffffffffff16815260200190815260200160002060006101000a81548160ff02191690831515021790555050565b6000809054906101000a900473ffffffffffffffffffffffffffffffffffffffff1673ffffffffffffffffffffffffffffffffffffffff163373ffffffffffffffffffffffffffffffffffffffff16141515610d93576040517f08c379a00000000000000000000000000000000000000000000000000000000081526004018080602001828103825260278152602001807f4f6e6c7920746865206f776e65722063616e20706572666f726d20746869732081526020017f616374696f6e2e0000000000000000000000000000000000000000000000000081525060400191505060405180910390fd5b6080604051908101604052808473ffffffffffffffffffffffffffffffffffffffff16815260200183815260200182815260200160016002811115610dd457fe5b815250600360008573ffffffffffffffffffffffffffffffffffffffff1673ffffffffffffffffffffffffffffffffffffffff16815260200190815260200160002060008201518160000160006101000a81548173ffffffffffffffffffffffffffffffffffffffff021916908373ffffffffffffffffffffffffffffffffffffffff1602179055506020820151816001019080519060200190610e79929190611ad3565b506040820151816002019080519060200190610e96929190611ad3565b5060608201518160030160006101000a81548160ff02191690836002811115610ebb57fe5b0217905550905050505050565b600160003373ffffffffffffffffffffffffffffffffffffffff1673ffffffffffffffffffffffffffffffffffffffff16815260200190815260200160002060009054906101000a900460ff161515610f89576040517f08c379a00000000000000000000000000000000000000000000000000000000081526004018080602001828103825260178152602001807f4f6e6c792061646d696e732063616e20646f207468697300000000000000000081525060200191505060405180910390fd5b6080604051908101604052808473ffffffffffffffffffffffffffffffffffffffff168152602001838152602001828152602001600280811115610fc957fe5b815250600360008573ffffffffffffffffffffffffffffffffffffffff1673ffffffffffffffffffffffffffffffffffffffff16815260200190815260200160002060008201518160000160006101000a81548173ffffffffffffffffffffffffffffffffffffffff021916908373ffffffffffffffffffffffffffffffffffffffff160217905550602082015181600101908051906020019061106e929190611ad3565b50604082015181600201908051906020019061108b929190611ad3565b5060608201518160030160006101000a81548160ff021916908360028111156110b057fe5b021790555090505061111d606060405190810160405280602681526020017f53686f70206f776e65722070726f66696c65206372656174656420737563636581526020017f7366756c6c790000000000000000000000000000000000000000000000000000815250611122565b505050565b7f73e8d12a7b1137bf3268a42d52951e3ffbdee6d9518c4747fdb0c20f16bf6fa4600182604051808360000b815260200180602001828103825283818151815260200191508051906020019080838360005b8381101561118f578082015181840152602081019050611174565b50505050905090810190601f1680156111bc5780820380516001836020036101000a031916815260200191505b50935050505060405180910390a150565b6000809054906101000a900473ffffffffffffffffffffffffffffffffffffffff1673ffffffffffffffffffffffffffffffffffffffff163373ffffffffffffffffffffffffffffffffffffffff161415156112b7576040517f08c379a00000000000000000000000000000000000000000000000000000000081526004018080602001828103825260278152602001807f4f6e6c7920746865206f776e65722063616e20706572666f726d20746869732081526020017f616374696f6e2e0000000000000000000000000000000000000000000000000081525060400191505060405180910390fd5b6080604051908101604052808473ffffffffffffffffffffffffffffffffffffffff168152602001838152602001828152602001600060028111156112f857fe5b815250600360008573ffffffffffffffffffffffffffffffffffffffff1673ffffffffffffffffffffffffffffffffffffffff16815260200190815260200160002060008201518160000160006101000a81548173ffffffffffffffffffffffffffffffffffffffff021916908373ffffffffffffffffffffffffffffffffffffffff160217905550602082015181600101908051906020019061139d929190611ad3565b5060408201518160020190805190602001906113ba929190611ad3565b5060608201518160030160006101000a81548160ff021916908360028111156113df57fe5b021790555090505061144c606060405190810160405280602281526020017f4f776e65722070726f66696c652063726561746564207375636365737366756c81526020017f6c79000000000000000000000000000000000000000000000000000000000000815250611122565b505050565b82600360008273ffffffffffffffffffffffffffffffffffffffff1673ffffffffffffffffffffffffffffffffffffffff16815260200190815260200160002060000160009054906101000a900473ffffffffffffffffffffffffffffffffffffffff1673ffffffffffffffffffffffffffffffffffffffff163373ffffffffffffffffffffffffffffffffffffffff16148061153a57506000809054906101000a900473ffffffffffffffffffffffffffffffffffffffff1673ffffffffffffffffffffffffffffffffffffffff163373ffffffffffffffffffffffffffffffffffffffff16145b15156115d4576040517f08c379a00000000000000000000000000000000000000000000000000000000081526004018080602001828103825260308152602001807f596f7520646f6e2774206f776e20746869732070726f66696c6520616e64206381526020017f616e6e6f74207570646174652069742e0000000000000000000000000000000081525060400191505060405180910390fd5b6080604051908101604052808573ffffffffffffffffffffffffffffffffffffffff1681526020018481526020018381526020016001600281111561161557fe5b815250600360008673ffffffffffffffffffffffffffffffffffffffff1673ffffffffffffffffffffffffffffffffffffffff16815260200190815260200160002060008201518160000160006101000a81548173ffffffffffffffffffffffffffffffffffffffff021916908373ffffffffffffffffffffffffffffffffffffffff16021790555060208201518160010190805190602001906116ba929190611ad3565b5060408201518160020190805190602001906116d7929190611ad3565b5060608201518160030160006101000a81548160ff021916908360028111156116fc57fe5b0217905550905050611769606060405190810160405280602181526020017f41646d696e2070726f66696c6520757064617465642073756363657366756c6c81526020017f7900000000000000000000000000000000000000000000000000000000000000815250611122565b50505050565b82600360008273ffffffffffffffffffffffffffffffffffffffff1673ffffffffffffffffffffffffffffffffffffffff16815260200190815260200160002060000160009054906101000a900473ffffffffffffffffffffffffffffffffffffffff1673ffffffffffffffffffffffffffffffffffffffff163373ffffffffffffffffffffffffffffffffffffffff1614806118555750600160003373ffffffffffffffffffffffffffffffffffffffff1673ffffffffffffffffffffffffffffffffffffffff16815260200190815260200160002060009054906101000a900460ff165b15156118ef576040517f08c379a00000000000000000000000000000000000000000000000000000000081526004018080602001828103825260308152602001807f596f7520646f6e2774206f776e20746869732070726f66696c6520616e64206381526020017f616e6e6f74207570646174652069742e0000000000000000000000000000000081525060400191505060405180910390fd5b6080604051908101604052808573ffffffffffffffffffffffffffffffffffffffff16815260200184815260200183815260200160028081111561192f57fe5b815250600360008673ffffffffffffffffffffffffffffffffffffffff1673ffffffffffffffffffffffffffffffffffffffff16815260200190815260200160002060008201518160000160006101000a81548173ffffffffffffffffffffffffffffffffffffffff021916908373ffffffffffffffffffffffffffffffffffffffff16021790555060208201518160010190805190602001906119d4929190611ad3565b5060408201518160020190805190602001906119f1929190611ad3565b5060608201518160030160006101000a81548160ff02191690836002811115611a1657fe5b0217905550905050611a83606060405190810160405280602681526020017f53686f70206f776e65722070726f66696c65207570646174656420737563636581526020017f7366756c6c790000000000000000000000000000000000000000000000000000815250611122565b50505050565b608060405190810160405280600073ffffffffffffffffffffffffffffffffffffffff168152602001606081526020016060815260200160006002811115611acd57fe5b81525090565b828054600181600116156101000203166002900490600052602060002090601f016020900481019282601f10611b1457805160ff1916838001178555611b42565b82800160010185558215611b42579182015b82811115611b41578251825591602001919060010190611b26565b5b509050611b4f9190611b53565b5090565b611b7591905b80821115611b71576000816000905550600101611b59565b5090565b9056fea165627a7a72305820c6412a3d75ee390005fff85649b59fb57def9b8786cb5adac9dfefc82aff94e00029",
  "source": "pragma solidity ^0.5.0;\nimport { UserIdentity } from './UserIdentity.sol';\nimport '../event/EmitsEvent.sol';\n\n// This contract provides us a way to store users profile\n// and update them based on the permissions declared.\n// 1. dApp Owner (who is also an admin) can create and update admin and shop owner profile\n// 2. dApp Admin can create shop owner profile\n// 3. dApp Admin can update both self and shop owner profile\n// 4. dApp shopOwner can only update their own profile\n\ncontract UserProfileManager is UserIdentity, EmitsEvent {\n\n  enum UserType { Owner, Admin, ShopOwner }\n\n  struct Profile {\n    address addr;\n    string firstName;\n    string lastName;\n    UserType userType;\n  }\n\n  mapping(address => Profile) internal profile;\n\n  modifier ownsAdminProfile(address user) {\n    // require that the profile is owned by either the admin or app owner is the caller\n    require((msg.sender == profile[user].addr || msg.sender == owner),\n            \"You don't own this profile and cannot update it.\"); _;\n  }\n\n  modifier ownsShopOwnerProfile(address user) {\n    // require that the profile is owned by either shop owner or admin is the caller\n    require(msg.sender == profile[user].addr || admin[msg.sender],\n            \"You don't own this profile and cannot update it.\"); _;\n  }\n\n  constructor() public {\n    // set my profile as the owner\n    profile[msg.sender] = Profile(msg.sender, \"Caleb\", \"Lucas\", UserType.Owner);\n  }\n\n  /**\n   * @dev Set new user profile based on user type\n   * @param uType can be any of 0, 1 or 2\n   */\n  function addNewProfile(address user, uint8 uType,\n                string memory firstName, string memory lastName) public\n  {\n    // set address so that modififer can be aware\n    if (uType == uint8(UserType.Admin)) {\n      setAdminAddress(user);\n    }\n    else if (uType == uint8(UserType.ShopOwner)) {\n      setShopOwnerAddress(user);\n    }\n\n    // now add profile\n    addProfile(user, uType, firstName, lastName);\n  }\n\n  /**\n   * @dev Set user profile based on user type\n   * @param user - do not rely on msg.sender because of function versatility\n   * @param uType can be any of 0, 1 or 2\n   */\n  function addProfile(address user, uint8 uType,\n                string memory firstName, string memory lastName) public\n  {\n    // set admin profile\n    if (uType == uint8(UserType.Admin)) {\n      addAdminProfile(user, firstName, lastName);\n    }\n    // set shop owner profile\n    else if (uType == uint8(UserType.ShopOwner)) {\n      addShopOwnerProfile(user, firstName, lastName);\n    // emit success event\n    emitActionSuccess(\"Profile added succesfully\");\n    }\n  }\n\n  /**\n   * @dev Update user profile based on user type\n   * @param user - do not rely on msg.sender because of function versatility\n   * @param uType can be any of 0, 1 or 2\n   */\n  function updateProfile(address user, uint8 uType,\n                string memory firstName, string memory lastName) public\n  {\n    // set owner profile\n    if(uType == uint8(UserType.Owner)) {\n      setOwnerProfile(user, firstName, lastName);\n    }\n    // set admin profile\n    else if (uType == uint8(UserType.Admin)) {\n      setAdminProfile(user, firstName, lastName);\n    }\n    // set shop owner profile\n    else if (uType == uint8(UserType.ShopOwner)) {\n      setShopOwnerProfile(user, firstName, lastName);\n    }\n  }\n\n  /**\n   * @dev Create owner profile\n   */\n  function setOwnerProfile(address user, string memory firstName,\n                            string memory lastName) private isOwner\n  {\n    // set profile\n    profile[user] = Profile(user, firstName, lastName, UserType.Owner);\n    // emit success event\n    emitActionSuccess(\"Owner profile created successfully\");\n  }\n\n  /**\n   * @dev Create admin profile\n   */\n  function addAdminProfile(address user, string memory firstName,\n                            string memory lastName) private isOwner\n  {\n    // set profile\n    profile[user] = Profile(user, firstName, lastName, UserType.Admin);\n  }\n\n  /**\n   * @dev Create shop owner profile\n   */\n  function addShopOwnerProfile(address user, string memory firstName,\n                            string memory lastName) private isAdmin\n  {\n    // set profile\n    profile[user] = Profile(user, firstName, lastName, UserType.ShopOwner);\n    // emit success event\n    emitActionSuccess(\"Shop owner profile created succesfully\");\n  }\n\n  /**\n   * @dev Set admin profile\n   */\n  function setAdminProfile(address user, string memory firstName,\n                            string memory lastName) private ownsAdminProfile(user)\n  {\n    // set profile\n    profile[user] = Profile(user, firstName, lastName, UserType.Admin);\n    // emit success event\n    emitActionSuccess(\"Admin profile updated succesfully\");\n  }\n\n  /**\n   * @dev Set shop owner profile\n   */\n  function setShopOwnerProfile(address user, string memory firstName,\n                            string memory lastName) private ownsShopOwnerProfile(user)\n  {\n    // set profile\n    profile[user] = Profile(user, firstName, lastName, UserType.ShopOwner);\n    // emit success event\n    emitActionSuccess(\"Shop owner profile updated succesfully\");\n  }\n\n  /**\n   * @dev Get user profile\n   */\n  function getUserProfile(address user) public view returns(address addr,\n          string memory firstName, string memory lastName, UserType userType)\n  {\n    Profile memory p = profile[user];\n    return (p.addr, p.firstName, p.lastName, p.userType);\n  }\n\n}\n",
  "sourcePath": "/home/cmdlucas/blockchain-dev/consensys-project/online-marketplace-dapp/contracts/user/UserProfileManager.sol",
  "compiler": {
    "name": "solc",
    "version": "0.5.0+commit.1d4f565a.Emscripten.clang"
  },
  "schemaVersion": "3.0.9",
  "updatedAt": "2019-06-23T21:55:30.484Z",
  "devdoc": {
    "methods": {
      "getUserProfile(address)": {
        "details": "Get user profile"
      },
      "setNewProfile(address,uint8,string,string)": {
        "details": "Set new user profile based on user type",
        "params": {
          "uType": "can be any of 0, 1 or 2"
        }
      },
      "setProfile(address,uint8,string,string)": {
        "details": "Set user profile based on user type",
        "params": {
          "uType": "can be any of 0, 1 or 2"
        }
      },
      "addNewProfile(address,uint8,string,string)": {
        "details": "Set new user profile based on user type",
        "params": {
          "uType": "can be any of 0, 1 or 2"
        }
      },
      "addProfile(address,uint8,string,string)": {
        "details": "Set user profile based on user type",
        "params": {
          "uType": "can be any of 0, 1 or 2",
          "user": "- do not rely on msg.sender because of function versatility"
        }
      },
      "updateProfile(address,uint8,string,string)": {
        "details": "Update user profile based on user type",
        "params": {
          "uType": "can be any of 0, 1 or 2",
          "user": "- do not rely on msg.sender because of function versatility"
        }
      }
    }
  },
  "userdoc": {
    "methods": {}
  }
}