{
  "contractName": "UserIdentity",
  "abi": [
    {
      "constant": true,
      "inputs": [
        {
          "name": "",
          "type": "uint256"
        }
      ],
      "name": "admins",
      "outputs": [
        {
          "name": "",
          "type": "address"
        }
      ],
      "payable": false,
      "stateMutability": "view",
      "type": "function"
    },
    {
      "constant": true,
      "inputs": [
        {
          "name": "",
          "type": "uint256"
        }
      ],
      "name": "shop_owners",
      "outputs": [
        {
          "name": "",
          "type": "address"
        }
      ],
      "payable": false,
      "stateMutability": "view",
      "type": "function"
    },
    {
      "inputs": [],
      "payable": false,
      "stateMutability": "nonpayable",
      "type": "constructor"
    }
  ],
  "bytecode": "0x608060405234801561001057600080fd5b50336000806101000a81548173ffffffffffffffffffffffffffffffffffffffff021916908373ffffffffffffffffffffffffffffffffffffffff1602179055506001600360003373ffffffffffffffffffffffffffffffffffffffff1673ffffffffffffffffffffffffffffffffffffffff16815260200190815260200160002060006101000a81548160ff02191690831515021790555060013390806001815401808255809150509060018203906000526020600020016000909192909190916101000a81548173ffffffffffffffffffffffffffffffffffffffff021916908373ffffffffffffffffffffffffffffffffffffffff160217905550506101ef8061011e6000396000f3fe60806040526004361061004c576000357c0100000000000000000000000000000000000000000000000000000000900463ffffffff16806314bfd6d014610051578063e7ccca81146100cc575b600080fd5b34801561005d57600080fd5b5061008a6004803603602081101561007457600080fd5b8101908080359060200190929190505050610147565b604051808273ffffffffffffffffffffffffffffffffffffffff1673ffffffffffffffffffffffffffffffffffffffff16815260200191505060405180910390f35b3480156100d857600080fd5b50610105600480360360208110156100ef57600080fd5b8101908080359060200190929190505050610185565b604051808273ffffffffffffffffffffffffffffffffffffffff1673ffffffffffffffffffffffffffffffffffffffff16815260200191505060405180910390f35b60018181548110151561015657fe5b906000526020600020016000915054906101000a900473ffffffffffffffffffffffffffffffffffffffff1681565b60028181548110151561019457fe5b906000526020600020016000915054906101000a900473ffffffffffffffffffffffffffffffffffffffff168156fea165627a7a72305820267d81b66a0ca5a9e709ee8924845714403b2b610a344cfeaf174ed861a433650029",
  "source": "pragma solidity ^0.5.0;\nimport { Owned } from './Owned.sol';\n\n// This contract defines who a user is\n// It also provides permissions through its modifiers\ncontract UserIdentity is Owned {\n  // Arrays to hold all user types;\n  address[] public admins;\n  address[] public shop_owners;\n\n  // Let's have a way to easily check for a user type\n  // mainly because of gas costs when we loop\n  mapping(address => bool) internal admin;\n  mapping(address => bool) internal shop_owner;\n\n  modifier isAdmin {\n    require(admin[msg.sender], \"Only admins can do this\"); _;\n  }\n\n  modifier isShopOwner {\n    require(shop_owner[msg.sender], \"Only shop owners can do this\"); _;\n  }\n\n  modifier isAdminOrShopOwner {\n    require(admin[msg.sender] || shop_owner[msg.sender],\n    \"You must be an admin or shop owner to do this\"); _;\n  }\n\n  constructor() public {\n    // set contract deployer as admin\n    admin[msg.sender] = true;\n    admins.push(msg.sender);\n  }\n\n  function setAdminAddress(address _admin) internal isOwner\n  {\n    admin[_admin] = true;\n    admins.push(_admin);\n  }\n\n  function setShopOwnerAddress(address _shop_owner) internal isAdmin\n  {\n    shop_owner[_shop_owner] = true;\n    shop_owners.push(_shop_owner);\n  }\n\n}\n",
  "sourcePath": "/home/cmdlucas/blockchain-dev/consensys-project/online-marketplace-dapp/contracts/user/UserIdentity.sol",
  "compiler": {
    "name": "solc",
    "version": "0.5.0+commit.1d4f565a.Emscripten.clang"
  },
  "schemaVersion": "3.0.9",
  "updatedAt": "2019-06-30T07:43:06.282Z",
  "devdoc": {
    "methods": {}
  },
  "userdoc": {
    "methods": {}
  }
}