{
  "contractName": "UserProfileManager",
  "abi": [
    {
      "constant": true,
      "inputs": [
        {
          "name": "",
          "type": "uint256"
        }
      ],
      "name": "admins",
      "outputs": [
        {
          "name": "",
          "type": "address"
        }
      ],
      "payable": false,
      "stateMutability": "view",
      "type": "function"
    },
    {
      "constant": true,
      "inputs": [
        {
          "name": "",
          "type": "uint256"
        }
      ],
      "name": "shop_owners",
      "outputs": [
        {
          "name": "",
          "type": "address"
        }
      ],
      "payable": false,
      "stateMutability": "view",
      "type": "function"
    },
    {
      "inputs": [],
      "payable": false,
      "stateMutability": "nonpayable",
      "type": "constructor"
    },
    {
      "anonymous": false,
      "inputs": [
        {
          "indexed": false,
          "name": "status",
          "type": "int8"
        },
        {
          "indexed": false,
          "name": "statement",
          "type": "string"
        }
      ],
      "name": "ActionDone",
      "type": "event"
    },
    {
      "constant": false,
      "inputs": [
        {
          "name": "user",
          "type": "address"
        },
        {
          "name": "uType",
          "type": "uint8"
        },
        {
          "name": "firstName",
          "type": "string"
        },
        {
          "name": "lastName",
          "type": "string"
        }
      ],
      "name": "addNewProfile",
      "outputs": [],
      "payable": false,
      "stateMutability": "nonpayable",
      "type": "function"
    },
    {
      "constant": false,
      "inputs": [
        {
          "name": "user",
          "type": "address"
        },
        {
          "name": "uType",
          "type": "uint8"
        },
        {
          "name": "firstName",
          "type": "string"
        },
        {
          "name": "lastName",
          "type": "string"
        }
      ],
      "name": "addProfile",
      "outputs": [],
      "payable": false,
      "stateMutability": "nonpayable",
      "type": "function"
    },
    {
      "constant": false,
      "inputs": [
        {
          "name": "user",
          "type": "address"
        },
        {
          "name": "uType",
          "type": "uint8"
        },
        {
          "name": "firstName",
          "type": "string"
        },
        {
          "name": "lastName",
          "type": "string"
        }
      ],
      "name": "updateProfile",
      "outputs": [],
      "payable": false,
      "stateMutability": "nonpayable",
      "type": "function"
    },
    {
      "constant": false,
      "inputs": [
        {
          "name": "user",
          "type": "address"
        }
      ],
      "name": "activateAdmin",
      "outputs": [],
      "payable": false,
      "stateMutability": "nonpayable",
      "type": "function"
    },
    {
      "constant": false,
      "inputs": [
        {
          "name": "user",
          "type": "address"
        }
      ],
      "name": "deActivateAdmin",
      "outputs": [],
      "payable": false,
      "stateMutability": "nonpayable",
      "type": "function"
    },
    {
      "constant": false,
      "inputs": [
        {
          "name": "user",
          "type": "address"
        }
      ],
      "name": "activateShopOwner",
      "outputs": [],
      "payable": false,
      "stateMutability": "nonpayable",
      "type": "function"
    },
    {
      "constant": false,
      "inputs": [
        {
          "name": "user",
          "type": "address"
        }
      ],
      "name": "deActivateShopOwner",
      "outputs": [],
      "payable": false,
      "stateMutability": "nonpayable",
      "type": "function"
    },
    {
      "constant": true,
      "inputs": [
        {
          "name": "user",
          "type": "address"
        }
      ],
      "name": "getUserProfile",
      "outputs": [
        {
          "name": "addr",
          "type": "address"
        },
        {
          "name": "active",
          "type": "bool"
        },
        {
          "name": "firstName",
          "type": "string"
        },
        {
          "name": "lastName",
          "type": "string"
        },
        {
          "name": "userType",
          "type": "uint8"
        }
      ],
      "payable": false,
      "stateMutability": "view",
      "type": "function"
    },
    {
      "constant": true,
      "inputs": [],
      "name": "getAdminsProfiles",
      "outputs": [
        {
          "name": "",
          "type": "address[]"
        },
        {
          "name": "",
          "type": "bool[]"
        },
        {
          "name": "",
          "type": "bytes32[]"
        },
        {
          "name": "",
          "type": "bytes32[]"
        },
        {
          "name": "",
          "type": "uint8[]"
        }
      ],
      "payable": false,
      "stateMutability": "view",
      "type": "function"
    },
    {
      "constant": true,
      "inputs": [],
      "name": "getShopOwnersProfiles",
      "outputs": [
        {
          "name": "",
          "type": "address[]"
        },
        {
          "name": "",
          "type": "bool[]"
        },
        {
          "name": "",
          "type": "bytes32[]"
        },
        {
          "name": "",
          "type": "bytes32[]"
        },
        {
          "name": "",
          "type": "uint8[]"
        }
      ],
      "payable": false,
      "stateMutability": "view",
      "type": "function"
    }
  ],
  "bytecode": "0x60806040523480156200001157600080fd5b50336000806101000a81548173ffffffffffffffffffffffffffffffffffffffff021916908373ffffffffffffffffffffffffffffffffffffffff1602179055506001600360003373ffffffffffffffffffffffffffffffffffffffff1673ffffffffffffffffffffffffffffffffffffffff16815260200190815260200160002060006101000a81548160ff02191690831515021790555060013390806001815401808255809150509060018203906000526020600020016000909192909190916101000a81548173ffffffffffffffffffffffffffffffffffffffff021916908373ffffffffffffffffffffffffffffffffffffffff1602179055505060a0604051908101604052803373ffffffffffffffffffffffffffffffffffffffff1681526020016001151581526020016040805190810160405280600581526020017f43616c656200000000000000000000000000000000000000000000000000000081525081526020016040805190810160405280600581526020017f4c75636173000000000000000000000000000000000000000000000000000000815250815260200160006002811115620001c557fe5b815250600560003373ffffffffffffffffffffffffffffffffffffffff1673ffffffffffffffffffffffffffffffffffffffff16815260200190815260200160002060008201518160000160006101000a81548173ffffffffffffffffffffffffffffffffffffffff021916908373ffffffffffffffffffffffffffffffffffffffff16021790555060208201518160000160146101000a81548160ff02191690831515021790555060408201518160010190805190602001906200028c929190620002df565b506060820151816002019080519060200190620002ab929190620002df565b5060808201518160030160006101000a81548160ff02191690836002811115620002d157fe5b02179055509050506200038e565b828054600181600116156101000203166002900490600052602060002090601f016020900481019282601f106200032257805160ff191683800117855562000353565b8280016001018555821562000353579182015b828111156200035257825182559160200191906001019062000335565b5b50905062000362919062000366565b5090565b6200038b91905b80821115620003875760008160009055506001016200036d565b5090565b90565b612e5f806200039e6000396000f3fe6080604052600436106100ba576000357c0100000000000000000000000000000000000000000000000000000000900463ffffffff16806305c5f5d7146100bf57806314bfd6d01461024b5780631af1a768146102c65780631ef53a8d146103175780634904c8aa146103685780636ca3a08c146104f45780638225354f14610545578063987ee156146106d15780639d3670ee1461085a578063c863554a146108ab578063d132a87314610a37578063e7ccca8114610bc3575b600080fd5b3480156100cb57600080fd5b50610249600480360360808110156100e257600080fd5b81019080803573ffffffffffffffffffffffffffffffffffffffff169060200190929190803560ff1690602001909291908035906020019064010000000081111561012c57600080fd5b82018360208201111561013e57600080fd5b8035906020019184600183028401116401000000008311171561016057600080fd5b91908080601f016020809104026020016040519081016040528093929190818152602001838380828437600081840152601f19601f820116905080830192505050505050509192919290803590602001906401000000008111156101c357600080fd5b8201836020820111156101d557600080fd5b803590602001918460018302840111640100000000831117156101f757600080fd5b91908080601f016020809104026020016040519081016040528093929190818152602001838380828437600081840152601f19601f820116905080830192505050505050509192919290505050610c3e565b005b34801561025757600080fd5b506102846004803603602081101561026e57600080fd5b8101908080359060200190929190505050610c9c565b604051808273ffffffffffffffffffffffffffffffffffffffff1673ffffffffffffffffffffffffffffffffffffffff16815260200191505060405180910390f35b3480156102d257600080fd5b50610315600480360360208110156102e957600080fd5b81019080803573ffffffffffffffffffffffffffffffffffffffff169060200190929190505050610cda565b005b34801561032357600080fd5b506103666004803603602081101561033a57600080fd5b81019080803573ffffffffffffffffffffffffffffffffffffffff169060200190929190505050610e22565b005b34801561037457600080fd5b506104f26004803603608081101561038b57600080fd5b81019080803573ffffffffffffffffffffffffffffffffffffffff169060200190929190803560ff169060200190929190803590602001906401000000008111156103d557600080fd5b8201836020820111156103e757600080fd5b8035906020019184600183028401116401000000008311171561040957600080fd5b91908080601f016020809104026020016040519081016040528093929190818152602001838380828437600081840152601f19601f8201169050808301925050505050505091929192908035906020019064010000000081111561046c57600080fd5b82018360208201111561047e57600080fd5b803590602001918460018302840111640100000000831117156104a057600080fd5b91908080601f016020809104026020016040519081016040528093929190818152602001838380828437600081840152601f19601f820116905080830192505050505050509192919290505050610f6a565b005b34801561050057600080fd5b506105436004803603602081101561051757600080fd5b81019080803573ffffffffffffffffffffffffffffffffffffffff169060200190929190505050610ffe565b005b34801561055157600080fd5b506106cf6004803603608081101561056857600080fd5b81019080803573ffffffffffffffffffffffffffffffffffffffff169060200190929190803560ff169060200190929190803590602001906401000000008111156105b257600080fd5b8201836020820111156105c457600080fd5b803590602001918460018302840111640100000000831117156105e657600080fd5b91908080601f016020809104026020016040519081016040528093929190818152602001838380828437600081840152601f19601f8201169050808301925050505050505091929192908035906020019064010000000081111561064957600080fd5b82018360208201111561065b57600080fd5b8035906020019184600183028401116401000000008311171561067d57600080fd5b91908080601f016020809104026020016040519081016040528093929190818152602001838380828437600081840152601f19601f82011690508083019250505050505050919291929050505061111d565b005b3480156106dd57600080fd5b50610720600480360360208110156106f457600080fd5b81019080803573ffffffffffffffffffffffffffffffffffffffff16906020019092919050505061119e565b604051808673ffffffffffffffffffffffffffffffffffffffff1673ffffffffffffffffffffffffffffffffffffffff16815260200185151515158152602001806020018060200184600281111561077457fe5b60ff168152602001838103835286818151815260200191508051906020019080838360005b838110156107b4578082015181840152602081019050610799565b50505050905090810190601f1680156107e15780820380516001836020036101000a031916815260200191505b50838103825285818151815260200191508051906020019080838360005b8381101561081a5780820151818401526020810190506107ff565b50505050905090810190601f1680156108475780820380516001836020036101000a031916815260200191505b5097505050505050505060405180910390f35b34801561086657600080fd5b506108a96004803603602081101561087d57600080fd5b81019080803573ffffffffffffffffffffffffffffffffffffffff169060200190929190505050611410565b005b3480156108b757600080fd5b506108c061152f565b60405180806020018060200180602001806020018060200186810386528b818151815260200191508051906020019060200280838360005b838110156109135780820151818401526020810190506108f8565b5050505090500186810385528a818151815260200191508051906020019060200280838360005b8381101561095557808201518184015260208101905061093a565b50505050905001868103845289818151815260200191508051906020019060200280838360005b8381101561099757808201518184015260208101905061097c565b50505050905001868103835288818151815260200191508051906020019060200280838360005b838110156109d95780820151818401526020810190506109be565b50505050905001868103825287818151815260200191508051906020019060200280838360005b83811015610a1b578082015181840152602081019050610a00565b505050509050019a505050505050505050505060405180910390f35b348015610a4357600080fd5b50610a4c6115d7565b60405180806020018060200180602001806020018060200186810386528b818151815260200191508051906020019060200280838360005b83811015610a9f578082015181840152602081019050610a84565b5050505090500186810385528a818151815260200191508051906020019060200280838360005b83811015610ae1578082015181840152602081019050610ac6565b50505050905001868103845289818151815260200191508051906020019060200280838360005b83811015610b23578082015181840152602081019050610b08565b50505050905001868103835288818151815260200191508051906020019060200280838360005b83811015610b65578082015181840152602081019050610b4a565b50505050905001868103825287818151815260200191508051906020019060200280838360005b83811015610ba7578082015181840152602081019050610b8c565b505050509050019a505050505050505050505060405180910390f35b348015610bcf57600080fd5b50610bfc60048036036020811015610be657600080fd5b810190808035906020019092919050505061167f565b604051808273ffffffffffffffffffffffffffffffffffffffff1673ffffffffffffffffffffffffffffffffffffffff16815260200191505060405180910390f35b60016002811115610c4b57fe5b60ff168360ff161415610c6657610c61846116bd565b610c8a565b600280811115610c7257fe5b60ff168360ff161415610c8957610c8884611868565b5b5b610c9684848484610f6a565b50505050565b600181815481101515610cab57fe5b906000526020600020016000915054906101000a900473ffffffffffffffffffffffffffffffffffffffff1681565b6000809054906101000a900473ffffffffffffffffffffffffffffffffffffffff1673ffffffffffffffffffffffffffffffffffffffff163373ffffffffffffffffffffffffffffffffffffffff16141515610dc4576040517f08c379a00000000000000000000000000000000000000000000000000000000081526004018080602001828103825260278152602001807f4f6e6c7920746865206f776e65722063616e20706572666f726d20746869732081526020017f616374696f6e2e0000000000000000000000000000000000000000000000000081525060400191505060405180910390fd5b6001600560008373ffffffffffffffffffffffffffffffffffffffff1673ffffffffffffffffffffffffffffffffffffffff16815260200190815260200160002060000160146101000a81548160ff02191690831515021790555050565b6000809054906101000a900473ffffffffffffffffffffffffffffffffffffffff1673ffffffffffffffffffffffffffffffffffffffff163373ffffffffffffffffffffffffffffffffffffffff16141515610f0c576040517f08c379a00000000000000000000000000000000000000000000000000000000081526004018080602001828103825260278152602001807f4f6e6c7920746865206f776e65722063616e20706572666f726d20746869732081526020017f616374696f6e2e0000000000000000000000000000000000000000000000000081525060400191505060405180910390fd5b6000600560008373ffffffffffffffffffffffffffffffffffffffff1673ffffffffffffffffffffffffffffffffffffffff16815260200190815260200160002060000160146101000a81548160ff02191690831515021790555050565b60016002811115610f7757fe5b60ff168360ff161415610f9457610f8f8483836119ea565b610ff8565b600280811115610fa057fe5b60ff168360ff161415610ff757610fb8848383611c32565b610ff66040805190810160405280601981526020017f50726f66696c652061646465642073756363657366756c6c7900000000000000815250611eb5565b5b5b50505050565b600360003373ffffffffffffffffffffffffffffffffffffffff1673ffffffffffffffffffffffffffffffffffffffff16815260200190815260200160002060009054906101000a900460ff1615156110bf576040517f08c379a00000000000000000000000000000000000000000000000000000000081526004018080602001828103825260178152602001807f4f6e6c792061646d696e732063616e20646f207468697300000000000000000081525060200191505060405180910390fd5b6000600560008373ffffffffffffffffffffffffffffffffffffffff1673ffffffffffffffffffffffffffffffffffffffff16815260200190815260200160002060000160146101000a81548160ff02191690831515021790555050565b6000600281111561112a57fe5b60ff168360ff16141561114757611142848383611f60565b611198565b6001600281111561115457fe5b60ff168360ff1614156111715761116c84838361220d565b611197565b60028081111561117d57fe5b60ff168360ff16141561119657611195848383612554565b5b5b5b50505050565b60008060608060006111ae612d3b565b600560008873ffffffffffffffffffffffffffffffffffffffff1673ffffffffffffffffffffffffffffffffffffffff16815260200190815260200160002060a060405190810160405290816000820160009054906101000a900473ffffffffffffffffffffffffffffffffffffffff1673ffffffffffffffffffffffffffffffffffffffff1673ffffffffffffffffffffffffffffffffffffffff1681526020016000820160149054906101000a900460ff16151515158152602001600182018054600181600116156101000203166002900480601f0160208091040260200160405190810160405280929190818152602001828054600181600116156101000203166002900480156113035780601f106112d857610100808354040283529160200191611303565b820191906000526020600020905b8154815290600101906020018083116112e657829003601f168201915b50505050508152602001600282018054600181600116156101000203166002900480601f0160208091040260200160405190810160405280929190818152602001828054600181600116156101000203166002900480156113a55780601f1061137a576101008083540402835291602001916113a5565b820191906000526020600020905b81548152906001019060200180831161138857829003601f168201915b505050505081526020016003820160009054906101000a900460ff1660028111156113cc57fe5b60028111156113d757fe5b81525050905080600001518160200151826040015183606001518460800151829250819150955095509550955095505091939590929450565b600360003373ffffffffffffffffffffffffffffffffffffffff1673ffffffffffffffffffffffffffffffffffffffff16815260200190815260200160002060009054906101000a900460ff1615156114d1576040517f08c379a00000000000000000000000000000000000000000000000000000000081526004018080602001828103825260178152602001807f4f6e6c792061646d696e732063616e20646f207468697300000000000000000081525060200191505060405180910390fd5b6001600560008373ffffffffffffffffffffffffffffffffffffffff1673ffffffffffffffffffffffffffffffffffffffff16815260200190815260200160002060000160146101000a81548160ff02191690831515021790555050565b60608060608060606115c660028054806020026020016040519081016040528092919081815260200182805480156115bc57602002820191906000526020600020905b8160009054906101000a900473ffffffffffffffffffffffffffffffffffffffff1673ffffffffffffffffffffffffffffffffffffffff1681526020019060010190808311611572575b5050505050612897565b945094509450945094509091929394565b606080606080606061166e600180548060200260200160405190810160405280929190818152602001828054801561166457602002820191906000526020600020905b8160009054906101000a900473ffffffffffffffffffffffffffffffffffffffff1673ffffffffffffffffffffffffffffffffffffffff168152602001906001019080831161161a575b5050505050612897565b945094509450945094509091929394565b60028181548110151561168e57fe5b906000526020600020016000915054906101000a900473ffffffffffffffffffffffffffffffffffffffff1681565b6000809054906101000a900473ffffffffffffffffffffffffffffffffffffffff1673ffffffffffffffffffffffffffffffffffffffff163373ffffffffffffffffffffffffffffffffffffffff161415156117a7576040517f08c379a00000000000000000000000000000000000000000000000000000000081526004018080602001828103825260278152602001807f4f6e6c7920746865206f776e65722063616e20706572666f726d20746869732081526020017f616374696f6e2e0000000000000000000000000000000000000000000000000081525060400191505060405180910390fd5b6001600360008373ffffffffffffffffffffffffffffffffffffffff1673ffffffffffffffffffffffffffffffffffffffff16815260200190815260200160002060006101000a81548160ff02191690831515021790555060018190806001815401808255809150509060018203906000526020600020016000909192909190916101000a81548173ffffffffffffffffffffffffffffffffffffffff021916908373ffffffffffffffffffffffffffffffffffffffff1602179055505050565b600360003373ffffffffffffffffffffffffffffffffffffffff1673ffffffffffffffffffffffffffffffffffffffff16815260200190815260200160002060009054906101000a900460ff161515611929576040517f08c379a00000000000000000000000000000000000000000000000000000000081526004018080602001828103825260178152602001807f4f6e6c792061646d696e732063616e20646f207468697300000000000000000081525060200191505060405180910390fd5b6001600460008373ffffffffffffffffffffffffffffffffffffffff1673ffffffffffffffffffffffffffffffffffffffff16815260200190815260200160002060006101000a81548160ff02191690831515021790555060028190806001815401808255809150509060018203906000526020600020016000909192909190916101000a81548173ffffffffffffffffffffffffffffffffffffffff021916908373ffffffffffffffffffffffffffffffffffffffff1602179055505050565b6000809054906101000a900473ffffffffffffffffffffffffffffffffffffffff1673ffffffffffffffffffffffffffffffffffffffff163373ffffffffffffffffffffffffffffffffffffffff16141515611ad4576040517f08c379a00000000000000000000000000000000000000000000000000000000081526004018080602001828103825260278152602001807f4f6e6c7920746865206f776e65722063616e20706572666f726d20746869732081526020017f616374696f6e2e0000000000000000000000000000000000000000000000000081525060400191505060405180910390fd5b60a0604051908101604052808473ffffffffffffffffffffffffffffffffffffffff16815260200160011515815260200183815260200182815260200160016002811115611b1e57fe5b815250600560008573ffffffffffffffffffffffffffffffffffffffff1673ffffffffffffffffffffffffffffffffffffffff16815260200190815260200160002060008201518160000160006101000a81548173ffffffffffffffffffffffffffffffffffffffff021916908373ffffffffffffffffffffffffffffffffffffffff16021790555060208201518160000160146101000a81548160ff0219169083151502179055506040820151816001019080519060200190611be3929190612d8e565b506060820151816002019080519060200190611c00929190612d8e565b5060808201518160030160006101000a81548160ff02191690836002811115611c2557fe5b0217905550905050505050565b600360003373ffffffffffffffffffffffffffffffffffffffff1673ffffffffffffffffffffffffffffffffffffffff16815260200190815260200160002060009054906101000a900460ff161515611cf3576040517f08c379a00000000000000000000000000000000000000000000000000000000081526004018080602001828103825260178152602001807f4f6e6c792061646d696e732063616e20646f207468697300000000000000000081525060200191505060405180910390fd5b60a0604051908101604052808473ffffffffffffffffffffffffffffffffffffffff168152602001600115158152602001838152602001828152602001600280811115611d3c57fe5b815250600560008573ffffffffffffffffffffffffffffffffffffffff1673ffffffffffffffffffffffffffffffffffffffff16815260200190815260200160002060008201518160000160006101000a81548173ffffffffffffffffffffffffffffffffffffffff021916908373ffffffffffffffffffffffffffffffffffffffff16021790555060208201518160000160146101000a81548160ff0219169083151502179055506040820151816001019080519060200190611e01929190612d8e565b506060820151816002019080519060200190611e1e929190612d8e565b5060808201518160030160006101000a81548160ff02191690836002811115611e4357fe5b0217905550905050611eb0606060405190810160405280602681526020017f53686f70206f776e65722070726f66696c65206372656174656420737563636581526020017f7366756c6c790000000000000000000000000000000000000000000000000000815250611eb5565b505050565b7f73e8d12a7b1137bf3268a42d52951e3ffbdee6d9518c4747fdb0c20f16bf6fa4600182604051808360000b815260200180602001828103825283818151815260200191508051906020019080838360005b83811015611f22578082015181840152602081019050611f07565b50505050905090810190601f168015611f4f5780820380516001836020036101000a031916815260200191505b50935050505060405180910390a150565b6000809054906101000a900473ffffffffffffffffffffffffffffffffffffffff1673ffffffffffffffffffffffffffffffffffffffff163373ffffffffffffffffffffffffffffffffffffffff1614151561204a576040517f08c379a00000000000000000000000000000000000000000000000000000000081526004018080602001828103825260278152602001807f4f6e6c7920746865206f776e65722063616e20706572666f726d20746869732081526020017f616374696f6e2e0000000000000000000000000000000000000000000000000081525060400191505060405180910390fd5b60a0604051908101604052808473ffffffffffffffffffffffffffffffffffffffff1681526020016001151581526020018381526020018281526020016000600281111561209457fe5b815250600560008573ffffffffffffffffffffffffffffffffffffffff1673ffffffffffffffffffffffffffffffffffffffff16815260200190815260200160002060008201518160000160006101000a81548173ffffffffffffffffffffffffffffffffffffffff021916908373ffffffffffffffffffffffffffffffffffffffff16021790555060208201518160000160146101000a81548160ff0219169083151502179055506040820151816001019080519060200190612159929190612d8e565b506060820151816002019080519060200190612176929190612d8e565b5060808201518160030160006101000a81548160ff0219169083600281111561219b57fe5b0217905550905050612208606060405190810160405280602281526020017f4f776e65722070726f66696c652063726561746564207375636365737366756c81526020017f6c79000000000000000000000000000000000000000000000000000000000000815250611eb5565b505050565b82600560008273ffffffffffffffffffffffffffffffffffffffff1673ffffffffffffffffffffffffffffffffffffffff16815260200190815260200160002060000160009054906101000a900473ffffffffffffffffffffffffffffffffffffffff1673ffffffffffffffffffffffffffffffffffffffff163373ffffffffffffffffffffffffffffffffffffffff1614806122f657506000809054906101000a900473ffffffffffffffffffffffffffffffffffffffff1673ffffffffffffffffffffffffffffffffffffffff163373ffffffffffffffffffffffffffffffffffffffff16145b1515612390576040517f08c379a00000000000000000000000000000000000000000000000000000000081526004018080602001828103825260308152602001807f596f7520646f6e2774206f776e20746869732070726f66696c6520616e64206381526020017f616e6e6f74207570646174652069742e0000000000000000000000000000000081525060400191505060405180910390fd5b60a0604051908101604052808573ffffffffffffffffffffffffffffffffffffffff168152602001600115158152602001848152602001838152602001600160028111156123da57fe5b815250600560008673ffffffffffffffffffffffffffffffffffffffff1673ffffffffffffffffffffffffffffffffffffffff16815260200190815260200160002060008201518160000160006101000a81548173ffffffffffffffffffffffffffffffffffffffff021916908373ffffffffffffffffffffffffffffffffffffffff16021790555060208201518160000160146101000a81548160ff021916908315150217905550604082015181600101908051906020019061249f929190612d8e565b5060608201518160020190805190602001906124bc929190612d8e565b5060808201518160030160006101000a81548160ff021916908360028111156124e157fe5b021790555090505061254e606060405190810160405280602181526020017f41646d696e2070726f66696c6520757064617465642073756363657366756c6c81526020017f7900000000000000000000000000000000000000000000000000000000000000815250611eb5565b50505050565b82600560008273ffffffffffffffffffffffffffffffffffffffff1673ffffffffffffffffffffffffffffffffffffffff16815260200190815260200160002060000160009054906101000a900473ffffffffffffffffffffffffffffffffffffffff1673ffffffffffffffffffffffffffffffffffffffff163373ffffffffffffffffffffffffffffffffffffffff16148061263a5750600360003373ffffffffffffffffffffffffffffffffffffffff1673ffffffffffffffffffffffffffffffffffffffff16815260200190815260200160002060009054906101000a900460ff165b15156126d4576040517f08c379a00000000000000000000000000000000000000000000000000000000081526004018080602001828103825260308152602001807f596f7520646f6e2774206f776e20746869732070726f66696c6520616e64206381526020017f616e6e6f74207570646174652069742e0000000000000000000000000000000081525060400191505060405180910390fd5b60a0604051908101604052808573ffffffffffffffffffffffffffffffffffffffff16815260200160011515815260200184815260200183815260200160028081111561271d57fe5b815250600560008673ffffffffffffffffffffffffffffffffffffffff1673ffffffffffffffffffffffffffffffffffffffff16815260200190815260200160002060008201518160000160006101000a81548173ffffffffffffffffffffffffffffffffffffffff021916908373ffffffffffffffffffffffffffffffffffffffff16021790555060208201518160000160146101000a81548160ff02191690831515021790555060408201518160010190805190602001906127e2929190612d8e565b5060608201518160020190805190602001906127ff929190612d8e565b5060808201518160030160006101000a81548160ff0219169083600281111561282457fe5b0217905550905050612891606060405190810160405280602681526020017f53686f70206f776e65722070726f66696c65207570646174656420737563636581526020017f7366756c6c790000000000000000000000000000000000000000000000000000815250611eb5565b50505050565b60608060608060608086516040519080825280602002602001820160405280156128d05781602001602082028038833980820191505090505b509050606087516040519080825280602002602001820160405280156129055781602001602082028038833980820191505090505b5090506060885160405190808252806020026020018201604052801561293a5781602001602082028038833980820191505090505b5090506060895160405190808252806020026020018201604052801561296f5781602001602082028038833980820191505090505b50905060608a516040519080825280602002602001820160405280156129a45781602001602082028038833980820191505090505b50905060008090505b8b51811015612d1d576129be612d3b565b600560008e848151811015156129d057fe5b9060200190602002015173ffffffffffffffffffffffffffffffffffffffff1673ffffffffffffffffffffffffffffffffffffffff16815260200190815260200160002060a060405190810160405290816000820160009054906101000a900473ffffffffffffffffffffffffffffffffffffffff1673ffffffffffffffffffffffffffffffffffffffff1673ffffffffffffffffffffffffffffffffffffffff1681526020016000820160149054906101000a900460ff16151515158152602001600182018054600181600116156101000203166002900480601f016020809104026020016040519081016040528092919081815260200182805460018160011615610100020316600290048015612b2a5780601f10612aff57610100808354040283529160200191612b2a565b820191906000526020600020905b815481529060010190602001808311612b0d57829003601f168201915b50505050508152602001600282018054600181600116156101000203166002900480601f016020809104026020016040519081016040528092919081815260200182805460018160011615610100020316600290048015612bcc5780601f10612ba157610100808354040283529160200191612bcc565b820191906000526020600020905b815481529060010190602001808311612baf57829003601f168201915b505050505081526020016003820160009054906101000a900460ff166002811115612bf357fe5b6002811115612bfe57fe5b81525050905080600001518783815181101515612c1757fe5b9060200190602002019073ffffffffffffffffffffffffffffffffffffffff16908173ffffffffffffffffffffffffffffffffffffffff168152505080602001518683815181101515612c6657fe5b90602001906020020190151590811515815250506060816040015190506060826060015190506000806020840151915060208301519050818987815181101515612cac57fe5b9060200190602002018181525050808887815181101515612cc957fe5b906020019060200201818152505084608001516002811115612ce757fe5b8787815181101515612cf557fe5b9060200190602002019060ff16908160ff1681525050505050505080806001019150506129ad565b50848484848499509950995099509950505050505091939590929450565b60a060405190810160405280600073ffffffffffffffffffffffffffffffffffffffff168152602001600015158152602001606081526020016060815260200160006002811115612d8857fe5b81525090565b828054600181600116156101000203166002900490600052602060002090601f016020900481019282601f10612dcf57805160ff1916838001178555612dfd565b82800160010185558215612dfd579182015b82811115612dfc578251825591602001919060010190612de1565b5b509050612e0a9190612e0e565b5090565b612e3091905b80821115612e2c576000816000905550600101612e14565b5090565b9056fea165627a7a7230582063a8d048feb58333676736cd5b82404bd01df6a666902b57da7addf55922057c0029",
  "source": "pragma solidity ^0.5.0;\nimport { UserIdentity } from './UserIdentity.sol';\nimport '../event/EmitsEvent.sol';\n\n// This contract provides us a way to store users profile\n// and update them based on the permissions declared.\n// 1. dApp Owner (who is also an admin) can create and update admin and shop owner profile\n// 2. dApp Admin can create shop owner profile\n// 3. dApp Admin can update both self and shop owner profile\n// 4. dApp shopOwner can only update their own profile\n\ncontract UserProfileManager is UserIdentity, EmitsEvent {\n\n  enum UserType { Owner, Admin, ShopOwner }\n\n  struct Profile {\n    address addr;\n    bool active;\n    string firstName;\n    string lastName;\n    UserType userType;\n  }\n\n  mapping(address => Profile) profile;\n\n  modifier ownsAdminProfile(address user) {\n    // require that the profile is owned by either the admin or app owner is the caller\n    require((msg.sender == profile[user].addr || msg.sender == owner),\n            \"You don't own this profile and cannot update it.\"); _;\n  }\n\n  modifier ownsShopOwnerProfile(address user) {\n    // require that the profile is owned by either shop owner or admin is the caller\n    require(msg.sender == profile[user].addr || admin[msg.sender],\n            \"You don't own this profile and cannot update it.\"); _;\n  }\n\n  constructor() public {\n    // set my profile as the owner\n    profile[msg.sender] = Profile(msg.sender, true, \"Caleb\", \"Lucas\", UserType.Owner);\n  }\n\n  /**\n   * @dev Set new user profile based on user type\n   * @param uType can be any of 0, 1 or 2\n   */\n  function addNewProfile(address user, uint8 uType,\n                string memory firstName, string memory lastName) public\n  {\n    // set address so that modififer can be aware\n    if (uType == uint8(UserType.Admin)) {\n      setAdminAddress(user);\n    }\n    else if (uType == uint8(UserType.ShopOwner)) {\n      setShopOwnerAddress(user);\n    }\n\n    // now add profile\n    addProfile(user, uType, firstName, lastName);\n  }\n\n  /**\n   * @dev Set user profile based on user type\n   * @param user - do not rely on msg.sender because of function versatility\n   * @param uType can be any of 0, 1 or 2\n   */\n  function addProfile(address user, uint8 uType,\n                string memory firstName, string memory lastName) public\n  {\n    // set admin profile\n    if (uType == uint8(UserType.Admin)) {\n      addAdminProfile(user, firstName, lastName);\n    }\n    // set shop owner profile\n    else if (uType == uint8(UserType.ShopOwner)) {\n      addShopOwnerProfile(user, firstName, lastName);\n    // emit success event\n    emitActionSuccess(\"Profile added succesfully\");\n    }\n  }\n\n  /**\n   * @dev Update user profile based on user type\n   * @param user - do not rely on msg.sender because of function versatility\n   * @param uType can be any of 0, 1 or 2\n   */\n  function updateProfile(address user, uint8 uType,\n                string memory firstName, string memory lastName) public\n  {\n    // set owner profile\n    if(uType == uint8(UserType.Owner)) {\n      setOwnerProfile(user, firstName, lastName);\n    }\n    // set admin profile\n    else if (uType == uint8(UserType.Admin)) {\n      setAdminProfile(user, firstName, lastName);\n    }\n    // set shop owner profile\n    else if (uType == uint8(UserType.ShopOwner)) {\n      setShopOwnerProfile(user, firstName, lastName);\n    }\n  }\n\n  /**\n   * @dev Create owner profile\n   */\n  function setOwnerProfile(address user, string memory firstName,\n                            string memory lastName) private isOwner\n  {\n    // set profile\n    profile[user] = Profile(user, true, firstName, lastName, UserType.Owner);\n    // emit success event\n    emitActionSuccess(\"Owner profile created successfully\");\n  }\n\n  /**\n   * @dev Create admin profile\n   */\n  function addAdminProfile(address user, string memory firstName,\n                            string memory lastName) private isOwner\n  {\n    // set profile\n    profile[user] = Profile(user, true, firstName, lastName, UserType.Admin);\n  }\n\n  /**\n   * @dev Create shop owner profile\n   */\n  function addShopOwnerProfile(address user, string memory firstName,\n                            string memory lastName) private isAdmin\n  {\n    // set profile\n    profile[user] = Profile(user, true, firstName, lastName, UserType.ShopOwner);\n    // emit success event\n    emitActionSuccess(\"Shop owner profile created succesfully\");\n  }\n\n  /**\n   * @dev Set admin profile\n   */\n  function setAdminProfile(address user, string memory firstName,\n                            string memory lastName) private ownsAdminProfile(user)\n  {\n    // set profile\n    profile[user] = Profile(user, true, firstName, lastName, UserType.Admin);\n    // emit success event\n    emitActionSuccess(\"Admin profile updated succesfully\");\n  }\n\n  /**\n   * @dev Set shop owner profile\n   */\n  function setShopOwnerProfile(address user, string memory firstName,\n                            string memory lastName) private ownsShopOwnerProfile(user)\n  {\n    // set profile\n    profile[user] = Profile(user, true, firstName, lastName, UserType.ShopOwner);\n    // emit success event\n    emitActionSuccess(\"Shop owner profile updated succesfully\");\n  }\n\n  function activateAdmin(address user) public isOwner\n  {\n    profile[user].active = true;\n  }\n\n  function deActivateAdmin(address user) public isOwner\n  {\n    profile[user].active = false;\n  }\n\n  function activateShopOwner(address user) public isAdmin\n  {\n    profile[user].active = true;\n  }\n\n  function deActivateShopOwner(address user) public isAdmin\n  {\n    profile[user].active = false;\n  }\n\n  /**\n   * @dev Get user profile\n   */\n  function getUserProfile(address user) public view returns(address addr, bool active,\n          string memory firstName, string memory lastName, UserType userType)\n  {\n    Profile memory p = profile[user];\n    return (p.addr, p.active, p.firstName, p.lastName, p.userType);\n  }\n\n\n  /**\n   * @dev Get all users profiles\n   */\n  function getUsers (address[] memory users) private view returns(address[] memory, bool[] memory,\n          bytes32[] memory, bytes32[] memory, uint8[] memory)\n  {\n    address[] memory addrs = new address[] (users.length);\n    bool[] memory actives = new bool[] (users.length);\n    bytes32[] memory firstNames = new bytes32[] (users.length);\n    bytes32[] memory lastNames = new bytes32[] (users.length);\n    uint8[] memory userTypes = new uint8[] (users.length);\n    for(uint i = 0; i < users.length; i++) {\n      // get profile of this particular admin\n      Profile memory p = profile[users[i]];\n      addrs[i] = p.addr;\n      actives[i] = p.active;\n      string memory fiName = p.firstName;\n      string memory laName = p.lastName;\n      bytes32 fName;\n      bytes32 lName;\n      // convert string to bytes32\n      assembly {\n        fName := mload(add(fiName, 32))\n        lName := mload(add(laName, 32))\n      }\n      // store strings\n      firstNames[i] = fName;\n      lastNames[i] = lName;\n      userTypes[i] = uint8(p.userType);\n    }\n    return (addrs, actives, firstNames, lastNames, userTypes);\n  }\n\n  /**\n   * @dev Get all admins profiles\n   */\n  function getAdminsProfiles() public view returns(address[] memory, bool[] memory, \n          bytes32[] memory, bytes32[] memory, uint8[] memory)\n  {\n    return getUsers(admins);\n  }\n\n  /**\n   * @dev Get all shopowners profiles\n   */\n  function getShopOwnersProfiles() public view returns(address[] memory, bool[] memory,\n          bytes32[] memory, bytes32[] memory, uint8[] memory)\n  {\n    return getUsers(shop_owners);\n  }\n\n}\n",
  "sourcePath": "/home/cmdlucas/blockchain-dev/consensys-project/online-marketplace-dapp/contracts/user/UserProfileManager.sol",
  "compiler": {
    "name": "solc",
    "version": "0.5.0+commit.1d4f565a.Emscripten.clang"
  },
  "schemaVersion": "3.0.9",
  "updatedAt": "2019-06-30T07:43:08.417Z",
  "devdoc": {
    "methods": {
      "addNewProfile(address,uint8,string,string)": {
        "details": "Set new user profile based on user type",
        "params": {
          "uType": "can be any of 0, 1 or 2"
        }
      },
      "addProfile(address,uint8,string,string)": {
        "details": "Set user profile based on user type",
        "params": {
          "uType": "can be any of 0, 1 or 2",
          "user": "- do not rely on msg.sender because of function versatility"
        }
      },
      "getAdminsProfiles()": {
        "details": "Get all admins profiles"
      },
      "getShopOwnersProfiles()": {
        "details": "Get all shopowners profiles"
      },
      "getUserProfile(address)": {
        "details": "Get user profile"
      },
      "updateProfile(address,uint8,string,string)": {
        "details": "Update user profile based on user type",
        "params": {
          "uType": "can be any of 0, 1 or 2",
          "user": "- do not rely on msg.sender because of function versatility"
        }
      }
    }
  },
  "userdoc": {
    "methods": {}
  }
}